:1000000000000420190200000102000003020000A9
:1000100005020000070200000902000000000000C5
:100020000000000000000000000000000B020000C3
:100030000D020000000000000F020000110200008D
:100040001302000013020000D91A0000130200007E
:100050001302000013020000D11900001302000077
:10006000130200001302000013020000130200003C
:10007000130200001302000013020000130200002C
:10008000130200004D48000013020000130200009C
:10009000130200001302000013020000130200000C
:1000A00013020000130200001302000013020000FC
:1000B0001302000013020000000000000000000016
:1000C00013020000130200001302000013020000DC
:1000D00013020000130200001302000013020000CC
:1000E00013020000130200001302000000000000D1
:1000F00000000000130200000000000013020000D6
:1001000000000000000000000000000000000000EF
:1001100000000000000000000000000000000000DF
:1001200000000000000000000000000000000000CF
:1001300000000000000000000000000000000000BF
:1001400000000000000000000000000000000000AF
:10015000000000000000000000000000000000009F
:10016000000000000000000000000000000000008F
:10017000000000000000000000000000000000007F
:10018000000000000000000000000000000000006F
:10019000000000000000000000000000000000005F
:1001A000000000000000000000000000000000004F
:1001B000000000000000000000000000000000003F
:1001C000000000000000000000000000000000002F
:1001D000000000000000000000000000000000001F
:1001E000000000000000000000000000000000000F
:1001F00000000000000000000000000000000000FF
:10020000FEE7FEE7FEE7FEE7FEE7FEE7FEE7FEE7C6
:10021000FEE7FEE700F002B8FFF7FCBF0F484FF023
:100220000701884385460E4880470E48016841F41F
:1002300070010160BFF34F8FBFF36F8F00F01AB8EA
:1002400009480A490A4A884207D0521A05D0037859
:1002500001300B700131013AF9D1704700000420E0
:10026000C911000088ED00E0547B00000000002070
:1002700000000020344935480A1A02D00722914371
:100280008D46334933480A1A06D00722914381F339
:100290000988022282F314882F483049304A00F03E
:1002A00041F830483049314A00F03CF83048314993
:1002B000314A00F037F831483149324A00F032F81B
:1002C00031483249324A00F02DF832483249334A37
:1002D00000F028F832483349334A00F023F8334815
:1002E0003349002200F029F832483349002200F057
:1002F00024F832483249091A07F0F0FB314A904796
:100300001F482049884205D00268043003B4904752
:1003100003BCF7E700208646EC46002000212A4A6D
:100320009047FEE7884207D0521A05D00378013083
:100330000B700131013AF9D17047884202D0027046
:100340000130FAE7704700000000042000E00320BD
:100350000000042000000420EC90000000000020B9
:10036000C4000020CC030000CC030000F07A0000A1
:10037000EC9000000000002000000020547B0000F2
:10038000547B0000547B0000547B0000547B000031
:10039000547B0000547B0000547B0000EC90000074
:1003A000B0910000C4000020C4000020C400002060
:1003B000CC0A0020CC0A0020CC0A0020CC0A002065
:0C03C000CC2A002041020000C104000013
:1003CC0000B583B0224B0022C3F80021204B012240
:1003DC001A6000BF1E4BD3F80031002BFAD01C4B17
:1003EC000022C3F80C211A4B01229A6000BF184B53
:1003FC00D3F80C31002BFAD0082000F0EBFC019064
:10040C00144A154BD31ADB081B0443F0030313499E
:10041C00184606F021F8019B0093009B002B04D09A
:10042C000F4A5C21009803F07FF9094B0022C3F8B6
:10043C001021074B01221A6100BF054BD3F8103174
:10044C00002BFAD000BF00BF03B05DF804FB00BF67
:10045C0000100040107B0000F07A0000547B00007C
:10046C00687B00004FF080430022C3F800214FF05E
:10047C00804301221A6000BF4FF08043D3F8003153
:10048C00002BF9D04FF080430122C3F818254FF010
:10049C0080430022C3F804214FF0804301229A606C
:1004AC0000BF4FF08043D3F80431002BF9D000BFCC
:1004BC0000BF704700B587B000230593FFF7D2FF4C
:1004CC0003F0A6FC0590059B0493049B002B04D021
:1004DC00364AB321049803F027F94FF480410020E9
:1004EC0005F0ECFC0590059B0393039B002B04D0BB
:1004FC002E4AB621039803F017F905F075FC059BFD
:10050C000293029B002B04D0284ABB21029803F0D3
:10051C000BF903F035F8264B264AC3F804251220B4
:10052C0000F058FC0590244A244BD31ADB081B041A
:10053C0043F003032249184605F08EFF1E4A1F4B59
:10054C00D31ADB081B0443F003031E49184605F0BD
:10055C0083FF059B0193019B002B04D0134AC721F9
:10056C00019803F0E1F8134B1B68002B17D0FFF731
:10057C0027FF104B1B681946134806F0BAFF0E4AAA
:10058C000E4BD31ADB081B0443F00303094A126811
:10059C000D49184605F06EFF064B00221A6005F057
:1005AC00B7FF0346002BFAD120BFDCE7687B0000C5
:1005BC0000100040C4000020107B0000F07A000006
:1005CC00007C0000247C0000387C000000B583B067
:1005DC000190019B1B68184600F0ABF80346002BFA
:1005EC0004D10B494FF4F67004F038F9019B1B68E9
:1005FC001F2B02D84FF0A04306E0019B1B6803F0B1
:10060C001F02019B1A60034B184603B05DF804FBF4
:10061C005C7C00000003005000B585B0019001AB7C
:10062C001846FFF7D3FF0390019B012202FA03F354
:10063C001946039800F069F800BF05B05DF804FB9B
:10064C0000B585B0019001AB1846FFF7BFFF0390D2
:10065C00019B012202FA03F31946039800F05FF89C
:10066C0000BF05B05DF804FB00B585B0019001AB8F
:10067C001846FFF7ABFF0390039BD3F804350293A6
:10068C00029BDA43019B012101FA03F31A40039BFD
:10069C00C3F80825019B01229A40029B1A40039B38
:1006AC00C3F80C2500BF05B05DF804FB00B583B0A2
:1006BC0001900091009B002B03D10198FFF7C0FF24
:1006CC0002E00198FFF7A8FF00BF03B05DF804FB40
:1006DC0000B585B0019001AB1846FFF777FF03908A
:1006EC00039800F00AF80246019B22FA03F303F088
:1006FC000103184605B05DF804FB82B00190019B24
:10070C00D3F80435184602B0704782B001900091BE
:10071C00019B009AC3F8082500BF02B0704782B055
:10072C0001900091019B009AC3F80C2500BF02B008
:10073C00704784B00190019B5B09029300230393E3
:10074C00029B002B03D0029B012B04D007E04FF03F
:10075C00FF33039303E04FF6FF73039300BF019B3A
:10076C0003F01F030193039A019B22FA03F303F096
:10077C000103002B14BF01230023DBB2184604B085
:10078C007047000000B585B00190019B032B03D985
:10079C0011493A2004F062F8104A019B13441B786B
:1007AC001846FFF795FF0346002B14BF01230023C7
:1007BC008DF80F309DF80F30002B14BF0123002350
:1007CC00DBB283F00103DBB203F00103DBB21846AA
:1007DC0005B05DF804FB00BF907C0000047D0000B8
:1007EC0000B583B00190019B032B03D9074941202D
:1007FC0004F034F8064A019B13441B780021184678
:10080C00FFF754FF00BF03B05DF804FB907C0000C1
:10081C00047D000000B583B00190019B032B03D92C
:10082C000749472004F01AF8064A019B13441B7829
:10083C0001211846FFF73AFF00BF03B05DF804FB37
:10084C00907C0000047D000000B583B00023019370
:10085C0005E00198FFF7DEFF019B01330193019B3B
:10086C00032BF6D900BF00BF03B05DF804FB00B545
:10087C0083B00023019305E00198FFF7B1FF019BC2
:10088C0001330193019B032BF6D900BF00BF03B0CA
:10089C005DF804FB00B583B00190019B032B03D9D9
:1008AC0007495F2003F0DAFF064A019B13441B78CB
:1008BC001846FFF7D9FE00BF03B05DF804FB00BF7C
:1008CC00907C0000047D000000B583B00C4B1B78BD
:1008DC00002B0FD00023019308E0019B022B02D0C8
:1008EC000198FFF797FF019B01330193019B032BA9
:1008FC00F3D901E0FFF7A8FF00BF03B05DF804FBDC
:10090C00D00000202DE9D04F92B003468DF83F3037
:10091C000023119300231093CC4B1B78002B04D095
:10092C00CA4A00231370FFF7CFFF9DF83F30172BF7
:10093C0000F23F8201A252F823F000BFA909000087
:10094C00C1090000C10900005D0A0000F90A00009D
:10095C00750B0000090C0000290C0000390C00007C
:10096C00650C0000830C0000A10C0000BF0C000003
:10097C00CD0C0000CD0C0000CD0C0000CD0C000007
:10098C00CD0C0000610D00006F0D0000830D000008
:10099C00970D0000B10D0000B10D0000FFF794FFA2
:1009AC00AB4B184603F0C2FA1190AA4A9DF83F309F
:1009BC001370FFE10020FFF7E5FE0346002B0DD07E
:1009CC000020FFF727FF9DF83F30022B02D14FF498
:1009DC00E16301E04FF47A6310930BE00020FFF722
:1009EC00FFFE9DF83F30022B01D1C82301E04FF4EC
:1009FC00C8731093974A9DF83F301370944C109B1A
:100A0C000022009301924FF000024FF00003DDE949
:100A1C0000673946CB03314643EA51433146CA039A
:100A2C0012F57A71029143F1000303934FF4FA62C9
:100A3C004FF00003DDE9020106F0DEFA02460B4638
:100A4C00134600221946204603F020FA1190B1E11A
:100A5C000020FFF797FE0346002B0DD00020FFF778
:100A6C00D9FE9DF83F30032B02D14FF4487301E0BF
:100A7C004FF47A6310930BE00020FFF7B1FE9DF862
:100A8C003F30032B01D1C82301E04FF4C8731093FE
:100A9C00704A9DF83F3013706D4C109B00220493EC
:100AAC0005924FF000024FF00003DDE90467394670
:100ABC00CB03314643EA51433146CA0312F57A71EE
:100ACC00069143F1000307934FF4FA624FF00003D1
:100ADC00DDE9060106F090FA02460B4613460022A9
:100AEC001946204603F0D2F9119063E10020FFF77C
:100AFC0049FE0346002B06D00020FFF78BFE4FF477
:100B0C007A63109305E00020FFF76AFE4FF4C87378
:100B1C001093504A9DF83F3013704D4C109B00229F
:100B2C009A4693464FF000024FF000034FEACB3346
:100B3C0043EA5A434FEACA3212F57A71089143F1EB
:100B4C00000309934FF4FA624FF00003DDE908014A
:100B5C0006F052FA02460B4613460022194620466E
:100B6C0003F094F9119025E10020FFF70BFE0346EA
:100B7C00002B0CD00020FFF74DFE9DF83F30052BCD
:100B8C0001D1C82301E04FF47A6310930BE00020ED
:100B9C00FFF726FE9DF83F30052B01D1C82301E05D
:100BAC004FF4C87310932B4A9DF83F301370284CA8
:100BBC00109B0022984691464FF000024FF0000324
:100BCC004FEAC93343EA58434FEAC83212F57A71F7
:100BDC000A9143F100030B934FF4FA624FF00003B8
:100BEC00DDE90A0106F008FA02460B46134600221C
:100BFC001946204603F04AF91190DBE00020FFF77C
:100C0C0049FE144A9DF83F301370114B002240F2FC
:100C1C006661184603F03AF91190CBE00020FFF71B
:100C2C00DFFD0C4A9DF83F301370C3E0074B0122E7
:100C3C001A700120FFF72EFE054B002240F2666170
:100C4C00184603F023F91190B4E000BFC90000204E
:100C5C0000000020C8000020594B01221A7001200E
:100C6C00FFF718FE574B00224FF40051184603F0C3
:100C7C000DF911909EE0524B01221A700120FFF7E2
:100C8C0009FE504B002240F26661184603F0FEF854
:100C9C0011908FE04A4B01221A700120FFF7FAFDE8
:100CAC00484B00224FF40051184603F0EFF8119016
:100CBC0080E0FFF7DCFD444A9DF83F30137079E08B
:100CCC00424B184603F032F911909DF83F30C3F1B6
:100CDC0011031093109B002B35D0119B002B32D19C
:100CEC00109B012B28D9394C109B9BB21A46C82358
:100CFC0002FB03F3DA171E4617464FF000024FF0C3
:100D0C000003FB0343EA5643F20312F57A710C918C
:100D1C0043F100030D934FF4FA624FF00003DDE949
:100D2C000C0106F069F902460B46134600221946DF
:100D3C00204603F0ABF811900220FFF751FD244B35
:100D4C0001221A7036E00220FFF764FD204B0022CE
:100D5C001A702FE0FFF7B8FD1B4A9DF83F30137057
:100D6C0028E0FFF7B1FD0020FFF73AFD164A9DF889
:100D7C003F3013701EE0FFF7A7FD0120FFF730FD99
:100D8C00114A9DF83F30137014E0FFF79DFD0020D1
:100D9C00FFF726FD0120FFF723FD0B4A9DF83F309E
:100DAC00137007E0FFF763FD074A9DF83F3013709F
:100DBC0000E000BF119B184612B0BDE8D08F00BFF9
:100DCC00C900002000000020C800002020000020E6
:100DDC00D000002000B585B003468DF80730002305
:100DEC000393084B1B6803F00103002B05D09DF8FF
:100DFC0007301846FFF786FD0390039B184605B095
:100E0C005DF804FBCC000020BFF34F8F00BF064BF6
:100E1C00DB6803F4E0620449044B1343CB60BFF37B
:100E2C004F8F00BF00BFFDE700ED00E00400FA05A6
:100E3C0082B0164B1B680193154B1B680093019BEA
:100E4C00082B1FD1009B052B1AD801A252F823F0B6
:100E5C00750E0000790E00007D0E0000810E000062
:100E6C00850E0000890E000001230CE001230AE02E
:100E7C00012308E0012306E0012304E0012302E042
:100E8C00012300E00023184602B070473001001027
:100E9C003401001082B0164B1B680193154B1B6874
:100EAC000093019B082B1FD1009B052B1AD801A284
:100EBC0052F823F0D90E0000DD0E0000E10E000008
:100ECC00E50E0000E90E0000ED0E000001230CE021
:100EDC0001230AE0012308E0012306E0012304E0DA
:100EEC00012302E0012300E00023184602B0704702
:100EFC00300100103401001082B0164B1B680193B6
:100F0C00154B1B680093019B082B1FD1009B052BD5
:100F1C001AD801A252F823F03D0F0000410F000037
:100F2C00450F0000490F00004D0F0000510F00004D
:100F3C0001230CE000230AE0002308E0002306E074
:100F4C00002304E0002302E0002300E00023184605
:100F5C0002B07047300100103401001082B0164B03
:100F6C001B680193154B1B680093019B082B1FD129
:100F7C00009B052B1AD801A252F823F0A10F0000F8
:100F8C00A50F0000A90F0000AD0F0000B10F00006D
:100F9C00B50F000001230CE000230AE0002308E059
:100FAC00002306E0002304E0002302E0002300E01D
:100FBC000023184602B070473001001034010010B5
:100FCC0082B0164B1B680193154B1B680093019B59
:100FDC00082B1FD1009B052B1AD801A252F823F025
:100FEC0005100000091000000D1000001110000089
:100FFC00151000001910000001230CE000230AE07A
:10100C00002308E0002306E0002304E0002302E0B4
:10101C00002300E00023184602B070473001001096
:10102C003401001082B0164B1B680193154B1B68E2
:10103C000093019B082B1FD1009B052B1AD801A2F2
:10104C0052F823F0691000006D10000071100000C0
:10105C0075100000791000007D10000001230CE0D9
:10106C0000230AE0002308E0002306E0002304E04C
:10107C00002302E0002300E00023184602B0704772
:10108C00300100103401001082B0164B1B68019324
:10109C00154B1B680093019B082B1FD1009B052B44
:1010AC001AD801A252F823F0CD100000D110000084
:1010BC00D5100000D9100000DD100000E110000078
:1010CC0001230CE001230AE0012308E0012306E0E0
:1010DC00012304E0012302E0012300E00023184671
:1010EC0002B07047300100103401001082B0164B72
:1010FC001B680193154B1B680093019B082B1FD198
:10110C00009B052B1AD801A252F823F031110000D4
:10111C0035110000391100003D1100004111000093
:10112C004511000000230CE000230AE0002308E036
:10113C00002306E0012304E0012302E0012300E088
:10114C000023184602B07047300100103401001023
:10115C0008B5FFF7CBFF0346002B07D04FF0102349
:10116C004FF08042D3F80832C2F8583500BF08BDA2
:10117C0000BF044BD3F80034002BFAD000BF00BFE3
:10118C00704700BF00E0014000B583B00190054AF4
:10119C00019BC2F80435FFF7EBFF00BF03B05DF80D
:1011AC0004FB00BF00E00140024B034A1A6000BF81
:1011BC00704700BF400000200090D00308B5FFF737
:1011CC0037FE0346002B0ED04FF080430022C3F8AD
:1011DC000C214FF080430022C3F810214FF08043C4
:1011EC000022C3F83825FFF755FE0346002B76D0B6
:1011FC004FF08053734AD3F80434C2F820354FF0C3
:10120C008053704AD3F80834C2F824354FF0805319
:10121C006C4AD3F80C34C2F828354FF08053694A25
:10122C00D3F81034C2F82C354FF08053654AD3F8FC
:10123C001434C2F830354FF08053624AD3F8183466
:10124C00C2F834354FF080535E4AD3F81C34C2F8E0
:10125C0040354FF080535B4AD3F82034C2F8443504
:10126C004FF08053574AD3F82434C2F848354FF026
:10127C008053544AD3F82834C2F84C354FF080537D
:10128C00504AD3F82C34C2F850354FF080534D4AA5
:10129C00D3F83034C2F854354FF08053494AD3F860
:1012AC003434C2F860354FF08053464AD3F83834A2
:1012BC00C2F864354FF08053424AD3F83C34C2F83C
:1012CC0068354FF080533F4AD3F84034C2F86C3540
:1012DC004FF080533B4AD3F84434C2F87035FFF7D3
:1012EC000BFE0346002B02D0374B384A1A60FFF72F
:1012FC0035FE0346002B03D0354BFB22C3F81825D3
:10130C00FFF75EFE0346002B0AD0324B1B6823F01E
:10131C000F02314B1B6803F00F032E4913430B6074
:10132C00FFF780FE0346002B03D02C4B4FF40072CA
:10133C001A60FFF7A9FE0346002B0DD04FF0804337
:10134C00D3F8003403F00103002B05D04FF0804399
:10135C006FF00102C3F80024214BD3F88830204AE7
:10136C0043F47003C2F88830BFF34F8F00BFBFF354
:10137C006F8F00BFFFF7ECFE4FF01023D3F8003255
:10138C00002B05DB4FF01023D3F80432002B15DAB9
:10139C000120FFF7F9FE4FF010231222C3F80022B0
:1013AC00FFF7E6FE4FF010231222C3F80422FFF7DA
:1013BC00DFFE0020FFF7E8FEFFF726FDFFF7F4FE47
:1013CC0000BF08BD00C000408C560040488103009F
:1013DC0000F00040E40E004058020010409602401D
:1013EC0000ED00E000B589B001900091009B0793DF
:1013FC00019B1B788DF80C30019B5B680493019B5F
:10140C009B68DBB28DF81430019BDB680693074AAE
:10141C00079B52F823300649079A51F8221003AA69
:10142C001046984700BF09B05DF804FBD4000020BB
:10143C00DC00002000B589B001900091009B07935F
:10144C00019B1B788DF80C30019B5B680493019B0E
:10145C009B68DBB28DF81430019BDB680693074A5E
:10146C00079B52F823300649079A51F8221003AA19
:10147C001046984700BF09B05DF804FBD40000206B
:10148C00DC00002030B58FB0039002910192039BD9
:10149C001B780C932C490C9B019A41F82320029B3E
:1014AC001A692A490C9B41F823200C9B012B07D16C
:1014BC00029B5B7F002B03D12549762003F0CEF9EC
:1014CC00029B5B7F1946234A0C9B13440A461A70F5
:1014DC00029B04AC1D460FCD0FC495E80F0084E8A9
:1014EC000F000C9B089300230D93039B1B781A464B
:1014FC00184B9B5C002B0DD0039B181D019B002BE4
:10150C0001D0154A00E0002204AB194601F050FD51
:10151C000D9014E0039B1B781A460E4B9B5C002B22
:10152C000DD1039B03F10C00019B002B01D00B4A46
:10153C0000E0002204AB194600F0BEFE0D900D9B9E
:10154C0018460FB030BD00BFD4000020DC000020D6
:10155C00087D0000E4000020F1130000411400009D
:10156C0000B583B00346ADF80630BDF8063018461A
:10157C0000F026F803461B68012B0CBF0123002347
:10158C00DBB2184603B05DF804FB00B585B003462A
:10159C00ADF80630BDF80630184600F011F80346D9
:1015AC001A4600231360BDF80630184600F008F800
:1015BC0003461B680393039B00BF05B05DF804FB57
:1015CC0082B00346ADF80630BDF8063003F1804317
:1015DC0003F5C043184602B07047000082B001907A
:1015EC00034BD3F80423019B1340184602B07047F9
:1015FC000060004082B00190054A019B03F5A27384
:10160C0052F823301B0A03F03F03184602B0704710
:10161C000060004082B00190064A019B03F5A27362
:10162C0052F823301B0C03F00303DBB2184602B054
:10163C00704700BF0060004000B583B00190019B73
:10164C001B68184600F0AAF80346002B04D10B497E
:10165C004FF4F67003F002F9019B1B681F2B02D8A4
:10166C004FF0A04306E0019B1B6803F01F02019B97
:10167C001A60034B184603B05DF804FBBC7D0000F8
:10168C000003005000B585B001900B468DF8033077
:10169C0001AB1846FFF7D0FF0390019A039B02F5AC
:1016AC00E07253F82230019A23F44031039B02F587
:1016BC00E07243F82210019A039B02F5E07253F892
:1016CC0022309DF8032012041146019A1943039B02
:1016DC0002F5E07243F8221000BF05B05DF804FB80
:1016EC0000B585B0019001AB1846FFF7A5FF03903C
:1016FC00019A039B02F5E07253F822301B0C03F0A5
:10170C000303DBB2184605B05DF804FB88B0039008
:10171C0002910192164A05AB92E8030083E803009C
:10172C00039B079319E0079B9B0020336B4453F8F2
:10173C000C3CD3F82025019B1A60079B9B0020339F
:10174C006B4453F80C3C019A1268C3F82025019B9A
:10175C0004330193079B01330793039A029B1344B1
:10176C00079A9A42DFD300BF00BF08B0704700BF92
:10177C00F07D000000B585B0019001AB1846FFF775
:10178C005BFF0390019B012202FA03F31A46039BB1
:10179C00C3F8202500BF05B05DF804FB84B00190B0
:1017AC00019B5B09029300230393029B002B03D044
:1017BC00029B012B04D007E04FF0FF33039303E0AF
:1017CC004FF6FF73039300BF019B03F01F030193BC
:1017DC00039A019B22FA03F303F00103002B14BFBD
:1017EC0001230023DBB2184604B0704784B001908B
:1017FC000091009B0393019BDB080293019B03F078
:10180C00070301930122019B02FA03F30399029A45
:10181C000A4412781340184604B0704782B0019005
:10182C00044A019B1344303393F90030184602B03C
:10183C00704700BFE800002082B00190034A019B72
:10184C0052F82330184602B0704700BFE800002061
:10185C0084B00190074A019B1344603393F9003024
:10186C008DF80F309DF80F3023F0C003184604B0EC
:10187C00704700BFE800002084B00190074A019B2C
:10188C001344603393F900308DF80F309DF80F300E
:10189C009B09DBB2184604B0704700BFE80000207B
:1018AC0000B585B00190019A02210020FFF72EFFB0
:1018BC00002303930BE0039B9B00019A13441B68CA
:1018CC00002B01D0012306E0039B01330393039B00
:1018DC00012BF0D90023184605B05DF804FB00007D
:1018EC0000B587B00190002305935BE0344A059B5B
:1018FC001344603393F90030B3F1FF3F4ED0059899
:10190C00FFF7A6FF049001990498FFF76FFF0346B9
:10191C00002B44D00598FFF7AFFF03468DF80F302E
:10192C000498FFF7DDFE03468DF80E309DF80E305F
:10193C00022B01D1032300E002238DF80D309DF81A
:10194C000D3019460498FFF79DFE0498FFF712FF1F
:10195C000498FFF763FF03461846FFF76DFF0290EC
:10196C00029B002B1BD09DF80F30032B0FD09DF842
:10197C000E30022B03D19DF80F30012B07D09DF8B0
:10198C000E30032B0BD19DF80F30022B07D19DF895
:10199C000F20029B11460498984700E000BF059B5E
:1019AC0001330593059B032BA0D90198FFF778FF12
:1019BC000346002B97D100BF00BF07B05DF804FBB6
:1019CC00E800002000B58BB00023089301AB002287
:1019DC001A605A604FF48073ADF81A3001230993E2
:1019EC000023079321E0BDF81A301846FFF7B8FD25
:1019FC000346002B0ED00998FFF7F0FD0346002B91
:101A0C0008D0BDF81A301846FFF7BFFD089A099B9D
:101A1C0013430893099B5B000993BDF81A300433F8
:101A2C00ADF81A30079B01330793079B072BDAD9C4
:101A3C004FF4BE70FFF794FD0346002B0DD04FF40E
:101A4C00BE70FFF7A2FD089B43F00043089301AB67
:101A5C001A4602210020FFF759FE089BDBB2002B2F
:101A6C0029D0012309930023079321E0099A089BAD
:101A7C001340002B16D00798FFF7BCFD0590079874
:101A8C00FFF7C8FD03468DF813300798FFF7D4FE17
:101A9C000390039B002B05D09DF81320039B11464C
:101AAC0005989847099B5B000993079B01330793A3
:101ABC00079B072BDAD9089B002B03DA01AB1846DE
:101ACC00FFF70EFF00BF0BB05DF804FB08B5064B2B
:101ADC001B68002B03D10549512002F0BFFE024BBD
:101AEC001B68984708BD00BF54010020847E00008D
:101AFC0082B00190019B044A934201D1034B00E058
:101B0C000023184602B0704700200040540100200A
:101B1C0000B587B001900091019B002B03D11849AF
:101B2C00772002F09BFE0198FFF7E2FF0590059BE2
:101B3C00002B1ED000238DF81330002002F066FA23
:101B4C00059B1B79002B03D001238DF8133005E086
:101B5C00059B009A1A60059B01221A71002002F065
:101B6C0069FA9DF81330002B03D011230393039BC8
:101B7C0002E000230393039B184607B05DF804FBB7
:101B8C00847E000000B585B00190019B002B03D131
:101B9C000A499B2002F062FE0198FFF7A9FF03900F
:101BAC00039B002B05D0039B00221A60039B002291
:101BBC001A7100BF05B05DF804FB00BF847E000005
:101BCC0082B003468DF807309DF90730002B0CDBF3
:101BDC009DF8073003F01F0205499DF907305B099A
:101BEC00012000FA02F241F8232000BF02B0704736
:101BFC0000E100E082B003468DF807309DF9073014
:101C0C00002B13DB9DF8073003F01F0209499DF9E7
:101C1C0007305B09012000FA02F2203341F823203F
:101C2C00BFF34F8F00BFBFF36F8F00BF00BF02B079
:101C3C00704700BF00E100E082B0034600918DF8D0
:101C4C0007309DF90730002B0ADB009BDAB20C49F8
:101C5C009DF907305201D2B20B4483F800230BE0FC
:101C6C00009BDAB207499DF8073003F00F03043BE1
:101C7C005201D2B20B441A7600BF02B0704700BFBB
:101C8C0000E100E000ED00E082B00190019B1B0B35
:101C9C005BB2184602B0704700B583B003460A46E3
:101CAC008DF8073013468DF806309DF80630072B5B
:101CBC0003D908496B2002F0D1FD9DF806209DF94F
:101CCC00073011461846FFF7B7FF00BF03B05DF8A9
:101CDC0004FB00BF047F000000B583B003468DF801
:101CEC0007309DF907301846FFF76AFF00BF03B0B5
:101CFC005DF804FB00B583B003468DF807309DF901
:101D0C0007301846FFF776FF00BF03B05DF804FB01
:101D1C0084B001900B46ADF80230BDF80230019A48
:101D2C00134400221A60BDF80230019A13441B6858
:101D3C000393039B00BF04B0704782B001900B4625
:101D4C00ADF80230BDF80230019A13441B68002B29
:101D5C0014BF01230023DBB2184602B0704782B0D7
:101D6C0001900091019B009AC3F8042300BF02B0BC
:101D7C00704782B001900091019BD3F80423009B23
:101D8C001340002B14BF01230023DBB2184602B012
:101D9C00704782B001900091019B009AC3F8082310
:101DAC0000BF02B0704784B00190019BD3F880341F
:101DBC000393019B039AC3F88024039B184604B039
:101DCC00704782B00190019B0422C3F8002500BF2C
:101DDC0002B0704782B00190019B0022C3F800252D
:101DEC0000BF02B0704784B0039002910192039B34
:101DFC00019AC3F81425039B029AC3F80C2500BF63
:101E0C0004B0704700B583B001904FF0FF324FF033
:101E1C00FF310198FFF7E7FF00BF03B05DF804FB4B
:101E2C0082B00190019BD3F80C35184602B0704774
:101E3C0082B00190019BD3F81435184602B070475C
:101E4C0082B00190019BD3F80835184602B0704758
:101E5C0082B00190019BD3F81035184602B0704740
:101E6C0084B0039002910192039B029AC3F8082557
:101E7C00039B019AC3F8102500BF04B0704700B54E
:101E8C0083B001904FF0FF324FF0FF310198FFF714
:101E9C00E7FF00BF03B05DF804FB82B00190019B2B
:101EAC00D3F81835DBB2184602B0704782B00190F7
:101EBC000B468DF803309DF80320019BC3F81C25BD
:101ECC0000BF02B0704782B001900B468DF8033012
:101EDC009DF80330019A134401221A6000BF02B02E
:101EEC00704782B001900B468DF8033013468DF885
:101EFC0002309DF803209DF802301343DBB21A46E2
:101F0C00019BC3F86C2500BF02B0704782B00190F2
:101F1C000091019B009AC3F8242500BF02B07047C2
:101F2C0000B583B00190019B1B68184600F0A4F823
:101F3C000346002B04D10B494FF4F67002F08EFCD3
:101F4C00019B1B681F2B02D84FF0A04306E0019B9E
:101F5C001B6803F01F02019B1A60034B184603B069
:101F6C005DF804FB387F00000003005000B585B01D
:101F7C000190084611461A4603468DF803300B466D
:101F8C008DF8023013468DF8013001AB1846FFF77F
:101F9C00C7FF03909DF803209DF802305B001A43A5
:101FAC009DF801309B001A439DF818301B0242EA41
:101FBC0003019DF81C301B04019A1943039B02F585
:101FCC00E07243F8221000BF05B05DF804FB00B5C9
:101FDC0085B003900023019300230093002301227A
:101FEC0001210398FFF7C2FF00BF05B05DF804FBA9
:101FFC0000B585B003900B468DF80B309DF80B3077
:10200C000022019200220092002200210398FFF787
:10201C00ADFF00BF05B05DF804FB00B585B00390C3
:10202C000023019300230093002301220021039835
:10203C00FFF79CFF00BF05B05DF804FB00B585B051
:10204C00019001AB1846FFF76BFF0390019B012237
:10205C0002FA03F31946039800F004F800BF05B028
:10206C005DF804FB82B001900091019B009AC3F8CB
:10207C00082500BF02B0704784B00190019B5B093A
:10208C00029300230393029B002B03D0029B012B92
:10209C0004D007E04FF0FF33039303E04FF6FF73D8
:1020AC00039300BF019B03F01F030193039A019B51
:1020BC0022FA03F303F00103002B14BF01230023C6
:1020CC00DBB2184604B0704700B583B001900091A4
:1020DC00009B1B68B3F1FF3F09D0009B1B6818469F
:1020EC00FFF7ACFF009B1B681846FFF770FF009BC7
:1020FC005B68B3F1FF3F05D0009B5B68002118467D
:10210C00FFF776FF019B1A68009B9B6919461046E6
:10211C00FFF7FCFE019B1868009B597D009B1B7D03
:10212C001A46FFF7DEFE019B1868009B1968009B9E
:10213C005B681A46FFF757FE009B1B7D012B22D1D3
:10214C00009B9B68B3F1FF3F05D0009B9B6800216F
:10215C001846FFF74DFF009BDB68B3F1FF3F09D03A
:10216C00009BDB681846FFF769FF009BDB6818468D
:10217C00FFF72DFF019B1868009BD968009B9B689B
:10218C001A46FFF76DFE00BF03B05DF804FB0000BC
:10219C0000B583B001900B468DF80330019B1B6892
:1021AC004FF48E711846FFF7B3FD019B1B684FF47B
:1021BC00A2711846FFF7ACFD019B1B680E4918462F
:1021CC00FFF7CDFD019B1B681846FFF75DFD03462D
:1021DC001A469DF8033019461046FFF75DFD019B2A
:1021EC001B681846FFF750FD03461846FFF774FDB1
:1021FC0000BF03B05DF804FB8000020000B583B0A3
:10220C000190019B1B6808491846FFF7C2FD019B12
:10221C001B681846FFF738FD03461846FFF76AFDA2
:10222C0000BF03B05DF804FB8402020000B587B068
:10223C000190019B1B681846FFF7F2FD0590019B6E
:10224C001B681846FFF7F4FD0490019B1B681846A9
:10225C00FFF7F6FD0390019B1B681846FFF7F8FD8E
:10226C000290019B1B681846FFF7CCFD019B1B6875
:10227C001846FFF704FE059BB3F1FF3F02D005980B
:10228C00FFF7CBFE049BB3F1FF3F02D00498FFF79E
:10229C00C4FE029BB3F1FF3F02D00298FFF7BDFED4
:1022AC00039BB3F1FF3F02D00398FFF7B6FE00BFCC
:1022BC0007B05DF804FB000000B587B003900291F5
:1022CC000192029B002B03D12D49AA2002F0C6FAE1
:1022DC00039B1B791A462C2302FB03F3294A134454
:1022EC00049300230593049B93F82A30002B03D00E
:1022FC0008230593059B3EE0039B1A68039B1B79FF
:10230C001946214B53F8213019461046FFF700FCB3
:10231C000346002B03D011230593059B2BE0029958
:10232C000398FFF7D1FE049B019A5A60029B1A692D
:10233C00049B1A60049B5B68002B05D0029B1B7FDF
:10234C0019460398FFF724FF039B1B681846FFF7F9
:10235C0038FD049B00229A61049B0022DA61049BE5
:10236C00002283F82920049B00225A61049B01223D
:10237C0083F82A20059B184607B05DF804FB00BFC4
:10238C00747F00005C010020F47F000000B585B074
:10239C000190019B1B791A462C2302FB03F3114A73
:1023AC0013440393019B1B681846FFF713FD039B13
:1023BC005B68002B02D00198FFF720FF0198FFF714
:1023CC0035FF019B1B681846FFF7DCFB039B0022C3
:1023DC0083F82A20039B00225A6000BF05B05DF8E9
:1023EC0004FB00BF5C01002000B585B0019000919A
:1023FC004FF48E710198FFF78BFC009B9A68009B41
:10240C001B6A13441B788DF80F30009B1B6A5A1CF7
:10241C00009B1A629DF80F3019460198FFF746FD94
:10242C0000BF05B05DF804FB00B585B001900091CC
:10243C00009B5B69039316E0009B93F82830DBB29A
:10244C00002B01D0002314E04FF48E710198FFF79C
:10245C0074FC034683F00103DBB2002BECD1009932
:10246C000198FFF7C1FF009B1B6A039A9A42EBD8B5
:10247C000123184605B05DF804FB000000B587B0D9
:10248C00039002910192039B1B791A462C2302FBA9
:10249C0003F33C4A13440493049B93F82A30012B16
:1024AC0004D039494FF48C7002F0D8F9029B002B00
:1024BC0004D1354940F2191002F0D0F9019B002BE0
:1024CC0004D131494FF48D7002F0C8F9039800F033
:1024DC005DF80346002B03D011230593059B4CE0BC
:1024EC00049B019A5A61049B029A9A60049B0022F5
:1024FC001A62049B002283F8282000230593039B77
:10250C001B684FF48E711846FFF702FC039B1B6887
:10251C0008211846FFF7D7FC039B1B680499184643
:10252C00FFF762FF049B5B68002B25D1039B1B68A4
:10253C0004991846FFF778FF034683F00103DBB2DA
:10254C00002B02D00F23059313E000BF039B1B68E5
:10255C004FF48E711846FFF7F0FB034683F001032E
:10256C00DBB2002BF2D1039B1B680C211846FFF742
:10257C00AAFC049B00225A61059B184607B05DF823
:10258C0004FB00BF5C010020747F000082B001904E
:10259C00019B1B791946074A2C2301FB03F31344B7
:1025AC0014331B68002B14BF01230023DBB2184625
:1025BC0002B070475C01002010B582B00190009110
:1025CC00009B9B69002B08D14FF484710198FFF795
:1025DC009FFB0198FFF761FC13E04FF484710198A5
:1025EC00FFF796FB009BDA68009B5B6AD418019896
:1025FC00FFF753FC03462370009B5B6A5A1C009B3D
:10260C005A6202B010BD00B589B0039002910192DC
:10261C0001238DF81030029B0693019B0593039BBD
:10262C005B68039A116804AA1046984700BF09B06A
:10263C005DF804FB00B587B00190009100238DF884
:10264C000830009B0493019B9B680393019B002221
:10265C005A61019B5B68019A116802AA104698475F
:10266C0000BF07B05DF804FB00B58BB00190009182
:10267C004FF400710198FFF77CFB0346002B39D017
:10268C004FF492710198FFF758FB0346002B31D0A1
:10269C004FF492710198FFF73BFB4FF401710198D5
:1026AC00FFF777FB009B93F8293083F00103DBB233
:1026BC00002B03D004210198FFF705FC02238DF8B1
:1026CC000C300198FFF76FFB03460693009B9B6948
:1026DC000593009BDB680493009B00229A61009B8E
:1026EC000022DA61009B5B68009A116803AA10460D
:1026FC00984752E004210198FFF73BFB0346002B5F
:10270C004BD04FF484710198FFF717FB0346002B55
:10271C0043D000990198FFF74FFF009B9A69009BEB
:10272C005B6A9A4239D1009BDB69002B19D0009B64
:10273C00DB680993009B5B6A0893009BDA69009B3A
:10274C009A61009B1A69009BDA60009B0022DA6197
:10275C00009B00225A62099A08990098FFF753FFD0
:10276C001BE0009B93F8293083F00103DBB2002BB4
:10277C0003D004210198FFF7A6FB4FF401710198D7
:10278C00FFF707FB009B00229A61009B596A009B94
:10279C00DB681A460098FFF736FF4FF48E710198EC
:1027AC00FFF7CBFA0346002B24D0009B5B69079301
:1027BC00009B1B6A079A9A420DD9009B93F828300C
:1027CC00DBB283F00103DBB2002B04D0009901983B
:1027DC00FFF70AFE0EE04FF48E710198FFF798FA9E
:1027EC00009B5B69002B05D0009B5B691946009828
:1027FC00FFF720FF4FF4A2710198FFF79EFA0346F2
:10280C00002B1CD04FF4A2710198FFF781FA009BAA
:10281C0093F82930002B03D000210198FFF753FBCC
:10282C00009B9B69002B0AD0009B00229A61009BA5
:10283C00596A009BDB681A460098FFF7E4FE00BF5C
:10284C000BB05DF804FB000008B503490348FFF723
:10285C000BFF00BF08BD00BF5C0100200020004042
:10286C0082B003468DF807309DF90730002B0CDB46
:10287C009DF8073003F01F0205499DF907305B09ED
:10288C00012000FA02F241F8232000BF02B0704789
:10289C0000E100E082B003468DF807309DF9073067
:1028AC00002B13DB9DF8073003F01F0209499DF93B
:1028BC0007305B09012000FA02F2203341F8232093
:1028CC00BFF34F8F00BFBFF36F8F00BF00BF02B0CD
:1028DC00704700BF00E100E082B0034600918DF824
:1028EC0007309DF90730002B0ADB009BDAB20C494C
:1028FC009DF907305201D2B20B4483F800230BE050
:10290C00009BDAB207499DF8073003F00F03043B34
:10291C005201D2B20B441A7600BF02B0704700BF0E
:10292C0000E100E000ED00E082B00190019B03F0BB
:10293C006043B3F1005F0CBF01230023DBB21846E8
:10294C0002B0704782B00190019B1B0B5BB2184622
:10295C0002B0704700B583B003460A468DF80730C5
:10296C0013468DF806309DF80630072B03D908491D
:10297C006B2001F073FF9DF806209DF9073011467E
:10298C001846FFF7A9FF00BF03B05DF804FB00BFBA
:10299C00F87F000000B583B003468DF807309DF931
:1029AC0007301846FFF75CFF00BF03B05DF804FB6F
:1029BC0000B583B003468DF807309DF907301846F3
:1029CC00FFF768FF00BF03B05DF804FB84B0019013
:1029DC000B46ADF80230BDF80230019A13440022C8
:1029EC001A60BDF80230019A13441B680393039BD1
:1029FC0000BF04B0704782B001900B46ADF80230B6
:102A0C00BDF80230019A13441B68002B14BF01233C
:102A1C000023DBB2184602B0704782B001900091DF
:102A2C00019BD3F80022009BDB431A40019BC3F8A7
:102A3C00002200BF02B0704782B001900091019B50
:102A4C00009AC3F8042300BF02B0704782B0019013
:102A5C000091019B009AC3F8082300BF02B0704795
:102A6C0084B00190019BD3F880340393019B039AAB
:102A7C00C3F88024039B184604B0704782B00190C1
:102A8C00019B0822C3F8002500BF02B0704782B03A
:102A9C000190019B0022C3F8002500BF02B07047D3
:102AAC0084B0039002910192039B029AC3F80C2507
:102ABC00039B019AC3F8142500BF04B0704700B5FE
:102ACC0083B001904FF0FF324FF0FF310198FFF7C8
:102ADC00E7FF00BF03B05DF804FB82B00190019BDF
:102AEC00D3F80C35184602B0704782B00190019BA8
:102AFC00D3F81435184602B0704782B00190019B90
:102B0C00D3F80835184602B0704782B00190019B8B
:102B1C00D3F81035184602B0704784B00390029178
:102B2C000192039B029AC3F80825039B019AC3F8F0
:102B3C00102500BF04B0704700B583B001904FF072
:102B4C00FF324FF0FF310198FFF7E7FF00BF03B0F2
:102B5C005DF804FB82B001900B468DF803309DF8B4
:102B6C000330019A134401221A6000BF02B070476F
:102B7C0082B001900B468DF8033013468DF802306D
:102B8C009DF803209DF802301343DBB21A46019BDB
:102B9C00C3F86C2500BF02B0704782B00190009161
:102BAC00019B009AC3F8242500BF02B0704784B083
:102BBC00039002910192029A039BC3F84425039B54
:102BCC00019AC3F8482500BF04B0704782B0019049
:102BDC00019BD3F84C35184602B0704782B0019077
:102BEC00019BD3F83C35184602B0704700B583B052
:102BFC000190019B1B68184600F0A4F80346002BBB
:102C0C0004D10B494FF4F67001F028FE019B1B68B0
:102C1C001F2B02D84FF0A04306E0019B1B6803F06A
:102C2C001F02019B1A60034B184603B05DF804FBAE
:102C3C002C8000000003005000B585B001900846C0
:102C4C0011461A4603468DF803300B468DF80230B8
:102C5C0013468DF8013001AB1846FFF7C7FF039000
:102C6C009DF803209DF802305B001A439DF801305B
:102C7C009B001A439DF818301B0242EA03019DF891
:102C8C001C301B04019A1943039B02F5E07243F8B4
:102C9C00221000BF05B05DF804FB00B585B00390B1
:102CAC0000230193002300930023012201210398A8
:102CBC00FFF7C2FF00BF05B05DF804FB00B585B09F
:102CCC0003900B468DF80B309DF80B3000220192CF
:102CDC0000220092002200210398FFF7ADFF00BFF5
:102CEC0005B05DF804FB00B585B00390002301939B
:102CFC00002300930023012200210398FFF79CFF7F
:102D0C0000BF05B05DF804FB00B585B0019001ABC8
:102D1C001846FFF76BFF0390019B012202FA03F3A5
:102D2C001946039800F004F800BF05B05DF804FBE9
:102D3C0082B001900091019B009AC3F8082500BF56
:102D4C0002B0704784B00190019B5B090293002391
:102D5C000393029B002B03D0029B012B04D007E0B2
:102D6C004FF0FF33039303E04FF6FF73039300BF61
:102D7C00019B03F01F030193039A019B22FA03F3B7
:102D8C0003F00103002B14BF01230023DBB2184610
:102D9C0004B0704700B583B001900091009B1B6894
:102DAC00B3F1FF3F09D0009B1B681846FFF7ACFF3F
:102DBC00009B1B681846FFF770FF009B5B68B3F124
:102DCC00FF3F05D0009B5B6800211846FFF776FF9C
:102DDC00019B1A68009B9B6919461046FFF7DDFEA4
:102DEC00019B1868009B597D009B1B7D1A46FFF7C1
:102DFC00BFFE019B1868009B1968009B5B681A4614
:102E0C00FFF74EFE009B1B7D012B22D1009B9B6884
:102E1C00B3F1FF3F05D0009B9B6800211846FFF7DC
:102E2C004DFF009BDB68B3F1FF3F09D0009BDB68D3
:102E3C001846FFF769FF009BDB681846FFF72DFF6C
:102E4C00019B1868009BD968009B9B681A46FFF78A
:102E5C0064FE00BF03B05DF804FB000000B583B056
:102E6C0001900B468DF80330019B1B684FF4887161
:102E7C001846FFF7ABFD019B1B684FF49071184689
:102E8C00FFF7A4FD019B1B684FF492711846FFF7E6
:102E9C009DFD019B1B684FF4A2711846FFF796FD30
:102EAC00019B1B684FF4AC711846FFF78FFD019B1B
:102EBC001B680F491846FFF7BFFD019B1B6818469E
:102ECC00FFF740FD03461A469DF80330194610469D
:102EDC00FFF740FD019B1B681846FFF733FD0346C7
:102EEC001846FFF757FD00BF03B05DF804FB00BFA9
:102EFC001003420000B583B00190019B1B68084988
:102F0C001846FFF7A3FD019B1B681846FFF71AFD37
:102F1C0003461846FFF74CFD00BF03B05DF804FBF9
:102F2C001003420000B587B00190019B1B68184646
:102F3C00FFF7D3FD0590019B1B681846FFF7D5FDE5
:102F4C000490019B1B681846FFF7D7FD0390019B6B
:102F5C001B681846FFF7D9FD0290019B1B681846A9
:102F6C00FFF7ADFD019B1B681846FFF7E5FD059BC0
:102F7C00B3F1FF3F02D00598FFF7B5FE049BB3F108
:102F8C00FF3F02D00498FFF7AEFE029BB3F1FF3F68
:102F9C0002D00298FFF7A7FE039BB3F1FF3F02D0CC
:102FAC000398FFF7A0FE00BF07B05DF804FB00001C
:102FBC0000B587B0039002910192029B002B03D1C4
:102FCC002B49CF2001F04AFC039B1B791A46134670
:102FDC00DB0013449B00274A1344049300230593FE
:102FEC00049B93F82030002B03D008230593059BFA
:102FFC003AE0039B1A68039B1B7919461E4B53F846
:10300C00213019461046FEF783FD0346002B03D0F2
:10301C0011230593059B27E002990398FFF7BAFE4D
:10302C00049B019A5A60029B1A69049B1A60049BC8
:10303C005B68002B05D0029B1B7F19460398FFF79A
:10304C000DFF039B1B681846FFF718FD049B00221D
:10305C009A61049B0022DA61049B00225A61049B52
:10306C00012283F82020059B184607B05DF804FB6D
:10307C006880000088010020E880000000B585B061
:10308C000190019B1B791A461346DB0013449B00ED
:10309C002A4A13440393019B1B680293039B5B68AE
:1030AC00002B02D00198FFF725FF20210298FFF793
:1030BC00B4FC039B9B69002B08D04FF4A2710298BF
:1030CC00FFF784FC04210298FFF744FD4FF4AC7128
:1030DC000298FFF77BFC0C210298FFF73BFD00BF29
:1030EC004FF4AC710298FFF786FC034683F00103A2
:1030FC00DBB2002BF4D1039B9B69002B0AD04FF45D
:10310C00A2710298FFF777FC034683F00103DBB250
:10311C00002BE5D10298FFF7BAFC0198FFF702FFEC
:10312C000298FEF72FFD039B002283F82020039BBF
:10313C0000225A6000BF05B05DF804FB8801002036
:10314C0000B589B0039002910192039B1B791A463A
:10315C001346DB0013449B00574A13440593059B0D
:10316C0093F82030012B04D0544940F2531001F055
:10317C0075FB029B002B04D150494FF4AA7001F04F
:10318C006DFB019B002B04D14C4940F2551001F012
:10319C0065FB039B1B79002B03D1019BB3F5803F8F
:1031AC0004D346494FF4AB7001F058FB0298FFF77B
:1031BC00BBFB034683F00103DBB2002B03D01023CF
:1031CC000793079B73E0039800F07AF80346002BF3
:1031DC0003D011230793079B69E0059B019A5A6161
:1031EC00059B029A9A6000230793039B1B684FF47C
:1031FC0090711846FFF7EAFB039B1B684FF4AC7108
:10320C001846FFF7E3FB039B1868059B9968059B21
:10321C005B691A46FFF7CBFC039B1B680821184619
:10322C00FFF798FC059B5B68002B3FD1039B1B6849
:10323C004FF490711846FFF7DEFB03468DF81B30F8
:10324C00039B1B684FF4AC711846FFF7D4FB034685
:10325C008DF81A309DF81B3083F00103DBB2002B84
:10326C0006D09DF81A3083F00103DBB2002BDDD1C0
:10327C009DF81A30002B02D00F23079313E0039B09
:10328C001B680C211846FFF765FC00BF039B1B68ED
:10329C004FF4AC711846FFF7AEFB034683F0010305
:1032AC00DBB2002BF2D1059B00225A61079B18461A
:1032BC0009B05DF804FB00BF8801002068800000A5
:1032CC0082B00190019B1B791946084A0B46DB0022
:1032DC000B449B00134414331B68002B14BF0123B5
:1032EC000023DBB2184602B0704700BF88010020F3
:1032FC0000B589B003900291019201238DF8103032
:10330C00029B0693019B0593039B5B68039A1168D0
:10331C0004AA1046984700BF09B05DF804FB00B53D
:10332C0087B00190009100238DF80830009B049326
:10333C00019B9B680393019B00225A61019B5B6874
:10334C00019A116802AA1046984700BF07B05DF8B1
:10335C0004FB00B589B0019000914FF49271019873
:10336C00FFF749FB0346002B22D04FF492710198D2
:10337C00FFF72CFB02238DF808300198FFF770FB48
:10338C00034605930198FFF729FC03460493009B21
:10339C00DB680393009B00229A61009B0022DA6198
:1033AC00009B5B68009A116802AA104698473BE0A4
:1033BC004FF488710198FFF71EFB0346002B33D0A6
:1033CC004FF488710198FFF701FB0198FFF706FC99
:1033DC000790009B9B69079A9A4225D1009BDB6959
:1033EC00002B17D0009BDB68069320210198FFF778
:1033FC0014FB009BDA69009B9A61009B1A69009B85
:10340C00DA60009B0022DA61069A07990098FFF7B0
:10341C006FFF09E0009B00229A61009BDB681A4653
:10342C0007990098FFF764FF4FF4A2710198FFF71A
:10343C00E2FA0346002B18D04FF4A2710198FFF763
:10344C00C5FA009B9B69002B0FD0009B00229A6150
:10345C00009B0022DA610198FFF7C0FB0146009B3C
:10346C00DB681A460098FFF743FF4FF49071019800
:10347C00FFF7C1FA0346002B14D04FF4907101985A
:10348C00FFF7A4FA0C210198FFF764FB009B5B6922
:10349C00002B07D00198FFF799FB034619460098BB
:1034AC00FFF73DFF4FF4AC710198FFF7A4FA034608
:1034BC00002B10D04FF4AC710198FFF787FA009BEA
:1034CC005B69002B07D00198FFF780FB0346194678
:1034DC000098FFF724FF00BF09B05DF804FB000063
:1034EC0008B503490348FFF734FF00BF08BD00BF10
:1034FC00880100200020004084B00190002302933A
:10350C00019BDBB201930023039310E0019A039B10
:10351C0022FA03F303F00102039BC3F1070302FA3F
:10352C0003F3029A13430293039B01330393039B0C
:10353C00072BEBD9029B184604B0704710B582B02C
:10354C000190019B1B0E1846FFF7D6FF03461C0685
:10355C00019B1B0C1846FFF7CFFF03461B041C43B3
:10356C00019B1B0A1846FFF7C7FF03461B021C43AF
:10357C000198FFF7C1FF03462343184602B010BD64
:10358C0010B53E4B0022C3F80C253C4B0722C3F868
:10359C0008253A4B0022C3F81025C320FFF7ACFFD7
:1035AC0003461C06C220FFF7A7FF03461B041C435F
:1035BC00C120FFF7A1FF03461B021C43C020FFF7ED
:1035CC009BFF03462D4A2343C2F82435C720FFF73F
:1035DC0093FF03461C06C620FFF78EFF03461B0411
:1035EC001C43C420FFF788FF0346244A2343C2F838
:1035FC002835224C2248FFF7A1FF0346C4F81C359E
:10360C001E4C2048FFF79AFF0346C4F820351B4B8D
:10361C000022C3F82C25194B0122C3F83025174B77
:10362C000022C3F81425154B174AC3F81825134B61
:10363C000222C3F83425114BD3F8343503F00303BD
:10364C00022B09D10D4B4FF6FF72C3F83C250B4BE7
:10365C000E4AC3F838250FE0084BD3F8343503F085
:10366C000303012B08D1054BFF22C3F83C25034B68
:10367C0040F20712C3F8382500BF10BD00100040FF
:10368C0067452301EFCDAB89010104012110010035
:10369C0086B003900291019201238DF817309DF8AA
:1036AC001730204A039B13601E4A029B53601D4A2D
:1036BC00019B9360039B44F20102934212D0039B43
:1036CC0044F20202934220D1019B164AD360154B5F
:1036DC00DB681B68134A9361124BDB685B68114A09
:1036EC00D36112E0019B0F4A13610E4B1B699B685F
:1036FC000C4A53610B4B1B691B680A4A9361094BBB
:10370C001B695B68074AD36100BF72B600BF00BF7C
:10371C009DF81730DBB2002BFAD162B600BF00BFA8
:10372C0006B07047AC01002000B583B00290009148
:10373C00019244F2010071466A4600F003F803B0AE
:10374C0000BD00BF30B58BB007900691059272B6E4
:10375C0000BF03F019F902F0DBFE0346002BFAD18F
:10376C00079B44F20102934216D0079B44F20202DB
:10377C0093423ED1059B09932C4A2D4BD31ADB085F
:10378C001B0443F00100099B5B681A46099B1B68EC
:10379C00284902F080FE39E0059B0893234A244B0C
:1037AC00D31ADB081B0443F00104089B9D68089B9B
:1037BC009B68184602F022F903461846089B5B6882
:1037CC001946089B1B68069A0292019300910346C6
:1037DC002A461949204602F072FE144A144BD31A99
:1037EC00DB081B0443F001031449184602F034FEB5
:1037FC000CE00E4A0E4BD31ADB081B0443F00103FA
:10380C00069A0F49184602F035FE00BF0D4B1B6897
:10381C0003F00103002B00D000BE059A069907980F
:10382C00FFF736FF00BF0BB030BD00BF107B0000B0
:10383C00F07A00007C81000098810000C0810000BB
:10384C00D4810000F0ED00E02DE9F04383B0144882
:10385C0000F0DBFF034600221C461546114BD3E952
:10386C00002314EB020845EB0309CDE900890E4B4C
:10387C00D3E90023DDE90001904271EB030307D289
:10388C00DDE9002312F1807643F10007CDE90067F2
:10389C00DDE900231046194603B0BDE8F08300BFF4
:1038AC0044000020D8010020E001002088B00190E5
:1038BC000091019B0793009B0693079BD3E902237E
:1038CC00CDE90423069BD3E90223CDE90223DDE9EC
:1038DC000423DDE90201904271EB03032CBF0123A9
:1038EC000023DBB2184608B070470000F0B585B075
:1038FC000190019B5B69002B03D13C49A52000F092
:10390C00ADFF00238DF80F30394B1B78002B68D09E
:10391C00019B002B65D0FFF797FF019BD3E9022396
:10392C00904271EB03034BD3002000F06FFB019B23
:10393C001B69002B06D101994FF0FF324FF0FF337A
:10394C00C1E90223002000F075FB019B5B69019A21
:10395C00926910469847002000F058FB019B1B69A8
:10396C00002B1AD0019BD3E90223B3F1FF3F08BF10
:10397C00B2F1FF3F11D0019BD3E9022301990969F0
:10398C0000200C460546161943EB0507019BC3E9BD
:10399C00026701238DF80E3002E000238DF80E3003
:1039AC00002000F047FB9DF80E30002B19D0019B36
:1039BC001946104801F07CFF01238DF80F3010E000
:1039CC00019BD3E90223B3F1FF3F08BFB2F1FF3FE4
:1039DC0007D0019B1946074801F06AFF01238DF8B7
:1039EC000F309DF80F30184605B0F0BDF88100007F
:1039FC00D00100207C82000030B58BB0019000918A
:103A0C000D230993009B00221A70019BD3E902231A
:103A1C00CDE90623FFF718FFDDE90623141A63EB43
:103A2C000105CDE90445DDE90423012A73F1000306
:103A3C0018DB049BB3F5350F05D300F0C1FA024631
:103A4C00144B134400E0069B03934FF49603039A24
:103A5C000021114800F0CCFD0990099B002B05D1E9
:103A6C00012314E000210C4800F09AFE099B0D2B59
:103A7C0007D10198FFF73AFF03461A46009B1A70CC
:103A8C0004E006494FF4867000F0E8FE0023184667
:103A9C000BB030BDFFFFB40044000020F8810000E3
:103AAC0000B583B0044801F03DFF0190019B18461E
:103ABC0003B05DF804FB00BF7C82000000B583B04E
:103ACC00044801F051FF0190019B184603B05DF8CA
:103ADC0004FB00BF7C82000000B583B0FFF7E0FF61
:103AEC000190019B002B06D001994FF0FF324FF053
:103AFC00FF33C1E90223019B002BEFD100BF00BFB4
:103B0C0003B05DF804FB0000054BD3E9002312F170
:103B1C00807043F10001024BC3E9000100BF704704
:103B2C00D801002010B582B00190124B1B68002BFD
:103B3C001DD0019800F069FE04460021019800F0A8
:103B4C0055FE03461946204600F02EFA0346B3F5FF
:103B5C00960F04D3084940F2411000F07FFE054B4C
:103B6C001B681846FFF7C2FE024B00221A6000BF0A
:103B7C0002B010BDCC010020F881000000B583B06C
:103B8C000190FFF761FE02460B460349C1E9002391
:103B9C0000BF03B05DF804FBE001002000B587B066
:103BAC000190FFF78BFF049000238DF81730049BD6
:103BBC00002B58D0049BD3E90223B3F1FF3F08BF7D
:103BCC00B2F1FF3F02D1FFF76BFF54E02E4B1B68A5
:103BDC00002B03D101238DF817301DE0049BD3E992
:103BEC000201294B1B68D3E90223904271EB0303BA
:103BFC0012D201238DF81730234B1B68D3E9022313
:103C0C00B3F1FF3F08BFB2F1FF3F05D01E4B1B685D
:103C1C0019461E4801F04CFE9DF81730002B2BD096
:103C2C00FFF73EFF04900DF10F0319460498FFF7C0
:103C3C00E3FE0346002B12D0134B1B68002B02D162
:103C4C00019800F0E1FB104A049B13609DF80F30C3
:103C5C0083F00103DBB2002BA3D000BF0FE00A4BB3
:103C6C0000221A609DE7084B1B68002B06D10198B7
:103C7C0000F0E0FB02E094E700BF00E000BF00BFF3
:103C8C0007B05DF804FB00BFCC0100207C82000073
:103C9C0000B587B001902B4A03AB1946104600F0D3
:103CAC00C8FE049045E0049B1B78022B2BD0022B02
:103CBC002FDC002B02D0012B11D02AE0049B5B6877
:103CCC00D3E90223B3F1FF3F08BFB2F1FF3F22D08B
:103CDC00049B5B6819461C4801F0EAFD1BE0049B41
:103CEC005A681A4B1B689A4203D1184B00221A606F
:103CFC0012E0049B5B681946134801F049FE034629
:103D0C008DF8173008E0FFF7E7FE114B01221A700F
:103D1C0002E000BF00E000BF0A4A03AB19461046A0
:103D2C0000F0A0FE074A03AB1946104600F081FED6
:103D3C000490049B002BB6D100BF00BF07B05DF808
:103D4C0004FB00BF400200207C820000CC0100205C
:103D5C00D001002000B583B00190019800F013FD54
:103D6C000346002B01D0FFF7CFFE0021019800F095
:103D7C0028FD0346002B02D00198FFF7D3FE01214A
:103D8C00019800F01EFD0346002B02D00198FFF7AE
:103D9C00F5FE0198FFF77CFF0198FFF7FFFE00BFCF
:103DAC0003B05DF804FB000008B5024800F03AFDD2
:103DBC0000BF08BD4400002000B585B0034600914B
:103DCC008DF80730114A02AB1946104600F004FE7C
:103DDC000390039B002B13D0039B9DF807201A70B4
:103DEC00039B009A5A60094A02AB1946104600F030
:103DFC000CFE0346002B01D0FFF7D6FF002300E09A
:103E0C000423184605B05DF804FB00BF40020020F7
:103E1C0000B583B0164B1B68009316480823582234
:103E2C00154900F0A6FD0190019B002B01D0019BD0
:103E3C0019E06B46114A1946114800F067FA0190D7
:103E4C00019B002B01D0019B0DE001210C4800F0DF
:103E5C0089FC01230B4A0121094800F001FB0A4BA4
:103E6C0001221A70019B184603B05DF804FB00BFD9
:103E7C007882000040020020E8010020613D000033
:103E8C0044000020FFFF7F00D0010020F0B587B078
:103E9C00039002910192039B002B04D1224940F222
:103EAC006B2000F0DBFC039B0493002000F0AEF8C9
:103EBC00049BD3E90223B3F1FF3F08BFB2F1FF3FEC
:103ECC0011D1FFF7C1FC02460B46029900200C46AB
:103EDC000546161943EB0507049BC3E9026701234A
:103EEC008DF8173002E000238DF81730002000F019
:103EFC00A1F89DF8173083F00103DBB2002B01D041
:103F0C0000230EE0049B019A9A61049B1B69002B11
:103F1C0002D0049B029A1A6104990020FFF74CFF0F
:103F2C000346184607B0F0BDF881000000B585B017
:103F3C000190019B002B04D11A4940F2932000F010
:103F4C008DFC019B0293002000F060F8029BD3E9EA
:103F5C000223B3F1FF3F08BFB2F1FF3F03D10023AF
:103F6C008DF80F3009E002994FF0FF324FF0FF331C
:103F7C00C1E9022301238DF80F30002000F05AF81C
:103F8C009DF80F3083F00103DBB2002B01D000232E
:103F9C0004E002990120FFF70FFF0346184605B015
:103FAC005DF804FBF881000082B001900091019A49
:103FBC00009BD31A23F07F43184602B070470000D1
:103FCC0008B5034800F021FC0346184608BD00BFA5
:103FDC004400002072B600BF034B1B680133024A39
:103FEC00136000BF704700BF54020020064B1B68D3
:103FFC00013B054A1360044B1B68002B01D162B6D0
:10400C0000BF00BF704700BF5402002000B583B052
:10401C00019000F025F80346012B03D004494320FE
:10402C0000F01CFCFFF7D6FF00BF03B05DF804FBEB
:10403C008882000000B583B003468DF8073000F08D
:10404C000FF80346012B03D00449512000F006FC65
:10405C00FFF7CCFF00BF03B05DF804FB88820000C3
:10406C0084B0EFF305830193019BC3F3080303931F
:10407C00039B002B0DD1EFF314830093009B029351
:10408C00029B03F00103002B0CBF01230023DBB2C6
:10409C0000E00123184604B07047000082B00346CC
:1040AC008DF807309DF90730002B0CDB9DF807309D
:1040BC0003F01F0205499DF907305B09012000FA46
:1040CC0002F241F8232000BF02B0704700E100E08B
:1040DC0082B003468DF807309DF90730002B0DDBBD
:1040EC009DF8073003F01F0206499DF907305B0964
:1040FC00012000FA02F2403341F8232000BF02B045
:10410C00704700BF00E100E082B0034600918DF8DB
:10411C0007309DF90730002B0ADB009BDAB20C4903
:10412C009DF907305201D2B20B4483F800230BE007
:10413C00009BDAB207499DF8073003F00F03043BEC
:10414C005201D2B20B441A7600BF02B0704700BFC6
:10415C0000E100E000ED00E000B583B003460A4644
:10416C008DF8073013468DF806309DF80630072B76
:10417C0003D908496B2000F071FB9DF806209DF9CE
:10418C00073011461846FFF7BFFF00BF03B05DF8BC
:10419C0004FB00BF1083000000B583B003468DF80C
:1041AC0007309DF907301846FFF778FF00BF03B0C2
:1041BC005DF804FB00B585B00190019B002B0AD083
:1041CC00074B43F001030393019B9B010293039B59
:1041DC000298984700E000BF05B05DF804FB00BFF3
:1041EC004084000084B0039002910192039B029AD8
:1041FC0002F5A872019943F8221000BF04B0704771
:10420C0082B001900091019B009A02F5A87253F8BC
:10421C002230184602B0704782B001900091019B89
:10422C00009AC3F8042300BF02B0704782B001901B
:10423C000091019B009AC3F8082300BF02B070479D
:10424C0082B001900B46ADF80230BDF80230019AF5
:10425C0013441B68184602B0704784B001900B469B
:10426C00ADF80230BDF80230019A134400221A60F6
:10427C00BDF80230019A13441B680393039B00BFE3
:10428C0004B0704782B00190019BD3F804351846F6
:10429C0002B0704700B583B001900091009BB3F55C
:1042AC00805F04D306494FF4BE7000F0D7FA019B2F
:1042BC00009AC3F8082500BF03B05DF804FB00BFEB
:1042CC004483000082B001900B468DF803309DF8BA
:1042DC000320019B13441A460123136000BF02B054
:1042EC00704782B001900091019B009AC3F844235F
:1042FC0000BF02B0704782B001900091019B009A00
:10430C00C3F8482300BF02B07047000000B587B067
:10431C00039002910192039B002B03D1334955204A
:10432C0000F09CFA029B002B03D13049562000F080
:10433C0095FA019B002B03D12C49572000F08EFAE3
:10434C00039B5B7919462A4A019B42F82130039B57
:10435C005B79284ADB0013441B79002B0ED0082311
:10436C000593254A254BD31ADB081B0443F00203A3
:10437C002349184602F070F8059B32E0039B1A683B
:10438C00029B1B8819461046FFF784FF039B93F989
:10439C000420029B9B7819461046FFF7DDFE039B19
:1043AC0093F904301846FFF7F7FE039B5B79114A2B
:1043BC00DB00134401221A71039B5B7919460D4AE9
:1043CC00039B42F83130002305930B4A0B4BD31A55
:1043DC00DB081B0443F003030A49184602F03CF8BF
:1043EC00059B184607B05DF804FB00BF7483000002
:1043FC00580200205C020020207B0000F07A0000B4
:10440C00F48300001884000000B583B00190019B78
:10441C00002B03D10649872000F020FA019B1B6872
:10442C0000211846FFF74EFF00BF03B05DF804FBF8
:10443C007483000000B583B00190019B002B03D165
:10444C0006498D2000F00AFA019B1B6804211846CE
:10445C00FFF738FF00BF03B05DF804FB7483000066
:10446C0000B587B00390029101928DF80330039B45
:10447C00002B03D12149962000F0F0F94FF4803243
:10448C00029B02FA03F30593029B50339BB29B00F1
:10449C00ADF81230019B23F07F430193039B1B6803
:1044AC0005991846FFF7C2FE039B1B680599184631
:1044BC00FFF721FF039B1B68BDF81220114618461D
:1044CC00FFF7CBFE039B1B68019A02991846FFF776
:1044DC0089FE039B1B6805991846FFF702FF9DF8A0
:1044EC000330002B05D0039B1B6805991846FFF77A
:1044FC0093FE00BF07B05DF804FB00BF748300009F
:10450C0000B585B00390029113468DF80730039BDC
:10451C00002B03D10B49A92000F0A0F9039B1B68C9
:10452C0002991846FFF7DDFE9DF80730002B05D0E9
:10453C00039B1B6802991846FFF76EFE00BF05B07F
:10454C005DF804FB7483000000B583B0019000910A
:10455C00019B002B03D10A49B32000F07FF9019B8A
:10456C001B6800991846FFF7C6FE019B1B68009953
:10457C001846FFF75BFE00BF03B05DF804FB00BFFD
:10458C007483000000B583B001900B46ADF8023087
:10459C00019B002B03D10F49BA2000F05FF9019B5E
:1045AC001B68BDF8022011461846FFF749FE03466A
:1045BC00002B09D0019B1B68BDF802201146184640
:1045CC00FFF74BFE012300E00023184603B05DF813
:1045DC0004FB00BF7483000082B001900091019A2B
:1045EC00009BD31A23F07F43184602B0704700009B
:1045FC0000B58BB00390029101920093039B002BAA
:10460C0003D15749CD2000F029F94FF48032029B99
:10461C0002FA03F30993029B50339BB29B00ADF853
:10462C002230019B23F07F43019309990398FFF7F4
:10463C008BFF039B1B681846FFF724FE0790039B18
:10464C001B6802991846FFF7DBFD0690039B1B685D
:10465C00079A02991846FFF7C5FD039B1B68BDF826
:10466C00222011461846FFF7F8FD07990698FFF728
:10467C00B3FF0346012B0AD11020FFF79BFD039BD0
:10468C001B68BDF8222011461846FFF7E6FD039B78
:10469C001B681846FFF7F6FD079007990198FFF77E
:1046AC009BFF0590039B1B6809991846FFF719FEA1
:1046BC00059B012B15D1039B1868019B01331A46EE
:1046CC000299FFF78FFD1020FFF774FD039B1B6809
:1046DC001846FFF7D7FD0246079B934235D00D23B2
:1046EC0039E0039B1B68019A02991846FFF77AFD83
:1046FC00039B1B681846FFF7C5FD0790019B013B08
:10470C0007991846FFF768FF0590009BC3F1FF134C
:10471C0003F57F43059A9A4201D90D231BE0059BB3
:10472C00002B12D1039B1868019B01331A46029986
:10473C00FFF758FD039B1B681846FFF7A3FD0246C5
:10474C00079B934201D00D2305E0012209990398A0
:10475C00FFF7D6FE002318460BB05DF804FB00BF34
:10476C007483000000B583B001900B468DF80330C4
:10477C009DF803301A4602210198FFF7C1FE00BFD5
:10478C0003B05DF804FB00B583B001904FF4827167
:10479C000198FFF7F7FE0346184603B05DF804FBDB
:1047AC0000B583B0019000914FF48032009B02FA67
:1047BC0003F319460198FFF7C7FE00BF03B05DF87D
:1047CC0004FB00B585B001900091009B50339BB267
:1047DC009B00ADF80E30BDF80E3019460198FFF76E
:1047EC00D1FE0346184605B05DF804FB00B583B056
:1047FC0001900091019B1B6800991846FFF700FD82
:10480C000346184603B05DF804FB00B583B0019075
:10481C00019B1B681846FFF735FD0346184603B08D
:10482C005DF804FB00B583B00190019B93F9043053
:10483C001846FFF74DFC00BF03B05DF804FB000009
:10484C0008B5044B1B68044A12681046984700BF11
:10485C0008BD00BF580200205C02002000B585B0E6
:10486C0003460091ADF80630BDF806300293009B6C
:10487C00039302AB1A46002144F20200FEF762FFDA
:10488C0000BF05B05DF804FB86B001900091019B60
:10489C0053E8011F8AB2D88902449889824228BF02
:1048AC00121A1889824202BFBFF32F8F002307E030
:1048BC00C2EA010243E801200028E9D14FF00103CC
:1048CC008DF80F30059002910492029A009B1A60A9
:1048DC009DF80F30DBB2184606B0704784B00190DB
:1048EC00019951E8013FC3EA034341E80132002A30
:1048FC00F7D10392029300BF04B0704786B00190C9
:10490C000091019B53E8021F1FFAA1F2D888824242
:10491C0002BFBFF32F8F00230DE0D8890244988982
:10492C00824228BF121AC1EA024243E80220002840
:10493C00E8D14FF001038DF80F30059002910492ED
:10494C00029A009B1A609DF80F30DBB2184606B035
:10495C00704784B00190019951E8023FC3EA2343A8
:10496C0041E80232002AF7D10392029300BF04B04F
:10497C00704784B00390029111461A460B46ADF86D
:10498C0006301346ADF80430029B002B01D10E23E8
:10499C001FE0BDF80630BDF80420B3FBF2F101FBBB
:1049AC0002F29B1A9BB2002B01D0092311E0039B4E
:1049BC00029A1A60039B00225A60039B00229A60A1
:1049CC00039BBDF806209A81039BBDF80420DA8175
:1049DC000023184604B0704700B585B001900091D3
:1049EC00009B19460198FFF74FFF0346002B07D099
:1049FC00019B1B68009A128813440393039B00E0ED
:104A0C000023184605B05DF804FB00B583B0019097
:104A1C000091009B1A88009B5B889A4204D10198F4
:104A2C00FFF75CFF012300E00023184603B05DF89C
:104A3C0004FB00B585B001900091009B19460198CC
:104A4C00FFF75CFF0346002B07D0019B1B68009A05
:104A5C00528813440393039B00E00023184605B0CF
:104A6C005DF804FB00B583B001900091009B1A889F
:104A7C00009B5B889A4204D10198FFF76AFF0123DF
:104A8C0000E00023184603B05DF804FB10B487B0B7
:104A9C0001900091019B009A53E8004F104643E8A7
:104AAC00000191F0000FF7D1059404900391059B40
:104ABC00184607B05DF8044B704710B487B00190EE
:104ACC000091019B009A53E8004F44EA020043E82E
:104ADC00000191F0000FF6D1059404900391049B12
:104AEC00184607B05DF8044B704710B487B00190BE
:104AFC000091019B009A53E8004F04EA020043E83E
:104B0C00000191F0000FF6D1059404900391059BE0
:104B1C00184607B05DF8044B704710B487B001908D
:104B2C000091019B009A53E8004F04EB020043E80C
:104B3C00000191F0000FF6D1059404900391049BB1
:104B4C00184607B05DF8044B704710B487B001905D
:104B5C000091019B009A53E8004FA4EB020043E83C
:104B6C00000191F0000FF6D1059404900391049B81
:104B7C00184607B05DF8044B704700B583B0019040
:104B8C0001210198FFF799FF0346184603B05DF821
:104B9C0004FB00B583B0019000210198FFF7A5FF3D
:104BAC000346184603B05DF804FB000000B583B063
:104BBC0001900B468DF80330019B002B03D1084963
:104BCC00E820FFF74BFE019BDA689DF80330019952
:104BDC00098A01FB03F31344184603B05DF804FB88
:104BEC004884000000B583B001900091019B002B1C
:104BFC0003D10849F520FFF731FE009B019AD268DA
:104C0C009B1A019A128AB3FBF2F3DBB2184603B07B
:104C1C005DF804FB4884000000B585B00190019B51
:104C2C00002B01D10E234CE0019B1B68002B03D100
:104C3C002649FF20FFF712FE019B5B68002B04D175
:104C4C0022494FF48070FFF709FE019B9B68002BF3
:104C5C0004D11E4940F20110FFF700FE019BDB68F6
:104C6C00002B04D119494FF48170FFF7F7FD019B1C
:104C7C001B8A002B04D1154940F20310FFF7EEFDFF
:104C8C00019B9A68019B5B68D31A8DF80F30019BCE
:104C9C001B68019A52681A6007E0019B1A68136836
:104CAC00591C11609DF80F201A709DF80F305A1E78
:104CBC008DF80F20002BF0D1019B1B6800221A717C
:104CCC000023184605B05DF804FB00BF48840000C3
:104CDC0000B585B00190019B002B04D11C494FF409
:104CEC009270FFF7BBFD002303930020FFF78EF9B2
:104CFC00019B1B681A68019B5B689A421FD9019B38
:104D0C001B681A68013A1A601B681B7819460198CF
:104D1C00FFF74CFF0390019B9A68019B1B681B6873
:104D2C00D31A8DF80B30019B1B681B799DF80B2057
:104D3C009A4204D9019B1B689DF80B201A71002024
:104D4C00FFF778F9039B184605B05DF804FB00BF2C
:104D5C004884000010B584B001900091019B002B99
:104D6C0004D1114940F24710FFF778FD009B002B4E
:104D7C0004D10D494FF4A470FFF770FD009B039311
:104D8C000020FFF743F9019B1B681C68621C1A602A
:104D9C0003990198FFF726FF034623700020FFF7C5
:104DAC0049F900BF04B010BD4884000000B583B0C1
:104DBC000190019B002B03D10C493120FFF74EFDD4
:104DCC00019B9B68002B0CD0019B5B69019A1069BD
:104DDC00019A1168019A92689847019B00229A6087
:104DEC0000E000BF03B05DF804FB00BFCC84000002
:104DFC000EB400B584B00190019B002B03D118496F
:104E0C004220FFF72BFD019B5B69002B03D114495A
:104E1C004320FFF723FD019B1B68002B03D1104996
:104E2C004420FFF71BFD019B5B68002B03D10C4951
:104E3C004520FFF713FD059B002B0AD0002303939D
:104E4C0006AB039303AB1A460599019800F0B8F929
:104E5C0000E000BF04B05DF804EB03B0704700BF86
:104E6C00CC84000000B583B001900B468DF8033064
:104E7C009DF803300A2B03D10D210198FFF7F2FFA7
:104E8C00019B1A68019B9B68581C0199886013440C
:104E9C009DF803201A70019B9A68019B5B689A42EB
:104EAC0002D30198FFF782FF00BF03B05DF804FB4B
:104EBC0000B587B0039002910192009300230593F3
:104ECC00009B03F00103002B24D00BE0029B013369
:104EDC000293059B013305939DF8133019460398F3
:104EEC00FFF7C0FF029B1B788DF813309DF8133031
:104EFC00002BEBD106E0019B013B01932021039891
:104F0C00FFF7B0FF019A059B9A422ED9019B002B0B
:104F1C00F1D12AE0029B002B0BD0029802F07CF915
:104F2C00059006E0019B013B019320210398FFF7BC
:104F3C0099FF019A059B9A420FD9019B002BF1D145
:104F4C000BE0029B01330293059B013305939DF803
:104F5C00133019460398FFF785FF029B1B788DF8D9
:104F6C0013309DF81330002BEBD100BF07B05DF868
:104F7C0004FB000000B589B00390029101920093EC
:104F8C00029B07930123069307E0079A019BB2FB50
:104F9C00F3F30793069B01330693079A019B9A42FE
:104FAC00F3D2009A069B9A4201D9009B06930B9B65
:104FBC0003F00103002B22D10A9B002B1FD00B9B6B
:104FCC0003F00203002B06D0009B002B03D13023EF
:104FDC008DF8173002E020238DF8173008E00A9B7B
:104FEC00013B0A939DF8173019460398FFF73AFFD7
:104FFC000A9B002B03D0069A0A9B9A42EFD30123FB
:10500C000793009B012B03D9009B013B009309E004
:10501C00029A079BB2FBF3F30493049A019B9A4206
:10502C0000D205E0079B019A02FB03F30793E8E724
:10503C00029A079BB2FBF3F30493049B079A02FBBF
:10504C0003F3029AD31A0293154A049B13441B7858
:10505C0019460398FFF706FF079A019BB2FBF3F37F
:10506C000793079B002BE3D10B9B03F00103002B51
:10507C0011D00A9B002B0ED006E00A9B013B0A9331
:10508C0020210398FFF7EEFE0A9B002B03D0069A13
:10509C000A9B9A42F1D300BF09B05DF804FB00BF34
:1050AC00C485000000B589B0059004910392029369
:1050BC00049B002BB8BF5B4206930123079307E0C8
:1050CC00039B069A92FBF3F30693079B013307931A
:1050DC00039B069A9A42F3DA029A079B9A4201D9E9
:1050EC00029B07930A9B002B0AD0049B002B04DB2A
:1050FC000B9B03F00403002B02D00A9B013B0A9389
:10510C000B9B03F00203002B02D0029B002B16D04A
:10511C000B9B03F00103002B11D10A9B002B0ED02B
:10512C0006E00A9B013B0A9320210598FFF79AFEA3
:10513C000A9B002B03D0079A0A9B9A42F1D3049B3B
:10514C00002B07DA049B5B4204932D210598FFF793
:10515C0089FE08E00B9B03F00403002B03D02B21EA
:10516C000598FFF77FFE0B9B03F00203002B19D071
:10517C000B9B03F00103002B14D1029B002B11D1CC
:10518C000A9B002B0ED006E00A9B013B0A933021B0
:10519C000598FFF767FE0A9B002B03D0079A0A9B22
:1051AC009A42F1D304990B9B01930A9B0093029BA7
:1051BC00039A0598FFF7DEFE00BF09B05DF804FB0B
:1051CC0000B58FB0059004910392059B002B04D180
:1051DC00AD4940F25220FFF741FB059B5B69002B68
:1051EC0004D1A9494FF41570FFF738FB059B1B68D8
:1051FC00002B04D1A44940F25520FFF72FFB059B4F
:10520C005B68002B04D1A04940F25620FFF726FB27
:10521C00049B002B00F09381049B1B788DF8373096
:10522C00049B013304939DF83730002B00F07E81F2
:10523C009DF83730252B40F06D8100230A93012314
:10524C000C93049B1B788DF837309DF83730302B3E
:10525C000DD0302B1BDC2B2B11D02D2B17D10A9BF7
:10526C0043F001030A93049B0133049312E00A9B5D
:10527C0043F002030A93049B013304930AE00A9B54
:10528C0043F004030A93049B0133049302E00023CC
:10529C000C9300BF0C9B002BD3D1002309939DF8DA
:1052AC0037302A2B0CD1039B1B68191D039A1160F4
:1052BC001B68099A13440993049B013304931AE065
:1052CC00049B1B788DF837309DF837302F2B12D973
:1052DC009DF83730392B0ED8049B01330493099A6F
:1052EC0013469B0013445B001A469DF83730134459
:1052FC00303B0993D3E700230B93049B1B788DF869
:10530C0037309DF837302E2B1DD1049B013304937D
:10531C00049B1B788DF837309DF837302F2B12D922
:10532C009DF83730392B0ED8049B013304930B9A1C
:10533C0013469B0013445B001A469DF83730134408
:10534C00303B0B93E4E7049B1B788DF837309DF8CA
:10535C0037306C2B03D09DF83730682B07D1049B6A
:10536C0001330493049B1B788DF83730EFE79DF8DD
:10537C003730252B00F0C480252BC0F2C680782B4B
:10538C0000F3C380582BC0F2C080583B202B00F296
:10539C00BC8001A252F823F099540000175500006C
:1053AC001755000017550000175500001755000041
:1053BC001755000017550000175500001755000031
:1053CC0017550000295400004B54000017550000DD
:1053DC001755000017550000175500004B540000DE
:1053EC001755000017550000175500001755000001
:1053FC001755000017550000D95400001755000030
:10540C0017550000BD540000175500006F540000E4
:10541C00175500001755000099540000039B1B689A
:10542C00191D039A11601B680C930C9B8DF81F308F
:10543C009DF81F3019460598FFF714FD66E0039B95
:10544C001B68191D039A11601B680C930A9B01932E
:10545C00099B00930B9B0A220C990598FFF722FEDF
:10546C0054E0039B1B68191D039A11601B680C9375
:10547C000C990A9B0193099B00930B9B0A2205989C
:10548C00FFF778FD42E000BF44850000039B1B68DA
:10549C00191D039A11601B680C930C990A9B0193BC
:1054AC00099B00930B9B10220598FFF763FD2DE0E1
:1054BC00039B1B68191D039A11601B6808930A9BB8
:1054CC00099A08990598FFF7F3FC1FE0039B1B68EA
:1054DC00191D039A11601B680C9330210598FFF776
:1054EC00C1FC78210598FFF7BDFC0C9900230193B2
:1054FC0008230093082310220598FFF73BFD05E0D5
:10550C0025210598FFF7AEFC00E000BF049B01339A
:10551C00049305E09DF8373019460598FFF7A2FC77
:10552C00049B1B78002B7FF477AE00E000BF059B3B
:10553C001B7B002B04D00598FFF738FC00E000BF64
:10554C000FB05DF804FB00BF00B583B0019001986B
:10555C00FFF762FB0346184603B05DF804FB00B589
:10556C008BB001900091019B1B8A043B0793009A1E
:10557C00079B1344DA1C079BB2FBF3F38DF81B302B
:10558C000198FFF7A5FB0590059B002B01D100238B
:10559C0038E0059B00221A71059B01225A71079B6A
:1055AC009AB2059BDA80059B09939DF81B30013B51
:1055BC000493099B019A1A60002308931DE001983B
:1055CC00FFF786FB0390039B002B0ED0059B5B79AA
:1055DC000133DAB2059B5A71099B039A1A60039B3B
:1055EC00019A1A60039B099304E0059800F00EF8E9
:1055FC00002307E0089B01330893089A049B9A4206
:10560C00DDD3059B18460BB05DF804FB00B58BB0E1
:10561C000190019B0793079B5B798DF81B30019BD5
:10562C0008939DF81B30013B05930023099305E07B
:10563C00089B1B680893099B01330993099A059BE6
:10564C009A42F5D3089B1B680493019B0893002393
:10565C0009930BE0089B1B68039308990498FFF7C8
:10566C0079FB039B0893099B013309939DF81B302D
:10567C00099A9A42EED300BF00BF0BB05DF804FB51
:10568C0000B585B00190019B0393039B043301216A
:10569C001846FFF742FA00BF05B05DF804FB00B5F1
:1056AC0087B00190019B0593059B0433012118469B
:1056BC00FFF74BFA0346039303AB0493049B1B784D
:1056CC00002B02D10198FFF7A1FF00BF07B05DF8D6
:1056DC0004FB000000B591B003900291019200937D
:1056EC00039B002B03D14349B620FFF7B7F8039B6C
:1056FC000993039B0F93099BDB881A46099B5B79E3
:10570C0002FB03F3043B0893009A089B9A4203D3D1
:10571C003849C420FFF7A2F8099BDB880793009B4C
:10572C001A1D079BB2FBF3F30E93009B0433079AED
:10573C00B3FBF2F2079901FB02F29B1A0D93019B4A
:10574C001A68009B1344089A9A4203D2089A009B49
:10575C00D31A01E0019B1B680C93019B0C9A1A60F5
:10576C0005E00F9B1B680F930E9B013B0E930E9B4A
:10577C00002BF6D100230B93079A0D9BD31A0A9397
:10578C000A9A0C9B934228BF13460A932AE0029A6A
:10579C000B9B134406930F9A0D9B134404330593F0
:1057AC009DF84830002B05D00A9A0599069801F00F
:1057BC0063FD04E00A9A0699059801F05DFD00234B
:1057CC000D930F9B1B680F930C9A0A9BD31A0C9387
:1057DC000B9A0A9B13440B93079A0C9B934228BF7A
:1057EC0013460A930C9B002BD1D100BF00BF11B004
:1057FC005DF804FBD485000000B589B005900491D8
:10580C0003920293039B079307AA00230093029B26
:10581C0004990598FFF75EFF079B039A9A4203D001
:10582C000349F620FFF71AF800BF09B05DF804FB36
:10583C00D485000000B589B00590049103920293C1
:10584C00039B079307AA01230093029B04990598D5
:10585C00FFF740FF079B039A9A4204D004494FF488
:10586C008070FEF7FBFF00BF09B05DF804FB00BFC2
:10587C00D485000082B00190019B9B6800229A6045
:10588C00019B9B6800221A61019B9B6800225A6154
:10589C00019B9B680022DA60019B9B6800225A6086
:1058AC00019B9B6800221A6000BF02B07047000089
:1058BC0000B585B001900091019B002B03D11849D4
:1058CC003A20FEF7CBFF009B002B03D114493B2061
:1058DC00FEF7C4FF019B5B6803930FE0019B9B6881
:1058EC00039A1268009910469847034683F0010307
:1058FC00DBB2002B07D1039B1B680393039B1B6834
:10590C00002BEBD100E000BF039B1A68009B1A60D0
:10591C00039B009A1A6000BF05B05DF804FB00BF42
:10592C006486000000B585B00190019B002B03D16B
:10593C000C495120FEF792FF019B5B681B68039397
:10594C00019B5B681B68002B06D0019B5B681A6887
:10595C00019B5B6812681A60039B184605B05DF8E2
:10596C0004FB00BF6486000000B583B00190019B6E
:10597C00002B03D105495D20FEF770FF019B5B688E
:10598C001B68184603B05DF804FB00BF648600007A
:10599C0000B585B001900091019B002B03D11649F5
:1059AC006920FEF75BFF009B002B03D112496A2094
:1059BC00FEF754FF00238DF80B30019B5B680393BB
:1059CC000FE0039B1B68009A9A4207D1009B1A6850
:1059DC00039B1A6001238DF80B3006E0039B1B68B8
:1059EC000393039B1B68002BEBD19DF80B301846DF
:1059FC0005B05DF804FB00BF6486000000B585B0FF
:105A0C000190019800F00EF80390039B002B01D03D
:105A1C00039B00E0024B184605B05DF804FB00BF89
:105A2C00EC86000086B00190164B0593164B049340
:105A3C001FE0049A059BD31ADB10DA0F13445B109A
:105A4C00DB00059A13440393039B1B680293029A91
:105A5C00019B9A4202D9039B04930AE0029A019B90
:105A6C009A4203D2039B0833059302E0039B5B68C5
:105A7C0004E0059A049B9A42DBD30023184606B037
:105A8C00704700BFC08A0000D88B000000B5A1B0E1
:105A9C0005900491039202930498FFF7F1FD039B88
:105AAC001593029B16930023179300238DF86030F7
:105ABC0000231993229B1A9300231F930FA91F9B5A
:105ACC0008220498FFF7B6FE08231F93119B12932C
