:1000000000000120190200000102000003020000AC
:1000100005020000070200000902000000000000C5
:100020000000000000000000000000000B020000C3
:100030000D020000000000000F020000110200008D
:1000400013020000130200008D23000013020000C1
:1000500013020000130200008522000013020000BA
:10006000130200001302000013020000130200003C
:10007000130200001302000013020000130200002C
:1000800013020000BD58000013020000130200001C
:10009000130200001302000013020000130200000C
:1000A00013020000130200001302000013020000FC
:1000B0001302000013020000000000000000000016
:1000C00013020000130200001302000013020000DC
:1000D00013020000130200001302000013020000CC
:1000E00013020000000000000000000000000000FB
:1000F00000000000130200000000000013020000D6
:1001000000000000000000000000000000000000EF
:1001100000000000000000000000000000000000DF
:1001200000000000000000000000000000000000CF
:1001300000000000000000000000000000000000BF
:1001400000000000000000000000000000000000AF
:10015000000000000000000000000000000000009F
:10016000000000000000000000000000000000008F
:10017000000000000000000000000000000000007F
:10018000000000000000000000000000000000006F
:10019000000000000000000000000000000000005F
:1001A000000000000000000000000000000000004F
:1001B000000000000000000000000000000000003F
:1001C000000000000000000000000000000000002F
:1001D000000000000000000000000000000000001F
:1001E000000000000000000000000000000000000F
:1001F00000000000000000000000000000000000FF
:10020000FEE7FEE7FEE7FEE7FEE7FEE7FEE7FEE7C6
:10021000FEE7FEE700F002B8FFF7FCBF0F484FF023
:100220000701884385460E4880470E48016841F41F
:1002300070010160BFF34F8FBFF36F8F00F01AB8EA
:1002400009480A490A4A884207D0521A05D0037859
:1002500001300B700131013AF9D1704700000120E3
:100260005113000088ED00E0408D000000000020E8
:1002700000000020344935480A1A02D00722914371
:100280008D46334933480A1A06D00722914381F339
:100290000988022282F314882F483049304A00F03E
:1002A00041F830483049314A00F03CF83048314993
:1002B000314A00F037F831483149324A00F032F81B
:1002C00031483249324A00F02DF832483249334A37
:1002D00000F028F832483349334A00F023F8334815
:1002E0003349002200F029F832483349002200F057
:1002F00024F832483249091A08F0E2FC314A9047A2
:100300001F482049884205D00268043003B4904752
:1003100003BCF7E700208646EC46002000212A4A6D
:100320009047FEE7884207D0521A05D00378013083
:100330000B700131013AF9D17047884202D0027046
:100340000130FAE7704700000000012000E00020C3
:1003500000000120000001205CA700000000002038
:10036000F0000020CC030000CC030000D48C00007F
:100370005CA700000000002000000020408D00006D
:10038000408D0000408D0000408D0000408D000039
:10039000408D0000408D0000408D00005CA70000F3
:1003A0004CA80000F0000020F0000020F000002029
:1003B0004C0B00204C0B00204C0B00204C0B002061
:0C03C0004C2B002041020000CD06000084
:1003CC0000B585B00190019B002B0AD0074B43F080
:1003DC0001030393019B9B010293039B0298984793
:1003EC0000E000BF05B05DF804FB00BF708F00009B
:1003FC0000B583B00190019B002B0AD04FF47A70AA
:10040C00FFF7DEFF019B013B0193019B002BF5D114
:10041C0000E000BF03B05DF804FB000030B58FB006
:10042C00434B02221A70424B25225A70404B002239
:10043C009A704FF08053D3F8A4300C934FF0805344
:10044C00D3F8A8300B930C9B0A930B9B0993394A56
:10045C00394BD31ADB081B0443F003030AA904220B
:10046C00184607F095F8334A334BD31ADB081B04B4
:10047C0043F0030309A90222184607F089F8C023A8
:10048C008DF837309DF825209DF837301343DBB2BB
:10049C008DF82530274A284BD31ADB081B0443F070
:1004AC0003032649184607F00FF8224A224BD31AA9
:1004BC00DB081B0443F0030309A90222184607F0CA
:1004CC0067F80A9B1A4AC2F80330BDF82430184A60
:1004DC00A2F807301A4A08AB126811461980023389
:1004EC00120C1A70124B093308AA118892781980D1
:1004FC009A70144B01AC1D460FCD0FC495E8070044
:10050C0084E8070001AB1C2219460F4807F0BEFF18
:10051C00084A094BD31ADB081B0443F003032722B8
:10052C000349184607F034F800BF0FB030BD00BFC8
:10053C00F4000020FC8C0000D48C0000408D0000E6
:10054C00508D0000548D00000001002000B583B0D8
:10055C0003460A468DF8073013468DF806309DF891
:10056C0007301946094808F0CEF89DF80630012BE3
:10057C0007D1074B1B7883F00103DAB2044B1A70D6
:10058C0000E000BF03B05DF804FB00BF808D0000ED
:10059C001B0100204FF080430022C3F800214FF0D4
:1005AC00804301221A6000BF4FF08043D3F8003122
:1005BC00002BF9D04FF080430122C3F818254FF0DF
:1005CC0080430022C3F804214FF0804301229A603B
:1005DC0000BF4FF08043D3F80431002BF9D000BF9B
:1005EC0000BF704700B587B01C4A6B4692E8030009
:1005FC0083E8030001238DF81730194A194BD31ADD
:10060C00DB081B0443F003039DF81720164918461A
:10061C0006F068FF9DF8173040F233321946134844
:10062C0003F080FF0490049B0393039B002B04D0E6
:10063C000F4AE521039804F075F803F0FBFF0490D2
:10064C00049B0293029B002B04D0094AE8210298D8
:10065C0004F068F800BF07B05DF804FB608E000082
:10066C00FC8C0000D48C0000948D00000000002055
:10067C00C88D000000B583B003468DF807300C4AD6
:10068C000C4BD31ADB081B0443F003039DF8072023
:10069C000949184606F026FF9DF80730184603F066
:1006AC00E9FC064803F040FC00BF03B05DF804FB16
:1006BC00FC8C0000D48C0000688E0000F40000203C
:1006CC0000B58DB000230A93FFF764FF04F09EFB86
:1006DC000A900A9B0993099B002B04D0824AFE21A5
:1006EC00099804F01FF84FF48041002006F01EFC1E
:1006FC000A900A9B0893089B002B05D07A4A40F27B
:10070C000111089804F00EF806F0A6FB4FF0805388
:10071C00D3F8A43007934FF08053D3F8A830069346
:10072C004FF080531B6E05934FF080535B6E049318
:10073C004FF08053D3F8A03003936C4A6C4BD31A10
:10074C00DB081B0443F00300039B0093079B069AF2
:10075C00684906F0ECFE039B03F00103079A069927
:10076C00654807F0D0FF059A0499644807F0CBFF61
:10077C00FFF738FF5D4A5E4BD31ADB081B0443F0CE
:10078C0003035F49184606F09FFE584A584BD31A8C
:10079C00DB081B0443F003035A49184606F094FE89
:1007AC00FFF73CFE03F046FB504A514BD31ADB08D3
:1007BC001B0443F00303544AD2F8042511462722A4
:1007CC00184606F0E5FE494A494BD31ADB081B04D0
:1007DC0043F003034D49184606F076FE434A444B5A
:1007EC00D31ADB081B0443F00303042248491846C0
:1007FC0006F0CEFE3D4A3E4BD31ADB081B0443F0F9
:10080C00030304224349184606F0C2FE122000F0EE
:10081C0095FC0A90354A364BD31ADB081B0443F07F
:10082C0003033D49184606F04FFE304A304BD31AAD
:10083C00DB081B0443F003033849184606F044FE5A
:10084C002A4A2B4BD31ADB081B0443F0030334490D
:10085C00184606F039FE0A9B0293029B002B05D02A
:10086C00214A4FF49571029803F05CFF00230B931F
:10087C000B9B2C4A13602C4B1B78002B1FD0252074
:10088C00FFF7F8FE2620FFF7F5FE2720FFF7F2FE14
:10089C00244B1B681946254807F035FF134A144BA7
:1008AC00D31ADB081B0443F003031E4A12681F49CA
:1008BC00184606F017FE1B4B00221A600DE00B4A7F
:1008CC000B4BD31ADB081B0443F0030318491846DF
:1008DC0006F0FAFD20BF40BF20BF0B9B01330B93EA
:1008EC002820FFF785FDC3E7C88D0000FC8C0000B5
:1008FC00D48C0000808E0000908E0000A08E000032
:10090C00AC8E0000C08E000000100040CC8E0000A9
:10091C001C15004024150040DC8E0000F48E0000F5
:10092C00188F0000F00000201B0100202C8F00000D
:10093C00508F000000B583B00190019B1B681846D6
:10094C0000F0ABF80346002B04D10B494FF4F670C2
:10095C0004F0BCFF019B1B681F2B02D84FF0A04377
:10096C0006E0019B1B6803F01F02019B1A60034BFE
:10097C00184603B05DF804FB788F000000030050AC
:10098C0000B585B0019001AB1846FFF7D3FF03907B
:10099C00019B012202FA03F31946039800F069F84F
:1009AC0000BF05B05DF804FB00B585B0019001AB4C
:1009BC001846FFF7BFFF0390019B012202FA03F3D5
:1009CC001946039800F05FF800BF05B05DF804FB12
:1009DC0000B585B0019001AB1846FFF7ABFF039053
:1009EC00039BD3F804350293029BDA43019B01214C
:1009FC0001FA03F31A40039BC3F80825019B01225B
:100A0C009A40029B1A40039BC3F80C2500BF05B00B
:100A1C005DF804FB00B583B001900091009B002BA6
:100A2C0003D10198FFF7C0FF02E00198FFF7A8FF80
:100A3C0000BF03B05DF804FB00B585B0019001ABBD
:100A4C001846FFF777FF0390039800F00AF8024668
:100A5C00019B22FA03F303F00103184605B05DF87D
:100A6C0004FB82B00190019BD3F80435184602B008
:100A7C00704782B001900091019B009AC3F8082541
:100A8C0000BF02B0704782B001900091019B009AA8
:100A9C00C3F80C2500BF02B0704784B00190019BD5
:100AAC005B09029300230393029B002B03D0029B50
:100ABC00012B04D007E04FF0FF33039303E040F227
:100ACC00FF33039300BF019B03F01F030193039AB1
:100ADC00019B22FA03F303F00103002B14BF012343
:100AEC000023DBB2184604B07047000000B585B097
:100AFC000190019B032B03D911493A2004F0E6FE27
:100B0C00104A019B13441B781846FFF795FF0346C8
:100B1C00002B14BF012300238DF80F309DF80F30EC
:100B2C00002B14BF01230023DBB283F00103DBB2E3
:100B3C0003F00103DBB2184605B05DF804FB00BFFF
:100B4C00AC8F00002090000000B583B00190019B99
:100B5C00032B03D90749412004F0B8FE064A019B38
:100B6C0013441B7800211846FFF754FF00BF03B055
:100B7C005DF804FBAC8F00002090000000B583B042
:100B8C000190019B032B03D90749472004F09EFEDB
:100B9C00064A019B13441B7801211846FFF73AFFC4
:100BAC0000BF03B05DF804FBAC8F00002090000088
:100BBC0000B583B00023019305E00198FFF7DEFF39
:100BCC00019B01330193019B032BF6D900BF00BF9E
:100BDC0003B05DF804FB00B583B00023019305E07E
:100BEC000198FFF7B1FF019B01330193019B032B8C
:100BFC00F6D900BF00BF03B05DF804FB00B583B0AD
:100C0C000190019B032B03D907495F2004F05EFE82
:100C1C00064A019B13441B781846FFF7D9FE00BF08
:100C2C0003B05DF804FB00BFAC8F00002090000007
:100C3C0000B583B00C4B1B78002B0FD00023019315
:100C4C0008E0019B022B02D00198FFF797FF019B54
:100C5C0001330193019B032BF3D901E0FFF7A8FFAC
:100C6C0000BF03B05DF804FB240100202DE9D04F38
:100C7C0092B003468DF83F3000231193002310935C
:100C8C00CC4B1B78002B04D0CA4A00231370FFF7FF
:100C9C00CFFF9DF83F30172B00F23F8201A252F894
:100CAC0023F000BF110D0000290D0000290D0000DC
:100CBC00C50D0000610E0000DD0E0000710F00007C
:100CCC00910F0000A10F0000CD0F0000EB0F0000F2
:100CDC00091000002710000035100000351000002E
:100CEC00351000003510000035100000C910000050
:100CFC00D7100000EB100000FF10000019110000CD
:100D0C0019110000FFF794FFAB4B184604F046F99D
:100D1C001190AA4A9DF83F301370FFE10020FFF7B5
:100D2C00E5FE0346002B0DD00020FFF727FF9DF8B2
:100D3C003F30022B02D14FF4E16301E04FF47A63B0
:100D4C0010930BE00020FFF7FFFE9DF83F30022BC5
:100D5C0001D1C82301E04FF4C8731093974A9DF852
:100D6C003F301370944C109B0022009301924FF073
:100D7C0000024FF00003DDE900673946CB03314632
:100D8C0043EA51433146CA0312F57A71029143F199
:100D9C00000303934FF4FA624FF00003DDE9020104
:100DAC0007F034FA02460B46134600221946204639
:100DBC0004F0A4F81190B1E10020FFF797FE034670
:100DCC00002B0DD00020FFF7D9FE9DF83F30032BF0
:100DDC0002D14FF4487301E04FF47A6310930BE0A7
:100DEC000020FFF7B1FE9DF83F30032B01D1C82343
:100DFC0001E04FF4C8731093704A9DF83F301370A4
:100E0C006D4C109B0022049305924FF000024FF0A2
:100E1C000003DDE904673946CB03314643EA51430D
:100E2C003146CA0312F57A71069143F10003079318
:100E3C004FF4FA624FF00003DDE9060107F0E6F922
:100E4C0002460B46134600221946204604F056F87B
:100E5C00119063E10020FFF749FE0346002B06D0FA
:100E6C000020FFF78BFE4FF47A63109305E000200F
:100E7C00FFF76AFE4FF4C8731093504A9DF83F3049
:100E8C0013704D4C109B00229A4693464FF0000273
:100E9C004FF000034FEACB3343EA5A434FEACA32CE
:100EAC0012F57A71089143F1000309934FF4FA6239
:100EBC004FF00003DDE9080107F0A8F902460B46E4
:100ECC00134600221946204604F018F8119025E12B
:100EDC000020FFF70BFE0346002B0CD00020FFF781
:100EEC004DFE9DF83F30052B01D1C82301E04FF496
:100EFC007A6310930BE00020FFF726FE9DF83F303D
:100F0C00052B01D1C82301E04FF4C87310932B4A71
:100F1C009DF83F301370284C109B00229846914648
:100F2C004FF000024FF000034FEAC93343EA584335
:100F3C004FEAC83212F57A710A9143F100030B9310
:100F4C004FF4FA624FF00003DDE90A0107F05EF995
:100F5C0002460B46134600221946204603F0CEFFEC
:100F6C001190DBE00020FFF749FE144A9DF83F305A
:100F7C001370114B002240F26661184603F0BEFF5D
:100F8C001190CBE00020FFF7DFFD0C4A9DF83F30BD
:100F9C001370C3E0074B01221A700120FFF72EFEDD
:100FAC00054B002240F26661184603F0A7FF119032
:100FBC00B4E000BF1D010020080000201C0100202F
:100FCC00594B01221A700120FFF718FE574B0022D3
:100FDC004FF40051184603F091FF11909EE0524BD4
:100FEC0001221A700120FFF709FE504B002240F23B
:100FFC006661184603F082FF11908FE04A4B012284
:10100C001A700120FFF7FAFD484B00224FF40051F3
:10101C00184603F073FF119080E0FFF7DCFD444AA3
:10102C009DF83F30137079E0424B184603F0B6FF41
:10103C0011909DF83F30C3F111031093109B002BBE
:10104C0035D0119B002B32D1109B012B28D9394C58
:10105C00109B9BB21A46C82302FB03F3DA171E46F9
:10106C0017464FF000024FF00003FB0343EA5643D0
:10107C00F20312F57A710C9143F100030D934FF4C6
:10108C00FA624FF00003DDE90C0107F0BFF80246ED
:10109C000B46134600221946204603F02FFF1190F1
:1010AC000220FFF751FD244B01221A7036E002207A
:1010BC00FFF764FD204B00221A702FE0FFF7B8FDFC
:1010CC001B4A9DF83F30137028E0FFF7B1FD00205C
:1010DC00FFF73AFD164A9DF83F3013701EE0FFF7FC
:1010EC00A7FD0120FFF730FD114A9DF83F3013702A
:1010FC0014E0FFF79DFD0020FFF726FD0120FFF710
:10110C0023FD0B4A9DF83F30137007E0FFF763FD9A
:10111C00074A9DF83F30137000E000BF119B184642
:10112C0012B0BDE8D08F00BF1D01002008000020C8
:10113C001C010020280000202401002000B585B0EF
:10114C0003468DF8073000230393084B1B6803F00C
:10115C000103002B05D09DF807301846FFF786FDDC
:10116C000390039B184605B05DF804FB200100209A
:10117C00BFF34F8F00BF064BDB6803F4E0620449FA
:10118C00044B1343CB60BFF34F8F00BF00BFFDE791
:10119C0000ED00E00400FA0582B0114B1B680193CE
:1011AC00104B1B680093019B0D2B14D1009B022B41
:1011BC000DD0009B022B0CD8009B002B03D0009B66
:1011CC00012B02D005E0012306E0012304E00123FA
:1011DC0002E0012300E00023184602B0704700BF74
:1011EC00300100103401001082B0114B1B680193C8
:1011FC00104B1B680093019B0D2B14D1009B022BF1
:10120C000DD0009B022B0CD8009B002B03D0009B15
:10121C00012B02D005E0012306E0012304E00123A9
:10122C0002E0012300E00023184602B0704700BF23
:10123C00300100103401001082B0114B1B68019377
:10124C00104B1B680093019B0D2B14D1009B022BA0
:10125C000DD0009B022B0CD8009B002B03D0009BC5
:10126C00012B02D005E0012306E0012304E0012359
:10127C0002E0012300E00023184602B0704700BFD3
:10128C00300100103401001082B0114B1B68019327
:10129C00104B1B680093019B0D2B14D1009B022B50
:1012AC000DD0009B022B0CD8009B002B03D0009B75
:1012BC00012B02D005E0002306E0002304E001230B
:1012CC0002E0012300E00023184602B0704700BF83
:1012DC00300100103401001008B5FFF7D5FF0346AC
:1012EC00002B07D04FF010234FF08042D3F8083278
:1012FC00C2F8583500BF08BD00BF044BD3F800340A
:10130C00002BFAD000BF00BF704700BF00E00140C7
:10131C0000B583B00190054A019BC2F80435FFF774
:10132C00EBFF00BF03B05DF804FB00BF00E0014021
:10133C00024B034A1A6000BF704700BF48000020F0
:10134C000090D00308B5FFF727FF0346002B0ED003
:10135C004FF080430022C3F80C214FF08043002251
:10136C00C3F810214FF080430022C3F83825FFF753
:10137C003BFF0346002B76D04FF080535E4AD3F8E8
:10138C000434C2F820354FF080535B4AD3F808344C
:10139C00C2F824354FF08053574AD3F80C34C2F8B6
:1013AC0028354FF08053544AD3F81034C2F82C35FA
:1013BC004FF08053504AD3F81434C2F830354FF004
:1013CC0080534D4AD3F81834C2F834354FF080535B
:1013DC00494AD3F81C34C2F840354FF08053464A82
:1013EC00D3F82034C2F844354FF08053424AD3F836
:1013FC002434C2F848354FF080533F4AD3F8283490
:10140C00C2F84C354FF080533B4AD3F82C34C2F819
:10141C0050354FF08053384AD3F83034C2F8543535
:10142C004FF08053344AD3F83434C2F860354FF05F
:10143C008053314AD3F83834C2F864354FF08053B6
:10144C002D4AD3F83C34C2F868354FF080532A4A01
:10145C00D3F84034C2F86C354FF08053264AD3F899
:10146C004434C2F87035FFF7E7FE0346002B0DD06D
:10147C004FF08043D3F8003403F00103002B05D068
:10148C004FF080436FF00102C3F800241B4BD3F8DC
:10149C0088301A4A43F47003C2F88830BFF34F8F78
:1014AC0000BFBFF36F8F00BFFFF716FF4FF0102385
:1014BC00D3F80032002B05DB4FF01023D3F80432A5
:1014CC00002B15DA0120FFF723FF4FF01023122217
:1014DC00C3F80022FFF710FF4FF010231222C3F8BD
:1014EC000422FFF709FF0020FFF712FFFFF740FE71
:1014FC00FFF71EFF00BF08BD00C0004000ED00E07C
:10150C0000B589B001900091009B0793019B1B785B
:10151C008DF80C30019B5B680493019B9B68DBB2DC
:10152C008DF81430019BDB680693074A079B52F831
:10153C0023300649079A51F8221003AA10469847FF
:10154C0000BF09B05DF804FB280100203001002029
:10155C0000B589B001900091009B0793019B1B780B
:10156C008DF80C30019B5B680493019B9B68DBB28C
:10157C008DF81430019BDB680693074A079B52F8E1
:10158C0023300649079A51F8221003AA10469847AF
:10159C0000BF09B05DF804FB2801002030010020D9
:1015AC0030B58FB0039002910192039B1B780C9382
:1015BC0026490C9B019A41F82320029B1A69244965
:1015CC000C9B41F82320029B5B7F1946214A0C9B04
:1015DC0013440A461A70029B04AC1D460FCD0FC46F
:1015EC0095E80F0084E80F000C9B089300230D93E3
:1015FC00039B1B781A46174B9B5C002B0DD0039B4F
:10160C00181D019B002B01D0134A00E0002204ABF3
:10161C00194602F027F90D9014E0039B1B781A462B
:10162C000C4B9B5C002B0DD1039B03F10C00019B1D
:10163C00002B01D0094A00E0002204AB194601F04E
:10164C0095FA0D900D9B18460FB030BD2801002067
:10165C0030010020380100200D1500005D15000040
:10166C0082B003468DF807309DF90730002B0CDB58
:10167C009DF8073003F01F0205499DF907305B09FF
:10168C00012000FA02F241F8232000BF02B070479B
:10169C0000E100E082B0034600918DF807309DF91F
:1016AC000730002B0ADB009BDAB20C499DF907309E
:1016BC005201D2B20B4483F800230BE0009BDAB248
:1016CC0007499DF8073003F00F03043B5201D2B2D7
:1016DC000B441A7600BF02B0704700BF00E100E077
:1016EC0000ED00E082B00190019B1B0B5BB2184631
:1016FC0002B0704700B583B003460A468DF8073038
:10170C0013468DF806309DF80630072B03D908498F
:10171C006B2004F0DBF89DF806209DF9073011468C
:10172C001846FFF7B7FF00BF03B05DF804FB00BF1E
:10173C002490000000B583B003468DF807309DF966
:10174C0007301846FFF78CFF00BF03B05DF804FBB1
:10175C0000B583B00346ADF80630BDF80630184628
:10176C0000F026F803461B68012B0CBF0123002355
:10177C00DBB2184603B05DF804FB00B585B0034638
:10178C00ADF80630BDF80630184600F011F80346E7
:10179C001A4600231360BDF80630184600F008F80E
:1017AC0003461B680393039B00BF05B05DF804FB65
:1017BC0082B00346ADF80630BDF8063003F1804325
:1017CC0003F5C043184602B07047000082B0019088
:1017DC00034A019BC2F8043300BF02B0704700BF3C
:1017EC000060004082B00190034BD3F80423019BAE
:1017FC001340184602B070470060004082B0019060
:10180C00084A019B03F5A27352F82330054943F0B3
:10181C000102019B03F5A27341F8232000BF02B023
:10182C00704700BF0060004084B0039002911346E3
:10183C008DF80730144A039B03F5A27352F823303A
:10184C00114923F44F3323F44073039A02F5A27227
:10185C0041F822300C4A039B03F5A27352F8232063
:10186C00029B1B0203F47C519DF807301B0403F40C
:10187C0040330B4304491A43039B03F5A27341F80D
:10188C00232000BF04B070470060004082B001907C
:10189C00054A019B03F5A27352F823301B0A03F08F
:1018AC003F03184602B070470060004082B00190C0
:1018BC00064A019B03F5A27352F823301B0C03F06C
:1018CC000303DBB2184602B0704700BF0060004053
:1018DC0000B583B00190019B1B68184600F02AF9F3
:1018EC000346002B04D10B494FF4F67003F0EEFFC6
:1018FC00019B1B681F2B02D84FF0A04306E0019BF5
:10190C001B6803F01F02019B1A60034B184603B0BF
:10191C005DF804FB589000000003005000B585B042
:10192C000190084611461A4603468DF803300B46C3
:10193C008DF8023013468DF8013001AB1846FFF7D5
:10194C00C7FF03909DF803209DF802305B001A43FB
:10195C009DF801309B001A439DF818301B0242EA97
:10196C0003019DF81C301B04019A1943039B02F5DB
:10197C00E07243F8221000BF05B05DF804FB00B51F
:10198C0085B003900B468DF80B309DF80B30002280
:10199C00019200220092002200210398FFF7BEFF63
:1019AC0000BF05B05DF804FB00B585B0019001AB3C
:1019BC001846FFF78DFF0390019A039B02F5E07226
:1019CC0053F8223023F002030293019A039B02F591
:1019DC00E072029943F8221000BF05B05DF804FBD9
:1019EC0000B585B001900B468DF8033001AB18465D
:1019FC00FFF76EFF0390019A039B02F5E07253F818
:101A0C002230019A23F44031039B02F5E07243F833
:101A1C002210019A039B02F5E07253F822309DF8D4
:101A2C00032012041146019A1943039B02F5E0723C
:101A3C0043F8221000BF05B05DF804FB00B585B07B
:101A4C00019001AB1846FFF743FF0390039800F099
:101A5C0020F80246019B22FA03F303F00103184617
:101A6C0005B05DF804FB00B585B0019001AB1846DC
:101A7C00FFF72EFF0390019A039B02F5E07253F8D7
:101A8C0022301B0C03F00303DBB2184605B05DF8E3
:101A9C0004FB82B00190019BD3F81035184602B0BC
:101AAC007047000088B0039002910192164A05AB72
:101ABC0092E8030083E80300039B079319E0079B5C
:101ACC009B0020336B4453F80C3CD3F82025019B2E
:101ADC001A60079B9B0020336B4453F80C3C019A13
:101AEC001268C3F82025019B04330193079B013333
:101AFC000793039A029B1344079A9A42DFD300BFC1
:101B0C0000BF08B0704700BF8C90000000B585B0D6
:101B1C00019001AB1846FFF7DBFE0390019B0122FD
:101B2C0002FA03F31A46039BC3F8202500BF05B045
:101B3C005DF804FB84B00190019B5B0902930023C8
:101B4C000393029B002B03D0029B012B04D007E0D4
:101B5C004FF0FF33039303E040F2FF33039300BFD6
:101B6C00019B03F01F030193039A019B22FA03F3D9
:101B7C0003F00103002B14BF01230023DBB2184632
:101B8C0004B0704784B001900091009B0393019BBB
:101B9C00DB080293019B03F0070301930122019BD5
:101BAC0002FA03F30399029A0A4412781340184676
:101BBC0004B0704784B001900091009B0393019B8B
:101BCC00DB080293019B03F007030193039A029B2A
:101BDC0013441B785AB20121019B01FA03F35BB247
:101BEC00134359B2039A029B1344CAB21A7000BF32
:101BFC0004B0704782B001900C4A019B13443033FF
:101C0C0093F90030002B09DB084A019B1344303355
:101C1C0093F90030072B01DC012300E0002303F0D3
:101C2C000103DBB2184602B0704700BF3C01002034
:101C3C0082B00190064A019B1344303393F9003073
:101C4C00072BCCBF01230023DBB2184602B0704730
:101C5C003C01002082B00190064A019B13443033B2
:101C6C0093F90030DB43DBB2DB09DBB2184602B080
:101C7C00704700BF3C01002084B003900291019298
:101C8C008DF80330029B59B20E4A039B1344303338
:101C9C000A461A700B49029B019A41F823209DF8C1
:101CAC00033083F00103DBB2002B08D0029B083B0E
:101CBC00039A51B2034A13440A4683F85A2000BFD0
:101CCC0004B070473C01002082B00190044A019B93
:101CDC0013443033FF221A7000BF02B0704700BFAC
:101CEC003C01002000B583B0019004490198FFF736
:101CFC0061FF00BF03B05DF804FB00BF9A01002038
:101D0C0082B00190044A019B1344303393F90030A4
:101D1C00184602B0704700BF3C01002082B0019011
:101D2C00034A019B52F82330184602B0704700BF9B
:101D3C003C01002084B00190074A019B13445A33A4
:101D4C0093F900308DF80F309DF80F3023F0C0035D
:101D5C00184604B0704700BF3C01002084B00190CD
:101D6C00074A019B13445A3393F900308DF80F3016
:101D7C009DF80F309B09DBB2184604B0704700BFCA
:101D8C003C01002000B589B00390029113468DF8F8
:101D9C000730FF238DF81F309DF80730002B01D042
:101DAC00002300E0082305939DF80730002B01D099
:101DBC00082300E00C230493059B069314E00F4AC0
:101DCC00069B52F82330B3F1FF3F0AD19DF8073040
:101DDC00029A06990398FFF74FFF069B8DF81F3068
:101DEC0006E0069B01330693069A049B9A42E6D3BF
:101DFC009DF91F30184609B05DF804FB3C0100202A
:101E0C0082B003468DF807309DF80730094A4FF031
:101E1C00FF3142F823109DF80730072B07D99DF8A6
:101E2C000730083B034A1344FF2283F85A2000BFB3
:101E3C0002B070473C01002000B583B02D4B93F8E5
:101E4C006430002B03D008230093009B4EE000234A
:101E5C008DF8073011E09DF807301846FFF76AFE41
:101E6C000346002B04D09DF807301846FFF72CFFD3
:101E7C009DF8073001338DF807309DF80730292B7A
:101E8C00E9D900238DF8073009E09DF80730184692
:101E9C00FFF7B6FF9DF8073001338DF807309DF83A
:101EAC0007300B2BF1D906220021134806F024FB36
:101EBC001248FFF717FC034606211846FFF71AFCD9
:101ECC000E48FFF70FFC03461846FFF733FC4FF4A0
:101EDC00BE70FFF752FC4FF00040FFF777FC054B4C
:101EEC00012283F8642000230093009B184603B062
:101EFC005DF804FB3C0100209A01002000600040CA
:101F0C00044B93F86430002B14BF01230023DBB285
:101F1C00184670473C01002000B587B00390029131
:101F2C0001920398FFF706FE0346002B04D13649B5
:101F3C004FF40C7003F0CAFC002305930398FFF7D1
:101F4C0089FE0346002B02D00823059357E0029B21
:101F5C009B78C3F34003DBB21A4601990398FFF751
:101F6C0011FF03468DF813309DF91330B3F1FF3F89
:101F7C0043D0029B9B78C3F38003DBB283F0010355
:101F8C00DBB2002B13D0029B9B7803F00103DBB276
:101F9C00002B03D00398FFF707FD05E0029B5B784D
:101FAC0019460398FFF7EBFC0398FFF79BFE029B87
:101FBC009B7803F00203DBB2002B08D09DF91300D1
:101FCC00029B1B781A460399FFF72EFC17E09DF92C
:101FDC001330083B0D4A134493F95A10029B1B789B
:101FEC009B015AB29DF91330083B0A4351B2074A80
:101FFC0013440A4683F85A2001E004230593059BF9
:10200C00184607B05DF804FB9C9000003C010020D2
:10201C0000B589B001900B468DF803300198FFF79D
:10202C0089FD0346002B04D13A494FF4187003F094
:10203C004DFC0198FFF70EFE0346002B04D13549E9
:10204C0040F2612003F042FC0198FFF7F1FD0346DA
:10205C00002B2AD00198FFF753FE0346083B184685
:10206C00FFF77CFE03468DF80F309DF80F30032BE5
:10207C000BD10198FFF7E2FC0346002B01D00323A0
:10208C0000E002238DF81F3008E09DF80F30012B83
:10209C0001D1022300E003238DF81F309DF81F307F
:1020AC0019460198FFF79CFC30E00198FFF7A2FD60
:1020BC000346002B2AD00198FFF722FE0346069315
:1020CC00069B9BB240339BB29B00ADF81630069B2F
:1020DC001846FFF793FBBDF816301846FFF74DFB7B
:1020EC009DF80330002B11D00198FFF709FE034631
:1020FC001846FFF713FE0490049B002B06D0012218
:10210C00069B02FA03F31846FFF760FB00BF09B009
:10211C005DF804FB9C90000000B583B00190019821
:10212C00FFF708FD0346002B04D1094940F2B22009
:10213C0003F0CCFB0198FFF781FC0346002B14BF86
:10214C0001230023DBB2184603B05DF804FB00BF8B
:10215C009C90000000B585B00190019A02210020EE
:10216C00FFF7A0FC002303930BE0039B9B00019A59
:10217C0013441B68002B01D0012306E0039B0133A1
:10218C000393039B012BF0D90023184605B05DF88F
:10219C0004FB000000B587B00190002305935BE0C1
:1021AC00344A059B13445A3393F90030B3F1FF3F83
:1021BC004ED00598FFF7BEFD049001990498FFF7E7
:1021CC00E1FC0346002B44D00598FFF7C7FD0346FE
:1021DC008DF80F300498FFF746FC03468DF80E304F
:1021EC009DF80E30022B01D1032300E002238DF861
:1021FC000D309DF80D3019460498FFF7F1FB04984B
:10220C00FFF784FC0498FFF77BFD03461846FFF7A5
:10221C0085FD0290029B002B1BD09DF80F30032BE9
:10222C000FD09DF80E30022B03D19DF80F30012BEF
:10223C0007D09DF80E30032B0BD19DF80F30022BDD
:10224C0007D19DF80F20029B11460498984700E097
:10225C0000BF059B01330593059B032BA0D9019867
:10226C00FFF778FF0346002B97D100BF00BF07B0E4
:10227C005DF804FB3C01002000B58BB000230893F3
:10228C0001AB00221A605A604FF48073ADF81A301B
:10229C00012309930023079321E0BDF81A30184657
:1022AC00FFF756FA0346002B0ED00998FFF79AFA5F
:1022BC000346002B08D0BDF81A301846FFF75DFA1C
:1022CC00089A099B13430893099B5B000993BDF87B
:1022DC001A300433ADF81A30079B01330793079B70
:1022EC00072BDAD94FF4BE70FFF732FA0346002BF6
:1022FC000DD04FF4BE70FFF740FA089B43F000433B
:10230C00089301AB1A4602210020FFF7CBFB089B78
:10231C00DBB2002B29D0012309930023079321E082
:10232C00099A089B1340002B16D00798FFF7AEFABA
:10233C0005900798FFF7BAFA03468DF81330079803
:10234C00FFF7ECFC0390039B002B05D09DF81320AA
:10235C00039B114605989847099B5B000993079BC3
:10236C0001330793079B072BDAD9089B002B03DA61
:10237C0001AB1846FFF70EFF00BF0BB05DF804FB76
:10238C0008B5064B1B68002B03D10549512003F0FF
:10239C009DFA024B1B68984708BD00BFA4010020A2
:1023AC002091000082B00190019B044A934201D11C
:1023BC00034B00E00023184602B070470020004099
:1023CC00A401002000B587B001900091019B002B67
:1023DC0003D11849772003F079FA0198FFF7E2FF4F
:1023EC000590059B002B1ED000238DF81330002088
:1023FC0002F044FE059B1B79002B03D001238DF8C2
:10240C00133005E0059B009A1A60059B01221A7196
:10241C00002002F047FE9DF81330002B03D011234F
:10242C000393039B02E000230393039B184607B01E
:10243C005DF804FB2091000000B585B00190019B74
:10244C00002B03D10A499B2003F040FA0198FFF7B7
:10245C00A9FF0390039B002B05D0039B00221A605D
:10246C00039B00221A7100BF05B05DF804FB00BF8E
:10247C002091000082B003468DF807309DF907309B
:10248C00002B0CDB9DF8073003F01F0205499DF96A
:10249C0007305B09012000FA02F241F8232000BF4B
:1024AC0002B0704700E100E082B003468DF80730BF
:1024BC009DF90730002B13DB9DF8073003F01F024A
:1024CC0009499DF907305B09012000FA02F220331B
:1024DC0041F82320BFF34F8F00BFBFF36F8F00BFB6
:1024EC0000BF02B0704700BF00E100E082B00346BD
:1024FC0000918DF807309DF90730002B0ADB009B0B
:10250C00DAB20C499DF907305201D2B20B4483F870
:10251C0000230BE0009BDAB207499DF8073003F06B
:10252C000F03043B5201D2B20B441A7600BF02B027
:10253C00704700BF00E100E000ED00E082B00190C8
:10254C00019B1B0B5BB2184602B0704700B583B001
:10255C0003460A468DF8073013468DF806309DF871
:10256C000630072B03D908496B2003F0AFF99DF80F
:10257C0006209DF9073011461846FFF7B7FF00BF3C
:10258C0003B05DF804FB00BFA091000000B583B060
:10259C0003468DF807309DF907301846FFF76AFFA0
:1025AC0000BF03B05DF804FB00B583B003468DF8A3
:1025BC0007309DF907301846FFF776FF00BF03B0D0
:1025CC005DF804FB84B001900B46ADF80230BDF809
:1025DC000230019A134400221A60BDF80230019AAD
:1025EC0013441B680393039B00BF04B0704782B075
:1025FC0001900B46ADF80230BDF80230019A13443D
:10260C001B68002B14BF01230023DBB2184602B059
:10261C00704782B001900091019B009AC3F804238B
:10262C0000BF02B0704782B001900091019BD3F8BB
:10263C000423009B1340002B14BF01230023DBB2A7
:10264C00184602B0704782B001900091019B009A2D
:10265C00C3F8082300BF02B0704784B00190019BFF
:10266C00D3F880340393019B039AC3F88024039B13
:10267C00184604B0704782B00190019B0422C3F845
:10268C00002500BF02B0704782B00190019B002270
:10269C00C3F8002500BF02B0704784B003900291CC
:1026AC000192039B019AC3F81425039B029AC3F869
:1026BC000C2500BF04B0704700B583B001904FF0FB
:1026CC00FF324FF0FF310198FFF7E7FF00BF03B077
:1026DC005DF804FB82B00190019BD3F80C351846D1
:1026EC0002B0704782B00190019BD3F814351846A4
:1026FC0002B0704782B00190019BD3F808351846A0
:10270C0002B0704782B00190019BD3F81035184687
:10271C0002B0704784B0039002910192039B029A1D
:10272C00C3F80825039B019AC3F8102500BF04B019
:10273C00704700B583B001904FF0FF324FF0FF317E
:10274C000198FFF7E7FF00BF03B05DF804FB82B010
:10275C000190019BD3F81835DBB2184602B07047D4
:10276C0082B001900B468DF803309DF80320019B3D
:10277C00C3F81C2500BF02B0704782B001900B4615
:10278C008DF803309DF80330019A134401221A602E
:10279C0000BF02B0704782B001900B468DF8033039
:1027AC0013468DF802309DF803209DF80230134338
:1027BC00DBB21A46019BC3F86C2500BF02B0704710
:1027CC0082B001900091019B009AC3F8242500BFB0
:1027DC0002B0704700B583B00190019B1B6818468E
:1027EC0000F0A4F80346002B04D10B494FF4F6700B
:1027FC0003F06CF8019B1B681F2B02D84FF0A04311
:10280C0006E0019B1B6803F01F02019B1A60034B3F
:10281C00184603B05DF804FBD4910000000300508F
:10282C0000B585B00190084611461A4603468DF84E
:10283C0003300B468DF8023013468DF8013001AB96
:10284C001846FFF7C7FF03909DF803209DF8023050
:10285C005B001A439DF801309B001A439DF8183019
:10286C001B0242EA03019DF81C301B04019A194318
:10287C00039B02F5E07243F8221000BF05B05DF82F
:10288C0004FB00B585B00390002301930023009353
:10289C000023012201210398FFF7C2FF00BF05B0FE
:1028AC005DF804FB00B585B003900B468DF80B303A
:1028BC009DF80B3000220192002200920022002190
:1028CC000398FFF7ADFF00BF05B05DF804FB00B542
:1028DC0085B0039000230193002300930023012271
:1028EC0000210398FFF79CFF00BF05B05DF804FBC7
:1028FC0000B585B0019001AB1846FFF76BFF039054
:10290C00019B012202FA03F31946039800F004F824
:10291C0000BF05B05DF804FB82B001900091019BF3
:10292C00009AC3F8082500BF02B0704784B001902C
:10293C00019B5B09029300230393029B002B03D0A2
:10294C00029B012B04D007E04FF0FF33039303E00D
:10295C0040F2FF33039300BF019B03F01F0301936D
:10296C00039A019B22FA03F303F00103002B14BF1B
:10297C0001230023DBB2184604B0704700B583B0C6
:10298C0001900091009B1B68B3F1FF3F09D0009BA5
:10299C001B681846FFF7ACFF009B1B681846FFF737
:1029AC0070FF009B5B68B3F1FF3F05D0009B5B6839
:1029BC0000211846FFF776FF019B1A68009B9B6964
:1029CC0019461046FFF7FCFE019B1868009B597DC9
:1029DC00009B1B7D1A46FFF7DEFE019B1868009BCF
:1029EC001968009B5B681A46FFF757FE009B1B7D1E
:1029FC00012B22D1009B9B68B3F1FF3F05D0009BBC
:102A0C009B6800211846FFF74DFF009BDB68B3F174
:102A1C00FF3F09D0009BDB681846FFF769FF009B5E
:102A2C00DB681846FFF72DFF019B1868009BD968DF
:102A3C00009B9B681A46FFF76DFE00BF03B05DF864
:102A4C0004FB000000B583B001900B468DF80330F9
:102A5C00019B1B684FF48E711846FFF7B3FD019B69
:102A6C001B684FF4A2711846FFF7ACFD019B1B6865
:102A7C000E491846FFF7CDFD019B1B681846FFF762
:102A8C005DFD03461A469DF8033019461046FFF7C4
:102A9C005DFD019B1B681846FFF750FD0346184669
:102AAC00FFF774FD00BF03B05DF804FB800002006B
:102ABC0000B583B00190019B1B6808491846FFF7CD
:102ACC00C2FD019B1B681846FFF738FD03461846EC
:102ADC00FFF76AFD00BF03B05DF804FB840202003F
:102AEC0000B587B00190019B1B681846FFF7F2FDFB
:102AFC000590019B1B681846FFF7F4FD0490019BA1
:102B0C001B681846FFF7F6FD0390019B1B681846DF
:102B1C00FFF7F8FD0290019B1B681846FFF7CCFDF0
:102B2C00019B1B681846FFF704FE059BB3F1FF3FA2
:102B3C0002D00598FFF7CBFE049BB3F1FF3F02D008
:102B4C000498FFF7C4FE029BB3F1FF3F02D002983A
:102B5C00FFF7BDFE039BB3F1FF3F02D00398FFF7D5
:102B6C00B6FE00BF07B05DF804FB000000B587B0EF
:102B7C00039002910192029B002B03D12D49AA20B4
:102B8C0002F0A4FE039B1B791A462C2302FB03F3D1
:102B9C00294A1344049300230593049B93F82A3089
:102BAC00002B03D008230593059B3EE0039B1A687A
:102BBC00039B1B791946214B53F8213019461046BB
:102BCC00FFF700FC0346002B03D011230593059B54
:102BDC002BE002990398FFF7D1FE049B019A5A60EF
:102BEC00029B1A69049B1A60049B5B68002B05D03E
:102BFC00029B1B7F19460398FFF724FF039B1B685E
:102C0C001846FFF738FD049B00229A61049B0022B2
:102C1C00DA61049B002283F82920049B00225A616C
:102C2C00049B012283F82A20059B184607B05DF807
:102C3C0004FB00BF10920000AC0100209092000039
:102C4C0000B585B00190019B1B791A462C2302FB21
:102C5C0003F3114A13440393019B1B681846FFF7B7
:102C6C0013FD039B5B68002B02D00198FFF720FF3C
:102C7C000198FFF735FF019B1B681846FFF7DCFB3B
:102C8C00039B002283F82A20039B00225A6000BF7A
:102C9C0005B05DF804FB00BFAC01002000B585B0A9
:102CAC00019000914FF48E710198FFF78BFC009B03
:102CBC009A68009B1B6A13441B788DF80F30009B9D
:102CCC001B6A5A1C009B1A629DF80F30194601981A
:102CDC00FFF746FD00BF05B05DF804FB00B585B0FD
:102CEC0001900091009B5B69039316E0009B93F8A5
:102CFC002830DBB2002B01D0002314E04FF48E718E
:102D0C000198FFF774FC034683F00103DBB2002B40
:102D1C00ECD100990198FFF7C1FF009B1B6A039A45
:102D2C009A42EBD80123184605B05DF804FB00006D
:102D3C0000B587B0039002910192039B1B791A4650
:102D4C002C2302FB03F33C4A13440493049B93F897
:102D5C002A30012B04D039494FF48C7002F0B6FDA7
:102D6C00029B002B04D1354940F2191002F0AEFD44
:102D7C00019B002B04D131494FF48D7002F0A6FD5C
:102D8C00039800F05DF80346002B03D01123059344
:102D9C00059B4CE0049B019A5A61049B029A9A6031
:102DAC00049B00221A62049B002283F82820002333
:102DBC000593039B1B684FF48E711846FFF702FCBA
:102DCC00039B1B6808211846FFF7D7FC039B1B6865
:102DDC0004991846FFF762FF049B5B68002B25D112
:102DEC00039B1B6804991846FFF778FF034683F092
:102DFC000103DBB2002B02D00F23059313E000BFBD
:102E0C00039B1B684FF48E711846FFF7F0FB0346CB
:102E1C0083F00103DBB2002BF2D1039B1B680C2166
:102E2C001846FFF7AAFC049B00225A61059B184622
:102E3C0007B05DF804FB00BFAC010020109200004D
:102E4C0082B00190019B1B791946074A2C2301FB88
:102E5C0003F3134414331B68002B14BF012300230A
:102E6C00DBB2184602B07047AC01002010B582B03E
:102E7C0001900091009B9B69002B08D14FF4847149
:102E8C000198FFF79FFB0198FFF761FC13E04FF4EB
:102E9C0084710198FFF796FB009BDA68009B5B6AD4
:102EAC00D4180198FFF753FC03462370009B5B6A10
:102EBC005A1C009B5A6202B010BD00B589B0039039
:102ECC000291019201238DF81030029B0693019B15
:102EDC000593039B5B68039A116804AA10469847F4
:102EEC0000BF09B05DF804FB00B587B001900091FC
:102EFC0000238DF80830009B0493019B9B6803937F
:102F0C00019B00225A61019B5B68019A116802AA1D
:102F1C001046984700BF07B05DF804FB00B58BB0B6
:102F2C00019000914FF400710198FFF77CFB034670
:102F3C00002B39D04FF492710198FFF758FB0346E0
:102F4C00002B31D04FF492710198FFF73BFB4FF4FB
:102F5C0001710198FFF777FB009B93F8293083F000
:102F6C000103DBB2002B03D004210198FFF705FC11
:102F7C0002238DF80C300198FFF76FFB0346069384
:102F8C00009B9B690593009BDB680493009B0022CC
:102F9C009A61009B0022DA61009B5B68009A1168C1
:102FAC0003AA1046984752E004210198FFF73BFB17
:102FBC000346002B4BD04FF484710198FFF717FB9D
:102FCC000346002B43D000990198FFF74FFF009B5D
:102FDC009A69009B5B6A9A4239D1009BDB69002B92
:102FEC0019D0009BDB680993009B5B6A0893009BDC
:102FFC00DA69009B9A61009B1A69009BDA60009B5E
:10300C000022DA61009B00225A62099A0899009802
:10301C00FFF753FF1BE0009B93F8293083F001036B
:10302C00DBB2002B03D004210198FFF7A6FB4FF471
:10303C0001710198FFF707FB009B00229A61009B2E
:10304C00596A009BDB681A460098FFF736FF4FF46D
:10305C008E710198FFF7CBFA0346002B24D0009B0E
:10306C005B690793009B1B6A079A9A420DD9009BD8
:10307C0093F82830DBB283F00103DBB2002B04D0D1
:10308C0000990198FFF70AFE0EE04FF48E7101983B
:10309C00FFF798FA009B5B69002B05D0009B5B69DE
:1030AC0019460098FFF720FF4FF4A2710198FFF723
:1030BC009EFA0346002B1CD04FF4A2710198FFF727
:1030CC0081FA009B93F82930002B03D00021019842
:1030DC00FFF753FB009B9B69002B0AD0009B00223F
:1030EC009A61009B596A009BDB681A460098FFF7AF
:1030FC00E4FE00BF0BB05DF804FB000008B503490B
:10310C000348FFF70BFF00BF08BD00BFAC01002058
:10311C000020004082B003468DF807309DF907303F
:10312C00002B0CDB9DF8073003F01F0205499DF9BD
:10313C0007305B09012000FA02F241F8232000BF9E
:10314C0002B0704700E100E082B003468DF8073012
:10315C009DF90730002B13DB9DF8073003F01F029D
:10316C0009499DF907305B09012000FA02F220336E
:10317C0041F82320BFF34F8F00BFBFF36F8F00BF09
:10318C0000BF02B0704700BF00E100E082B0034610
:10319C0000918DF807309DF90730002B0ADB009B5E
:1031AC00DAB20C499DF907305201D2B20B4483F8C4
:1031BC0000230BE0009BDAB207499DF8073003F0BF
:1031CC000F03043B5201D2B20B441A7600BF02B07B
:1031DC00704700BF00E100E000ED00E082B001901C
:1031EC00019B03F06043B3F1005F0CBF012300238C
:1031FC00DBB2184602B0704782B00190019B1B0BEA
:10320C005BB2184602B0704700B583B003460A465D
:10321C008DF8073013468DF806309DF80630072BD5
:10322C0003D908496B2002F051FB9DF806209DF94B
:10323C00073011461846FFF7A9FF00BF03B05DF831
:10324C0004FB00BF9492000000B583B003468DF8D8
:10325C0007309DF907301846FFF75CFF00BF03B03D
:10326C005DF804FB00B583B003468DF807309DF97B
:10327C0007301846FFF768FF00BF03B05DF804FB8A
:10328C0084B001900B46ADF80230BDF80230019AC3
:10329C00134400221A60BDF80230019A13441B68D3
:1032AC000393039B00BF04B0704782B001900B46A0
:1032BC00ADF80230BDF80230019A13441B68002BA4
:1032CC0014BF01230023DBB2184602B0704782B052
:1032DC0001900091019BD3F80022009BDB431A4024
:1032EC00019BC3F8002200BF02B0704782B001906E
:1032FC000091019B009AC3F8042300BF02B07047F1
:10330C0082B001900091019B009AC3F8082300BF82
:10331C0002B0704784B00190019BD3F880340393C2
:10332C00019B039AC3F88024039B184604B0704792
:10333C0082B00190019B0822C3F8002500BF02B0A7
:10334C00704782B00190019B0022C3F8002500BF9A
:10335C0002B0704784B0039002910192039B029AD1
:10336C00C3F80C25039B019AC3F8142500BF04B0C5
:10337C00704700B583B001904FF0FF324FF0FF3132
:10338C000198FFF7E7FF00BF03B05DF804FB82B0C4
:10339C000190019BD3F80C35184602B0704782B0EF
:1033AC000190019BD3F81435184602B0704782B0D7
:1033BC000190019BD3F80835184602B0704782B0D3
:1033CC000190019BD3F81035184602B0704784B0B9
:1033DC00039002910192039B029AC3F80825039B68
:1033EC00019AC3F8102500BF04B0704700B583B034
:1033FC0001904FF0FF324FF0FF310198FFF7E7FFDC
:10340C0000BF03B05DF804FB82B001900B468DF851
:10341C0003309DF80330019A134401221A6000BF57
:10342C0002B0704782B001900B468DF80330134602
:10343C008DF802309DF803209DF802301343DBB267
:10344C001A46019BC3F86C2500BF02B0704782B0CE
:10345C0001900091019B009AC3F8242500BF02B093
:10346C00704784B0039002910192029A039BC3F8B7
:10347C004425039B019AC3F8482500BF04B070474C
:10348C0082B00190019BD3F84C35184602B07047BE
:10349C0082B00190019BD3F83C35184602B07047BE
:1034AC0000B583B00190019B1B68184600F0A4F88E
:1034BC000346002B04D10B494FF4F67002F006FAC8
:1034CC00019B1B681F2B02D84FF0A04306E0019B09
:1034DC001B6803F01F02019B1A60034B184603B0D4
:1034EC005DF804FBC89200000003005000B585B0E5
:1034FC000190084611461A4603468DF803300B46D8
:10350C008DF8023013468DF8013001AB1846FFF7E9
:10351C00C7FF03909DF803209DF802305B001A430F
:10352C009DF801309B001A439DF818301B0242EAAB
:10353C0003019DF81C301B04019A1943039B02F5EF
:10354C00E07243F8221000BF05B05DF804FB00B533
:10355C0085B00390002301930023009300230122E4
:10356C0001210398FFF7C2FF00BF05B05DF804FB13
:10357C0000B585B003900B468DF80B309DF80B30E1
:10358C000022019200220092002200210398FFF7F2
:10359C00ADFF00BF05B05DF804FB00B585B003902E
:1035AC0000230193002300930023012200210398A0
:1035BC00FFF79CFF00BF05B05DF804FB00B585B0BC
:1035CC00019001AB1846FFF76BFF0390019B0122A2
:1035DC0002FA03F31946039800F004F800BF05B093
:1035EC005DF804FB82B001900091019B009AC3F836
:1035FC00082500BF02B0704784B00190019B5B09A5
:10360C00029300230393029B002B03D0029B012BFC
:10361C0004D007E04FF0FF33039303E040F2FF3395
:10362C00039300BF019B03F01F030193039A019BBB
:10363C0022FA03F303F00103002B14BF0123002330
:10364C00DBB2184604B0704700B583B0019000910E
:10365C00009B1B68B3F1FF3F09D0009B1B68184609
:10366C00FFF7ACFF009B1B681846FFF770FF009B31
:10367C005B68B3F1FF3F05D0009B5B6800211846E7
:10368C00FFF776FF019B1A68009B9B691946104651
:10369C00FFF7DDFE019B1868009B597D009B1B7D8D
:1036AC001A46FFF7BFFE019B1868009B1968009B28
:1036BC005B681A46FFF74EFE009B1B7D012B22D147
:1036CC00009B9B68B3F1FF3F05D0009B9B680021DA
:1036DC001846FFF74DFF009BDB68B3F1FF3F09D0A5
:1036EC00009BDB681846FFF769FF009BDB681846F8
:1036FC00FFF72DFF019B1868009BD968009B9B6806
:10370C001A46FFF764FE00BF03B05DF804FB00002F
:10371C0000B583B001900B468DF80330019B1B68FC
:10372C004FF488711846FFF7ABFD019B1B684FF4F3
:10373C0090711846FFF7A4FD019B1B684FF4927122
:10374C001846FFF79DFD019B1B684FF4A2711846AC
:10375C00FFF796FD019B1B684FF4AC711846FFF701
:10376C008FFD019B1B680F491846FFF7BFFD019B9E
:10377C001B681846FFF740FD03461A469DF80330B8
:10378C0019461046FFF740FD019B1B681846FFF7D2
:10379C0033FD03461846FFF757FD00BF03B05DF835
:1037AC0004FB00BF1003420000B583B00190019BE5
:1037BC001B6808491846FFF7A3FD019B1B681846B8
:1037CC00FFF71AFD03461846FFF74CFD00BF03B088
:1037DC005DF804FB1003420000B587B00190019B1B
:1037EC001B681846FFF7D3FD0590019B1B68184614
:1037FC00FFF7D5FD0490019B1B681846FFF7D7FD1A
:10380C000390019B1B681846FFF7D9FD0290019BA2
:10381C001B681846FFF7ADFD019B1B681846FFF7A8
:10382C00E5FD059BB3F1FF3F02D00598FFF7B5FE10
:10383C00049BB3F1FF3F02D00498FFF7AEFE029B4E
:10384C00B3F1FF3F02D00298FFF7A7FE039BB3F141
:10385C00FF3F02D00398FFF7A0FE00BF07B05DF852
:10386C0004FB000000B587B0039002910192029B0B
:10387C00002B03D12B49CF2002F028F8039B1B7996
:10388C001A461346DB0013449B00274A1344049347
:10389C0000230593049B93F82030002B03D00823BE
:1038AC000593059B3AE0039B1A68039B1B79194609
:1038BC001E4B53F8213019461046FEF783FD034684
:1038CC00002B03D011230593059B27E00299039845
:1038DC00FFF7BAFE049B019A5A60029B1A69049B7B
:1038EC001A60049B5B68002B05D0029B1B7F19465A
:1038FC000398FFF70DFF039B1B681846FFF718FD95
:10390C00049B00229A61049B0022DA61049B002232
:10391C005A61049B012283F82020059B184607B0AE
:10392C005DF804FB04930000D80100208493000090
:10393C0000B585B00190019B1B791A461346DB003C
:10394C0013449B002A4A13440393019B1B68029364
:10395C00039B5B68002B02D00198FFF725FF202109
:10396C000298FFF7B4FC039B9B69002B08D04FF423
:10397C00A2710298FFF784FC04210298FFF744FD22
:10398C004FF4AC710298FFF77BFC0C210298FFF707
:10399C003BFD00BF4FF4AC710298FFF786FC034669
:1039AC0083F00103DBB2002BF4D1039B9B69002B4A
:1039BC000AD04FF4A2710298FFF777FC034683F00C
:1039CC000103DBB2002BE5D10298FFF7BAFC01989A
:1039DC00FFF702FF0298FEF72FFD039B002283F8EE
:1039EC002020039B00225A6000BF05B05DF804FB49
:1039FC00D801002000B589B0039002910192039B7D
:103A0C001B791A461346DB0013449B00574A134498
:103A1C000593059B93F82030012B04D0544940F2B8
:103A2C00531001F053FF029B002B04D150494FF46B
:103A3C00AA7001F04BFF019B002B04D14C4940F2C2
:103A4C00551001F043FF039B1B79002B03D1019B05
:103A5C00B3F5803F04D346494FF4AB7001F036FF09
:103A6C000298FFF7BBFB034683F00103DBB2002B8C
:103A7C0003D010230793079B73E0039800F07AF8A8
:103A8C000346002B03D011230793079B69E0059B8A
:103A9C00019A5A61059B029A9A6000230793039B33
:103AAC001B684FF490711846FFF7EAFB039B1B68E9
:103ABC004FF4AC711846FFF7E3FB039B1868059BAA
:103ACC009968059B5B691A46FFF7CBFC039B1B6847
:103ADC0008211846FFF798FC059B5B68002B3FD12B
:103AEC00039B1B684FF490711846FFF7DEFB0346EF
:103AFC008DF81B30039B1B684FF4AC711846FFF715
:103B0C00D4FB03468DF81A309DF81B3083F001036B
:103B1C00DBB2002B06D09DF81A3083F00103DBB228
:103B2C00002BDDD19DF81A30002B02D00F23079308
:103B3C0013E0039B1B680C211846FFF765FC00BFC4
:103B4C00039B1B684FF4AC711846FFF7AEFB0346A2
:103B5C0083F00103DBB2002BF2D1059B00225A61EA
:103B6C00079B184609B05DF804FB00BFD801002084
:103B7C000493000082B00190019B1B791946084AFE
:103B8C000B46DB000B449B00134414331B68002BC7
:103B9C0014BF01230023DBB2184602B0704700BFEC
:103BAC00D801002000B589B0039002910192012345
:103BBC008DF81030029B0693019B0593039B5B6869
:103BCC00039A116804AA1046984700BF09B05DF823
:103BDC0004FB00B587B00190009100238DF80830EC
:103BEC00009B0493019B9B680393019B00225A61E9
:103BFC00019B5B68019A116802AA1046984700BFA6
:103C0C0007B05DF804FB00B589B0019000914FF44A
:103C1C0092710198FFF749FB0346002B22D04FF419
:103C2C0092710198FFF72CFB02238DF80830019854
:103C3C00FFF770FB034605930198FFF729FC034639
:103C4C000493009BDB680393009B00229A61009B0A
:103C5C000022DA61009B5B68009A116802AA104688
:103C6C0098473BE04FF488710198FFF71EFB034621
:103C7C00002B33D04FF488710198FFF701FB0198AA
:103C8C00FFF706FC0790009B9B69079A9A4225D187
:103C9C00009BDB69002B17D0009BDB68069320216F
:103CAC000198FFF714FB009BDA69009B9A61009B5B
:103CBC001A69009BDA60009B0022DA61069A079968
:103CCC000098FFF76FFF09E0009B00229A61009BB0
:103CDC00DB681A4607990098FFF764FF4FF4A2714E
:103CEC000198FFF7E2FA0346002B18D04FF4A271AB
:103CFC000198FFF7C5FA009B9B69002B0FD0009B26
:103D0C0000229A61009B0022DA610198FFF7C0FB48
:103D1C000146009BDB681A460098FFF743FF4FF4FF
:103D2C0090710198FFF7C1FA0346002B14D04FF4A1
:103D3C0090710198FFF7A4FA0C210198FFF764FB2E
:103D4C00009B5B69002B07D00198FFF799FB03469A
:103D5C0019460098FFF73DFF4FF4AC710198FFF73F
:103D6C00A4FA0346002B10D04FF4AC710198FFF766
:103D7C0087FA009B5B69002B07D00198FFF780FB4B
:103D8C00034619460098FFF724FF00BF09B05DF801
:103D9C0004FB000008B503490348FFF734FF00BFDC
:103DAC0008BD00BFD80100200020004084B0019065
:103DBC0000230293019BDBB201930023039310E0D9
:103DCC00019A039B22FA03F303F00102039BC3F154
:103DDC00070302FA03F3029A13430293039B013382
:103DEC000393039B072BEBD9029B184604B0704737
:103DFC0010B582B00190019B1B0E1846FFF7D6FF41
:103E0C0003461C06019B1B0C1846FFF7CFFF03460D
:103E1C001B041C43019B1B0A1846FFF7C7FF0346F4
:103E2C001B021C430198FFF7C1FF034623431846AE
:103E3C0002B010BD10B5334B0022C3F8FC2F314B30
:103E4C000122C3F8FC2F2F4B0422C3F80C252D4B59
:103E5C000322C3F810252B4B0322C3F80029294B4E
:103E6C00294AC3F81029274B4FF48032C3F8142980
:103E7C00244B4FF08E32C3F82425C720FFF796FF52
:103E8C0003461C06C620FFF791FF03461B041C4388
:103E9C00C420FFF78BFF03461A4A2343C2F8283588
:103EAC00184B1A4AC3F81C25164C1948FFF7A0FFEB
:103EBC000346C4F82035134B0022C3F82C25114BB4
:103ECC000122C3F830250F4B124AC3F814250D4BB1
:103EDC00114AC3F818250B4B40F20312C3F83425D2
:103EEC00084B0E4AC3F83C25064B0D4AC3F838253F
:103EFC00044B0C4AC3F80022024B9622C3F844250B
:103F0C0000BF10BD001000409402020000D6BE8914
:103F1C00EFCDAB8906010200250003025555550073
:103F2C005B0600010100100000B585B00190484A05
:103F3C00484BD31ADB081B0443F0030346491846CD
:103F4C0003F0C2FA454A019BC2F80435434B0022E8
:103F5C00C3F80021414B0022C3F804213F4B00223F
:103F6C00C3F808213D4B0022C3F80C213B4B002227
:103F7C00C3F86C21394B0022C3F81021374B0122B6
:103F8C001A6000BF354BD3F80031002BFAD0304A01
:103F9C00304BD31ADB081B0443F00303304918469B
:103FAC0003F092FA00BF2D4BD3F80431002BFAD05A
:103FBC00274A284BD31ADB081B0443F00303294977
:103FCC00184603F081FA00BF244BD3F80831002BBC
:103FDC00FAD01F4A1F4BD31ADB081B0443F0030310
:103FEC002149184603F070FA194A1A4BD31ADB0808
:103FFC001B0443F00303194AD2F814241B49184636
:10400C0003F070FA00BF154BD3F86C31002BFAD0CB
:10401C0000BF124BD3F81031002BFAD000230393BE
:10402C0003E000BF039B01330393039B082BF8DDD4
:10403C00074A084BD31ADB081B0443F003030C4953
:10404C00184603F041FA00BF05B05DF804FB00BF51
:10405C00FC8C0000D48C0000889300000010004001
:10406C0094930000A4930000B4930000C493000048
:10407C00D493000000B583B003468DF807309DF84B
:10408C000730184600F010F803461A46054BC3F8E3
:10409C000825044A9DF80730C2F8543500BF03B018
:1040AC005DF804FB0010004082B003468DF8073029
:1040BC009DF80730252B10D09DF80730262B0AD001
:1040CC009DF80730272B04D09DF807305B00DBB23E
:1040DC0004E0502302E01A2300E00223184602B049
:1040EC007047000084B003468DF807309DF8073008
:1040FC005B08DBB21A460D4B9B5C8DF80F309DF8BC
:10410C00073003F00103002B04D09DF80F301B097E
:10411C00DBB204E09DF80F3003F00F03DBB28DF837
:10412C000E309DF80E30184604B070471002002077
:10413C0084B003460A468DF8073013468DF80630D6
:10414C009DF8073003F00103002B01D00F2300E092
:10415C00F0238DF80F309DF8073003F00103002B8E
:10416C0004D09DF806301B01DBB201E09DF806304F
:10417C008DF80E309DF807305B08DBB21A46114BF8
:10418C009A5C9DF807305B08DBB219469DF80F303E
:10419C001340DAB20B4B5A549DF807305B08DBB274
:1041AC001A46084B9A5C9DF807305B08DBB219463F
:1041BC009DF80E301343DAB2024B5A5400BF04B0D0
:1041CC00704700BF1002002000B585B003468DF883
:1041DC0007300023039310E00F4B1A68039BDB009E
:1041EC0013440293029B1B789DF807209A4201D13D
:1041FC00029B0DE0039B01330393084B1B781A467B
:10420C00039B9342E8DB0649882001F05FFB002307
:10421C00184605B05DF804FBFC01002000020020EC
:10422C00F493000000B585B003460A468DF80730BC
:10423C0013468DF806309DF807301846FFF7C4FF7B
:10424C000390039B002B0BD0039B5B68002B07D0C8
:10425C00039B5B689DF806109DF807201046984755
:10426C0000BF05B05DF804FB2DE9F04F85B00346A7
:10427C000A468DF80F3013468DF80E309DF80F302E
:10428C001846FFF72FFF0346042B00F2B48001A25F
:10429C0052F823F0B54200001B43000037430000E6
:1042AC00674300007D4300009DF80E30002B00F0AA
:1042BC009F809DF80F3001211846FFF739FF002031
:1042CC0000F0DCFE9DF80F104FF001024FF00003E0
:1042DC00A1F12004C1F1200003FA01F702FA04F461
:1042EC00274322FA00F0074302FA01F6444BD3E9C4
:1042FC00002346EA020100913B430193404BDDE968
:10430C000012C3E90012002000F0CCFE70E09DF812
:10431C000E30002B01D0022200E000229DF80F305D
:10432C0011461846FFF704FF65E09DF80E30002B90
:10433C000CD09DF80F3003211846FFF7F9FE9DF8BD
:10434C000F3001211846FFF76DFF54E09DF80F3038
:10435C0001211846FFF7ECFE4DE09DF80E30002BC6
:10436C0048D19DF80F3004211846FFF7E1FE41E0DB
:10437C009DF80E30002B06D09DF80F300321184607
:10438C00FFF7D6FE37E09DF80F3000211846FFF7F7
:10439C00CFFE9DF80F3000211846FFF743FF002099
:1043AC0000F06CFE9DF80F104FF001024FF000036F
:1043BC00A1F12006C1F1200003FA01F502FA06F67C
:1043CC00354322FA00F0054302FA01F46FEA0408BF
:1043DC006FEA05090A4BD3E9002308EA020A09EA45
:1043EC00030B074BC3E900AB002000F05BFE02E0BF
:1043FC0000BF00E000BF00BF05B0BDE8F08F00BFFC
:10440C000802002000B583B00648074B1B685B0808
:10441C000022194600F072FD019000BF03B05DF858
:10442C0004FB00BF500000200402002000B587B040
:10443C0001900023059328E01C4B1A68059BDB00B8
:10444C0013440493049B1B781846FDF765FE034642
:10445C008DF80F30049B5B78012B0CBF01230023DC
:10446C00DBB21A469DF80F309A420CBF0123002391
:10447C008DF80E30049B1B789DF80E2011461846C3
:10448C00FFF7F2FE059B01330593094B1B781A4687
:10449C00059B9342D0DB074BD3E90023134301D098
:1044AC00FFF7B0FF00BF07B05DF804FBFC01002074
:1044BC00000200200802002000B585B001900B46D8
:1044CC008DF80330019BDBB21846FFF77DFE03909D
:1044DC00039B1B781846FDF71FFE03468DF80B3027
:1044EC00039B5B78012B0CBF01230023DBB21A4624
:1044FC009DF80B309A420CBF012300238DF80A3033
:10450C009DF80A30002B06D0054BD3E9002313434A
:10451C0001D1FFF777FF00BF05B05DF804FB00BFCA
:10452C000802002000B58BB003900B4601928DF869
:10453C000B30019B092B01D8072367E0FDF7E0FC4A
:10454C00034683F00103DBB2002B09D0FDF774FCAA
:10455C000990099B0893089B002B01D0089B55E000
:10456C002C4A039B13602C4A9DF80B3013702B4A7A
:10457C00019B136020220021294803F0BDFF29492B
:10458C004FF000024FF00003C1E9002331E09DF829
:10459C000B30DB00039A1344079303238DF814307C
:1045AC0000238DF815309DF816306FF300038DF84D
:1045BC0016309DF816306FF341038DF816309DF8C8
:1045CC0016306FF382038DF81630079B9B788DF8AD
:1045DC001530079B1B78184605AB134A1946FDF797
:1045EC009BFC0990099B0693069B002B01D0069B14
:1045FC000CE09DF80B305A1E8DF80B20002BC6D109
:10460C000A4A00210A4800F03FFC034618460BB04A
:10461C005DF804FBFC0100200002002004020020D5
:10462C001002002008020020C5440000394400009C
:10463C007894000000B583B0114B1B68002B04D19B
:10464C00104940F2351001F041F9002301930CE0C0
:10465C000B4B1A68019BDB0013441B780121184695
:10466C00FDF7D6FC019B01330193074B1B781A46CF
:10467C00019B9342ECD30023184603B05DF804FB76
:10468C00FC010020F49300000002002086B003908F
:10469C000291019201238DF817309DF81730204AB2
:1046AC00039B13601E4A029B53601D4A019B93603F
:1046BC00039B44F20102934212D0039B44F2020288
:1046CC00934220D1019B164AD360154BDB681B68C3
:1046DC00134A9361124BDB685B68114AD36112E099
:1046EC00019B0F4A13610E4B1B699B680C4A53616B
:1046FC000B4B1B691B680A4A9361094B1B695B686E
:10470C00074AD36100BF72B600BF00BF9DF81730D7
:10471C00DBB2002BFAD162B600BF00BF06B0704707
:10472C003002002000B583B002900091019244F257
:10473C00010071466A4600F003F803B000BD00BFEB
:10474C0030B58BB007900691059272B600BF03F09E
:10475C000DFA02F0CFFF0346002BFAD1079B44F26F
:10476C000102934216D0079B44F2020293423ED1BF
:10477C00059B09932C4A2D4BD31ADB081B0443F0E1
:10478C000100099B5B681A46099B1B68284902F0CB
:10479C00BAFE39E0059B0893234A244BD31ADB0855
:1047AC001B0443F00104089B9D68089B9B681846FA
:1047BC0002F05CF903461846089B5B681946089B97
:1047CC001B68069A02920193009103462A461949E6
:1047DC00204602F0C2FE144A144BD31ADB081B0409
:1047EC0043F001031449184602F06EFE0CE00E4A29
:1047FC000E4BD31ADB081B0443F00103069A0F4936
:10480C00184602F06FFE00BF0D4B1B6803F001034E
:10481C00002B00D000BE059A06990798FFF736FFCB
:10482C0000BF0BB030BD00BFFC8C0000D48C00006E
:10483C007C94000098940000C0940000D494000074
:10484C00F0ED00E02DE9F04383B0144801F015F8C9
:10485C00034600221C461546114BD3E9002314EBEA
:10486C00020845EB0309CDE900890E4BD3E900237F
:10487C00DDE90001904271EB030307D2DDE900236F
:10488C0012F1807643F10007CDE90067DDE90023E2
:10489C001046194603B0BDE8F08300BF700000203D
:1048AC00580200206002002088B001900091019B0A
:1048BC000793009B0693079BD3E90223CDE90423BE
:1048CC00069BD3E90223CDE90223DDE90423DDE9CC
:1048DC000201904271EB03032CBF01230023DBB2D6
:1048EC00184608B070470000F0B585B00190019BE8
:1048FC005B69002B03D13C49A52000F0E7FF0023A6
:10490C008DF80F30394B1B78002B68D0019B002B96
:10491C0065D0FFF797FF019BD3E90223904271EB1F
:10492C0003034BD3002000F0A9FB019B1B69002B58
:10493C0006D101994FF0FF324FF0FF33C1E902234A
:10494C00002000F0AFFB019B5B69019A9269104655
:10495C009847002000F092FB019B1B69002B1AD09A
:10496C00019BD3E90223B3F1FF3F08BFB2F1FF3F34
:10497C0011D0019BD3E902230199096900200C464F
:10498C000546161943EB0507019BC3E90267012392
:10499C008DF80E3002E000238DF80E30002000F070
:1049AC0081FB9DF80E30002B19D0019B1946104845
:1049BC0001F0B6FF01238DF80F3010E0019BD3E915
:1049CC000223B3F1FF3F08BFB2F1FF3F07D0019BB9
:1049DC001946074801F0A4FF01238DF80F309DF80C
:1049EC000F30184605B0F0BDF894000054020020BA
:1049FC007C95000030B58BB0019000910D2309938C
:104A0C00009B00221A70019BD3E90223CDE90623F7
:104A1C00FFF718FFDDE90623141A63EB0105CDE956
:104A2C000445DDE90423012A73F1000318DB049B20
:104A3C00B3F5350F05D300F0FBFA0246144B1344C3
:104A4C0000E0069B03934FF49603039A0021114850
:104A5C0000F006FE0990099B002B05D1012314E000
:104A6C0000210C4800F0D4FE099B0D2B07D10198B6
:104A7C00FFF73AFF03461A46009B1A7004E00649FA
:104A8C004FF4867000F022FF002318460BB030BDA7
:104A9C00FFFFB40070000020F894000000B583B054
:104AAC00044801F077FF0190019B184603B05DF8B4
:104ABC0004FB00BF7C95000000B583B0044801F0F6
:104ACC008BFF0190019B184603B05DF804FB00BFFF
:104ADC007C95000000B583B0FFF7E0FF0190019BCF
:104AEC00002B06D001994FF0FF324FF0FF33C1E994
:104AFC000223019B002BEFD100BF00BF03B05DF878
:104B0C0004FB0000054BD3E9002312F1807043F144
:104B1C000001024BC3E9000100BF7047580200209E
:104B2C0010B582B00190124B1B68002B1DD0019860
:104B3C0000F0A3FE04460021019800F08FFE03460E
:104B4C001946204600F068FA0346B3F5960F04D3D5
:104B5C00084940F2411000F0B9FE054B1B6818469D
:104B6C00FFF7C2FE024B00221A6000BF02B010BD5C
:104B7C0050020020F894000000B583B00190FFF7BC
:104B8C0061FE02460B460349C1E9002300BF03B096
:104B9C005DF804FB6002002000B587B00190FFF7C0
:104BAC008BFF049000238DF81730049B002B58D0FA
:104BBC00049BD3E90223B3F1FF3F08BFB2F1FF3FDF
:104BCC0002D1FFF76BFF54E02E4B1B68002B03D177
:104BDC0001238DF817301DE0049BD3E90201294B0A
:104BEC001B68D3E90223904271EB030312D2012319
:104BFC008DF81730234B1B68D3E90223B3F1FF3F29
:104C0C0008BFB2F1FF3F05D01E4B1B6819461E486A
:104C1C0001F086FE9DF81730002B2BD0FFF73EFFDE
:104C2C0004900DF10F0319460498FFF7E3FE0346B9
:104C3C00002B12D0134B1B68002B02D1019800F0F3
:104C4C001BFC104A049B13609DF80F3083F001038A
:104C5C00DBB2002BA3D000BF0FE00A4B00221A607E
:104C6C009DE7084B1B68002B06D1019800F01AFC3D
:104C7C0002E094E700BF00E000BF00BF07B05DF8A2
:104C8C0004FB00BF500200207C95000000B587B0EB
:104C9C0001902B4A03AB1946104600F002FF04901A
:104CAC0045E0049B1B78022B2BD0022B2FDC002B16
:104CBC0002D0012B11D02AE0049B5B68D3E90223BC
:104CCC00B3F1FF3F08BFB2F1FF3F22D0049B5B68FA
:104CDC0019461C4801F024FE1BE0049B5A681A4B31
:104CEC001B689A4203D1184B00221A6012E0049BF5
:104CFC005B681946134801F083FE03468DF81730A4
:104D0C0008E0FFF7E7FE114B01221A7002E000BF2A
:104D1C0000E000BF0A4A03AB1946104600F0DAFE69
:104D2C00074A03AB1946104600F0BBFE0490049BE7
:104D3C00002BB6D100BF00BF07B05DF804FB00BF6D
:104D4C00C00200207C95000050020020540200207C
:104D5C0000B583B00190019800F04DFD0346002B87
:104D6C0001D0FFF7CFFE0021019800F062FD034651
:104D7C00002B02D00198FFF7D3FE0121019800F01F
:104D8C0058FD0346002B02D00198FFF7F5FE019861
:104D9C00FFF77CFF0198FFF7FFFE00BF03B05DF843
:104DAC0004FB000008B5024800F074FD00BF08BD0C
:104DBC007000002000B585B0034600918DF80730D7
:104DCC00114A02AB1946104600F03EFE0390039BBD
:104DDC00002B13D0039B9DF807201A70039B009A9D
:104DEC005A60094A02AB1946104600F046FE0346CB
:104DFC00002B01D0FFF7D6FF002300E00423184658
:104E0C0005B05DF804FB00BFC002002000B583B004
:104E1C00164B1B680093164808235822154900F0BE
:104E2C00E0FD0190019B002B01D0019B19E06B462A
:104E3C00114A1946114800F0A1FA0190019B002B70
:104E4C0001D0019B0DE001210C4800F0C3FC0123B3
:104E5C000B4A0121094800F03BFB0A4B01221A7056
:104E6C00019B184603B05DF804FB00BF7895000069
:104E7C00C0020020680200205D4D00007000002080
:104E8C00FFFF7F005402002000B587B003900B4653
:104E9C0001928DF80B30039B002B04D1164940F284
:104EAC005A2000F013FD019B002B04D1124940F253
:104EBC005B2000F00BFD019B002B01D1072317E0B9
:104ECC00039B1B68059305994FF0FF324FF0FF339E
:104EDC00C1E90223059B019A5A619DF80B30012B05
:104EEC000CBF01230023DBB21A46059B1A61002379
:104EFC00184607B05DF804FBF8940000F0B587B0D5
:104F0C00039002910192039B002B04D1224940F2A1
:104F1C006B2000F0DBFC039B0493002000F0AEF848
:104F2C00049BD3E90223B3F1FF3F08BFB2F1FF3F6B
:104F3C0011D1FFF787FC02460B46029900200C4664
:104F4C000546161943EB0507049BC3E902670123C9
:104F5C008DF8173002E000238DF81730002000F098
:104F6C00A1F89DF8173083F00103DBB2002B01D0C0
:104F7C0000230EE0049B019A9A61049B1B69002B91
:104F8C0002D0049B029A1A6104990020FFF712FFC9
:104F9C000346184607B0F0BDF894000000B585B084
:104FAC000190019B002B04D11A4940F2932000F090
:104FBC008DFC019B0293002000F060F8029BD3E96A
:104FCC000223B3F1FF3F08BFB2F1FF3F03D100232F
:104FDC008DF80F3009E002994FF0FF324FF0FF339C
:104FEC00C1E9022301238DF80F30002000F05AF89C
:104FFC009DF80F3083F00103DBB2002B01D00023AE
:10500C0004E002990120FFF7D5FE0346184605B0CF
:10501C005DF804FBF894000082B001900091019AB5
:10502C00009BD31A23F07F43184602B07047000050
:10503C0008B5034800F021FC0346184608BD00BF24
:10504C007000002072B600BF034B1B680133024A8C
:10505C00136000BF704700BFD4020020064B1B68D2
:10506C00013B054A1360044B1B68002B01D162B64F
:10507C0000BF00BF704700BFD402002000B583B052
:10508C00019000F025F80346012B03D0044943207E
:10509C0000F01CFCFFF7D6FF00BF03B05DF804FB6B
:1050AC008895000000B583B003468DF8073000F0FA
:1050BC000FF80346012B03D00449512000F006FCE5
:1050CC00FFF7CCFF00BF03B05DF804FB8895000030
:1050DC0084B0EFF305830193019BC3F3080303939F
:1050EC00039B002B0DD1EFF314830093009B0293D1
:1050FC00029B03F00103002B0CBF01230023DBB246
:10510C0000E00123184604B07047000082B003464B
:10511C008DF807309DF90730002B0CDB9DF807301C
:10512C0003F01F0205499DF907305B09012000FAC5
:10513C0002F241F8232000BF02B0704700E100E00A
:10514C0082B003468DF807309DF90730002B0DDB3C
:10515C009DF8073003F01F0206499DF907305B09E3
:10516C00012000FA02F2403341F8232000BF02B0C4
:10517C00704700BF00E100E082B0034600918DF85B
:10518C0007309DF90730002B0ADB009BDAB20C4983
:10519C009DF907305201D2B20B4483F800230BE087
:1051AC00009BDAB207499DF8073003F00F03043B6C
:1051BC005201D2B20B441A7600BF02B0704700BF46
:1051CC0000E100E000ED00E000B583B003460A46C4
:1051DC008DF8073013468DF806309DF80630072BF6
:1051EC0003D908496B2000F071FB9DF806209DF94E
:1051FC00073011461846FFF7BFFF00BF03B05DF83C
:10520C0004FB00BF1096000000B583B003468DF878
:10521C0007309DF907301846FFF778FF00BF03B041
:10522C005DF804FB00B585B00190019B002B0AD002
:10523C00074B43F001030393019B9B010293039BD8
:10524C000298984700E000BF05B05DF804FB00BF72
:10525C004097000084B0039002910192039B029A44
:10526C0002F5A872019943F8221000BF04B07047F0
:10527C0082B001900091019B009A02F5A87253F83C
:10528C002230184602B0704782B001900091019B09
:10529C00009AC3F8042300BF02B0704782B001909B
:1052AC000091019B009AC3F8082300BF02B070471D
:1052BC0082B001900B46ADF80230BDF80230019A75
:1052CC0013441B68184602B0704784B001900B461B
:1052DC00ADF80230BDF80230019A134400221A6076
:1052EC00BDF80230019A13441B680393039B00BF63
:1052FC0004B0704782B00190019BD3F80435184676
:10530C0002B0704700B583B001900091009BB3F5DB
:10531C00805F04D306494FF4BE7000F0D7FA019BAE
:10532C00009AC3F8082500BF03B05DF804FB00BF6A
:10533C004496000082B001900B468DF803309DF826
:10534C000320019B13441A460123136000BF02B0D3
:10535C00704782B001900091019B009AC3F84423DE
:10536C0000BF02B0704782B001900091019B009A7F
:10537C00C3F8482300BF02B07047000000B587B0E7
:10538C00039002910192039B002B03D133495520CA
:10539C0000F09CFA029B002B03D13049562000F000
:1053AC0095FA019B002B03D12C49572000F08EFA63
:1053BC00039B5B7919462A4A019B42F82130039BD7
:1053CC005B79284ADB0013441B79002B0ED0082391
:1053DC000593254A254BD31ADB081B0443F0020323
:1053EC002349184602F070F8059B32E0039B1A68BB
:1053FC00029B1B8819461046FFF784FF039B93F909
:10540C000420029B9B7819461046FFF7DDFE039B98
:10541C0093F904301846FFF7F7FE039B5B79114AAA
:10542C00DB00134401221A71039B5B7919460D4A68
:10543C00039B42F83130002305930B4A0B4BD31AD4
:10544C00DB081B0443F003030A49184602F03CF83E
:10545C00059B184607B05DF804FB00BF749600006E
:10546C00D8020020DC0200200C8D0000D48C00003F
:10547C00F49600001897000000B583B00190019BD2
:10548C00002B03D10649872000F020FA019B1B68F2
:10549C0000211846FFF74EFF00BF03B05DF804FB78
:1054AC007496000000B583B00190019B002B03D1D2
:1054BC0006498D2000F00AFA019B1B68042118464E
:1054CC00FFF738FF00BF03B05DF804FB74960000D3
:1054DC0000B587B00390029101928DF80330039BC5
:1054EC00002B03D12149962000F0F0F94FF48032C3
:1054FC00029B02FA03F30593029B50339BB29B0071
:10550C00ADF81230019B23F07F430193039B1B6882
:10551C0005991846FFF7C2FE039B1B6805991846B0
:10552C00FFF721FF039B1B68BDF81220114618469C
:10553C00FFF7CBFE039B1B68019A02991846FFF7F5
:10554C0089FE039B1B6805991846FFF702FF9DF81F
:10555C000330002B05D0039B1B6805991846FFF7F9
:10556C0093FE00BF07B05DF804FB00BF749600000B
:10557C0000B585B00390029113468DF80730039B5C
:10558C00002B03D10B49A92000F0A0F9039B1B6849
:10559C0002991846FFF7DDFE9DF80730002B05D069
:1055AC00039B1B6802991846FFF76EFE00BF05B0FF
:1055BC005DF804FB7496000000B583B00190009177
:1055CC00019B002B03D10A49B32000F07FF9019B0A
:1055DC001B6800991846FFF7C6FE019B1B680099D3
:1055EC001846FFF75BFE00BF03B05DF804FB00BF7D
:1055FC007496000000B583B001900B46ADF80230F4
:10560C00019B002B03D10F49BA2000F05FF9019BDD
:10561C001B68BDF8022011461846FFF749FE0346E9
:10562C00002B09D0019B1B68BDF8022011461846BF
:10563C00FFF74BFE012300E00023184603B05DF892
:10564C0004FB00BF7496000082B001900091019A97
:10565C00009BD31A23F07F43184602B0704700001A
:10566C0000B58BB00390029101920093039B002B29
:10567C0003D15749CD2000F029F94FF48032029B19
:10568C0002FA03F30993029B50339BB29B00ADF8D3
:10569C002230019B23F07F43019309990398FFF774
:1056AC008BFF039B1B681846FFF724FE0790039B98
:1056BC001B6802991846FFF7DBFD0690039B1B68DD
:1056CC00079A02991846FFF7C5FD039B1B68BDF8A6
:1056DC00222011461846FFF7F8FD07990698FFF7A8
:1056EC00B3FF0346012B0AD11020FFF79BFD039B50
:1056FC001B68BDF8222011461846FFF7E6FD039BF8
:10570C001B681846FFF7F6FD079007990198FFF7FD
:10571C009BFF0590039B1B6809991846FFF719FE20
:10572C00059B012B15D1039B1868019B01331A466D
:10573C000299FFF78FFD1020FFF774FD039B1B6888
:10574C001846FFF7D7FD0246079B934235D00D2331
:10575C0039E0039B1B68019A02991846FFF77AFD02
:10576C00039B1B681846FFF7C5FD0790019B013B87
:10577C0007991846FFF768FF0590009BC3F1FF13CC
:10578C0003F57F43059A9A4201D90D231BE0059B33
:10579C00002B12D1039B1868019B01331A46029906
:1057AC00FFF758FD039B1B681846FFF7A3FD024645
:1057BC00079B934201D00D2305E001220999039820
:1057CC00FFF7D6FE002318460BB05DF804FB00BFB4
:1057DC007496000000B583B001900B468DF8033031
:1057EC009DF803301A4602210198FFF7C1FE00BF55
:1057FC0003B05DF804FB00B583B001904FF48271E7
:10580C000198FFF7F7FE0346184603B05DF804FB5A
:10581C0000B583B0019000914FF48032009B02FAE6
:10582C0003F319460198FFF7C7FE00BF03B05DF8FC
:10583C0004FB00B585B001900091009B50339BB2E6
:10584C009B00ADF80E30BDF80E3019460198FFF7ED
:10585C00D1FE0346184605B05DF804FB00B583B0D5
:10586C0001900091019B1B6800991846FFF700FD01
:10587C000346184603B05DF804FB00B583B00190F5
:10588C00019B1B681846FFF735FD0346184603B00D
:10589C005DF804FB00B583B00190019B93F90430D3
:1058AC001846FFF74DFC00BF03B05DF804FB000089
:1058BC0008B5044B1B68044A12681046984700BF91
:1058CC0008BD00BFD8020020DC02002000B585B066
:1058DC0003460091ADF80630BDF806300293009BEC
:1058EC00039302AB1A46002144F20200FEF728FF94
:1058FC0000BF05B05DF804FB86B001900091019BE0
:10590C0053E8011F8AB2D88902449889824228BF81
:10591C00121A1889824202BFBFF32F8F002307E0AF
:10592C00C2EA010243E801200028E9D14FF001034B
:10593C008DF80F30059002910492029A009B1A6028
:10594C009DF80F30DBB2184606B0704784B001905A
:10595C00019951E8013FC3EA034341E80132002AAF
:10596C00F7D10392029300BF04B0704786B0019048
:10597C000091019B53E8021F1FFAA1F2D8888242C2
:10598C0002BFBFF32F8F00230DE0D8890244988902
:10599C00824228BF121AC1EA024243E802200028C0
:1059AC00E8D14FF001038DF80F300590029104926D
:1059BC00029A009B1A609DF80F30DBB2184606B0B5
:1059CC00704784B00190019951E8023FC3EA234328
:1059DC0041E80232002AF7D10392029300BF04B0CF
:1059EC00704784B00390029111461A460B46ADF8ED
:1059FC0006301346ADF80430029B002B01D10E2368
:105A0C001FE0BDF80630BDF80420B3FBF2F101FB3A
:105A1C0002F29B1A9BB2002B01D0092311E0039BCD
:105A2C00029A1A60039B00225A60039B00229A6020
:105A3C00039BBDF806209A81039BBDF80420DA81F4
:105A4C000023184604B0704700B585B00190009152
:105A5C00009B19460198FFF74FFF0346002B07D018
:105A6C00019B1B68009A128813440393039B00E06C
:105A7C000023184605B05DF804FB00B583B0019017
:105A8C000091009B1A88009B5B889A4204D1019874
:105A9C00FFF75CFF012300E00023184603B05DF81C
:105AAC0004FB00B585B001900091009B194601984C
:105ABC00FFF75CFF0346002B07D0019B1B68009A85
:105ACC00528813440393039B00E00023184605B04F
