:1000000000000120190200000102000003020000AC
:1000100005020000070200000902000000000000C5
:100020000000000000000000000000000B020000C3
:100030000D020000000000000F020000110200008D
:100040009525000013020000292A00008D2D0000D4
:100050001302000013020000AD280000130200008C
:10006000130200001302000013020000130200003C
:10007000130200001302000013020000130200002C
:10008000F53A00008547000013020000130200004B
:10009000130200001302000013020000130200000C
:1000A00013020000130200001302000013020000FC
:1000B0001302000013020000000000000000000016
:1000C00013020000130200001302000013020000DC
:1000D00013020000130200001302000013020000CC
:1000E00013020000000000000000000000000000FB
:1000F00000000000130200000000000013020000D6
:1001000000000000000000000000000000000000EF
:1001100000000000000000000000000000000000DF
:1001200000000000000000000000000000000000CF
:1001300000000000000000000000000000000000BF
:1001400000000000000000000000000000000000AF
:10015000000000000000000000000000000000009F
:10016000000000000000000000000000000000008F
:10017000000000000000000000000000000000007F
:10018000000000000000000000000000000000006F
:10019000000000000000000000000000000000005F
:1001A000000000000000000000000000000000004F
:1001B000000000000000000000000000000000003F
:1001C000000000000000000000000000000000002F
:1001D000000000000000000000000000000000001F
:1001E000000000000000000000000000000000000F
:1001F00000000000000000000000000000000000FF
:10020000FEE7FEE7FEE7FEE7FEE7FEE7FEE7FEE7C6
:10021000FEE7FEE700F002B8FFF7FCBF0F484FF023
:100220000701884385460E4880470E48016841F41F
:1002300070010160BFF34F8FBFF36F8F00F01AB8EA
:1002400009480A490A4A884207D0521A05D0037859
:1002500001300B700131013AF9D1704700000120E3
:10026000391A000088ED00E06067000000000020FF
:1002700000000020344935480A1A02D00722914371
:100280008D46334933480A1A06D00722914381F339
:100290000988022282F314882F483049304A00F03E
:1002A00041F830483049314A00F03CF83048314993
:1002B000314A00F037F831483149324A00F032F81B
:1002C00031483249324A00F02DF832483249334A37
:1002D00000F028F832483349334A00F023F8334815
:1002E0003349002200F029F832483349002200F057
:1002F00024F832483249091A06F0C6F9314A9047C3
:100300001F482049884205D00268043003B4904752
:1003100003BCF7E700208646EC46002000212A4A6D
:100320009047FEE7884207D0521A05D00378013083
:100330000B700131013AF9D17047884202D0027046
:100340000130FAE7704700000000012000E00020C3
:100350000000012000000120B4EC0100000000209A
:100360005C050020CC030000CC0300009C6600006C
:10037000B4EC0100000000200000002060670000D5
:100380006067000060670000606700006067000051
:10039000606700006067000060670000B4EC010067
:1003A00010F201005C0500205C0500205C050020C7
:1003B000AC140020AC140020AC140020AC140020BD
:0C03C000AC340020410200005510000089
:1003CC0000F5E0704FF0A043032243F82020704763
:1003DC0013B5154B154C1B78042B4FF0000001D0B6
:1003EC00022B19D1636800936388114A11481321B9
:1003FC0005F00CFEC0B20F4B0344C0F113020021F8
:10040C00184605F039FD247A0B49224605F0FEFC0E
:10041C002322025502B010BD062BECD16368009369
:10042C006388064AE2E700BF720500205C050020E5
:10043C00606700008D050020650500206B670000DB
:10044C0008B50848084B0949C01AC008000440F018
:10045C00030005F089F805F035F904F043FF002896
:10046C00FBD108BDDC6600009C66000076670000CE
:10047C0008B5064800224FF4005103F007FF18B1ED
:10048C00BDE8084003F0EABD08BD00BF40000020F5
:10049C002DE9F04FB3B001F0E7FD05238DF8523094
:1004AC00324B334E18681B798DF82430002308909A
:1004BC00304F15971A46012108A801F00DFA03AD2B
:1004CC00D6F8049006F108080024AA466FF0010B38
:1004DC00317A294A6300A142DBB234DC1A46514618
:1004EC0016A88DF88A30239705F090FC0023022281
:1004FC00012116A801F0F0F9204A4B46072101A86A
:10050C0005F084FD04280446C5B227DC1C4B31934E
:10051C00224601A924A805F079FC319B8DF8C25024
:10052C001B7804FB03F000EBD0704010C0F14000CE
:10053C00012324AA182100B201F0DAF801F04CFDD5
:10054C0033B0BDE8F08F0BFB04F1284618F8013FDF
:10055C00143105F05BFD01340235B9E7052D01D1ED
:10056C00084BD4E7062DD3D1074BD0E784670000A6
:10057C005C050020057901006569000076E1010049
:10058C0071C3000099960000046E000010B5174866
:10059C0003F0A5FE044668B1154A164B16499B1A82
:1005AC00DB081B0443F00300144A04F0E1FF20466F
:1005BC0003F054FD01F008F90C48002240F6CD413F
:1005CC0003F064FE044668B1094A0A4B0C499B1AB5
:1005DC00DB081B0443F00300084A04F0C9FF204663
:1005EC0003F03CFDBDE8104003F0CEBAC000002083
:1005FC009C660000DC6600008A6700001DE00100BC
:10060C00B167000070B51D4B92B06A4603F1080645
:10061C00154618685968144603C40833B342224679
:10062C00F7D118689B882060A38095E80F0004AC74
:10063C0007C423700D238DF842301148114B1193D0
:10064C00002240F6CD4103F021FE044668B10E4A6B
:10065C000E4B0F499B1ADB081B0443F003000D4A99
:10066C0004F086FF204603F0F9FC112104A801F0E8
:10067C00EDF803F089FA12B070BD00BFFD67000001
:10068C00C0000020492301009C660000DC660000CD
:10069C00D667000033E0010038B5054D044645F03F
:1006AC0001054FF47A40A847013CFAD138BD00BF90
:1006BC0060E0010008B501F015F8FFF7E9FE044B06
:1006CC00044804221A70BDE8084003F008BE00BFBD
:1006DC00720500206000002010B50446164805F095
:1006EC000DFA164A164B17499B1ADB081B0443F0EC
:1006FC00030004F039FF2378032B07D100F0F2FF3D
:10070C00FFF7C6FE104B04221A7010BD062B03D146
:10071C00BDE81040FFF776BF022B01D0052BF4D1BA
:10072C0000F0E0FFFFF7B4FE074B04221A70BDE89F
:10073C001040FFF79DBE00BF0B6800009C660000D8
:10074C00DC66000020680000720500202028054BA4
:10075C004FF0010238BF4FF0A0438240C3F8082588
:10076C00704700BF0003005008B51F20FFF7EEFFD5
:10077C006420FFF791FF4FF0A0434FF00042C3F805
:10078C000C2508BD70B5294D294C25236B70002311
:10079C00AB7002264FF080532E70D3F8A420D3F800
:1007AC00A83086B0CDE90223224BE41AE4082404D5
:1007BC0044F0030402A92046042204F007FF324649
:1007CC0003A9204604F002FF9DF80D301A4963F08E
:1007DC003F0320468DF80D3004F0C6FE324603A9C7
:1007EC00204604F0F3FE029BC5F80330BDF80C3034
:1007FC00A5F80730114B1A88ADF80420BDF8042079
:10080C00A5F809200E4A9B7810685168EB7204AB6E
:10081C0003C304AB03CBE8602961FFF7D9FD2722A2
:10082C002946204604F0D2FE06B070BD79050020A2
:10083C00DC6600009C660000356800004368000020
:10084C00E06D00001FB501F0BDFC002001F00CFDB7
:10085C00002001F0D7FC01F0FFFC0028FBD0084A77
:10086C0007CA01AB83E807000649184603F052F9A2
:10087C00054803F09FF903F079F905B05DF804FB26
:10088C00E86D00004D0400007805002008B503F069
:10089C0067FABDE80840014803F034BA7905002036
:1008AC0008B5FFF795FD2520FFF7F0FF2620FFF791
:1008BC00EDFF2720FFF7EAFFBDE8084003F064B91D
:1008CC002DE9F043914B924FDFF8BC92914EFF1AF9
:1008DC00FF083F0447F0030402468FB005468846E4
:1008EC0020468D4904F044FE8C4805F0F1FB99F844
:1008FC0000208B49204604F03BFE33784BB98948E5
:10090C0005F0FCF8874920460FB0BDE8F04304F031
:10091C002BBEB8F1010F40F0D78099F80030042BB2
:10092C0040F0AE808049204604F01EFE7F4980488E
:10093C0005F0CEFB142D2ED01A2D73D00F2D40F0B8
:10094C00B3807C49204604F00FFE7B4805F0D6F8B6
:10095C0001F08AFB794B0D93794B18681B79009049
:10096C0042464146684605248DF8043043468DF8CE
:10097C00324000F0B1FF01F02FFB4A464FF400412A
:10098C00704889F8004003F081FCFFF7EDFE6E48DB
:10099C0003F0A5FC3FE071686C480131716005F013
:1009AC0097FB20466A4904F0DFFD204672686949CE
:1009BC0004F0DEFD20467288674904F0D9FD327AD6
:1009CC0006F10901204604F001FE00F0ADFD63497B
:1009DC000246204604F0CCFDFFF75AFDFFF760FFFE
:1009EC0020465F49324604F0C3FD00F017FD044673
:1009FC0058B147F001004D4A5A4904F0B9FD204660
:100A0C0003F02CFB204603F029FB5748002240F250
:100A1C00666103F03BFC002846D00FB0BDE8F04304
:100A2C0003F01CBB00F080FD4C490246204604F04C
:100A3C009FFD4E4805F062F84C49204604F094FDA9
:100A4C00716821B94A4805F059F849495BE7013901
:100A5C004048716005F03CFBFFF71AFDFFF720FFE3
:100A6C0000F0DCFC04460028CFD047F001002F4AF0
:100A7C003C4904F07DFD2D493E4805F029FBC1E7BA
:100A8C00052B11D1142D12D01A2D10D00F2D0BD1E6
:100A9C002C4803F024FC3848002240F2666103F035
:100AAC00F5FB364B83F800800FB0BDE8F083FFF701
:100ABC0001FE324B304800221A7003F010FC0FB0CC
:100ACC00BDE8F043FFF7D4BCB8F1000FECD10F2D0B
:100ADC00EAD199F80030052B11D1284D2B78002B39
:100AEC00E2D02046264904F03FFDFFF7E3FD224803
:100AFC0085F800800FB0BDE8F04303F0F0BB03F0C5
:100B0C00FD03042BD0D11F49FDE600BF9C660000FD
:100B1C00DC6600005C05002047680000716800007E
:100B2C008D680000A0680000BF68000046E001006E
:100B3C00F1680000F7690000076A00004923010012
:100B4C00196A0000600000204000002006690000C7
:100B5C001669000022690000386900006569000010
:100B6C004E69000068690000200000209A690000AE
:100B7C00A7690000C4690000A000002071050020D6
:100B8C001F6A0000386A00007205002008B50B4887
:100B9C0003F0A5FB08B103F061FA01211420FFF763
:100BAC008FFE064800224FF4005103F06FFB18B182
:100BBC00BDE8084003F052BA08BD00BF4000002059
:100BCC0030B52A4D2B788FB08BB9294B29482A493F
:100BDC00C01AC008000440F0030004F0C5FCFFF785
:100BEC0069FD26480FB0BDE8304003F078BB244CBB
:100BFC0023680133132B23602ED9204803F06FFB9D
:100C0C00204B2148002240F266611A7003F03EFB33
:100C1C001E4803F064FB08B103F020FA01F024FA3B
:100C2C001B4B0D9304238DF832301A4B0093012388
:100C3C0019461A46684600F04FFE01F0CDF9164BE6
:100C4C0006221A7000232B702360FFF729FE0FB0C9
:100C5C00BDE83040FFF788BD0848002240F26661CD
:100C6C000FB0BDE8304003F011BB00BF7105002090
:100C7C009C660000DC660000476A0000A0000020B3
:100C8C00740500207005002020000020800000204A
:100C9C0049230100444F4E457205002010B50D4804
:100CAC0003F01DFB044630B10B490C4805F010FA5B
:100CBC00204603F0D3F9FFF7F3FD0648002240F27B
:100CCC00666103F0E3FA18B1BDE8104003F0C6B951
:100CDC0010BD00BF80000020FADF01005F6A000039
:100CEC0008B5084804F00AFFFFF7DAFD06480022B1
:100CFC0040F2666103F0CAFA18B1BDE8084003F08F
:100D0C00ADB908BD786A00008000002070B5314B89
:100D1C00314C3249E41AE408240444F0030420461C
:100D2C0004F022FC2E4803F0DAFA054602F02CFF00
:100D3C0035B120462B4904F017FC284603F08EF9F8
:100D4C00294E3378062B43D1284A13780133DBB272
:100D5C00092B137028D9264900232046137004F060
:100D6C0003FC00F0CDFB23490546204604F0FCFBB8
:100D7C0035B12046204904F0F7FB284603F06EF904
:100D8C001E4B01221A701E4A1268C3F80920042453
:100D9C001C7200F0A7FCFFF77BFB3470FFF7A0FF81
:100DAC00BDE87040FFF764BBFFF77AFD0C480022EA
:100DBC0040F2666103F06AFA054648B12046114AD2
:100DCC00114904F0D5FB2846BDE8704003F046B944
:100DDC0070BD00BF9C660000DC660000966A0000D7
:100DEC0020000020B76A000072050020700500206A
:100DFC00E76A00000E6B0000316B00005C05002000
:100E0C0018000020E0DF0100566B000010B54FF415
:100E1C008041002004F014FA08B103F01FF904F02B
:100E2C0059F9374C374B3849E41AE408240444F098
:100E3C0003040322204604F09BFB0321334805F0F6
:100E4C0047F933484FF4A472032103F099F808B121
:100E5C0003F004F92F49204604F086FB2D4804F0DA
:100E6C004DFE03F0E5F808B103F0F8F820462A49E6
:100E7C0004F07AFB284804F041FE04F033FA002811
:100E8C00FBD11F20FFF79CFA03F0BCF908B103F06B
:100E9C00E5F80F20FFF700FC204A2148002103F061
:100EAC00E3F908B103F0DAF81E4A1F48002103F0F9
:100EBC00DBF908B103F0D2F81C4A1D48002103F0FD
:100ECC00D3F908B103F0CAF81A4A1B48002103F001
:100EDC00CBF908B103F0C2F8184A1948002103F005
:100EEC00C3F908B103F0BAF8164A1748002103F009
:100EFC00BBF918B1BDE8104003F0B0B810BD00BF8D
:100F0C00DC6600009C660000816B0000916B0000A9
:100F1C0000000020A26B0000BE6B0000E506000084
:100F2C0068E00100190D00006CE00100A90C000044
:100F3C0074E00100990500007CE00100CD0B00007D
:100F4C0078E00100990B000070E0010030B5334BE4
:100F5C00334C3449E41AE408240444F0030485B007
:100F6C00204604F001FB04F0BDF90028FBD12E480B
:100F7C0002F002F82D49204604F0F6FA04F0B2F91A
:100F8C000028FBD10A20FFF787FB1620FFF718FA81
:100F9C001820FFF715FA1620FFF7D8FB0120FFF7F2
:100FAC007BFB1820FFF7D2FB0A20FFF775FB4FF0F5
:100FBC00A0430222C3F858271D49C3F860272046D6
:100FCC0004F0D2FA04F08EF905460028FAD1194B38
:100FDC00C3F8FC0FD3F8FC2F0122C3F8FC2F164BDF
:100FEC000FCB6C4684E80F00162218231348CDE96A
:100FFC00002304F083FD0A20FFF74EFB2146104826
:10100C002B462A4601F090F9044618B101460D48CA
:10101C0005F05EF8204605B030BD00BF9C660000B0
:10102C00DC660000D66B0000E4000020E56B0000DD
:10103C00F56B000000300040F46D0000066C000001
:10104C00E0000020156C00002DE9F04393B0FFF791
:10105C00F9FBFFF7DBFE4FF080539D4CD3F8A460F7
:10106C00D3F8A850D3F86090D3F86480D3F8A0706C
:10107C00984B99490097E41AE408240444F00304BB
:10108C0033462A46204604F086FA07F0010332461E
:10109C002946924805F01CF84A464146904805F00E
:1010AC0017F802F0B9FD8F4B2722D3F80415204610
:1010BC0004F08CFA8C49204604F056FA8B49042231
:1010CC00204604F083FA04228949204604F07EFA73
:1010DC008849204604F048FA8749204604F044FA2F
:1010EC008649204604F040FA2046854904F03CFA33
:1010FC00834804F0EDFF04F0F5F80028FBD1FFF76E
:10110C0025FF08B102F0AAFF7E49204604F02CFA14
:10111C0004F0E8F80028FBD17B4804F0EFFC7A4996
:10112C00204604F021FA04F0DDF80028FBD17748C2
:10113C0000F0D2FA00F098FF754B119307238DF84D
:10114C004230744B18689A889B798DF816300123BD
:10115C0019460490ADF8142004A81A4600F0BCFB04
:10116C0000F03AFF6C4804F0C9FC6C49204604F0CE
:10117C00FBF904F0B7F802460028FAD103903C21A1
:10118C00022000F079FE6649204604F0EDF964482F
:10119C0004F09EFF63495D4800F0E4F80546D0B1C9
:1011AC0000F062FF604B119307238DF842305F4BC8
:1011BC00039A186899889B798DF81630012304904E
:1011CC00ADF8141004A8194600F086FB00F004FFDB
:1011DC00284602F043FF564804F07AFF5449204653
:1011EC0004F0C2F900F0A0F952490246204604F07E
:1011FC00BFF904F077F80028FBD14F49204604F0E2
:10120C00B3F94D4804F07AFC00F0BAF908B102F0D9
:10121C0025FF444D4949204604F0A6F901232B70C3
:10122C0004232B72464B1B68C5F8093000F0F6F806
:10123C0008B102F013FF4349204604F095F94249E6
:10124C00204604F091F9FFF79DFA2B7803B300F0D8
:10125C0049FAFFF71DF93D4B3D4804221A7040F244
:10126C006661002203F012F808B102F0F7FE39486B
:10127C0004F044FCFFF734FDFFF7FAF802F084FCAD
:10128C0004F030F80028FBD140BF20BF20BFF5E7A9
:10129C00314804F033FC6B68BBB100F0E5FE2F4A1B
:1012AC002F4B10685168119308238DF8423004AB12
:1012BC0003C301231A46194604A800F00DFB00F0E5
:1012CC008BFE224B02221A70D8E7FFF79BF9D5E769
:1012DC00DC6600009C6600003A6C0000476C000065
:1012EC00CEE6010000100040556C00001C150040BB
:1012FC0024150040646C0000796C00009C6C0000AC
:10130C00AD6C0000C06C0000D06C0000E000002050
:10131C0049230100E66C0000EE6C0000026D000039
:10132C00176D00005C050020F38701002B6D000099
:10133C00336D000065690000466D00005F6D0000B4
:10134C0018000020706D00008B6D000072050020ED
:10135C0020000020976D0000B26D0000D46D0000DD
:10136C0096020100F8B5234B234CE41AE40824043C
:10137C0044F0030607460D463046204904F0F4F8C5
:10138C00384600F017FC074630B11D4A1D4944F0A1
:10139C00010004F0EDF807E045B9194A1A4944F088
:1013AC00010004F0E5F807273846F8BD174C6B88A8
:1013BC006A6817492560304604F0E3F82A7A05F18B
:1013CC000901304604F002F9226811495388526829
:1013DC00304604F0D6F8216830460A7A093104F018
:1013EC00F5F822680B49304604F0C2F80A49224647
:1013FC003046CEE79C660000DC660000176D0000EE
:10140C0001E4010080E00100A3E00100A005002040
:10141C00CFE00100E3E001000AE10100F0B52E4B42
:10142C002E4C2F4A2F49304D304FE41AE408240437
:10143C0044F003048DB0204604F09AF806230722EA
:10144C00CDE90032204604232949002204F0AFF8EC
:10145C002022002103A804F00FFD2A682549538897
:10146C005268204604F08DF82A683946204604F06C
:10147C007FF82A462046204904F07AF8296820464D
:10148C000A7A093104F0A2F82E687368327A1BBA12
:10149C00039373888DF812205BBA06F109010DF1E4
:1014AC001300ADF8103004F0B1FC73887268134966
:1014BC00204604F066F82A683946204604F058F8AD
:1014CC002B681B7A4FF42C61073303A88DF82C3052
:1014DC0000F0A6FB0DB0F0BD9C660000DC660000C1
:1014EC00D5E3010003690000A0050020E3E0010042
:1014FC0025E101007FE101000AE1010079E1010031
:10150C00084B1B685988002201311A705A601A72F4
:10151C005980C3F80920C3F80D20A3F81120FFF758
:10152C007DBF00BFA0050020014B1868704700BFAD
:10153C00A005002030B520248BB0224605460021A2
:10154C0001A804F099FC294601A88DF8244000F06C
:10155C0067FB044650B1074A074B08499B1ADB0846
:10156C001B042A4643F0010004F002F820460BB09D
:10157C0030BD00BF9C660000DC660000B0E10100DD
:10158C0070B5444B444E4549F61AF608360446F0FD
:10159C0003058CB0284603F0E7FF20224FF42C61A2
:1015AC0003A800F0E3FB044630B13D4A3D4946F048
:1015BC00010003F0DDFF5BE03B493C4E284603F0A5
:1015CC00D3FF3B49284603F0CFFF9DF82C2003A9FD
:1015DC00284603F0FBFF9DF81220002A34D1354930
:1015EC00284603F0C1FF33681C701C72039B3268E1
:1015FC001BBA5360BDF810305BBA9BB25A1E92B244
:10160C004FF6FD718A4208D92B49284603F0ACFFEE
:10161C002A49284603F0A8FF012331680A7A4B8037
:10162C0000934B682649284603F0B5FF2549284608
:10163C0003F09AFF316828460A7A093103F0C6FF95
:10164C00326821492846B4E7FF2A14D11F4928469D
:10165C0003F08AFF33681E491C705C605C801C724E
:10166C00284603F081FF4FF42C60FFF763FF04461C
:10167C0020460CB070BD092A01D91649B0E7306874
:10168C000123037002720DF11301093004F0BEFB4B
:10169C00ACE700BF9C660000DC660000CCE10100FA
:1016AC00E2E30100E4E1010017E20100A0050020E3
:1016BC002EE2010044E2010022E301006CE3010090
:1016CC007CE30100A7E30100B1E3010073E2010038
:1016DC00B6E20100EEE2010000B55DF804EB00F0AB
:1016EC0093BB0000014B00221A707047A405002028
:1016FC002DE9F04F2DED028B89B008EE101A05463E
:10170C0006931646FAB1546BECB194F80290E77854
:10171C0092F832B094F8018023782948CDE90083FF
:10172C004A463B465946013704F0D2FCBB000493B1
:10173C00C9F1010307930FFA88F308EE903AADB2A2
:10174C000027BB4504DC09B0BDEC028BBDE8F08F73
:10175C00F25D079B13449B00DBB2E118202A91F841
:10176C00039005EB090080B2059026D0E05C4B7825
:10177C0091F802800499CDF8008043EA002301EB34
:10178C00030A1FFA8AFA09F107010E48CDF80CA0DA
:10179C00C910B8FBF1F1CDE90191394604F098FC80
:1017AC00069BCDE9004ACDE9028318EE101A18EE1B
:1017BC00903A4A4628B200F05FFC059D0137C0E71D
:1017CC0015E4010083E401001A4B1B7870B5002B63
:1017DC002FD000F049FC184B184D5B6B184E2A6843
:1017EC0030785C78174B01321B88B3FBF0F300F1B7
:1017FC007F01B1FBF0F10B449A42C8BF00231248A1
:10180C002A60C8BF2B6004F079F92B6830780A4A3B
:10181C00C4F1400110FB03F001EBD1710123C0F1C5
:10182C008000194100B2FFF763FFBDE8704000F083
:10183C00D3BB70BDA4050020A8050020E405002042
:10184C00A5050020E0050020E9E401002DE9F041A8
:10185C001C4C27788C463FBB30B3466B26B31A4AD8
:10186C00034600F13808964618685968154603C5B2
:10187C00083343452A46F7D1144BB078144D9EF8E3
:10188C0032E000221A60134B2A8083F800C0DFF884
:10189C0038C01146C0F101008E4507DC07B12A8023
:1018AC00FFF792FF01232370BDE8F0811CF8013B88
:1018BC0003449B00DBB233440131DB7813449AB20E
:1018CC000127E9E7A4050020A8050020E405002075
:1018DC00E0050020A50500202DE9F04F2DED028B31
:1018EC0089B000240691A346054690B3466B86B397
:1018FC0096F802E090F8329096F803C096F80180C2
:10190C0027462146CEF1010AB94527DCB2B3012A9C
:10191C002ED1C1F1800101EBD171C1F34F04B3B3EE
:10192C00012B2DD1C8F1400303EBD373C3F34F0B41
:10193C000CF1010C4FEA8C030493CEF101030793D5
:10194C000FFA88F308EE103A002795F83230BB42B4
:10195C001FDC09B0BDEC028BBDE8F08FE85D504494
:10196C008000C0B230440137C078084481B2CBE764
:10197C00022AD4D1C1F180018CB2D0E70424CEE785
:10198C00022BD5D1C8F118031FFA83FBD0E79B4675
:10199C00CEE7EA5D079B13449B00DBB2F118202ACB
:1019AC0091F8039004EB090080B2059026D0F05C0E
:1019BC004B7891F802800499CDF8008043EA00231B
:1019CC0001EB030A1FFA8AFA09F107010D48CDF859
:1019DC000CA0C910B8FBF1F1CDE90191394604F026
:1019EC0077FB069BCDE9006ACDE902834A4618EEE7
:1019FC00103A0FFA8BF120B200F03EFB059C013738
:101A0C00A3E700BF83E401004FF08053D3F830010B
:101A1C00A0F10D035842584170470000024AD2F819
:101A2C000034002BFBD0704700E0014010B5FFF7ED
:101A3C00EBFF40B14FF080430022C3F80C21C3F8F8
:101A4C001021C3F83825FFF7DFFF002846D04FF0F0
:101A5C008052514BD2F80414C3F82015D2F8081454
:101A6C00C3F82415D2F80C14C3F82815D2F81014A6
:101A7C00C3F82C15D2F81414C3F83015D2F8181476
:101A8C00C3F83415D2F81C14C3F84015D2F820143E
:101A9C00C3F84415D2F82414C3F84815D2F8281406
:101AAC00C3F84C15D2F82C14C3F85015D2F83014D6
:101ABC00C3F85415D2F83414C3F86015D2F838149E
:101ACC00C3F86415D2F83C14C3F86815D2F8401466
:101ADC00C3F86C15D2F84424C3F87025FFF794FFB3
:101AEC0048B14FF08043D3F80024D20744BF6FF0C5
:101AFC000102C3F80024294AD2F8883043F4700359
:101B0C00C2F88830BFF34F8FBFF36F8F4FF0805305
:101B1C00D3F830210D2A0ED1D3F83431022B02D850
:101B2C001F4AD35C3BB14FF01023D3F808224FF07F
:101B3C008043C3F858254FF01023D3F80022002A15
:101B4C0003DBD3F80432002B22DA164901234FF0C1
:101B5C001020C1F804351224FFF760FFC0F80042D2
:101B6C00FFF75CFFC0F80442FFF758FF0023C1F8F1
:101B7C000435FFF753FFBFF34F8F08490A4BCA6870
:101B8C0002F4E0621343CB60BFF34F8F00BFFDE75D
:101B9C00064B074A1A6010BD00C0004000ED00E083
:101BAC00F3E4010000E001400400FA05F00000201D
:101BBC000090D003144A08B5137873B1134B144832
:101BCC001449C01AC008000440F0030003F0CCFC18
:101BDC00104803F093FF002008BD70B90B4B0C4864
:101BEC000D49C01AC008000440F0030003F0BCFC0F
:101BFC00094803F083FF0E20EEE708490860012135
:101C0C0011701846E8E700BF0A0600209C66000029
:101C1C00DC66000005E501002CE501000C06002047
:101C2C002DE9F3410F46054638B9434803F066FFEA
:101C3C000E24204602B0BDE8F08190F82020202A26
:101C4C0004D93E4803F05AFF0C24F2E701F01F03BD
:101C5C001344202B02DD3A4804F03AFA394B3A4C43
:101C6C003A49DFF8FC80E41AE408240444F0030445
:101C7C0095F820303A46204603F083FC3449204640
:101C8C0003F072FC95F820202946204603F09EFCB8
:101C9C002F4804F01DFA002695F82030B3423DDCA5
:101CAC002C4E2D4804F014FA22220021304604F068
:101CBC00E3F830467FBA95F8202020F8027B2946BD
:101CCC0004F0A4F895F820502449254F02352046FD
:101CDC00EDB203F049FC20462A46314603F076FC6F
:101CEC001E4804F0F5F90024A5421DDC1A481D4ECF
:101CFC0004F0EEF91C4B174A18680023009350218E
:101D0C002B46043001F0F2F90F25044646F001068B
:101D1C004FF47A40B047013DFAD18AE7A95D4046BD
:101D2C0004F0D6F90136B7E716F8011B384604F073
:101D3C00CFF90134D8E700BF51E5010085E501007A
:101D4C00BDE501009C660000DC660000FCE50100BE
:101D5C0038E60100E80500206BE601006EE60100A4
:101D6C0065E6010020E701000C0600207FB54BBAA8
:101D7C00ADF80C30194C1A4BE41AE4082404CBB21D
:101D8C000546164644F003000A0A164C164903F0A1
:101D9C00F8FB9DF80D209DF80C10134804F098F9F1
:101DAC0020680023009303AA02235021043001F081
:101DBC009DF928B10D4803F0A1FE032004B070BDBD
:101DCC00206833462A465021043001F0A2F908B1AC
:101DDC000748F0E785F82060F0E700BFDC660000FC
:101DEC009C6600000C0600209EE60100D9E601006E
:101DFC00F7E60100034B1B78002B0CBF03200020DF
:101E0C00704700BF220A0020064A0123137038B124
:101E1C00054913700860054A054913703C20087089
:101E2C00704700BF2F0A0020240A0020220A00203D
:101E3C00180600201FB50446FFF7DCFF08B102F0BE
:101E4C000DF90A4B1B7873B1094A0A4910688DF8D1
:101E5C000D40002300938DF80C300978022303AA5F
:101E6C00043001F043F904B010BD00BF2F0A00206C
:101E7C00240A002018060020F8B5484B1870484B6F
:101E8C001970484900230B8047490B8047490126AC
:101E9C00044647480E704FF6FF710180454801809B
:101EAC00454946480E7046490B70802101804548D3
:101EBC0001804548402101804448018044490B7011
:101ECC00AAB14FF0A047434DC7F8086535434FF40E
:101EDC007A40A847C7F80C650A264FF47A40A84701
:101EEC00013EFAD14FF0A0430122C3F80825AE20E1
:101EFC00FFF7A0FFD520FFF79DFF8020FFF79AFF8B
:101F0C00A820FFF797FF3F20FFF794FFD320FFF7A0
:101F1C0091FF0020FFF78EFF4020FFF78BFF8D20F5
:101F2C00FFF788FF012C0CBF10201420FFF782FF55
:101F3C002020FFF77FFF0020FFF77CFFA120FFF799
:101F4C0079FFC820FFF776FFDA20FFF773FF122026
:101F5C00FFF770FF8120FFF76DFF012C0CBF9F2056
:101F6C00CF20FFF767FFD920FFF764FF012C0CBFD0
:101F7C002220F120FFF75EFFDB20FFF75BFF402004
:101F8C00FFF758FFA420FFF755FFA620FFF752FFDD
:101F9C00BDE8F840AF20FFF74DBF00BF1906002089
:101FAC00180600201E0A0020200A00202E0A0020FD
:101FBC002A0A00202C0A0020300A002012060020D9
:101FCC00140600201A060020100600201606002019
:101FDC00280A002050E7010013B51C4803F08EFDC1
:101FEC002220FFF727FF0020FFF724FF0720FFF731
:101FFC0021FF2120FFF71EFF0020FFF71BFF7F2092
:10200C00FFF718FF124B1B78F3B1124C124803F078
:10201C0075FD2046402300F8013B10494FF48062C7
:10202C0003F0F4FE0E4B0F49186800230093097857
:10203C0040F201432246043001F058F820B102B0BE
:10204C00BDE8104002F00AB802B010BD26E701004E
:10205C002F0A00201C06002036E70100F4000020A7
:10206C00240A00201806002002484FF48062002148
:10207C0003F002BFF40000202DE9F04F52EA0304F4
:10208C00BDF82C60BDF8307021D4402901EB03055C
:10209C001DDC84182C431AD4802818DC013BDB107F
:1020AC000133DCB201F0070816B914FB02F296B248
:1020BC00099ABDF82830324DC91002EB030E4FF0CF
:1020CC00000CC8F108091FFA8CF39E4201D8BDE838
:1020DC00F08FBCFBF4FB0BEB000304FB1BCB8B4422
:1020EC001FFA83FA03EBCB131FFA83FBBBF5006FCC
:1020FC001EF8012B1BB224D2BAF17F0F21D8012F6D
:10210C0014D0022F20D0E7B915F803A002FA08FB6F
:10211C002AEA0B0AB3F5F06F05F803A011DA803345
:10212C0042FA09FAEA5C22EA0A0227E015F803A04F
:10213C0002FA08FB4AEA0B0AB3F5F06F05F803A0A4
:10214C0015DB0CF1010CBEE715F803A002FA08FB35
:10215C008AEA0B0AB3F5F06F05F803A0F1DA8033C5
:10216C0042FA09F215F803A082EA0A0206E080336B
:10217C0042FA09F215F803A042EA0A02EA54E0E72F
:10218C00F400002038B5074C051E04F1080318BFF5
:10219C001C4623682BB11A6822605B682846984756
:1021AC00F7E738BD3C0A002020B9054B01225A70D4
:1021BC00FFF7E8BF012802D1014A9070F8E7704799
:1021CC00340A002038B50C4C23789BB90B4863605B
:1021DC00A3602361E36000F09FF9054600F0A8F9C5
:1021EC0001232370064BD3F800340BB10123A370E9
:1021FC00284638BD8525F5E7340A0020B5210000B6
:10220C000000014038B5134CA378054603F0FF00DD
:10221C0073B115B16B6801209847002002F076F974
:10222C00E3680133E3600020BDE8384002F070B988
:10223C0002F06CF925B1226913463BB92A6025617D
:10224C00E368002BECD100F085F9E9E79D42F7D06B
:10225C001B68F2E7340A00204FF08043D3F81804CF
:10226C00C0F300407047000038B5134C6378054646
:10227C0003F0FF0073B115B16B6800209847002084
:10228C0002F044F96368013363600020BDE8384014
:10229C0002F03EB902F03AF925B1A26813463BB9F7
:1022AC002A60A5606368002BECD100F060F9E9E7C7
:1022BC009D42F7D01B68F2E7340A00201FB5037863
:1022CC008DF800308388ADF8043083688DF80630C3
:1022DC00C3688DF80730036902934369054A039379
:1022EC00054B684653F8213052F82110984705B039
:1022FC005DF804FB480A0020500A0020024B4FF402
:10230C00807043F00103184760E701001F2886BF67
:10231C00044A00F01F004FF0A04201238340C2F892
:10232C0008357047000300502DE9F047154690F82A
:10233C000080374A42F82850364A42F828304B7B06
:10234C0006460C4683B30868D1F8049087004FEA20
:10235C00890107F1A04701F1A04140F20C63C7F8D5
:10236C000037C1F80037FFF7D1FF4846FFF7CEFF23
:10237C0040F20D63C7F80037C1F80037FFF7BEFF16
:10238C00DFF8989000274FF0010A63681F2B8ABF73
:10239C004A464FF0A04203F01F03D2F8102522FA50
:1023AC0003F3DB070BD507BB002D1B4A434608BFC5
:1023BC002A462146301DBDE8F04700F041BD236898
:1023CC001F2B86BF03F01F034A464FF0A0420AFAA8
:1023DC0003F3C2F80C35FFF791FF01372068FFF7C4
:1023EC0095FFFFF78BFF092FCFD163681F2B86BF9B
:1023FC000A4903F01F034FF0A041012202FA03F334
:10240C00C1F80C35FFF77AFF6068FFF77FFFCBE769
:10241C00500A0020480A0020C92200000003005086
:10242C001FB503788DF800304368019383688DF8ED
:10243C000830C368054A0393054B684653F82130AE
:10244C0052F82110984705B05DF804FB580A00209B
:10245C00600A00201FB503788DF8003043680193A3
:10246C0083688DF80830C368054A0393054B6846AA
:10247C0053F8213052F82110984705B05DF804FB51
:10248C00580A0020600A0020F0B5194B90F800C0E3
:10249C00DFF86CE043F82C20164B16460A6943F81B
:1024AC002C204B7F0EF80C300C4607460FCC89B015
:1024BC006D460FC594E80F0085E80F003B78CDF80A
:1024CC0010C01EF803304BB1002E0B4A694608BFF2
:1024DC003246381D01F052F909B0F0BD002E074A02
:1024EC00694608BF324607F10C0000F011FFF3E714
:1024FC00600A0020580A00202D24000061240000EE
:10250C00680A002000F18040002382B00360036859
:10251C000193019B02B07047044A137923B901213E
:10252C001060117118467047852070476C0A0020A6
:10253C00074B1A68D20704D4C02283F80023012267
:10254C001A604FF080430122C3F81825704700BF72
:10255C0000E100E008B54FF48270FFF7D3FF4FF0B5
:10256C0080430222C3F8042301229A6008BD08B5F7
:10257C004FF48070FFF7C6FF4FF080430122C3F881
:10258C0004231A6008BD00004FF0804210B5D2F849
:10259C00003153B14FF48070FFF7B4FF0123C2F840
:1025AC0008330B4B00201B6898474FF08042D2F841
:1025BC00043163B14FF48270FFF7A4FF0223C2F819
:1025CC000833034BBDE810401B680120184710BDB1
:1025DC006C0A002000F1804000F5C040002382B05E
:1025EC00036003680193019B02B0704703681F2BC3
:1025FC0083BF03F01F03036001484FF0A0407047F6
:10260C000003005007B5019001A8FFF7EFFF019BF5
:10261C0000EB8300D0F8003723F44033C0F80037C8
:10262C00D0F8003743EA0141C0F8001703B05DF859
:10263C0004FB0000054B4FF0FF32072843F8202025
:10264C0084BF1B1883F85220704700BF740A002007
:10265C0038B51E4991F86430ABBB40F2FF30FF2413
:10266C005A09012A0CBF02464FF0FF3203F01F0536
:10267C00EA40D20748BFCA1803F1010348BF82F8E9
:10268C0030402A2BECD10024E0B20134FFF7D2FF0A
:10269C000C2CF9D10E4B0022C1F85E209A800D4B08
:1026AC00C02083F80603402018604FF4BE70FFF77B
:1026BC0091FF094B4FF00040C3F80403012381F84C
:1026CC006430104638BD0820FCE700BF740A0020B7
:1026DC00D20A002000E100E000600040034B93F8B8
:1026EC006400003818BF0120704700BF740A002036
:1026FC00F7B53D4F3B18044693F93030002B71DA97
:10270C008B78C3F34003002B0BBF082500250C204E
:10271C000820854202D1042003B0F0BD57F8256093
:10272C00013647D138196EB247F8252080F8306051
:10273C0013B97B1983F852408B785A071AD4D807EF
:10274C003AD501A80194FFF751FF019B00EB8300E0
:10275C00D0F8003723F00203C0F800372348E20812
:10276C0004F0070C012303FA0CF310F802C043EA3F
:10277C000C03835488780B7810F0020028D0AD003D
:10278C0005F1804505F5C0452402D5F8102522F445
:10279C004F3222F44072C5F810251B04D5F81025D1
:1027AC0004F47C5403F440331C431443C5F8104523
:1027BC000020B1E70135ACE701A84A780194FFF796
:1027CC0015FF019B03F5E073920040F82320C5E749
:1027DC00083E47FA86F696F85A2042EA831386F8A2
:1027EC005A3099E7082097E7740A0020D20A002093
:1027FC0037B5224D2B18044693F93020072A1DDDDE
:10280C00083A45FA82F292F85A309B09032B10D100
:10281C00019001A8FFF7EAFE019BD0F81015D940F2
:10282C0001F001010231204603B0BDE83040FFF752
:10283C00E9BE012B0CBF02210321F4E7D3B2072B15
:10284C001AD8930003F1804303F5C043D3F8100565
:10285C0040F00100C3F8100502F1400040B28000C6
:10286C0080B2FFF7B7FE39B155F8223023B10123FE
:10287C009340034AC2F8043303B030BD740A0020FD
:10288C000060004007B5019001A8FFF7AFFE019B67
:10289C00D0F81005D84000F0010003B05DF804FB3F
:1028AC002DE9FF470024CDE90244584D4FF48072C6
:1028BC00012102F1804303F5C04390B21B68012B48
:1028CC0006D1D5F804330B4202D0FFF783FE0C433C
:1028DC000432B2F5907F4FEA4101EAD14B4BD3F869
:1028EC007C31012B11D14FF4BE70FFF773FE4FF00A
:1028FC00A04344F00044D3F820250292C3F82025CD
:10290C00D3F820280392C3F82028E3B2D3B1404F68
:10291C0000250126344210D0AB0003F1804303F5AF
:10292C00C043D3F81005D3F8101557F8253023B150
:10293C00C1F30141C0F3052098470135082D4FEA3A
:10294C004606E7D1002C59DA314D324C324E4FF05D
:10295C000008012716F9013F5A1C3CD0C3F3C201F1
:10296C00103169445FFA83F911F8081C03F03F0237
:10297C0003F0070307FA03F319422CD001A80192C4
:10298C00FFF734FE019B03F5E07350F82330C3F3DB
:10299C00014ABAF1020F0CBF032102211046FFF7C6
:1029AC0031FE01A80192FFF721FE019B07FA03F308
:1029BC00C0F82035AB1893F9303055F8233053B1AB
:1029CC004FEA9911032904D0BAF1020F19D1012948
:1029DC0001D11046984708F10108B8F1040FB9D19C
:1029EC004FF0A042D2F820350293C2F82035D4F82B
:1029FC00202503921343C4F82025A7D104B0BDE8C9
:102A0C00F087BAF1030FE6D10229E1E7006000403C
:102A1C00740A002000030050CD0A0020014B1B68F3
:102A2C00184700BFDC0A002038B50B4B98420C4607
:102A3C0001D0002038BD002001F068FD074B1D7946
:102A4C0015B901221C601A71002001F061FD002DE6
:102A5C00EFD01120EEE700BF00200040DC0A002080
:102A6C00034B984201BF034B00221A601A71704746
:102A7C0000200040DC0A00200023435082B0435861
:102A8C000193019B02B070478B6A4A6B9A4210B556
:102A9C004FF0010305D2496A8A5CC0F81C251A461E
:102AAC0004E091F82C201AB1C3610022104610BD2D
:102ABC000C6A640603D5C36181F82D30F6E74361D7
:102ACC00EDE770B5D0F8046105460C4626B14FF41D
:102ADC008271FFF7D1FF012694F82F2022B34FF417
:102AEC0092712846FFF7C8FF4FF48E71FFF7C4FFB1
:102AFC004FF48471FFF7C0FF002E69D094F82F209B
:102B0C00002384F82D3092BBA36A616B99421CBFE1
:102B1C001646052386F001061CBFC5F80025C5F82E
:102B2C00003584F82F6023E0D5F824314BB14FF4F5
:102B3C0092712846FFF7A0FF01236B6184F82F30B8
:102B4C00DAE7D5F81C31ABB14FF48E712846FFF79C
:102B5C0093FF636B01336363D5F8243113B14FF4E6
:102B6C009271E7E72146FFF78FFF0028C4D10022BE
:102B7C00104670BDD5F80831002BBDD04FF48471D0
:102B8C002846FFF779FFD5F82431002BE7D1636B8A
:102B9C00A16A8B42B0D2616AD5F81805C854636B30
:102BAC00A16A0133481E8342636308D1206A400640
:102BBC0010D40223C5F8003201232B629CE78B4210
:102BCC00FAD1236A5B0697D5022384F82D30CFE720
:102BDC000122CDE78B42EFD1F6E7000037B5314B40
:102BEC0001930D464FF48271FFF746FF4FF492713B
:102BFC00FFF742FF4FF48E71FFF73EFF4FF48471E5
:102C0C00FFF73AFF0023C0F800326B6385F82F30D2
:102C1C000123036295F82D209A4218BF8360294640
:102C2C000446FFF731FF2B6883B140F28623AB607B
:102C3C00AB68C4F80433002003B030BD29462046ED
:102C4C00FFF73FFF28B1019B013B0193019B002B38
:102C5C00F4DC95F82F0050B9019B002BECDC002321
:102C6C00C4F800350523C4F800350320E4E7D4F894
:102C7C00C434C4F8C43493B113F0010F14BF4FF42F
:102C8C000240032048F2012213F0020F18BF104635
:102C9C0013F0040F48F2022318BF1846DCE7032098
:102CAC00DAE700BFA086010037B5344B01930D461F
:102CBC004FF48271FFF7E0FE4FF49271FFF7DCFEE8
:102CCC004FF48E71FFF7D8FE4FF48471FFF7D4FEEA
:102CDC0000236B6385F82F30AB6A012B044617D1A8
:102CEC002B6A5B0614D40223C4F80032012323623E
:102CFC0095F82D20022A18BF23602B6893B140F25F
:102D0C008623AB60AB68C4F80433002003B030BD3D
:102D1C000123E9E729462046FFF7D3FE28B1019BA2
:102D2C00013B0193019B002BF4DC95F82F0050B96B
:102D3C00019B002BEADC0023C4F800350523C4F802
:102D4C0000350320E2E7D4F8C434C4F8C43493B19A
:102D5C0013F0010F14BF4FF40240032048F201227C
:102D6C0013F0020F18BF104613F0040F48F20223A1
:102D7C0018BF1846DCE70320DAE700BFA086010085
:102D8C00F0B52C4C2C4887B02146FFF79AFE002852
:102D9C0047D194F82F70D4F820C0FFB9237B9A1E2A
:102DAC00012A1BD8616AA269914217D1E269626259
:102DBC00CCF3401C62692048A262032B84F82CC01F
:102DCC0084F82D70214604D107B0BDE8F040FFF720
:102DDC0005BF07B0BDE8F040FFF766BF174E0FCE3A
:102DEC0001AD0FC533682B60EFB1134AD2F8C43470
:102DFC00C2F8C434990718D45A0718D403F0010345
:102E0C00C3F10403DBB28DF800301CF0040F4FF05B
:102E1C00000384F8303000D01FB1D4E9003168468B
:102E2C00984707B0F0BD3B46EDE70123EBE70223E3
:102E3C00E9E700BFE40A002000300040F00A00205F
:102E4C002DE9F84F07793A4E4FF03C0A0AFB07FA86
:102E5C0006EB0A059B4695F82E3080460C469146AB
:102E6C00002B61D133490068FFF7DEFD00285DD1EE
:102E7C002168637B85F838301F298CBF01F01F0354
:102E8C000B4603F5E07388BF2B4AA86098BF4FF040
:102E9C00A04240F20C6C85F8300042F823C0626806
:102EAC00C5F804B01F2A8CBF02F01F03134685F827
:102EBC002D0085F8310003F5E07388BF1E4D46F8F0
:102ECC000A9098BF4FF0A04545F823C0D8F80030C1
:102EDC00C3F80815C3F80C25A268C3F82425B9F16A
:102EEC00000F14D0227B43F3073152010029C3F3A6
:102EFC000733D2B213DB114C651885F8002301227D
:102F0C00490903F01F0302FA03F344F821303C2370
:102F1C0003FB0766012386F82E30BDE8F88F0849BD
:102F2C0003F00F03CA54F2E70820F6E71120F4E788
:102F3C00E40A00208D2D00000003005000E100E0A9
:102F4C0014ED00E003680A4A0179C3F80823D3F8AA
:102F5C00002222F00302C3F800220022C3F800254D
:102F6C00044B3C2202FB0133012283F82E207047D4
:102F7C0086420400E40A002070B50679234D3C23F8
:102F8C0073430446EB5893B10368190B43F30733AF
:102F9C00002B0CDB01F01F015B0901228A4020335E
:102FAC001B4941F82320BFF34F8FBFF36F8F20468F
:102FBC00FFF7C8FF2068FFF753FD3C2303FB0653C4
:102FCC0093F83830DBB92268D2F808351F2B86BF4E
:102FDC0003F01F030F484FF0A04003F5E0730221EC
:102FEC0040F82310D2F80C351F2B86BF03F01F03BB
:102FFC00084A4FF0A04203F5E07342F823103C233B
:10300C0003FB0655002385F82E3070BDE40A002022
:10301C0000E100E0000300502DE9F047314F047946
:10302C00D0F800903C2303FB04730D4693F82D302D
:10303C00012B944604D10B78012B06D1082011E00A
:10304C00022B02D10B78012BF8D13C26264BC9F868
:10305C00083306FB047696F830302BB1B368C9F808
:10306C0004331120BDE8F0878CF00403C3F3800314
:10307C0086F83030C6F820C0A846B8E80F0006F134
:10308C000C0EAEE80F00D8F80030CEF800306B68AC
:10309C00B362EB6873626B78C9F888352B78C4EB34
:1030AC00041A012B07EB8A0A17D09BB9CCF3401CEE
:1030BC003C2303FB0473514683F82CC04846FFF7AE
:1030CC008DFD3C235C433A193B59002BCAD182F845
:1030DC003030C7E74FF0010CEAE751464846FFF79E
:1030EC00E3FDEEE7E40A00208642040010B586B04A
:1030FC000024CDE904249DF820208DF80510520100
:10310C0001A9CDE902348DF80440FFF785FF06B024
:10311C0010BD10B586B0012402930023CDE9033213
:10312C008DF805101A4601A98DF804400593FFF798
:10313C0073FF06B010BD0023435082B04358019377
:10314C00019B02B070470A4610B54FF48E71FFF721
:10315C00F2FF136A9168C95C136A01331362C0F8F9
:10316C001C1510BD8B690A4610B54FF4847123B938
:10317C00FFF7E1FFD0F8183510BDFFF7DCFF536AFD
:10318C00D168D0F81805C854536A01335362F3E779
:10319C001FB501238DF80030044BCDE90110D3E9A4
:1031AC0000126846904705B05DF804FB200B002028
:1031BC0030B54D4DD5F804339A0585B051D5D5F8B9
:1031CC002431002B4DD04FF492712846FFF7B3FFFA
:1031DC004FF40173C5F80833444B93F829200AB90E
:1031EC0001226A60404902228DF80020D1F8802427
:1031FC00C1F8802403929A690292DA680192002243
:10320C00C3E906226846D3E9001290473648D0F845
:10321C001C315BB1354A5169136A99424DD992F808
:10322C002830002B49D11146FFF78DFF2E48D0F8DE
:10323C004431002B56D04FF4A271FFF77CFF2B4B7F
:10324C0093F829200AB1012202609A69002A49D018
:10325C00586AD96800229A6105B0BDE83040FFF782
:10326C0097BFD5F804335B07D0D5D5F80831002BC0
:10327C00CCD01E4C1C482146FFF774FF636AA26930
:10328C009A42C3D1E369E1684BB1A3612369E3605E
:10329C000023606AE3616362FFF77AFFB6E794F894
:1032AC0029300BB901236B600F4B4FF40172C3F83B
:1032BC0008230023606AA361EEE70B484FF48E717C
:1032CC00FFF739FF5369002BB0D0516902910023ED
:1032DC0091688DF80030019153616846D2E9001372
:1032EC009847A3E705B030BD00200040200B00201C
:1032FC001F2886BF00F01F00044B4FF0A04300F5C1
:10330C00E070022243F82020704700BF00030050F9
:10331C002DE9F8435F4D90F804802C2303FB0853F0
:10332C00064693F82A300C469146002B40F0AE80AE
:10333C0059490068FFF778FB0746002840F0A88041
:10334C0021684A1C10D01F2987BF544A01F01F0363
:10335C000B464FF0A0420120984003F5E073C2F8F1
:10336C000805032042F823006068431C0DD01F2879
:10337C008BBF00F01F030346484A4FF0A04203F5F1
:10338C00E0734FF0000C42F823C03368A269C3F815
:10339C00242594F814C0627DBCF1010F4CEA0202A2
:1033AC00C3F86C25C3F81405C3F80C152BD1A16810
:1033BC00481C0DD01F298BBF01F01F020A4637484D
:1033CC004FF0A04002F5E0724FF0000C40F822C024
:1033DC00E068421C13D01F2887BF304A00F01F0C36
:1033EC0084464FF0A0424FF0010E0EFA0CFE0CF585
:1033FC00E07CC2F808E54FF0030E42F82CE0C3F86D
:10340C000805C3F810152C2303FB08F3EA18C2F8BF
:10341C0004902269EA50B9F1000F1FD03068227F66
:10342C004FF48E71FFF787FE4FF4A271FFF783FE06
:10343C001B4BC0F8043340F3073153010029C0F390
:10344C000730DBB21DDB174A541884F80033012314
:10345C00490900F01F00834042F8213033680422F0
:10346C00C3F800252C2303FB08530022C3E90622D2
:10347C0083F829205A61012283F82A203846BDE8B6
:10348C00F883094A00F00F001354E7E70827F5E723
:10349C001127F3E7200B0020BD3100000003005082
:1034AC008000020000E100E014ED00E02DE9F041A5
:1034BC0003680579284C0022C3F800252C2202FB56
:1034CC0005425268A2B1254AC3F80823190B43F3ED
:1034DC000733002B0CDB01F01F015B0901228A4032
:1034EC0020331F4941F82320BFF34F8FBFF36F8F59
:1034FC000168D1F80C05D1F81485D1F80865D1F81C
:10350C0010754FF0FF339842C1F81435C1F80C35E3
:10351C00C1F80835C1F8103501D0FFF7E9FEB8F154
:10352C00FF3F02D04046FFF7E3FE7A1C02D038463C
:10353C00FFF7DEFE731C02D03046FFF7D9FE0846BB
:10354C00FFF78EFA2C2303FB0544002384F82A3062
:10355C006360BDE8F08100BF200B002084020200F4
:10356C0000E100E00279044B2C2101FB0233586985
:10357C00003818BF01207047200B00202DE9F84FB0
:10358C00074690F8048089469346FFF7EBFF044604
:10359C00002839D11E4E2C2508FB056A4FF48E717C
:1035AC00CAF814B0CAF80890CAF820008AF82800A3
:1035BC003868FFF7C0FD012383605146FFF7C3FD58
:1035CC00DAF8043055460BBBDAF814402B6A9C42EF
:1035DC0010D8D0F81C31002BFBD00123C360002085
:1035EC002C2303FB086600237361BDE8F88F95F864
:1035FC0028303BB9D0F81C31002BF8D05146FFF7DE
:10360C00A2FDE3E70F20EBE71120EEE72046ECE705
:10361C00200B00200023435082B043580193019BA0
:10362C0002B070471FB501238DF80030044BCDE973
:10363C000110D3E900126846904705B05DF804FB11
:10364C004C0B00207FB5434AD2F82461002E60D089
:10365C0010464FF49271FFF7DDFF02238DF8003016
:10366C00D2F88034C2F880340393D2F83C350293FC
:10367C00394BDA6801920022C3E906226846D3E985
:10368C00001290473348D0F8443173B14FF4A27113
:10369C00FFF7C0FF304B9A693AB10022C3E906220A
:1036AC00D968D0F83C05FFF7BDFF2A48D0F8203187
:1036BC00ABB14FF49071FFF7ADFF0123C360264B04
:1036CC005A6962B1D0F84C150291002299688DF8B4
:1036DC00002001915A616846D3E9001290471D48B9
:1036EC00D0F858319BB14FF4AC71FFF793FF1A4BE4
:1036FC005A6962B1D0F84C150291002299688DF884
:10370C00002001915A616846D3E90012904704B039
:10371C0070BDD2F81031002BB4D04FF48871104624
:10372C00FFF778FF0C4BD2F83C0599698842A9D178
:10373C00DC69D96864B1D2F8005225F02005C2F8D2
:10374C0000521A699C61DA60DE61FFF76BFF99E742
:10375C009C61FAE7002000404C0B00201F2886BF1C
:10376C0000F01F00044B4FF0A04300F5E070022264
:10377C0043F82020704700BF000300502DE9F843A8
:10378C00644D90F80480242303FB0853064693F8F9
:10379C0020300C469146002B40F0B8805E49006802
:1037AC00FFF742F90746002840F0B2802068421C1F
:1037BC0010D01F2887BF594A00F01F0303464FF053
:1037CC00A0420121994003F5E073C2F808150321CA
:1037DC0042F8231061684B1C0DD01F298BBF01F0E0
:1037EC001F030B464D4A4FF0A04203F5E0734FF018
:1037FC00000C42F823C03368A269C3F8242594F85E
:10380C0014C0627DBCF1010F4CEA0202C3F86C25B6
:10381C00C3F80C05C3F814152BD1A168481C0DD0A6
:10382C001F298BBF01F01F020A463C484FF0A040F5
:10383C0002F5E0724FF0000C40F822C0E068421C28
:10384C0013D01F2887BF354A00F01F0C84464FF059
:10385C00A0424FF0010E0EFA0CFE0CF5E07CC2F803
:10386C0008E54FF0030E42F82CE0C3F80805C3F846
:10387C001015242303FB08F3EA18C2F804902269FC
:10388C00EA50B9F1000F2BD03068227F4FF48871C9
:10389C00FFF7C0FE4FF49071FFF7BCFE4FF492712E
:1038AC00FFF7B8FE4FF4A271FFF7B4FE4FF4AC7102
:1038BC00FFF7B0FE1A4BC0F8043340F30731530145
:1038CC000029C0F30730DBB21BDB164A541884F80E
:1038DC0000330123490900F01F00834042F82130D6
:1038EC0033680822C3F80025242303FB0855002362
:1038FC00C5E906336B61012385F820303846BDE8F5
:10390C00F883094A00F00F001354E9E70827F5E79C
:10391C001127F3E74C0B0020513600000003005038
:10392C001003420000E100E014ED00E02DE9F0414D
:10393C003D4D06790468242303FB065302465B685D
:10394C00ABB13A4BC4F8083344F30733002B4FEABE
:10395C0014300CDB00F01F005B0901218140203387
:10396C00334840F82310BFF34F8FBFF36F8FD4F859
:10397C00003223F02003C4F80032242303FB065347
:10398C009B6933B14FF4A2712046FFF743FE01232C
:10399C0063604FF4AC712046FFF73CFE0123E360FB
:1039AC00242303FB0653D4F858110029FBD0996942
:1039BC0019B1D4F844110029F5D00023C4F800350E
:1039CC001368D3F80C05D3F81485D3F80815D3F87D
:1039DC0010754FF0FF329042C3F80C25C3F8142534
:1039EC00C3F80825C3F8102501D0FFF7B7FEB8F1CE
:1039FC00FF3F02D04046FFF7B1FE7A1C02D038469A
:103A0C00FFF7ACFE4B1C02D00846FFF7A7FE204682
:103A1C00FFF726F8242303FB0655002385F82030F6
:103A2C006B60BDE8F08100BF4C0B0020100342001E
:103A3C0000E100E00279044B242101FB02335869B8
:103A4C00003818BF012070474C0B002001F0604378
:103A5C00B3F1005F2DE9F0470746884692463AD10C
:103A6C0090F80490FFF7E6FF0446002835D11D4E70
:103A7C003A68242505FB09654FF490711046C5F88A
:103A8C0014A0C5F80880FFF7C5FD4FF4AC71FFF723
:103A9C00C1FD6B69A968C2F84415C2F84835012309
:103AAC0093606B68DBB9D2F82031D2F858011BB99E
:103ABC000028F8D00F2007E00028FBD10123D360A9
:103ACC00D2F85831002BFBD0242303FB09660023CA
:103ADC007361BDE8F0871020FBE71120F9E7204661
:103AEC00F7E700BF4C0B002013B5084CD4F800319D
:103AFC004BB1074B1B6898470023C4F80031D4F82E
:103B0C0000310193019B02B010BD00BF00000140C9
:103B1C00740B002070B5114B1960114B1C780546C5
:103B2C00D4B9104E01221A700378C6F80C354168CE
:103B3C004FF47A720023C803490C02F00FF8C6F850
:103B4C0004052B7A084A5B01DBB282F810334FF480
:103B5C0080331360204670BD0820FCE7740B0020F6
:103B6C00710B00200000014000E100E0044B012239
:103B7C00C3F804231A60034B02221A70704700BF6B
:103B8C0000000140710B002010B5074B0748084C92
:103B9C0019780023DAB2914200D810BD03F5C07237
:103BAC00013340F82240F5E7700B00200000014083
:103BBC003546526E10B50446002000F0A7FC0B4BA6
:103BCC001A78072A10D8511C197009492270D1F89B
:103BDC000805012393400343C1F808350024002055
:103BEC0000F096FC204610BD0424F8E7700B002072
:103BFC000000014010B5C1B20020034621FA03F2C7
:103C0C00C3F1070402F001020133A240082B40EA81
:103C1C000200F3D110BD00002DE9F0412F4C00271C
:103C2C0001260823C4F8FC7FC4F8FC6FC4F80C35DB
:103C3C000323C4F81035C4F80039294BC4F81039E3
:103C4C004FF48033C4F814394FF08E33C4F8243554
:103C5C00C720FFF7CFFF8046C620FFF7CBFF050438
:103C6C00C420FFF7C7FF45EA08651E4B2843C4F87C
:103C7C002805C4F81C358920FFF7BCFF804648F6A0
:103C8C00AB10FFF7B7FF05041748FFF7B3FF45EA82
:103C9C00086580461548FFF7ADFF0543144B45EA10
:103CAC000825C4F82055C4F82C75C4F83065C4F840
:103CBC001435104BC4F8183540F20313C4F83435DE
:103CCC000D4BC4F83C350D4BC4F838350C4BC4F8CF
:103CDC0000329623C4F84435BDE8F0810010004052
:103CEC009402020000D6BE89CDAB8900EFCDAB8922
:103CFC000601020025000302555555005B06000124
:103D0C0001001000154B0022C3F80405C3F8002174
:103D1C00C3F80421C3F80821C3F80C21C3F86C21A3
:103D2C00C3F8102101221A60D3F80021002AFBD01D
:103D3C00D3F80421002AFBD0084BD3F80821002A21
:103D4C00FBD0D3F86C21002AFBD0D3F81021002A29
:103D5C00FBD0092300BF013BFCD170470010004091
:103D6C00A0F12503DBB2022B96BF054A4300D35CBE
:103D7C00044A88BFDBB2C2F80835C2F85405704754
:103D8C0086E7010000100040C30710B507D4F023EC
:103D9C00054A4008145C23401943115410BD090115
:103DAC00C9B20F23F4E700BF880B002030B5094BD4
:103DBC001C78094B196800239C4202DC0022104637
:103DCC0030BD11F83350854201EBC302F7D00133FB
:103DDC00F2E700BF780B0020A80B002013B50446B7
:103DEC000191FFF7E3FF38B143682BB101992046ED
:103DFC0002B0BDE81040184702B010BD034B044898
:103E0C0019680022490800F041BA00BF7C0B002061
:103E1C00F804002010B5C0B2FFF7C8FF04460078C4
:103E2C00FEF730FD63785A1E53425341834208D14A
:103E3C00044AD2E90032134303D1BDE81040FFF726
:103E4C00DDBF10BD800B002038B5344A4308044652
:103E5C00D35CC2074CBF1B0903F00F030D46042BA8
:103E6C005AD8DFE803F003222B373A00002953D04D
:103E7C000121FFF789FF002000F048FB0122A4F18B
:103E8C002003C4F12000264922FA00F002FA03F3C1
:103E9C000343A240D1E9004014431843C1E9004058
:103EAC00BDE83840002000F033BB003918BF0121B9
:103EBC0049002046BDE83840FFF766BF41B10321F9
:103ECC00FFF762FF20460121BDE83840FFF786BFAF
:103EDC000121EEE701BB0421EBE709B10321E8E77F
:103EEC00FFF752FF29462046FFF778FF284600F0DF
:103EFC000DFB0122A4F12003C4F12000084922FA91
:103F0C0000F002FA03F30343A240D1E9004024EA93
:103F1C00020420EA0300C1E738BD00BF880B002073
:103F2C00800B00202DE9F041124E134F0024337802
:103F3C00A34208DC114AD2E90032134318D0BDE881
:103F4C00F041FFF75BBF3D6805EBC40815F8340082
:103F5C00FEF798FC98F801305A1E53425341181A38
:103F6C004142414115F83400FFF76EFF0134DEE7A2
:103F7C00BDE8F081780B0020A80B0020800B0020FE
:103F8C00092AF7B505460C4616463ED9FEF7A6FBA0
:103F9C00E8B11F4B1F481D601F4B204F1C70204B5E
:103FAC00002120221E6001F067FF1E4B0020002123
:103FBC00C3E90001013CE4B20326FF2C0DD11A4ADF
:103FCC001A48002103B0BDE8F04000F04DB9FEF7EF
:103FDC003FFB0028DDD003B0F0BD9DF8063015F88E
:103FEC0034008DF8046005EBC40223F007038DF850
:103FFC00063001A993788DF805303A46FEF778FB28
:10400C00013CE4B20028D8D0E5E70720E3E700BF85
:10401C00A80B0020880B0020780B0020213E00000C
:10402C007C0B0020800B0020313F000094E7010046
:10403C0070B5084D084E00242B789C4201D300200B
:10404C0070BD3368012113F83400FEF7D1FB013445
:10405C00F2E700BF780B0020A80B00201FB5002151
:10406C00039001AA44F20100CDE9011100F004F81B
:10407C0005B05DF804FB000038B572B601F022FB08
:10408C0001F030F90028FBD1104B114C114D1249A5
:10409C00E41AE408240444F0010001F065FAD5F8B0
:1040AC00F030DB0700D500BE0C4944F0020001F0F3
:1040BC005BFABFF34F8FEA68094B02F4E0621343DB
:1040CC00EB60BFF34F8F00BFFDE700BF9C660000A5
:1040DC00DC66000000ED00E098E70100A4E70100B9
:1040EC000400FA0510B5D0E90242D1E90203A0425E
:1040FC0093412CBF0120002010BD000008B50A48D8
:10410C0000F023FB094AD2E90031C018084BD3E96F
:10411C00002341F10001904271EB030303D210F133
:10412C00807041F1000108BD18050020B00B002083
:10413C00280C002037B505460C460A4801A900F0AA
:10414C0038FB60B10570446001A9064800F05BFBC8
:10415C0018B1054800F0FEFA002003B030BD042071
:10416C00FBE700BF140C002018050020234B70B592
:10417C001E78044616B90026304670BD0028FAD0C9
:10418C00FFF7BCFFD4E90223904299412FD30020C2
:10419C0000F0BCF923692BB94FF0FF324FF0FF331D
:1041AC00C4E90223002000F0B3F9D4E905309847A4
:1041BC00002000F0ABF925696DB1D4E90212B2F11F
:1041CC00FF3F08BFB1F1FF3F0FD0691842F1000269
:1041DC00C4E902123546002000F09AF9002DCAD02D
:1041EC000748214600F075FEC6E70025F3E7B3F15A
:1041FC00FF3F08BFB2F1FF3FBDD0F1E7B80B002085
:10420C00C0E7010013B5114B114918680190082340
:10421C001048582200F0BAFA044698B90E4A0F48D2
:10422C0001A900F085F9044660B90C48012100F0A1
:10423C006FFA01230A4A0948194600F0D1F9094BD3
:10424C0001221A70204602B010BD00BFBCE701006D
:10425C00BC0B0020140C00203D430000180500206E
:10426C00FFFF7F00B80B002030B56AB103684FF038
:10427C00FF344FF0FF355A614A1E5142C3E90245E3
:10428C0051411961002030BD0720FCE7F8B5044608
:10429C00002017460D4600F039F9D4E90223B3F19A
:1042AC00FF3F08BFB2F1FF3F15D1FFF727FF2818DA
:1042BC0041F10001C4E902010126002000F028F9B7
:1042CC005EB12369A76103B1256121460020BDE8D9
:1042DC00F840FFF72FBF0026EFE73046F8BD38B5A2
:1042EC000446002000F012F9D4E90223B3F1FF3F99
:1042FC0008BFB2F1FF3F1FBF4FF0FF324FF0FF334B
:10430C00C4E90223012508BF0025002000F000F9B4
:10431C002DB121460120BDE83840FFF70BBF2846E0
:10432C0038BD0000014800F010BA00BF180500208D
:10433C002DE9F743064600F0F3F940B1624AD2E9A1
:10434C00003113F1807341F10001C2E90031002109
:10435C00304600F0F4F938B15C4C236823B1206886
:10436C00FFF704FF002323600121304600F0E7F93A
:10437C0020B1FFF7C3FE564BC3E900015548534C1F
:10438C0001A900F050FA4FF0FF384FF0FF39A0B9F7
:10439C00DFF844814D4D404600F0B1FD002800F09F
:1043AC008580D0E90223B3F1FF3F08BFB2F1FF3F94
:1043BC0032D1404600F09DFDEDE70378012B20D073
:1043CC00022B08D1444D284600F093FD002877D0ED
:1043DC00C0E90289F7E75BB94168D1E90223B3F17F
:1043EC00FF3F08BFB2F1FF3F02D03B4800F071FD28
:1043FC0001A9384800F042FA01A9364800F013FA36
:10440C00C5E741682368994202D100232360EFE796
:10441C00314800F077FDEBE7296891B12968D1E9C3
:10442C00020182428B412FD22B68D3E90223B3F1D4
:10443C00FF3F08BFB2F1FF3F03D02968404600F0B0
:10444C0048FD404600F055FDD0E902490746FFF70C
:10445C0055FE201A69EB0101012871F1000918DBE6
:10446C00B0F5350F13D3FFF75DFF1C4A02441C480F
:10447C004FF49603002100F0D3F890B92B6813B9D0
:10448C00304600F0A5F82F6003B0BDE8F08322465B
:10449C00EDE71348002100F048F93846FFF766FEB7
:1044AC0001E00D28F9D000232B6074E7074B1B6843
:1044BC00002BE9D1304603B0BDE8F04300F08CB8D6
:1044CC00084B01221A7093E7B00B0020300C00202F
:1044DC00280C0020140C0020C0E70100FFFFB400E2
:1044EC0018050020B80B002072B6024A136801337D
:1044FC0013607047340C0020034A1368013B1360AF
:10450C0003B962B6704700BF340C0020FFF7ECBF54
:10451C00FFF7F2BF435882B03BB1002343504358DE
:10452C000193019B012002B070471846FBE7000085
:10453C00F8B51F4B44791F4E43F824201E4A1F4BDD
:10454C0006EBC4049B1A2279DB081B0432B143F03E
:10455C0002001B4901F008F80820F8BD02680C881D
:10456C00C2F8084590F904508A7804795201002D5C
:10457C00D2B218DB13494F1987F8002301226D09B9
:10458C0004F01F04A24041F82520427906EBC20139
:10459C00012446F832000C7143F003000A4900F084
:1045AC00E3FF0020D9E7094904F00F040A55ECE7B2
:1045BC00400C0020380C00209C660000EC660000CB
:1045CC00CCE7010000E100E0EEE7010014ED00E0B3
:1045DC00036801221A607047036801225A60704711
:1045EC0073B501F15005AD000068ADB24FF48034E5
:1045FC008C400026C0F80843C0F84843465101F5EA
:10460C00A8714559019522F07F42019D40F8212067
:10461C00C0F844430BB1C0F8044302B070BD0000B5
:10462C002DE9F74F0D4622F07F4402684FF4803796
:10463C0005F150068F408046B60002EB8500C2F8AB
:10464C004873B6B2C2F80873D2F8041599464FF005
:10465C00000BD0F84035C0F8401542F806B05B1A94
:10466C009259009223F07F43012B009A4FEA850A5E
:10467C000CD1264B4FF4806043F001039847D8F8D7
:10468C00003043F806B09B590193019BD8F80020E9
:10469C00D2F80465C2F84473A31B23F07F43012BAB
:1046AC001CD11A4B05F5A875013443F0010342F8EF
:1046BC0025404FF480609847D8F80030D3F8043583
:1046CC009E4209D1D8F800300020C3F84473C3F8D7
:1046DC00047303B0BDE8F08F0D20FAE79244C9F1E2
:1046EC00FF13CAF84045D2F80405211A013921F00C
:1046FC007F4103F57F438B42EED30029E2D1013495
:10470C00CAF84045D2F804359842DAE700E80100CF
:10471C0003680222C3F8442309B1C3F80423704789
:10472C0000684FF48271FFF7F5BE4FF4803303FA43
:10473C0001F10368C3F84813C3F8081370475031EC
:10474C008900006889B2FFF7E5BE0368D3F8040559
:10475C007047000090F90430002B09DB5A09012145
:10476C0003F01F03994002F14003024A42F8231060
:10477C00704700BF00E100E0024B034A1B68106861
:10478C00184700BF400C0020380C002010B561B158
:10479C00B2FBF3F403FB1424A4B244B9C0E9001433
:1047AC0084608281C381204610BD0E20FCE7092065
:1047BC00FAE737B550E8013F9DB2C4892544848996
:1047CC00A54228BF2D1B0489A54202BFBFF32F8F22
:1047DC00002207E0C5EA030540E80154002CE9D1AA
:1047EC004FF001028DF803200193019A0A609DF8A5
:1047FC00031001F0FF0321B1006810FA82F003B03E
:10480C0030BD1846FBE70A884B889A4209D150E81C
:10481C00012FC2EA024240E80123002BF7D101200C
:10482C0070470020704737B550E8023F1FFAA3F5D8
:10483C00C488A54202BFBFF32F8F00220DE0C489AC
:10484C0025448489A54228BF2D1BC3EA054540E8B1
:10485C000254002CE8D14FF001028DF80320019393
:10486C00019A0A609DF8031001F0FF0321B1006862
:10487C0000EB124003B030BD1846FBE70A884B88AA
:10488C009A4209D150E8022FC2EA224240E80223A0
:10489C00002BF7D1012070470020704710B503465C
:1048AC0053E8000F0A4643E8002494F0000FF7D1B8
:1048BC0010BD10B5034653E8002F42EA010043E84F
:1048CC00000494F0000FF6D110BD10B5034653E868
:1048DC00000F00EA010243E8002494F0000FF6D127
:1048EC0010BD10B5034653E8002F02EB010043E85E
:1048FC00000494F0000FF6D110BD10B5034653E838
:10490C00002FA2EB010043E8000494F0000FF6D155
:10491C0010BD0121FFF7CDBF0021FFF7D6BF10B5A9
:10492C0090B1D0E9012301689B1ADBB20A60013B0C
:10493C00DBB2FF2B026802D10020107110BD116890
:10494C004C1C14600B70F2E70E20F7E738B50446E8
:10495C000020FFF7DBFD2268616813688B4213D9D6
:10496C00591E116013F8013C208AE56800FB0355C1
:10497C00A3685B1A1179DBB2994200D21371002043
:10498C00FFF7C6FD284638BD0025F8E738B50546C3
:10499C0000200C46FFF7BAFD2A681368591C1160F9
:1049AC00EA68A41A2A8AB4FBF2F41C70BDE83840F9
:1049BC000020FFF7ADBD826810B504462AB14369EB
:1049CC000168006998470023A36010BD0EB403B5BD
:1049DC00039921B104AB01AA019300F077F802B05E
:1049EC005DF804EB03B070470A2938B504460D4650
:1049FC0002D10D21FFF7F8FFA3682268591CA160B2
:104A0C00D554D4E901329A4204D32046BDE838404B
:104A1C00FFF7D1BF38BD00002DE9F84F9846DDE90E
:104A2C000A43154682460F460A464FF00109AA4230
:104A3C000FD2C14538BFC14613F0010B01D16CB97F
:104A4C0000240126B8F1010F1BD908F1FF386E4381
:104A5C00F8E709F10109B2FBF5F2E8E79B070ED57F
:104A6C00B8F1000F0CBF30262026A145E9D2013C3D
:104A7C0031465046FFF7B8FF002CF6D1E0E7202670
:104A8C00F3E7B7FBF6F39D42E1D9DFF83C80B7FBC7
:104A9C00F6F3504618F8031006FB1377FFF7A4FF44
:104AAC003346AB42B6FBF5F6F1D2BBF1000F02D0A8
:104ABC000CB1A14501D3BDE8F88F20215046013C33
:104ACC00FFF792FFF4E700BF06E801002DE9F74F6E
:104ADC00054617468846002900F03E8118F8011B50
:104AEC0049B92B7B002B00F03781284603B0BDE879
:104AFC00F04FFFF760BF252940F0B780002698F8EB
:104B0C0000302D2B424608F1010823D0302B24D045
:104B1C002B2B25D000242A2B02F1010123D13B6839
:104B2C001A1D1B683A601C440A4613782E2B26D19A
:104B3C0001324FF0000A104610F8011BA1F1300CA5
:104B4C00BCF1090F1DD80A2303FB0A11A1F1300A8D
:104B5C000246F0E746F00106D1E746F00206CEE742
:104B6C0046F00406CBE711F8013CA3F1300009280C
:104B7C00DBD80A2202FB0434303C0A46CBE74FF068
:104B8C00000A12F8011B01F0FB0068289046F8D0CF
:104B9C00782909D86F290CD8632962D022D8252905
:104BAC0063D0582900F0888098F80030002B95D1FC
:104BBC0097E770390829F7D801A252F821F000BF05
:104BCC003F4D0000B54B0000B54B0000D54C00002C
:104BDC00B54B0000B34C0000B54B0000B54B0000CA
:104BEC00C54C0000642901D06929DDD13A68D2F89E
:104BFC000090111D89EAE9723960A2EBE9724FF05D
:104C0C00010B092A35DCD34538BFD3462CB1B9F199
:104C1C00000F01DB720700D5013CB30702D5BAF1D6
:104C2C00000F03D0F00701D44CBB0024B9F1000FE6
:104C3C002DDAC9F100092D212846FFF7D5FE06F023
:104C4C000302022A04D1BAF1000F01D11CBB0024CB
:104C5C00CDE9004653460A2249462846FFF7DCFEBA
:104C6C00A2E73B681A1D19783A602846FFF7BCFE8C
:104C7C009AE70A230BF1010BB2FBF3F2C1E7A34550
:104C8C00D4D220212846013CFFF7AEFECCE77107B9
:104C9C00D5D52B21D0E7A345DAD230212846013CCB
:104CAC00FFF7A2FED2E73968CDE900460A1D3A604B
:104CBC0053460A220968D0E739680A1D3A60CDE9E3
:104CCC00004653461022F5E73B681A1D3A6016F071
:104CDC000106D3F8009024D1B9F1000F03D0484657
:104CEC0001F064F80646B4421DD809F1FF3919F8F1
:104CFC00011F00293FF458AF2846FFF775FEF6E771
:104D0C0028460136FFF770FE19F806100029F7D176
:104D1C00A642BFF449AF20212846013CFFF764FEB0
:104D2C00F6E70026F0E720212846013CFFF75CFE61
:104D3C00D9E73B681A1D3A60302128461C68FFF7FA
:104D4C0053FE78212846FFF74FFE00220823CDE9B9
:104D5C0000322146102280E703B0BDE8F08F00BF7F
:104D6C002DE9F84FB0F806A04579D2F800B09DF8BF
:104D7C0028900AFB05F5043D88460BEB0301A9427C
:104D8C0003F1040488BFA5EB030BB4FBFAF607464A
:104D9C000AFB1644C2F800B04EB9AAEB04055D45F7
:104DAC0028BF5D46BBF1000F04D1BDE8F88F3F680A
:104DBC00013EF1E7043408EB06003C442A46B9F105
:104DCC00000F0DD02146ABEB050B01F01FF8DA45B7
:104DDC002E443F6855464FF0000428BF5D46E1E77E
:104DEC0001462046EFE7FFF79ABDF8B54679014634
:104DFC00721E0546002393422D6803D30024A6425D
:104E0C0002D8F8BD0133F6E70F682846FFF7BEFD60
:104E1C0001343946F3E72DE9F843068ACD1C0746E1
:104E2C00FFF794FD043E35440446B5FBF6F5F0B1AE
:104E3C004FF48073EDB28380C680013D07608146DC
:104E4C004FF00008A84512D23846FFF77FFD064602
:104E5C0048B163790133637108F10108C9F80000A6
:104E6C0007608146EEE72046FFF7BFFF3446204639
:104E7C00BDE8F88301210430FFF733BD10B50121E3
:104E8C0004460430FFF739FDC0B220B92046BDE816
:104E9C001040FFF7AABF10BD1FB50392002200926D
:104EAC0003AAFFF75DFF05B05DF804FB1FB5039285
:104EBC000122009203AAFFF753FF05B05DF804FB33
:104ECC00836800225A60C3E904229A60DA601A608F
:104EDC00704770B5446806460D46206818B1B36833
:104EEC002946984718B923682B60256070BD246843
:104EFC00F3E74368186808B102681A6070474368A2
:104F0C00186870474368186800B97047884203D125
:104F1C0002681A600120704703460068F4E7F0B598
:104F2C0095B01D46164608460C46FFF7A3FF1A9B84
:104F3C000D93CDE9086500252B46082205A92046CE
:104F4C000A958DF82C500C95FFF7B0FF079B029338
:104F5C00069B03939DF814308DF8115003F0030257
:104F6C00012A1DD1BDF81420059DC3F3C203C2F361
:104F7C0083168DF81030B20008230EA92046FFF7D7
:104F8C0095FFC5F3952508AB0093324602AB0EA9ED
:104F9C00284600F00BFC2046FFF770FF15B0F0BD63
:104FAC00022AF8D1BDF81650C3F3C203C5F3891514
:104FBC008DF810300827082D2E4628BF08263B46B2
:104FCC0032460EA92046FFF771FFAD1B08AB02AAB3
:104FDC0031460EA8374400F04DFC002DEBD1DAE73A
:104FEC00014B01221A707047850C0020704700009D
:104FFC0070B50E4D06460FCD88B06C460FC495E8C3
:10500C000F00002E84E80F00094A0A484FF01D03D8
:10501C0008BF002269460093FDF736FA08B1FFF786
:10502C001DF8054B1E7008B070BD00BF20E80100D4
:10503C00ED4F000020050020440C002007B5044B68
:10504C000093044A4023FFF76AFF03B05DF804FBAA
:10505C0065500000450C002038B50D480D4C0E4D28
:10506C00002323700378EB5CD2B263B10430FEF7FB
:10507C00EDFC08B1FEF7F2FF084B1A7812B1237859
:10508C00002BFBD038BD0C30FEF778FAF1E700BFEF
:10509C0020050020850C0020680A0020440C00200C
:1050AC0008B50848084A0378D35C3BB10430FEF7D6
:1050BC003DFCBDE808400020FFF79ABF0C30FEF71E
:1050CC00F5F9F6E720050020680A00200120FFF71B
:1050DC008FBF000008B5FFF7F9FF0448042100F06A
:1050EC00CFFA034B01225A7108BD00BF3C67000088
:1050FC0034050020027812F0040316D002F00303EA
:10510C00012B03D0022B09D0012070470A680088BC
:10511C000232C0F3831002440A60F5E70B68428840
:10512C00023303EB92130B60EEE718467047000056
:10513C002DE9F04F414C884685B00546871C002070
:10514C001646FFF7E3F96268C8F80020A36803F578
:10515C0080739B1A04F21C4804F5836A04F2144908
:10516C00BB4217D30021002E63D005F00F05AD0113
:10517C0045F0050565F30F016368DAB203323B4471
:10518C00002044F822106360FFF7C2F9012005B03B
:10519C00BDE8F08F01214046FFF7A3FB5046FFF717
:1051AC00B8FB4846FFF7B5FBA0680090C0B20330CF
:1051BC0004EB80006946FFF79DFF20BB009BDAB231
:1051CC0004EB8202D16801919A1C0133DBB204EB2F
:1051DC0083030092D3F80CB001F00303012B20D011
:1051EC00022B13D083464846FFF796FB08B1009B71
:1051FC00A36059464046FFF774FBA368626803F549
:10520C0080739B1AACE79DF80000D0E7BDF8063020
:10521C00C3F3891303334FEA1B4B02EB9303009345
:10522C00E1E7BDF80430C3F383134FEA1B4B13447F
:10523C00F5E7AD0545F006019EE700BF580D0020CF
:10524C00064B074810B500221A70FFF7CCFD044638
:10525C0010B90448FFF734FE204610BD580D00204D
:10526C004C67000074E8010030B50A4C71B10A4A71
:10527C000A49121BD20800239A4201D1002030BDEA
:10528C0031F82350854202D00133F5E7034654F838
:10529C003300F4E79C6600003C670000000000202F
:1052AC00094B013903EBC000032909D8DFE801F0F1
:1052BC000A02040604207047007970474079704751
:1052CC0000207047022070479C6600007047000069
:1052DC00034BD3E90130C31A58425841704700BF01
:1052EC00580D00202DE9F04385B0FFF7F1FF05467E
:1052FC00002840F0E280724CC4F81804BFF34F8FC2
:10530C00A3680093DBB2033304EB83006946FFF719
:10531C00F1FE009B18B1D4F81824002A5CD0DAB244
:10532C009F1C013304EB8202DBB204EB8303D268D3
:10533C00DB68029302F00303022B0192009756D113
:10534C00BDF806305F48C3F389184646502E28BF77
:10535C00502666F38F1306F10801ADF80630FFF7FF
:10536C005AFD0546002800F09380FFF783FD0023CB
:10537C0001A908222846FFF78FFDFB43DBB201335E
:10538C00F9B20331B6EB830F4FEA830904EB8101C9
:10539C002AD908234A46A6EB09062846FFF77CFDC6
:1053AC00F6B2494909F10803324608F103082846C8
:1053BC0007EB9807FFF770FD0097D4F81834D4F872
:1053CC001064002B53D02846FFF758FDFFF780FFE1
:1053DC0080F00100C5B203E062689A4292D8A260E4
:1053EC00284605B0BDE8F08308233246DDE7012BE3
:1053FC004ED1BDF804303348C3F38311062928BFBE
:10540C00062161F38913023101F00F018900ADF817
:10541C000430FFF700FD0546002839D0FFF72AFDC0
:10542C000023082201A92846FFF736FD0026BDF807
:10543C000420C2F38312B300964203F10803BCD2DA
:10544C0000994A1CC9B20331009204EB8101042279
:10545C002846FFF721FD0136E9E7F3685B7923B1B4
:10546C00336829461B6830469847F3681E68002E3F
:10547C00F3D12846FFF702FD3046FFF747F8D4F882
:10548C0018340BB9009BA3600020FFF741F89DE78F
:10549C00D4F8104454B90D4B0D480E49C01AC0082D
:1054AC00000440F0020000F05FF88FE7236820460C
:1054BC009B689847E3681C68ECE7002590E700BF01
:1054CC00580D00204C670000640D00209C66000005
:1054DC00DC6600005DE801002DE9F34704460E464A
:1054EC00924601A9012218469946FFF721FE1C4F4E
:1054FC0010B3019D4FF00008AA1CC84508EB02012F
:10550C0025D118480021FFF7C9F980F310000004D9
:10551C0040EA1440E4006B1C04F03804DBB2EDB23A
:10552C0044F0010407EB8303033544EA881444EA8E
:10553C008624D86047F825403B781BB1FFF7D2FE94
:10554C000028FBD1FFF7C2FE02B0BDE8F087C9B25C
:10555C0007EB81015AF82830CB6008F10108CCE741
:10556C00580D00207411002000231A46FFF7B4BF19
:10557C0007B50123019201AAFFF7AEFF03B05DF856
:10558C0004FB07B5CDE9002302236A46FFF7A4FF0D
:10559C0003B05DF804FB1FB5CDE90123069B039313
:1055AC0001AA0323FFF798FF05B05DF804FB1FB5B4
:1055BC00CDE90023069B0293079B03936A460423C1
:1055CC00FFF78AFF05B05DF804FB00002DE9F743F7
:1055DC000446D01C8846164601A900228008FFF715
:1055EC00A7FD254D80B3019FB81C0190C0B2C0F53A
:1055FC008073B6EB830F00F103004FEA830905EBD0
:10560C00800028D83246414600F000FC1B4800219F
:10561C00FFF744F980F310007B1CDBB205EB83032E
:10562C00220C42EA0042DA60FFB2E300033703F0D7
:10563C00380343F0020343EA865255F8273003F44B
:10564C007C13134345F827302B787BB9FFF73EFECC
:10565C0003B0BDE8F0834A46414600F0D7FBA6EB09
:10566C00090208EB090105F10C00CDE7FFF73AFE42
:10567C000028FBD1EAE700BF580D00207411002070
:10568C0030B50F4CD4F810240023114639B9C16839
:10569C000B7152B9C4F810040A60184630BDC968C1
:1056AC000D799D4206D00968F0E7D26814680C6049
:1056BC001060F2E701330A2BE7D14FF0FF33ECE730
:1056CC00580D002038B5084B0125D3F810441D7037
:1056DC0004B938BDE3685D71236820465B68984760
:1056EC00E3681C68F4E700BF580D002007B50346BB
:1056FC000846197A052911D05B7A2BB1094A0A4957
:10570C000190FFF763F9019808490190FFF75EF9E2
:10571C00019803B05DF804EBFFF74DB9002AF8D0FF
:10572C00F2E700BF80E8010003690000A2E8010075
:10573C0030B5C38885B004460D4633B1144A009287
:10574C001449154A2846FFF741F9217A05291DD03D
:10575C00637A4BB1A088FFF7A3FD104B104953F8A7
:10576C0020202846FFF732F9227A0E4BA08853F8F6
:10577C00222003920021FFF777FD039A0A49034682
:10578C00284605B0BDE83040FFF720B905B030BD64
:10579C0080E801008DE8010085E8010004E90100C2
:1057AC000369000028E90100A5E801002DE9F04398
:1057BC0085B01F460C9D002395F80C902B73064664
:1057CC000C46904629463846FFF7B2FFB8F1060F53
:1057DC0009D8DFE808F00412181F283340003146BE
:1057EC002846FFF7F3F8002229463846FFF77EFFDC
:1057FC0085F80C9005B0BDE8F08322683146284648
:10580C00FFF7E4F8EFE7D4E9002331462846FFF729
:10581C00DDF8E8E7A36800933146D4E90023284675
:10582C00FFF7D4F8DFE7E3680193A36800933146F0
:10583C00D4E900232846FFF7C9F8D4E7236902937B
:10584C00E3680193A36800933146D4E9002328460A
:10585C00FFF7BCF8C7E76369039323690293E36816
:10586C000193A36800933146D4E900232846FFF73F
:10587C00ADF8B8E708292DE9F74F80460E461746D4
:10588C001C463DD800251B7B2573214610460193F1
:10589C00FFF74EFFDFF88CA0DFF88CB0AE4232D9A8
:1058AC0018F8052059462046FFF790F80135082DC9
:1058BC00F4D11B49DFF874A0DFF874B02046FFF771
:1058CC0085F84FF000094E4524D918F809507E2D63
:1058DC001ED8284600F016FA002814BF2A462E229D
:1058EC0059462046FFF772F809F10109B9F1080F82
:1058FC00E9D1012221463846FFF7F8FE019B2373BC
:10590C0003B0BDE8F08F51462046FFF75FF8CDE7B6
:10591C002E22E5E751462046FFF758F8E4E700BF92
:10592C00B9E80100B5E80100AFE80100B7E80100F3
:10593C00BBE801000369C26893429CBF81685B1895
:10594C00013B981A70472DE9F041D0E902840546D5
:10595C00A8EB04064068964220440F46144404D930
:10596C0000F054FAEC60BDE8F0813246A4EB080478
:10597C0000F04CFA68682246B919F1E72DE9F843B2
:10598C00C5680646894617464FF000083369B46867
:10599C0070689D4228BF1B19641BBC4203F1FF3386
:1059AC0028BF3C465B1B9C4228BF1C4649462844EA
:1059BC00224600F02BFAB3682544AB4208BF002501
:1059CC003F1BA044A144F560E0D14046BDE8F883FC
:1059DC0010B5114C114AA2610223C4E90433104BD7
:1059EC00E361A2644FF400730E4A0F492362E26430
:1059FC0000231022E01DA3626362E362A36563656A
:105A0C00E365226500F0BAF90849204600F0B6F9C2
:105A1C002023A37110BD00BF101200203CE901002F
:105A2C00981200208812002045E9010049E9010084
:105A3C00F8B5184B182400FB044504FB00300F4646
:105A4C00C46A012C16461D440FD0022C1AD0F4B98E
:105A5C002846FFF76FFF864205D83246394628465E
:105A6C00FFF771FF34462046F8BD2846FFF762FF6A
:105A7C008642344628BF0446224639462846FFF75C
:105A8C0062FFF0E72846BDE8F840FFF777BF002437
:105A9C00E9E700BF1012002070B50B4B1B780446D1
:105AAC000D4616460BB9FFF793FF0020FEF72EFDAF
:105ABC00324629462046FFF7BBFF04460020FEF77E
:105ACC0027FD204670BD00BF1012002040F2585137
