:1000000000000120190200000102000003020000AC
:1000100005020000070200000902000000000000C5
:100020000000000000000000000000000B020000C3
:100030000D020000000000000F020000110200008D
:10004000130200001302000031110000130200002F
:100050001302000013020000B50F0000130200009D
:10006000130200001302000013020000130200003C
:10007000130200001302000013020000130200002C
:1000800013020000392700001302000013020000D1
:10009000130200001302000013020000130200000C
:1000A00013020000130200001302000013020000FC
:1000B0001302000013020000000000000000000016
:1000C00013020000130200001302000013020000DC
:1000D00013020000130200001302000013020000CC
:1000E00013020000000000000000000000000000FB
:1000F00000000000130200000000000013020000D6
:1001000000000000000000000000000000000000EF
:1001100000000000000000000000000000000000DF
:1001200000000000000000000000000000000000CF
:1001300000000000000000000000000000000000BF
:1001400000000000000000000000000000000000AF
:10015000000000000000000000000000000000009F
:10016000000000000000000000000000000000008F
:10017000000000000000000000000000000000007F
:10018000000000000000000000000000000000006F
:10019000000000000000000000000000000000005F
:1001A000000000000000000000000000000000004F
:1001B000000000000000000000000000000000003F
:1001C000000000000000000000000000000000002F
:1001D000000000000000000000000000000000001F
:1001E000000000000000000000000000000000000F
:1001F00000000000000000000000000000000000FF
:10020000FEE7FEE7FEE7FEE7FEE7FEE7FEE7FEE7C6
:10021000FEE7FEE700F002B8FFF7FCBF0F484FF023
:100220000701884385460E4880470E48016841F41F
:1002300070010160BFF34F8FBFF36F8F00F01AB8EA
:1002400009480A490A4A884207D0521A05D0037859
:1002500001300B700131013AF9D1704700000120E3
:100260007D0A000088ED00E0DC4500000000002071
:1002700000000020344935480A1A02D00722914371
:100280008D46334933480A1A06D00722914381F339
:100290000988022282F314882F483049304A00F03E
:1002A00041F830483049314A00F03CF83048314993
:1002B000314A00F037F831483149324A00F032F81B
:1002C00031483249324A00F02DF832483249334A37
:1002D00000F028F832483349334A00F023F8334815
:1002E0003349002200F029F832483349002200F057
:1002F00024F832483249091A04F034F9314A904757
:100300001F482049884205D00268043003B4904752
:1003100003BCF7E700208646EC46002000212A4A6D
:100320009047FEE7884207D0521A05D00378013083
:100330000B700131013AF9D17047884202D0027046
:100340000130FAE7704700000000012000E00020C3
:100350000000012000000120E04B00000000002010
:10036000B4000020CC030000CC030000784500005E
:10037000E04B00000000002000000020DC450000F1
:10038000DC450000DC450000DC450000DC450000E9
:10039000DC450000DC450000DC450000E04B0000CF
:1003A000944C0000B4000020B4000020B4000020F1
:1003B000F40A0020F40A0020F40A0020F40A0020C5
:0C03C000F42A0020410200009D0500000E
:1003CC0010B50C460146054803F0D7FD012C01BFC2
:1003DC00034A137883F00103137010BDDC45000051
:1003EC00B4000020F0B5344D344C25236B70002341
:1003FC00AB7002264FF080532E70D3F8A420D3F8A4
:10040C00A8308BB0CDE901232D4BE41AE408240469
:10041C0044F0030404220DEB0201204603F098F88B
:10042C00324602A9204603F093F89DF8093025497D
:10043C0063F03F0320468DF8093003F06FF8324625
:10044C0002A9204603F084F8019BC5F80330BDF8DF
:10045C000830A5F807301C4B1A88ADF800209B78A3
:10046C00BDF80020EB728DF80230184BA5F809206E
:10047C0003AD03F118072A46186859682E4603C6BF
:10048C000833BB423546F7D1186830601346104A22
:10049C0009AE1D4603CDB542106051602B4602F1EA
:1004AC000802F6D12868106003492722204603F081
:1004BC004FF80BB0F0BD00BFBC0000209845000009
:1004CC0078450000ED450000FB4500001A47000090
:1004DC00C80000204FF080430022C3F80021012205
:1004EC001A60D3F80021002AFBD001220021C3F8A6
:1004FC001825C3F804119A604FF08042D2F80431E9
:10050C00002BFBD07047000008B50E480E4B0F496E
:10051C00C01AC0080004012240F0030003F002F8E6
:10052C000B4840F23332012101F004FD08B101F017
:10053C006FFD01F057FD18B1BDE8084001F068BD32
:10054C0008BD00BF9845000078450000FF4500003D
:10055C00000000200A4A0B4B0B4910B59B1ADB0814
:10056C001B040446024643F0030002F0DBFF204666
:10057C0001F0D0FBBDE81040044801F063BB00BFA4
:10058C00784500009845000030460000BC00002073
:10059C002DE9F743FFF79EFF01F00EFE08B101F0C5
:1005AC0037FD4FF48041002002F024FE08B101F029
:1005BC002FFD02F069FD4FF08053464CD3F8A46038
:1005CC00D3F8A850D3F86090D3F86480D3F8A07017
:1005DC00414B42490097E41AE408240444F0030414
:1005EC002A463346204602F0A6FF07F001032946AF
:1005FC0032463B4803F0C1FC4A464146394803F0B9
:10060C00BCFCFFF781FF3849204602F087FF3749D1
:10061C00204602F083FFFFF7E5FE01F09DFA344B14
:10062C002722D3F80415204602F092FF31492046C8
:10063C0002F074FF30490422204602F089FF0422A4
:10064C002E49204602F084FF122000F0F3F92C49C9
:10065C000546204602F062FF2A49204602F05EFF62
:10066C002949204602F05AFF15B1284601F0D0FC6A
:10067C00264F274DDFF8A490002647F0010799F884
:10068C0000302E60EBB12520FFF764FF2620FFF72A
:10069C0061FF2720FFF75EFF29681E4803F06DFC01
:1006AC002A681C49204602F03DFF00232B600136CE
:1006BC004FF028084FF47A40B847B8F10108F9D147
:1006CC00DDE71549204602F029FF20BF40BF20BFBF
:1006DC00EDE700BF98450000784500004646000055
:1006EC0053460000614600006C4600007E46000048
:1006FC00001000408A4600001C15004024150040E4
:10070C0099460000AE460000D1460000404700006C
:10071C00B8000020E246000005470000B4000020AD
:10072C00074B1B5C1F2B8ABF064A4FF0A04203F0FD
:10073C001F03D2F80405D840C04300F001007047F5
:10074C004647000000030050074B1B5C1F2B86BF65
:10075C00064903F01F034FF0A041012202FA03F3F4
:10076C00C1F80C35704700BF46470000000300502D
:10077C00074B1B5C1F2B86BF064903F01F034FF072
:10078C00A041012202FA03F3C1F80835704700BFFB
:10079C00464700000003005008B50020FFF7E8FFB3
:1007AC000120FFF7E5FF0220FFF7E2FFBDE808405C
:1007BC000320FFF7DDBF08B50020FFF7C5FF0120C0
:1007CC00FFF7C2FF0220FFF7BFFFBDE80840032080
:1007DC00FFF7BABF0A4B185C1F288ABF094B4FF0B2
:1007EC00A04300F01F00D3F804250121814021EA29
:1007FC0002000A40C3F80805C3F80C25704700BF77
:10080C00464700000003005008B5094B1B7853B154
:10081C000020FFF7ADFF0120FFF7AAFFBDE808405D
:10082C000320FFF7A5BFBDE80840FFF7B5BF00BF29
:10083C00E3000020F8B57A4C237805461BB1002361
:10084C002370FFF7E1FF172D00F28780DFE805F03A
:10085C000C1717425364757F878C878C94999999E0
:10086C009999C3C8D0D8E3E3FFF7CEFF6D4801F0E8
:10087C0010FD6D4B002204461A702046F8BD002076
:10088C00FFF74EFFF0B10020FFF772FF022D0CBFF7
:10089C004FF4E1644FF47A64634B1D7000254FF400
:1008AC0000464FF47A7029464FF4FA620023E4FBB9
:1008BC00060103F0CDF82A460146BDE8F840594838
:1008CC0001F0BEBCFFF740FF022D0CBFC8244FF453
:1008DC00C874E1E70020FFF723FF40B10020FFF7C9
:1008EC0047FF4FF44874504B03221A70D6E7FFF7BA
:1008FC002BFFC824F7E70020FFF712FF38B10020C8
:10090C00FFF736FF4FF47A64474B0422EDE7FFF70D
:10091C001BFF4FF4C874F7E70020FFF701FF48B145
:10092C000020FFF725FF404B05221A7040F6CD4101
:10093C000022C2E7FFF708FFF5E70020FFF74AFFA8
:10094C00394B06221A70002240F26661B5E700208E
:10095C00FFF7FAFE344B07221A7000248DE70120B2
:10096C002070FFF737FFEEE701202070FFF732FF12
:10097C0000224FF40051A0E7FFF71DFF2A4B0C2279
:10098C00EAE72A482A4E01F084FCD5F11105044609
:10099C001CD0D8B9012D13D0C8235D4321464FF488
:1009AC0000474FF47A704FF4FA620023C5FB07013D
:1009BC0003F04EF8224601461C4801F041FC044667
:1009CC000220FFF7C1FE0123337056E70220FFF728
:1009DC00CFFE0023F8E7FFF717FF134B1222BBE7FC
:1009EC00FFF712FF0020FFF7AFFE0F4B1322B3E708
:1009FC00FFF70AFF0120FFF7A7FE0B4B1422ABE712
:100A0C00FFF702FF0020FFF79FFE0120FFF79CFE7F
:100A1C00054B1522A0E7FFF7CEFE034B1D709CE79C
:100A2C00E800002028000020E90000200800002039
:100A3C00E3000020044B1B6813F0010301D0FFF707
:100A4C00F9BE1846704700BFE40000204FF08053F9
:100A5C00D3F83001A0F10D03584258417047000003
:100A6C00024AD2F80034002BFBD0704700E0014062
:100A7C0010B5FFF7EBFF40B14FF080430022C3F8F5
:100A8C000C21C3F81021C3F83825FFF7DFFF00282D
:100A9C0046D04FF08052514BD2F80414C3F82015B5
:100AAC00D2F80814C3F82415D2F80C14C3F828157E
:100ABC00D2F81014C3F82C15D2F81414C3F830154E
:100ACC00D2F81814C3F83415D2F81C14C3F8401516
:100ADC00D2F82014C3F84415D2F82414C3F84815DE
:100AEC00D2F82814C3F84C15D2F82C14C3F85015AE
:100AFC00D2F83014C3F85415D2F83414C3F8601576
:100B0C00D2F83814C3F86415D2F83C14C3F868153D
:100B1C00D2F84014C3F86C15D2F84424C3F87025ED
:100B2C00FFF794FF48B14FF08043D3F80024D2076D
:100B3C0044BF6FF00102C3F80024294AD2F8883070
:100B4C0043F47003C2F88830BFF34F8FBFF36F8F3D
:100B5C004FF08053D3F830210D2A0ED1D3F8343115
:100B6C00022B02D81F4AD35C3BB14FF01023D3F8B1
:100B7C0008224FF08043C3F858254FF01023D3F8C8
:100B8C000022002A03DBD3F80432002B22DA1649A8
:100B9C0001234FF01020C1F804351224FFF760FF39
:100BAC00C0F80042FFF75CFFC0F80442FFF758FFA3
:100BBC000023C1F80435FFF753FFBFF34F8F0849EB
:100BCC000A4BCA6802F4E0621343CB60BFF34F8F49
:100BDC0000BFFDE7064B074A1A6010BD00C000407D
:100BEC0000ED00E04A47000000E001400400FA0577
:100BFC00480000200090D0031FB503788DF800301A
:100C0C004368019383688DF80830C368054A0393E1
:100C1C00054B684653F8213052F82110984705B01F
:100C2C005DF804FBEC000020F40000201FB50378F5
:100C3C008DF800304368019383688DF80830C368E1
:100C4C00054A0393054B684653F8213052F821109E
:100C5C00984705B05DF804FBEC000020F400002080
:100C6C00F0B5194B90F800C0DFF86CE043F82C207D
:100C7C00164B16460A6943F82C204B7F0EF80C30A5
:100C8C000C4607460FCC89B06D460FC594E80F0093
:100C9C0085E80F003B78CDF810C01EF803304BB13F
:100CAC00002E0B4A694608BF3246381D00F08CFDF9
:100CBC0009B0F0BD002E074A694608BF324607F15D
:100CCC000C0000F04BFBF3E7F4000020EC000020DC
:100CDC00050C0000390C0000FC00002000F18040E5
:100CEC0000F5C040002382B0036003680193019BB0
:100CFC0002B0704703681F2B83BF03F01F03036010
:100D0C0001484FF0A04070470003005007B5019018
:100D1C0001A8FFF7EFFF019B00EB8300D0F8003731
:100D2C0023F44033C0F80037D0F8003743EA0141D0
:100D3C00C0F8001703B05DF804FB0000054B4FF042
:100D4C00FF32072843F8202084BF1B1883F8522059
:100D5C00704700BF0001002038B51E4991F864307F
:100D6C00ABBB40F2FF30FF245A09012A0CBF0246EC
:100D7C004FF0FF3203F01F05EA40D20748BFCA18F4
:100D8C0003F1010348BF82F830402A2BECD1002438
:100D9C00E0B20134FFF7D2FF0C2CF9D10E4B00223C
:100DAC00C1F85E209A800D4BC02083F806034020CA
:100DBC0018604FF4BE70FFF791FF094B4FF00040E5
:100DCC00C3F80403012381F86430104638BD0820B1
:100DDC00FCE700BF000100205E01002000E100E004
:100DEC0000600040034B93F86400003818BF0120EA
:100DFC00704700BF00010020F7B53D4F3B1804467B
:100E0C0093F93030002B71DA8B78C3F34003002B4D
:100E1C000BBF082500250C200820854202D1042098
:100E2C0003B0F0BD57F82560013647D138196EB2C2
:100E3C0047F8252080F8306013B97B1983F85240AD
:100E4C008B785A071AD4D8073AD501A80194FFF722
:100E5C0051FF019B00EB8300D0F8003723F0020315
:100E6C00C0F800372348E20804F0070C012303FA0A
:100E7C000CF310F802C043EA0C03835488780B7807
:100E8C0010F0020028D0AD0005F1804505F5C045F5
:100E9C002402D5F8102522F44F3222F44072C5F802
:100EAC0010251B04D5F8102504F47C5403F44033AE
:100EBC001C431443C5F810450020B1E70135ACE7DD
:100ECC0001A84A780194FFF715FF019B03F5E07325
:100EDC00920040F82320C5E7083E47FA86F696F8BC
:100EEC005A2042EA831386F85A3099E7082097E78C
:100EFC00000100205E01002037B5224D2B1804465E
:100F0C0093F93020072A1DDD083A45FA82F292F84F
:100F1C005A309B09032B10D1019001A8FFF7EAFE70
:100F2C00019BD0F81015D94001F001010231204687
:100F3C0003B0BDE83040FFF7E9BE012B0CBF022126
:100F4C000321F4E7D3B2072B1AD8930003F18043A3
:100F5C0003F5C043D3F8100540F00100C3F81005A9
:100F6C0002F1400040B2800080B2FFF7B7FE39B109
:100F7C0055F8223023B101239340034AC2F80433BD
:100F8C0003B030BD000100200060004007B50190A7
:100F9C0001A8FFF7AFFE019BD0F81005D84000F078
:100FAC00010003B05DF804FB2DE9FF470024CDE9F7
:100FBC000244584D4FF48072012102F1804303F535
:100FCC00C04390B21B68012B06D1D5F804330B42F9
:100FDC0002D0FFF783FE0C430432B2F5907F4FEA48
:100FEC004101EAD14B4BD3F87C31012B11D14FF499
:100FFC00BE70FFF773FE4FF0A04344F00044D3F8EB
:10100C0020250292C3F82025D3F820280392C3F898
:10101C002028E3B2D3B1404F00250126344210D032
:10102C00AB0003F1804303F5C043D3F81005D3F8AC
:10103C00101557F8253023B1C1F30141C0F3052039
:10104C0098470135082D4FEA4606E7D1002C59DAAE
:10105C00314D324C324E4FF00008012716F9013F4A
:10106C005A1C3CD0C3F3C201103169445FFA83F9B6
:10107C0011F8081C03F03F0203F0070307FA03F30F
:10108C0019422CD001A80192FFF734FE019B03F505
:10109C00E07350F82330C3F3014ABAF1020F0CBFCE
:1010AC00032102211046FFF731FE01A80192FFF740
:1010BC0021FE019B07FA03F3C0F82035AB1893F916
:1010CC00303055F8233053B14FEA9911032904D02D
:1010DC00BAF1020F19D1012901D11046984708F134
:1010EC000108B8F1040FB9D14FF0A042D2F8203565
:1010FC000293C2F82035D4F8202503921343C4F888
:10110C002025A7D104B0BDE8F087BAF1030FE6D1D2
:10111C000229E1E7006000400001002000030050BC
:10112C0059010020014B1B68184700BF68010020C3
:10113C0038B50B4B98420C4601D0002038BD00202E
:10114C0001F0BEF9074B1D7915B901221C601A710B
:10115C00002001F0B7F9002DEFD01120EEE700BF11
:10116C000020004068010020034B984201BF034B54
:10117C0000221A601A71704700200040680100209C
:10118C000023435082B043580193019B02B0704737
:10119C000A4610B54FF48E71FFF7F2FF136A91688F
:1011AC00C95C136A01331362C0F81C1510BD8B693E
:1011BC000A4610B54FF4847123B9FFF7E1FFD0F85C
:1011CC00183510BDFFF7DCFF536AD168D0F818054D
:1011DC00C854536A01335362F3E700001FB501236F
:1011EC008DF80030044BCDE90110D3E900126846AC
:1011FC00904705B05DF804FB7001002030B54D4DF3
:10120C00D5F804339A0585B051D5D5F82431002B87
:10121C004DD04FF492712846FFF7B2FF4FF4017393
:10122C00C5F80833444B93F829200AB901226A60A7
:10123C00404902228DF80020D1F88024C1F8802486
:10124C0003929A690292DA6801920022C3E906229B
:10125C006846D3E9001290473648D0F81C315BB190
:10126C00354A5169136A99424DD992F82830002BAE
:10127C0049D11146FFF78CFF2E48D0F84431002B92
:10128C0056D04FF4A271FFF77BFF2B4B93F829201C
:10129C000AB1012202609A69002A49D0586AD968B9
:1012AC0000229A6105B0BDE83040FFF797BFD5F832
:1012BC0004335B07D0D5D5F80831002BCCD01E4CAD
:1012CC001C482146FFF773FF636AA2699A42C3D197
:1012DC00E369E1684BB1A3612369E3600023606AB1
:1012EC00E3616362FFF77AFFB6E794F829300BB934
:1012FC0001236B600F4B4FF40172C3F808230023DA
:10130C00606AA361EEE70B484FF48E71FFF738FF6C
:10131C005369002BB0D051690291002391688DF86C
:10132C000030019153616846D2E900139847A3E756
:10133C0005B030BD00200040700100201F2886BF82
:10134C0000F01F00044B4FF0A04300F5E0700222A8
:10135C0043F82020704700BF000300502DE9F843EC
:10136C005F4D90F804802C2303FB0853064693F83A
:10137C002A300C469146002B40F0AE80594900684B
:10138C00FFF7D6FE0746002840F0A88021684A1CCB
:10139C0010D01F2987BF544A01F01F030B464FF092
:1013AC00A0420120984003F5E073C2F80805032021
:1013BC0042F823006068431C0DD01F288BBF00F03F
:1013CC001F030346484A4FF0A04203F5E0734FF069
:1013DC00000C42F823C03368A269C3F8242594F8A2
:1013EC0014C0627DBCF1010F4CEA0202C3F86C25FB
:1013FC00C3F81405C3F80C152BD1A168481C0DD0EB
:10140C001F298BBF01F01F020A4637484FF0A0403E
:10141C0002F5E0724FF0000C40F822C0E068421C6C
:10142C0013D01F2887BF304A00F01F0C84464FF0A2
:10143C00A0424FF0010E0EFA0CFE0CF5E07CC2F847
:10144C0008E54FF0030E42F82CE0C3F80805C3F88A
:10145C0010152C2303FB08F3EA18C2F80490226938
:10146C00EA50B9F1000F1FD03068227F4FF48E7113
:10147C00FFF786FE4FF4A271FFF782FE1B4BC0F8FC
:10148C00043340F3073153010029C0F30730DBB2BA
:10149C001DDB174A541884F800330123490900F066
:1014AC001F00834042F8213033680422C3F8002522
:1014BC002C2303FB08530022C3E9062283F82920BE
:1014CC005A61012283F82A203846BDE8F883094A7C
:1014DC0000F00F001354E7E70827F5E71127F3E7AF
:1014EC00700100200912000000030050800002006F
:1014FC0000E100E014ED00E02DE9F041036805790E
:10150C00284C0022C3F800252C2202FB054252680D
:10151C00A2B1254AC3F80823190B43F30733002B58
:10152C000CDB01F01F015B0901228A4020331F49AB
:10153C0041F82320BFF34F8FBFF36F8F0168D1F8B1
:10154C000C05D1F81485D1F80865D1F810754FF059
:10155C00FF339842C1F81435C1F80C35C1F8083581
:10156C00C1F8103501D0FFF7E9FEB8F1FF3F02D00A
:10157C004046FFF7E3FE7A1C02D03846FFF7DEFE4A
:10158C00731C02D03046FFF7D9FE0846FFF7ECFD7E
:10159C002C2303FB0544002384F82A306360BDE848
:1015AC00F08100BF700100208402020000E100E025
:1015BC000279044B2C2101FB02335869003818BF07
:1015CC0001207047700100202DE9F84F074690F874
:1015DC00048089469346FFF7EBFF0446002839D177
:1015EC001E4E2C2508FB056A4FF48E71CAF814B0F8
:1015FC00CAF80890CAF820008AF828003868FFF763
:10160C00BFFD012383605146FFF7C2FDDAF80430B9
:10161C0055460BBBDAF814402B6A9C4210D8D0F814
:10162C001C31002BFBD00123C36000202C2303FBB7
:10163C00086600237361BDE8F88F95F828303BB934
:10164C00D0F81C31002BF8D05146FFF7A1FDE3E791
:10165C000F20EBE71120EEE72046ECE770010020AD
:10166C000023435082B043580193019B02B0704752
:10167C001FB501238DF80030044BCDE90110D3E9DF
:10168C0000126846904705B05DF804FB9C010020F1
:10169C007FB5434AD2F82461002E60D010464FF437
:1016AC009271FFF7DDFF02238DF80030D2F8803401
:1016BC00C2F880340393D2F83C350293394BDA6884
:1016CC0001920022C3E906226846D3E90012904732
:1016DC003348D0F8443173B14FF4A271FFF7C0FF17
:1016EC00304B9A693AB10022C3E90622D968D0F886
:1016FC003C05FFF7BDFF2A48D0F82031ABB14FF4C1
:10170C009071FFF7ADFF0123C360264B5A6962B19C
:10171C00D0F84C150291002299688DF800200191A7
:10172C005A616846D3E9001290471D48D0F85831E9
:10173C009BB14FF4AC71FFF793FF1A4B5A6962B12E
:10174C00D0F84C150291002299688DF80020019177
:10175C005A616846D3E90012904704B070BDD2F8C4
:10176C001031002BB4D04FF488711046FFF778FF7E
:10177C000C4BD2F83C0599698842A9D1DC69D9682F
:10178C0064B1D2F8005225F02005C2F800521A6953
:10179C009C61DA60DE61FFF76BFF99E79C61FAE709
:1017AC00002000409C0100201F2886BF00F01F0075
:1017BC00044B4FF0A04300F5E070022243F82020C8
:1017CC00704700BF000300502DE9F843644D90F8BA
:1017DC000480242303FB0853064693F820300C4660
:1017EC009146002B40F0B8805E490068FFF7A0FCE2
:1017FC000746002840F0B2802068421C10D01F28F9
:10180C0087BF594A00F01F0303464FF0A042012145
:10181C00994003F5E073C2F80815032142F8231030
:10182C0061684B1C0DD01F298BBF01F01F030B46A9
:10183C004D4A4FF0A04203F5E0734FF0000C42F814
:10184C0023C03368A269C3F8242594F814C0627DC0
:10185C00BCF1010F4CEA0202C3F86C25C3F80C056D
:10186C00C3F814152BD1A168481C0DD01F298BBFB0
:10187C0001F01F020A463C484FF0A04002F5E0720E
:10188C004FF0000C40F822C0E068421C13D01F2817
:10189C0087BF354A00F01F0C84464FF0A0424FF032
:1018AC00010E0EFA0CFE0CF5E07CC2F808E54FF0C8
:1018BC00030E42F82CE0C3F80805C3F810152423D6
:1018CC0003FB08F3EA18C2F804902269EA50B9F154
:1018DC00000F2BD03068227F4FF48871FFF7C0FEC9
:1018EC004FF49071FFF7BCFE4FF49271FFF7B8FE06
:1018FC004FF4A271FFF7B4FE4FF4AC71FFF7B0FEDA
:10190C001A4BC0F8043340F3073153010029C0F3DC
:10191C000730DBB21BDB164A541884F80033012362
:10192C00490900F01F00834042F821303368082237
:10193C00C3F80025242303FB08550023C5E906330F
:10194C006B61012385F820303846BDE8F883094ADD
:10195C0000F00F001354E9E70827F5E71127F3E728
:10196C009C0100209D160000000300501003420053
:10197C0000E100E014ED00E02DE9F0413D4D067969
:10198C000468242303FB065302465B68ABB13A4B55
:10199C00C4F8083344F30733002B4FEA14300CDB44
:1019AC0000F01F005B09012181402033334840F8CF
:1019BC002310BFF34F8FBFF36F8FD4F8003223F097
:1019CC002003C4F80032242303FB06539B6933B174
:1019DC004FF4A2712046FFF743FE012363604FF4DE
:1019EC00AC712046FFF73CFE0123E360242303FB8C
:1019FC000653D4F858110029FBD0996919B1D4F8C1
:101A0C0044110029F5D00023C4F800351368D3F82D
:101A1C000C05D3F81485D3F80815D3F810754FF0CE
:101A2C00FF329042C3F80C25C3F81425C3F80825DF
:101A3C00C3F8102501D0FFF7B7FEB8F1FF3F02D075
:101A4C004046FFF7B1FE7A1C02D03846FFF7ACFED9
:101A5C004B1C02D00846FFF7A7FE2046FFF784FB7D
:101A6C00242303FB0655002385F820306B60BDE86A
:101A7C00F08100BF9C0100201003420000E100E057
:101A8C000279044B242101FB02335869003818BF3A
:101A9C00012070479C01002001F06043B3F1005F0E
:101AAC002DE9F0470746884692463AD190F80490C3
:101ABC00FFF7E6FF0446002835D11D4E3A68242571
:101ACC0005FB09654FF490711046C5F814A0C5F8D4
:101ADC000880FFF7C5FD4FF4AC71FFF7C1FD6B69D2
:101AEC00A968C2F84415C2F84835012393606B68A5
:101AFC00DBB9D2F82031D2F858011BB90028F8D044
:101B0C000F2007E00028FBD10123D360D2F8583115
:101B1C00002BFBD0242303FB096600237361BDE873
:101B2C00F0871020FBE71120F9E72046F7E700BF0C
:101B3C009C01002010B5C1B20020034621FA03F22B
:101B4C00C3F1070402F001020133A240082B40EA62
:101B5C000200F3D110BD00002DE9F0412F4C0027FD
:101B6C0001260423C4F8FC7FC4F8FC6FC4F80C35C0
:101B7C000323C4F81035C4F80039294BC4F81039C4
:101B8C004FF48033C4F814394FF08E33C4F8243535
:101B9C00C720FFF7CFFF8046C620FFF7CBFF050419
:101BAC00C420FFF7C7FF45EA08651E4B2843C4F85D
:101BBC002805C4F81C358920FFF7BCFF804648F681
:101BCC00AB10FFF7B7FF05041748FFF7B3FF45EA63
:101BDC00086580461548FFF7ADFF0543144B45EAF1
:101BEC000825C4F82055C4F82C75C4F83065C4F821
:101BFC001435104BC4F8183540F20313C4F83435BF
:101C0C000D4BC4F83C350D4BC4F838350C4BC4F8AF
:101C1C0000329623C4F84435BDE8F0810010004032
:101C2C009402020000D6BE89CDAB8900EFCDAB8902
:101C3C000601020025000302555555005B06000104
:101C4C000100100037B52A4B2A4A2B4C2B499B1A02
:101C5C00DB081B04054643F00300019001F05EFC19
:101C6C000023C4F804550198C4F80031C4F80431B9
:101C7C00C4F80831C4F80C31C4F86C31C4F8103114
:101C8C0001232360D4F80031002BFBD01C490190B8
:101C9C0001F044FC0198D4F80431002BFBD0194915
:101CAC000190154C01F03AFC0198D4F80831002B46
:101CBC00FBD01549019001F031FC0198D4F81424A3
:101CCC00124901F02FFC0C4B0198D3F86C21002A1F
:101CDC00FBD0D3F81021002AFBD0092300BF013B15
:101CEC00FCD10B4903B0BDE8304001F017BC00BF7C
:101CFC009845000078450000001000406347000044
:101D0C006E4700007D4700008C4700009B47000099
:101D1C00A9470000A0F12503DBB2022B96BF054AB0
:101D2C004300D35C044A88BFDBB2C2F80835C2F862
:101D3C0054057047BD47000000100040C30710B5A4
:101D4C0007D4F023054A4008145C2340194311546E
:101D5C0010BD0901C9B20F23F4E700BFD001002068
:101D6C0030B5094B1C78094B196800239C4202DCE6
:101D7C000022104630BD11F83350854201EBC302EE
:101D8C00F7D00133F2E700BFC0010020F0010020C2
:101D9C0013B504460191FFF7E3FF38B143682BB14B
:101DAC000199204602B0BDE81040184702B010BDA2
:101DBC00034B044819680022490800F041BA00BFDF
:101DCC00C40100205000002010B5C0B2FFF7C8FFBE
:101DDC0004460078FFF7DAF863785A1E53425341F1
:101DEC00834208D1044AD2E90032134303D1BDE83F
:101DFC001040FFF7DDBF10BDC801002038B5344AD4
:101E0C0043080446D35CC2074CBF1B0903F00F0305
:101E1C000D46042B5AD8DFE803F003222B373A0087
:101E2C00002953D00121FFF789FF002000F048FB67
:101E3C000122A4F12003C4F12000264922FA00F06B
:101E4C0002FA03F30343A240D1E9004014431843C0
:101E5C00C1E90040BDE83840002000F033BB003938
:101E6C0018BF012149002046BDE83840FFF766BF86
:101E7C0041B10321FFF762FF20460121BDE8384044
:101E8C00FFF786BF0121EEE701BB0421EBE709B1A7
:101E9C000321E8E7FFF752FF29462046FFF778FFBA
:101EAC00284600F00DFB0122A4F12003C4F1200010
:101EBC00084922FA00F002FA03F30343A240D1E9E5
:101ECC00004024EA020420EA0300C1E738BD00BF49
:101EDC00D0010020C80100202DE9F041124E134F13
:101EEC0000243378A34208DC114AD2E900321343B0
:101EFC0018D0BDE8F041FFF75BBF3D6805EBC408A7
:101F0C0015F83400FFF742F898F801305A1E534286
:101F1C005341181A4142414115F83400FFF76EFF46
:101F2C000134DEE7BDE8F081C0010020F0010020A3
:101F3C00C8010020092AF7B505460C4616463ED9BD
:101F4C00FEF750FFE8B11F4B1F481D601F4B204F81
:101F5C001C70204B002120221E6001F007FF1E4B3D
:101F6C0000200021C3E90001013CE4B20326FF2C50
:101F7C000DD11A4A1A48002103B0BDE8F04000F018
:101F8C004DB9FEF7E9FE0028DDD003B0F0BD9DF899
:101F9C00063015F834008DF8046005EBC40223F00C
:101FAC0007038DF8063001A993788DF805303A4671
:101FBC00FEF722FF013CE4B20028D8D0E5E7072069
:101FCC00E3E700BFF0010020D0010020C001002099
:101FDC00D51D0000C4010020C8010020E51E000032
:101FEC00CC47000070B5084D084E00242B789C425D
:101FFC0001D3002070BD3368012113F83400FEF7C3
:10200C007BFF0134F2E700BFC0010020F00100208B
:10201C001FB50021039001AA44F20100CDE9011182
:10202C0000F004F805B05DF804FB000038B572B69A
:10203C0001F00AFB01F030F90028FBD1104B114CD8
:10204C00114D1249E41AE408240444F0010001F093
:10205C0065FAD5F8F030DB0700D500BE0C4944F02A
:10206C00020001F05BFABFF34F8FEA68094B02F4F0
:10207C00E0621343EB60BFF34F8F00BFFDE700BF7F
:10208C00784500009845000000ED00E0D0470000C6
:10209C00DC4700000400FA0510B5D0E90242D1E992
:1020AC000203A04293412CBF0120002010BD000070
:1020BC0008B50A4800F023FB094AD2E90031C018E0
:1020CC00084BD3E9002341F10001904271EB03036B
:1020DC0003D210F1807041F1000108BD70000020A6
:1020EC00F80100207002002037B505460C460A485E
:1020FC0001A900F038FB60B10570446001A90648E5
:10210C0000F05BFB18B1054800F0FEFA002003B0AC
:10211C0030BD0420FBE700BF5C02002070000020F3
:10212C00234B70B51E78044616B90026304670BD98
:10213C000028FAD0FFF7BCFFD4E902239042994162
:10214C002FD3002000F0BCF923692BB94FF0FF32DC
:10215C004FF0FF33C4E90223002000F0B3F9D4E9B7
:10216C0005309847002000F0ABF925696DB1D4E932
:10217C000212B2F1FF3F08BFB1F1FF3F0FD0691857
:10218C0042F10002C4E902123546002000F09AF92F
:10219C00002DCAD00748214600F075FEC6E7002581
:1021AC00F3E7B3F1FF3F08BFB2F1FF3FBDD0F1E75A
:1021BC0000020020F847000013B5114B11491868B4
:1021CC00019008231048582200F0BAFA044698B936
:1021DC000E4A0F4801A900F085F9044660B90C4875
:1021EC00012100F06FFA01230A4A0948194600F050
:1021FC00D1F9094B01221A70204602B010BD00BF64
:10220C00F4470000040200205C020020F1220000D0
:10221C0070000020FFFF7F000002002030B56AB183
:10222C0003684FF0FF344FF0FF355A614A1E51429C
:10223C00C3E9024551411961002030BD0720FCE77C
:10224C00F8B50446002017460D4600F039F9D4E9DC
:10225C000223B3F1FF3F08BFB2F1FF3F15D1FFF7E7
:10226C0027FF281841F10001C4E9020101260020D2
:10227C0000F028F95EB12369A76103B125612146FD
:10228C000020BDE8F840FFF72FBF0026EFE73046EF
:10229C00F8BD38B50446002000F012F9D4E9022349
:1022AC00B3F1FF3F08BFB2F1FF3F1FBF4FF0FF324A
:1022BC004FF0FF33C4E90223012508BF002500209D
:1022CC0000F000F92DB121460120BDE83840FFF7A0
:1022DC000BBF284638BD0000014800F010BA00BF03
:1022EC00700000202DE9F743064600F0F3F940B1E9
:1022FC00624AD2E9003113F1807341F10001C2E965
:10230C0000310021304600F0F4F938B15C4C236800
:10231C0023B12068FFF704FF00232360012130461E
:10232C0000F0E7F920B1FFF7C3FE564BC3E90001FB
:10233C005548534C01A900F050FA4FF0FF384FF0BC
:10234C00FF39A0B9DFF844814D4D404600F0B1FD96
:10235C00002800F08580D0E90223B3F1FF3F08BFCD
:10236C00B2F1FF3F32D1404600F09DFDEDE703781E
:10237C00012B20D0022B08D1444D284600F093FDB0
:10238C00002877D0C0E90289F7E75BB94168D1E949
:10239C000223B3F1FF3F08BFB2F1FF3F02D03B482D
:1023AC0000F071FD01A9384800F042FA01A9364845
:1023BC0000F013FAC5E741682368994202D1002363
:1023CC002360EFE7314800F077FDEBE7296891B126
:1023DC002968D1E9020182428B412FD22B68D3E9C3
:1023EC000223B3F1FF3F08BFB2F1FF3F03D02968CE
:1023FC00404600F048FD404600F055FDD0E902494A
:10240C000746FFF755FE201A69EB0101012871F10F
:10241C00000918DBB0F5350F13D3FFF75DFF1C4A2D
:10242C0002441C484FF49603002100F0D3F890B9F5
:10243C002B6813B9304600F0A5F82F6003B0BDE847
:10244C00F0832246EDE71348002100F048F93846A6
:10245C00FFF766FE01E00D28F9D000232B6074E72E
:10246C00074B1B68002BE9D1304603B0BDE8F043A5
:10247C0000F08CB8084B01221A7093E7F801002089
:10248C0078020020700200205C020020F847000057
:10249C00FFFFB400700000200002002072B6024A58
:1024AC0013680133136070477C020020034A1368E1
:1024BC00013B136003B962B6704700BF7C02002079
:1024CC00FFF7ECBFFFF7F2BF435882B03BB10023DC
:1024DC00435043580193019B012002B070471846AA
:1024EC00FBE70000F8B51F4B44791F4E43F824203E
:1024FC001E4A1F4B06EBC4049B1A2279DB081B04F3
:10250C0032B143F002001B4901F008F80820F8BD75
:10251C0002680C88C2F8084590F904508A7804794E
:10252C005201002DD2B218DB13494F1987F8002342
:10253C0001226D0904F01F04A24041F825204279C4
:10254C0006EBC201012446F832000C7143F0030083
:10255C000A4900F0E3FF0020D9E7094904F00F0411
:10256C000A55ECE788020020800200207845000024
:10257C00A84500000448000000E100E026480000E7
:10258C0014ED00E0036801221A6070470368012211
:10259C005A60704773B501F15005AD000068ADB2DB
:1025AC004FF480348C400026C0F80843C0F84843F0
:1025BC00465101F5A8714559019522F07F42019DC4
:1025CC0040F82120C0F844430BB1C0F8044302B0DA
:1025DC0070BD00002DE9F74F0D4622F07F440268D4
:1025EC004FF4803705F150068F408046B60002EB61
:1025FC008500C2F84873B6B2C2F80873D2F8041555
:10260C0099464FF0000BD0F84035C0F8401542F811
:10261C0006B05B1A9259009223F07F43012B009A6B
:10262C004FEA850A0CD1264B4FF4806043F001032E
:10263C009847D8F8003043F806B09B590193019B9A
:10264C00D8F80020D2F80465C2F84473A31B23F019
:10265C007F43012B1CD11A4B05F5A875013443F0AF
:10266C00010342F825404FF480609847D8F80030B9
:10267C00D3F804359E4209D1D8F800300020C3F8B5
:10268C004473C3F8047303B0BDE8F08F0D20FAE770
:10269C009244C9F1FF13CAF84045D2F80405211A37
:1026AC00013921F07F4103F57F438B42EED30029A2
:1026BC00E2D10134CAF84045D2F804359842DAE741
:1026CC004048000003680222C3F8442309B1C3F850
:1026DC000423704700684FF48271FFF7F5BE4FF486
:1026EC00803303FA01F10368C3F84813C3F80813E5
:1026FC00704750318900006889B2FFF7E5BE036866
:10270C00D3F804057047000090F90430002B09DB66
:10271C005A09012103F01F03994002F14003024AB8
:10272C0042F82310704700BF00E100E0024B034A5F
:10273C001B681068184700BF880200208002002028
:10274C0010B561B1B2FBF3F403FB1424A4B244B989
:10275C00C0E9001484608281C381204610BD0E2024
:10276C00FCE70920FAE737B550E8013F9DB2C48970
:10277C0025448489A54228BF2D1B0489A54202BF8C
:10278C00BFF32F8F002207E0C5EA030540E8015490
:10279C00002CE9D14FF001028DF803200193019A2E
:1027AC000A609DF8031001F0FF0321B1006810FAD4
:1027BC0082F003B030BD1846FBE70A884B889A427A
:1027CC0009D150E8012FC2EA024240E80123002B54
:1027DC00F7D1012070470020704737B550E8023F11
:1027EC001FFAA3F5C488A54202BFBFF32F8F0022A6
:1027FC000DE0C48925448489A54228BF2D1BC3EA5A
:10280C00054540E80254002CE8D14FF001028DF848
:10281C0003200193019A0A609DF8031001F0FF0355
:10282C0021B1006800EB124003B030BD1846FBE745
:10283C000A884B889A4209D150E8022FC2EA2242F8
:10284C0040E80223002BF7D101207047002070478D
:10285C0010B5034653E8000F0A4643E8002494F0F1
:10286C00000FF7D110BD10B5034653E8002F42EA14
:10287C00010043E8000494F0000FF6D110BD10B530
:10288C00034653E8000F00EA010243E8002494F0E9
:10289C00000FF6D110BD10B5034653E8002F02EB24
:1028AC00010043E8000494F0000FF6D110BD10B500
:1028BC00034653E8002FA2EB010043E8000494F018
:1028CC00000FF6D110BD0121FFF7CDBF0021FFF79E
:1028DC00D6BF10B590B1D0E9012301689B1ADBB2C9
:1028EC000A60013BDBB2FF2B026802D100201071A1
:1028FC0010BD11684C1C14600B70F2E70E20F7E74A
:10290C0038B504460020FFF7DBFD226861681368C8
:10291C008B4213D9591E116013F8013C208AE568CB
:10292C0000FB0355A3685B1A1179DBB2994200D204
:10293C0013710020FFF7C6FD284638BD0025F8E7C7
:10294C0038B5054600200C46FFF7BAFD2A68136817
:10295C00591C1160EA68A41A2A8AB4FBF2F41C70A0
:10296C00BDE838400020FFF7ADBD826810B50446C5
:10297C002AB143690168006998470023A36010BD20
:10298C000EB403B5039921B104AB01AA019300F075
:10299C0077F802B05DF804EB03B070470A2938B53C
:1029AC0004460D4602D10D21FFF7F8FFA3682268FB
:1029BC00591CA160D554D4E901329A4204D3204663
:1029CC00BDE83840FFF7D1BF38BD00002DE9F84F06
:1029DC009846DDE90A43154682460F460A464FF0F3
:1029EC000109AA420FD2C14538BFC14613F0010BF1
:1029FC0001D16CB900240126B8F1010F1BD908F1E3
:102A0C00FF386E43F8E709F10109B2FBF5F2E8E78C
:102A1C009B070ED5B8F1000F0CBF30262026A14520
:102A2C00E9D2013C31465046FFF7B8FF002CF6D1F5
:102A3C00E0E72026F3E7B7FBF6F39D42E1D9DFF898
:102A4C003C80B7FBF6F3504618F8031006FB1377DF
:102A5C00FFF7A4FF3346AB42B6FBF5F6F1D2BBF160
:102A6C00000F02D00CB1A14501D3BDE8F88F202195
:102A7C005046013CFFF792FFF4E700BF46480000C8
:102A8C002DE9F74F054617468846002900F03E8190
:102A9C0018F8011B49B92B7B002B00F03781284615
:102AAC0003B0BDE8F04FFFF760BF252940F0B780B9
:102ABC00002698F800302D2B424608F1010823D04F
:102ACC00302B24D02B2B25D000242A2B02F10101F2
:102ADC0023D13B681A1D1B683A601C440A461378C4
:102AEC002E2B26D101324FF0000A104610F8011B94
:102AFC00A1F1300CBCF1090F1DD80A2303FB0A11FC
:102B0C00A1F1300A0246F0E746F00106D1E746F0A3
:102B1C000206CEE746F00406CBE711F8013CA3F120
:102B2C0030000928DBD80A2202FB0434303C0A4668
:102B3C00CBE74FF0000A12F8011B01F0FB006828EC
:102B4C009046F8D0782909D86F290CD8632962D01F
:102B5C0022D8252963D0582900F0888098F80030B5
:102B6C00002B95D197E770390829F7D801A252F8B4
:102B7C0021F000BFF32C0000692B0000692B000032
:102B8C00892C0000692B0000672C0000692B0000C9
:102B9C00692B0000792C0000642901D06929DDD152
:102BAC003A68D2F80090111D89EAE9723960A2EBFB
:102BBC00E9724FF0010B092A35DCD34538BFD346F7
:102BCC002CB1B9F1000F01DB720700D5013CB30742
:102BDC0002D5BAF1000F03D0F00701D44CBB00248E
:102BEC00B9F1000F2DDAC9F100092D212846FFF7A4
:102BFC00D5FE06F00302022A04D1BAF1000F01D16E
:102C0C001CBB0024CDE9004653460A2249462846FF
:102C1C00FFF7DCFEA2E73B681A1D19783A602846DC
:102C2C00FFF7BCFE9AE70A230BF1010BB2FBF3F2A0
:102C3C00C1E7A345D4D220212846013CFFF7AEFEC4
:102C4C00CCE77107D5D52B21D0E7A345DAD23021BB
:102C5C002846013CFFF7A2FED2E73968CDE90046D1
:102C6C000A1D3A6053460A220968D0E739680A1DE2
:102C7C003A60CDE9004653461022F5E73B681A1D31
:102C8C003A6016F00106D3F8009024D1B9F1000F88
:102C9C0003D0484601F004F80646B4421DD809F1A9
:102CAC00FF3919F8011F00293FF458AF2846FFF7E8
:102CBC0075FEF6E728460136FFF770FE19F8061088
:102CCC000029F7D1A642BFF449AF20212846013C88
:102CDC00FFF764FEF6E70026F0E720212846013CCA
:102CEC00FFF75CFED9E73B681A1D3A603021284695
:102CFC001C68FFF753FE78212846FFF74FFE002291
:102D0C000823CDE900322146102280E703B0BDE84C
:102D1C00F08F00BF2DE9F84FB0F806A04579D2F836
:102D2C0000B09DF828900AFB05F5043D88460BEB96
:102D3C000301A94203F1040488BFA5EB030BB4FB08
:102D4C00FAF607460AFB1644C2F800B04EB9AAEBD5
:102D5C0004055D4528BF5D46BBF1000F04D1BDE8FD
:102D6C00F88F3F68013EF1E7043408EB06003C4461
:102D7C002A46B9F1000F0DD02146ABEB050B00F044
:102D8C00BFFFDA452E443F6855464FF0000428BF7C
:102D9C005D46E1E701462046EFE7FFF79ABDF8B53F
:102DAC0046790146721E0546002393422D6803D3D3
:102DBC000024A64202D8F8BD0133F6E70F68284676
:102DCC00FFF7BEFD01343946F3E72DE9F843068AD7
:102DDC00CD1C0746FFF794FD043E35440446B5FB75
:102DEC00F6F5F0B14FF48073EDB28380C680013DEF
:102DFC00076081464FF00008A84512D23846FFF70D
:102E0C007FFD064648B163790133637108F101080F
:102E1C00C9F8000007608146EEE72046FFF7BFFFC8
:102E2C0034462046BDE8F88301210430FFF733BD5A
:102E3C0010B5012104460430FFF739FDC0B220B9AA
:102E4C002046BDE81040FFF7AABF10BD1FB5039286
:102E5C000022009203AAFFF75DFF05B05DF804FBAA
:102E6C001FB503920122009203AAFFF753FF05B08E
:102E7C005DF804FB836800225A60C3E904229A605F
:102E8C00DA601A60704770B5446806460D462068D3
:102E9C0018B1B3682946984718B923682B60256088
:102EAC0070BD2468F3E74368186808B102681A60BB
:102EBC0070474368186870474368186800B97047D2
:102ECC00884203D102681A600120704703460068EB
:102EDC00F4E7F0B595B01D46164608460C46FFF7CC
:102EEC00A3FF1A9B0D93CDE9086500252B460822FC
:102EFC0005A920460A958DF82C500C95FFF7B0FFCC
:102F0C00079B0293069B03939DF814308DF8115088
:102F1C0003F00302012A1DD1BDF81420059DC3F353
:102F2C00C203C2F383168DF81030B20008230EA929
:102F3C002046FFF795FFC5F3952508AB0093324665
:102F4C0002AB0EA9284600F0F3FB2046FFF770FFFA
:102F5C0015B0F0BD022AF8D1BDF81650C3F3C20368
:102F6C00C5F389158DF810300827082D2E4628BF7B
:102F7C0008263B4632460EA92046FFF771FFAD1BD3
:102F8C0008AB02AA31460EA8374400F035FC002DE0
:102F9C00EBD1DAE7014B01221A707047CD02002009
:102FAC007047000070B50E4D06460FCD88B06C46CC
:102FBC000FC495E80F00002E84E80F00094A0A4858
:102FCC004FF01D0308BF002269460093FDF748FE31
:102FDC0008B1FFF71DF8054B1E7008B070BD00BF9F
:102FEC0060480000A12F0000780000208C02002017
:102FFC0007B5044B0093044A4023FFF76AFF03B064
:10300C005DF804FB193000008D02002038B50D4826
:10301C000D4C0E4D002323700378EB5CD2B263B1E0
:10302C000430FEF739FD08B1FEF7F2FF084B1A78B1
:10303C0012B12378002BFBD038BD0C30FEF7C4FA4C
:10304C00F1E700BF78000020CD020020FC0000203A
:10305C008C02002008B50848084A0378D35C3BB1C1
:10306C000430FEF789FCBDE808400020FFF79ABF4A
:10307C000C30FEF741FAF6E778000020FC00002047
:10308C000120FFF78FBF000008B5FFF7F9FF0448D8
:10309C00042100F0B7FA034B01225A7108BD00BF9E
:1030AC00B84500008C000020027812F0040316D002
:1030BC0002F00303012B03D0022B09D0012070472F
:1030CC000A6800880232C0F3831002440A60F5E7F4
:1030DC000B684288023303EB92130B60EEE7184641
:1030EC00704700002DE9F04F414C884685B00546ED
:1030FC00871C00201646FFF7E3F96268C8F8002029
:10310C00A36803F580739B1A04F21C4804F5836AC8
:10311C0004F21449BB4217D30021002E63D005F0F2
:10312C000F05AD0145F0050565F30F016368DAB2D3
:10313C0003323B44002044F822106360FFF7C2F9CD
:10314C00012005B0BDE8F08F01214046FFF7A3FB3D
:10315C005046FFF7B8FB4846FFF7B5FBA068009058
:10316C00C0B2033004EB80006946FFF79DFF20BB23
:10317C00009BDAB204EB8202D16801919A1C0133F4
:10318C00DBB204EB83030092D3F80CB001F0030321
:10319C00012B20D0022B13D083464846FFF796FB19
:1031AC0008B1009BA36059464046FFF774FBA36827
:1031BC00626803F580739B1AACE79DF80000D0E7BA
:1031CC00BDF80630C3F3891303334FEA1B4B02EBF4
:1031DC0093030093E1E7BDF80430C3F383134FEA84
:1031EC001B4B1344F5E7AD0545F006019EE700BF08
:1031FC00A0030020064B074810B500221A70FFF7F9
:10320C00CCFD044610B90448FFF734FE204610BD2F
:10321C00A0030020C8450000B448000030B50A4C9B
:10322C0071B10A4A0A49121BD20800239A4201D1F1
:10323C00002030BD31F82350854202D00133F5E730
:10324C00034654F83300F4E778450000B845000015
:10325C0000000020094B013903EBC000032909D8F9
:10326C00DFE801F00A020406042070470079704779
:10327C004079704700207047022070477845000065
:10328C0070470000034BD3E90130C31A5842584130
:10329C00704700BFA00300202DE9F04385B0FFF775
:1032AC00F1FF0546002840F0E280724CC4F8180487
:1032BC00BFF34F8FA3680093DBB2033304EB83009F
:1032CC006946FFF7F1FE009B18B1D4F81824002AC8
:1032DC005CD0DAB29F1C013304EB8202DBB204EB4C
:1032EC008303D268DB68029302F00303022B019282
:1032FC00009756D1BDF806305F48C3F3891846468F
:10330C00502E28BF502666F38F1306F10801ADF836
:10331C000630FFF75AFD0546002800F09380FFF7B2
:10332C0083FD002301A908222846FFF78FFDFB43EC
:10333C00DBB20133F9B20331B6EB830F4FEA8309E9
:10334C0004EB81012AD908234A46A6EB0906284634
:10335C00FFF77CFDF6B2494909F10803324608F142
:10336C000308284607EB9807FFF770FD0097D4F881
:10337C001834D4F81064002B53D02846FFF758FDAE
:10338C00FFF780FF80F00100C5B203E062689A424B
:10339C0092D8A260284605B0BDE8F08308233246D7
:1033AC00DDE7012B4ED1BDF804303348C3F3831154
:1033BC00062928BF062161F38913023101F00F01A0
:1033CC008900ADF80430FFF700FD0546002839D020
:1033DC00FFF72AFD0023082201A92846FFF736FD36
:1033EC000026BDF80420C2F38312B300964203F109
:1033FC000803BCD200994A1CC9B20331009204EBF9
:10340C00810104222846FFF721FD0136E9E7F36824
:10341C005B7923B1336829461B6830469847F368BB
:10342C001E68002EF3D12846FFF702FD3046FFF749
:10343C0047F8D4F818340BB9009BA3600020FFF7B1
:10344C0041F89DE7D4F8104454B90D4B0D480E4982
:10345C00C01AC008000440F0020000F05FF88FE7CB
:10346C00236820469B689847E3681C68ECE70025B6
:10347C0090E700BFA0030020C8450000AC0300206B
:10348C0078450000984500009D4800002DE9F34761
:10349C0004460E46924601A9012218469946FFF7AA
:1034AC0021FE1C4F10B3019D4FF00008AA1CC8450B
:1034BC0008EB020125D118480021FFF7C9F980F368
:1034CC001000000440EA1440E4006B1C04F03804C3
:1034DC00DBB2EDB244F0010407EB8303033544EA9D
:1034EC00881444EA8624D86047F825403B781BB101
:1034FC00FFF7D2FE0028FBD1FFF7C2FE02B0BDE8F9
:10350C00F087C9B207EB81015AF82830CB6008F17B
:10351C000108CCE7A0030020BC07002000231A46BA
:10352C00FFF7B4BF07B50123019201AAFFF7AEFF65
:10353C0003B05DF804FB1FB5CDE90123069B039393
:10354C0001AA0323FFF7A2FF05B05DF804FB0000FE
:10355C002DE9F7430446D01C8846164601A90022E3
:10356C008008FFF7BFFD254D80B3019FB81C01906B
:10357C00C0B2C0F58073B6EB830F00F103004FEAC5
:10358C00830905EB800028D83246414600F0B8FB91
:10359C001B480021FFF75CF980F310007B1CDBB2A9
:1035AC0005EB8303220C42EA0042DA60FFB2E3002F
:1035BC00033703F0380343F0020343EA865255F80D
:1035CC00273003F47C13134345F827302B787BB951
:1035DC00FFF756FE03B0BDE8F0834A46414600F0C3
:1035EC008FFBA6EB090208EB090105F10C00CDE7F6
:1035FC00FFF752FE0028FBD1EAE700BFA003002032
:10360C00BC07002030B50F4CD4F810240023114611
:10361C0039B9C1680B7152B9C4F810040A60184664
:10362C0030BDC9680D799D4206D00968F0E7D268B3
:10363C0014680C601060F2E701330A2BE7D14FF0ED
:10364C00FF33ECE7A003002038B5084B0125D3F875
:10365C0010441D7004B938BDE3685D7123682046C1
:10366C005B689847E3681C68F4E700BFA003002080
:10367C0007B503460846197A052911D05B7A2BB198
:10368C00094A0A490190FFF77BF901980849019012
:10369C00FFF776F9019803B05DF804EBFFF765B915
:1036AC00002AF8D0F2E700BFC0480000C54800006F
:1036BC00E548000030B5C38885B004460D4633B1EB
:1036CC00144A00921449154A2846FFF759F9217AF1
:1036DC0005291DD0637A4BB1A088FFF7BBFD104BB9
:1036EC00104953F820202846FFF74AF9227A0E4B4E
:1036FC00A08853F8222003920021FFF78FFD039A34
:10370C000A490346284605B0BDE83040FFF738B9F2
:10371C0005B030BDC0480000D0480000C8480000CB
:10372C004C490000C548000070490000E848000002
:10373C002DE9F04385B01F460C9D002395F80C90A5
:10374C002B7306460C46904629463846FFF7B2FFC7
:10375C00B8F1060F09D8DFE808F00412181F283357
:10376C00400031462846FFF70BF90022294638461F
:10377C00FFF77EFF85F80C9005B0BDE8F08322685A
:10378C0031462846FFF7FCF8EFE7D4E90023314631
:10379C002846FFF7F5F8E8E7A36800933146D4E92B
:1037AC0000232846FFF7ECF8DFE7E3680193A368F2
:1037BC0000933146D4E900232846FFF7E1F8D4E71B
:1037CC0023690293E3680193A36800933146D4E91B
:1037DC0000232846FFF7D4F8C7E7636903932369EE
:1037EC000293E3680193A36800933146D4E9002364
:1037FC002846FFF7C5F8B8E708292DE9F74F8046AA
:10380C000E4617461C463DD800251B7B25732146CA
:10381C0010460193FFF74EFFDFF88CA0DFF88CB059
:10382C00AE4232D918F8052059462046FFF7A8F8C1
:10383C000135082DF4D11B49DFF874A0DFF874B002
:10384C002046FFF79DF84FF000094E4524D918F893
:10385C0009507E2D1ED8284600F0CEF9002814BF42
:10386C002A462E2259462046FFF78AF809F101090B
:10387C00B9F1080FE9D1012221463846FFF7F8FECD
:10388C00019B237303B0BDE8F08F51462046FFF730
:10389C0077F8CDE72E22E5E751462046FFF770F882
:1038AC00E4E700BFFC480000F8480000F2480000C4
:1038BC00FA480000FE4800000369C26893429CBFAE
:1038CC0081685B18013B981A70472DE9F041D0E9EB
:1038DC0002840546A8EB04064068964220440F4635
:1038EC00144404D900F00CFAEC60BDE8F0813246C7
:1038FC00A4EB080400F004FA68682246B919F1E751
:10390C002DE9F843C5680646894617464FF000086E
:10391C003369B46870689D4228BF1B19641BBC4294
:10392C0003F1FF3328BF3C465B1B9C4228BF1C465F
:10393C0049462844224600F0E3F9B3682544AB42DB
:10394C0008BF00253F1BA044A144F560E0D14046D0
:10395C00BDE8F88310B5114C114AA2610223C4E9E9
:10396C000433104BE361A2644FF400730E4A0F4909
:10397C002362E26400231022E01DA3626362E3620F
:10398C00A3656365E365226500F072F9084920467A
:10399C0000F06EF92023A37110BD00BF5808002061
:1039AC0084490000E0080020D00800208D49000068
:1039BC0091490000F8B5184B182400FB044504FB92
:1039CC0000300F46C46A012C16461D440FD0022C41
:1039DC001AD0F4B92846FFF76FFF864205D8324655
:1039EC0039462846FFF771FF34462046F8BD284675
:1039FC00FFF762FF8642344628BF0446224639460A
:103A0C002846FFF762FFF0E72846BDE8F840FFF7CD
:103A1C0077BF0024E9E700BF5808002070B50B4BB6
:103A2C001B7804460D4616460BB9FFF793FF002092
:103A3C00FEF746FD324629462046FFF7BBFF0446FB
:103A4C000020FEF73FFD204670BD00BF5808002047
:103A5C00002B35D129B9B0FBF2FC0CFB12026046ED
:103A6C007047914215D22DE9F041B2FA82F39A4097
:103A7C009940D3F1200C30FA0CFC51EA0C0198401F
:103A8C0000F04EF8280036FA03F200210023BDE8BE
:103A9C00F081F0B5B1FBF2FC0CFB1211B2FA82F31F
:103AAC009A409940D3F1200630FA06F631439840FB
:103ABC0000F036F8614628003200DA400023F0BDF1
:103ACC00F3B5B3FA83FC49085FEA300013FA0CF340
:103ADC00DCF1200432FA04F423430CB41A0000F095
:103AEC001FF80CBC33FA0CF3DCF11F0C35FA0CF597
:103AFC0018BF013D03BCA5FB026705FB0377801BC8
:103B0C00B941904271EB030C05D3821A71EB03039C
:103B1C00681C0021F0BD02000B0028000021F0BD44
:103B2C00940D4FF6C2752D02B5FBF4F4D60A01368E
:103B3C0004FB04F5A5FB0656F64306EB04165508E4
:103B4C0032BF00277708013505FB1677A6FB074720
:103B5C007F0807EBC63714001500E7FB02457F1BF7
:103B6C004D1C0400E7FB014505FB1206A64284BF71
:103B7C00013DB618964224BF0135B61A704700BFF6
:103B8C0040F6E021C2F200010868002802BF40F2B2
:103B9C009400C2F2000008607047002A04BF0020A5
:103BAC0070478446097848B2002844BF6FF0010082
:103BBC007047BCF1000F18BFCCF800100021C3E90E
:103BCC000011002818BF012070477F298EBF6FF0AD
:103BDC00010001700120704740F6E022C2F20002A1
:103BEC001368002B02BF40F29403C2F2000313606F
:103BFC005A689268126810470921FFF7EDBF7F28B9
:103C0C0084BF0020704744F6AC32C0F20002515C15
:103C1C0044F62C32C0F20002105C08407047A0F150
:103C2C0061011A2938BF20387047A0F141011A29C7
:103C3C0038BF203070477F2884BF0020704744F67F
:103C4C00AC32C0F20002515C44F62C32C0F20002DD
:103C5C00105C08407047A0F161011A2938BF203868
:103C6C007047A0F141011A2938BF2030704700007D
:103C7C000246F0B44FF00137FB0151F8044BE51B41
:103C8C00A5431D4002D142F8044BF6E70439F0BCC1
:103C9C0011F8013B02F8013B002BF9D1704700BF32
:103CAC00411C82070CD010F8012B3AB3820707D0C5
:103CBC0010F8012B12B3820702D010F8012BEAB1D5
:103CCC004FF0013C50F8042BCCFA52F37BB950F86E
:103CDC00042BCCFA52F353B950F8042BCCFA52F310
:103CEC002BB950F8042BCCFA52F3002BEAD0043841
:103CFC001BBAB3FA83F300EBD3000130401A7047C0
:103D0C0072B3844690EA01039B0721D1830709D043
:103D1C0011F8013B00F8013B013A20D08307F7D1A1
:103D2C0000E08446202A0AD32DE9F007B1E8F80711
:103D3C00A0E8F807203A202AF8D2BDE8F007042AB8
:103D4C0006D351F8043B40F8043B043A042AF8D259
:103D5C002AB111F8013B00F8013B013AF9D1604658
:103D6C00704700BF00220B0011001A0084465AB3A2
:103D7C00830704D000F8011B013AF9D124E0C9B241
:103D8C0041EA012141EA0141202A11D3203A2DE9CF
:103D9C00F0030B460C460D460E460F4688468946E8
:103DAC00A0E8FA03203AFBD2BDE8F00320320BD096
:103DBC00042A05D340F8041B043A05D0042AF9D28E
:103DCC0000F8011B013AFBD16046704700B5002991
:103DDC001CBF0278002A01D1002000BDD0F800E001
:103DEC000429034609D34FF0013CCCFA5EF222B908
:103DFC0053F804EF04390329F7D8181A4FF001329D
:103E0C00C2FA5EF292FAA2F2B2FA82F2B1EBD20FDD
:103E1C0088BFD108084400BD10B582B004460069C3
:103E2C008DF8071078B1D4E900239A4231D2626937
:103E3C00531C63618154D4E90501884229D1204681
:103E4C0000F02CF825E0E06850B1D4E9002C624574
:103E5C001FD2531CB3EB0C0318BF0B46835418E052
:103E6C00A06858B1D4E9002C624512D2531CB3EBB4
:103E7C000C0318BFCBB240F822300AE0236A43B1DE
:103E8C00D4E90001884204D20DF107012046012239
:103E9C00984720680130206002B010BD10B542690F
:103EAC00002A08BF10BD0446036A002B1CBF216901
:103EBC0098470020606110BD70B5012AB8BF70BD75
:103ECC000C460546561C28462146FFF7A5FF013E29
:103EDC00012EF8D870BDCB0648BF704789054CBF82
:103EEC0030212021FFF7E8BF70B514460D46064679
:103EFC00FFF746FE014630462A462346BDE8704091
:103F0C0000F000B82DE9F04F03AF8DB047F83C3C02
:103F1C0091460E46044600F019FB0546EB46073069
:103F2C0020F00700ADEB0008C546A7F1380A504653
:103F3C0000212422FFF71AFF43F67D70C0F2000027
:103F4C0047E907606FF0004047F8340C47F8144C11
:103F5C0047F8205C47F8288C5046494657F83C2CCB
:103F6C0000F022F8DD46A7F10C04A546BDE8F08F61
:103F7C00436A0846012100F0B9BA83B000B582B09B
:103F8C000DF10C0C8CE80E0040F2B002C2F20002F3
:103F9C000146106803AA0192FFF7A6FF02B0BDE824
:103FAC00004003B0704700002DE9F04F8DB0069231
:103FBC008B460646002030600DF11E08A8F1010466
:103FCC00049401961BF8011B252906D0002900F04A
:103FDC0078823046FFF720FFF4E7002759461BF89C
:103FEC00012BA2F12003102B0DD88020DFE803F069
:103FFC00091B1B191B1B1B101B1B32131B151B1B1B
:10400C00170040200DE05E2A0DD14FF4805008E0DF
:10401C004FF4004005E0202003E0102001E04FF4B5
:10402C0000700743DAE701F1010BA2F13000C0B2D6
:10403C0009284FF0000019D81BF8011B00EB800079
:10404C0002EB40003038A1F13002D2B20A2A0A4603
:10405C00F2D30BE0069A52F8040B0692002844BFE8
:10406C0047F0100740424A7801F1020B2E2A0DD17D
:10407C00594611F8012B2A2A0BD106999BF80120DD
:10408C0051F804CB06910BF1020B18E04FF0000C29
:10409C001EE0A2F13003DBB2092B4FF0000C14D858
:1040AC0011F8013B0CEB8C0B02EB4B02A2F1300C28
:1040BC00A3F13002D2B20A2A1A46F1D38B46BCF1D4
:1040CC00000F58BF47F4807702E047F480778B46A7
:1040DC00A2F16801CBB2C90141EA5301C9B2092965
:1040EC002AD8DFE801F00814172929290529290500
:1040FC001BF8012B20E0594611F8012B682A15D129
:10410C009BF801200BF1020B47F0080714E01BF899
:10411C00012B08E0594611F8012B6C2A09D19BF8A8
:10412C0001200BF1020B47F0020705E047F00407F2
:10413C0001E047F001078B4620EAE07A622A15DDA0
:10414C00A2F1630015283FF63DAFDFE800F0240C28
:10415C000B0B0B0B0C0B0B0B0B36434D0B0B5C0BAC
:10416C006B0B0B172EE747F480475FE0252A00F016
:10417C00AA80582A40F0748147F40057F8054FEA9A
:10418C00076048BF27F40077782A43F2580108BF2C
:10419C0043F2780125E0DDF81890AAF1010599F8B1
:1041AC000040304639462A46FFF795FE30462146F8
:1041BC00049CFFF731FE484678E1380700F1548142
:1041CC00B80706993068096852BF0860002205C11B
:1041DC0006984EE1F8054FEA076048BF27F40077D0
:1041EC00302101EAE07322E03806232101EAE07075
:1041FC00059047F48077069A002152F8040B06923A
:10420C004FF0080CC8E006980468002C04BF44F674
:10421C00D934C0F20004F805204600F12D81FFF7D7
:10422C003FFD2CE1F80548BF27F40077002307F089
:10423C0002007904059305D40028069809D1031DC2
:10424C0000210CE0A8B9069951F8040B0691C1178E
:10425C0017E0073020F0070000F108034168006800
:10426C005FEA477915D417F008091CBFC0B20021CA
:10427C0011E00698073020F00703596853F8080B33
:10428C0006937B0709D43B0744BF40F3C01140B2EF
:10429C0006E080B2002106931CE040F3C03100B26E
:1042AC0000290ADBBB0613D47B06DDF8149048BF4B
:1042BC004FF02009CDF814900CE00023404263EB42
:1042CC0001012D2305E030462521FFF7A5FD79E6F8
:1042DC002B230593FB0548BF27F40077FB0558BF3C
:1042EC004FF0010C00256E2A23DD6F3A092A00F2EB
:1042FC007580DFE802F00551737373732473735187
:10430C0050EA01026AD0C20842EA41724FF0060933
:10431C00134669F3DF0008F80500013552EAD100B5
:10432C004FEAD1014FEAD20040EA41721846EFD170
:10433C0054E0582A30D0642A18BF692A4ED150EA6A
:10434C0001024BD0CDE902ACC24607F400460C4644
:10435C0081463EB105F00300032802BF2C200AF869
:10436C000500013548460A220023FFF771FB00EBDC
:10437C008002A9EB420242F0300208F80520013518
:10438C00D9F109024FF00002A241E0D3049C0DF1D7
:10439C00040C9CE8401421E0002550EA01021DD0D9
:1043AC00BA0444F6B932C0F200025CBF44F6C9321A
:1043BC00C0F20002030943EA017300F00F0918462A
:1043CC0012F8093008F80530013550EA11134FEA9C
:1043DC0011114FEA101343EA0173EED1AAEB050059
:1043EC000599FF2988BF013800290A4618BF012208
:1043FC00801AACEB050222EAE279A0EB090AB805B7
:10440C0007D4304639465246FFF765FD05994FF003
:10441C00000AFF2904D9090A3046FFF7FDFC05996B
:10442C0000291CBF3046FFF7F7FC30463946524690
:10443C00FFF751FD304630214A46FFF73DFD012D77
:10444C0005DB615D3046FFF7E7FC013DF9D8F80666
:10445C007FF5B8AD304620215246FFF72DFDB1E572
:10446C00002A7FF4AFAD3BE0069A1068316801700A
:10447C00104604300690A5E56146FFF7A7FC81467F
:10448C0027F40077AAEB0005304639462A46FFF799
:10449C0022FDB9F1000F07D014F8011B3046FFF7CD
:1044AC00BBFCB9F10109F7D1049C069804300690C5
:1044BC00F8067FF587AD304620212A46FFF7FCFC35
:1044CC0080E5F06828B1D6E9001291423CBF002289
:1044DC0042543046FFF7E2FC30680DB0BDE8F08F77
:1044EC003046FFF7DBFC4FF0FF30F6E7F8B51D4622
:1044FC0017460C460646184600F010F8002803D460
:10450C0007FB04F2A24201D20020F8BD2846314636
:10451C0000F01EF8B0FBF4F0F8BD0000084B1B686F
:10452C0083420AD0074B1B68834206D0064B1B689C
:10453C00181A18BF4FF0FF3070470020704700BFAB
:10454C00AC000020B0000020A800002040207047E4
:10455C000068FFF763BA00BF072904D90023024A99
:0C456C00C0E9003110607047F00A002028
:104578004D47000000000000544700000000000004
:1045880058470000000000005D47000000000000E0
:10459800AE48000000000303C04700000000000010
:1045A800E947000000000000564800000000000035
:1045B80080480000000000008C4800008C000020AB
:1045C800D002002098030020A0030020D802002079
:0445D80018000000C7
:1045DC00427574746F6E2070696E206E6F20256446
:1045EC00004166746572204368616E676564000201
:1045FC000106004E756D626572206F6620627574DF
:10460C00746F6E20746861742077616E74656420B9
:10461C00746F20626520636F6E666967757265647E
:10462C002025640053656E6420616476657274693C
:10463C0073656D656E7420256400307825582030C4
:10464C007825582025640030782558203078255856
:10465C002025640A003078255820307825580A0027
:10466C00427574746F6E20636F6E666967757265E0
:10467C00640046696C6C207061636B657400416307
:10468C006365737320616464726573730053746142
:10469C007274696E6720696E204E5246353238331B
:1046AC003300526164696F207472616E736D69744A
:1046BC00746572206578616D706C652073746172BD
:1046CC007465642E00507265737320416E792042BC
:1046DC007574746F6E0054686520636F6E74656ECC
:1046EC007473206F6620746865207061636B6167FA
:1046FC00652077617320257500456E74657220778F
:10470C0061697420666F72206576656E74001BFF9C
:10471C003906CAFB0014444154233138233934235D
:10472C00DA399B1923000000000000000000000093
:10473C00000000000338FDD870470D0E0F1000006C
:10474C00014750494F544500505253005541525463
:10475C000055415254450053657420656E61626C7E
:10476C0065004576656E74732052656164792031FD
:10477C00004576656E7473206164647265737300B2
:10478C004576656E7473207061796C6F616400504E
:10479C004455205374617420307825580054686552
:1047AC00207061636B6574207761732073656E7420
:1047BC0000021A506170705F627574746F6E000045
:1047CC0050000020466174616C206572726F72003B
:1047DC0053797374656D20726573657400617070C4
:1047EC005F74696D65720000010006000000000036
:1047FC00F4010020A520000052544320696E73740C
:10480C00616E636520616C726561647920696E69A3
:10481C007469616C697A65642E005254433A20695C
:10482C006E697469616C697A65642E000000000021
:10483C00000000000338FDD8704730313233343576
:10484C0036373839414243444546736F72746C694C
:10485C0073740000FFFFFFFFFFFFFFFFFFFFFFFF71
:10486C00FFFFFFFF00000000000000000000D60169
:10487C0006010000FD2F000061300000AD2F00008C
:10488C00756172745F6C6F675F6261636B656E6498
:10489C00004261636B656E647320666C757368654A
:1048AC006400617070000000C00700207F000000F1
:1048BC00400800201B5B306D002573001B5B313BF7
:1048CC0033316D0025734C6F67732064726F707099
:1048DC006564202825642925730D0A003C25733E48
:1048EC002025733A2000202530327800202020002B
:1048FC007C002563001B5B313B33306D001B5B314F
:10490C003B33326D001B5B313B33336D001B5B3132
:10491C003B33346D001B5B313B33356D001B5B311E
:10492C003B33366D001B5B313B33376D0077617267
:10493C006E696E6700696E666F006465627567000C
:10494C00C048000001490000C848000009490000A7
:10495C0011490000194900002149000029490000B3
:10496C003149000000000000D64700003949000022
:10497C0041490000464900005465726D696E616CD6
:10498C00005254540053454747455200A449000077
:10499C00D44A0000A8490000430000000B3C000072
:1049AC002B3C0000373C0000433C0000633C000003
:1049BC006F3C0000D73B0000A73B000053756E0016
:1049CC004D6F6E0054756500576564005468750032
:1049DC004672690053617400004A616E004665625C
:1049EC00004D617200417072004D6179004A756E24
:1049FC00004A756C0041756700536570004F637415
:104A0C00004E6F760044656300002E000053756EF7
:104A1C00646179004D6F6E646179005475657364DF
:104A2C006179005765646E657364617900546875CB
:104A3C0072736461790046726964617900536174C0
:104A4C00757264617900004A616E75617279004615
:104A5C0065627275617279004D61726368004170B4
:104A6C0072696C004D6179004A756E65004A756C0F
:104A7C0079004175677573740053657074656D6268
:104A8C006572004F63746F626572004E6F76656D70
:104A9C0062657200446563656D6265720000414D2C
:104AAC0000504D0000256D2F25642F2579002548D9
:104ABC003A254D3A25530025612025622025652095
:104ACC002554202559000000164A0000184A000001
:104ADC00184A0000184A0000184A0000184A000042
:104AEC00184A0000184A0000184A0000184A000032
:104AFC00FFFFFFFFFFFFFFFFFFFFFFFFFFFF0000B8
:104B0C00194A0000C8490000534A0000E54900005A
:104B1C00AA4A0000B14A0000BA4A0000C34A000089
:104B2C002020202020202020206828282828202011
:104B3C002020202020202020202020202020202069
:104B4C004810101010101010101010101010101021
:104B5C0084848484848484848484101010101010C1
:104B6C00108181818181810101010101010101011A
:104B7C0001010101010101010101011010101010CE
:104B8C0010828282828282020202020202020202EB
:104B9C000202020202020202020202101010102093
:104BAC0000070320041702010857104080303132EF
:104BBC003334353637383941424344454630313247
:104BCC0033343536373839616263646566286E75FF
:044BDC006C6C2900D4
:104BE0000F010000CD0300000000000000000000E5
:104BF000FFFFFFFFFFFFFFFF0000000000000000BD
:104C000000000000000000000000000000000000A4
:104C1000FFFFFFFFFFFFFFFF00000000000000009C
:104C200000000000000000000090D0030000000021
:104C30000000000000000000FFFFFFFFFFFFFFFF7C
:104C40000000000000000000000000000000000064
:104C5000001001401100040000000000002000408E
:104C600000000000002000400000000000000000E4
:104C7000FF00000098490000984900009849000092
:104C80009849000098490000E40A0020E80A002042
:044C9000EC0A00200A
:0400000300000219DE
:00000001FF
