:1000000000000120190200000102000003020000AC
:1000100005020000070200000902000000000000C5
:100020000000000000000000000000000B020000C3
:100030000D020000000000000F020000110200008D
:100040001302000013020000BD11000013020000A3
:1000500013020000130200007110000013020000E0
:10006000130200001302000013020000130200003C
:10007000130200001302000013020000130200002C
:100080001302000095260000130200001302000076
:10009000130200001302000013020000130200000C
:1000A00013020000130200001302000013020000FC
:1000B0001302000013020000000000000000000016
:1000C00013020000130200001302000013020000DC
:1000D00013020000130200001302000000000000E1
:1000E0000000000000000000000000000000000010
:1000F0000000000000000000000000000000000000
:1001000000000000000000000000000000000000EF
:1001100000000000000000000000000000000000DF
:1001200000000000000000000000000000000000CF
:1001300000000000000000000000000000000000BF
:1001400000000000000000000000000000000000AF
:10015000000000000000000000000000000000009F
:10016000000000000000000000000000000000008F
:10017000000000000000000000000000000000007F
:10018000000000000000000000000000000000006F
:10019000000000000000000000000000000000005F
:1001A000000000000000000000000000000000004F
:1001B000000000000000000000000000000000003F
:1001C000000000000000000000000000000000002F
:1001D000000000000000000000000000000000001F
:1001E000000000000000000000000000000000000F
:1001F00000000000000000000000000000000000FF
:10020000FEE7FEE7FEE7FEE7FEE7FEE7FEE7FEE7C6
:10021000FEE7FEE700F002B8FFF7FCBF0F484FF023
:100220000701884385460E4880470E48016841F41F
:1002300070010160BFF34F8FBFF36F8F00F01AB8EA
:1002400009480A490A4A884207D0521A05D0037859
:1002500001300B700131013AF9D1704700000120E3
:10026000910A000088ED00E06C44000000000020CE
:1002700000000020344935480A1A02D00722914371
:100280008D46334933480A1A06D00722914381F339
:100290000988022282F314882F483049304A00F03E
:1002A00041F830483049314A00F03CF83048314993
:1002B000314A00F037F831483149324A00F032F81B
:1002C00031483249324A00F02DF832483249334A37
:1002D00000F028F832483349334A00F023F8334815
:1002E0003349002200F029F832483349002200F057
:1002F00024F832483249091A04F07CF8314A904710
:100300001F482049884205D00268043003B4904752
:1003100003BCF7E700208646EC46002000212A4A6D
:100320009047FEE7884207D0521A05D00378013083
:100330000B700131013AF9D17047884202D0027046
:100340000130FAE7704700000000012000E00020C3
:100350000000012000000120604900000000002092
:10036000CC000020CC030000CC03000008440000B7
:100370006049000000000020000000206C440000E4
:100380006C4400006C4400006C4400006C440000AD
:100390006C4400006C4400006C44000060490000A4
:1003A0002C4A0000CC000020CC000020CC00002013
:1003B000DC0A0020DC0A0020DC0A0020DC0A002025
:0C03C000DC2A002041020000B50400000F
:1003CC0070B504460E3C0C4803F01FFD072C10D8EA
:1003DC00002425460126204600F018F908B106FA3B
:1003EC0004F00134042C45EA0005F4D1034B1D60E4
:1003FC0070BD0025FAE700BF6C440000CC00002063
:10040C00184B002210B5C3F8002101221A60D3F852
:10041C000021002AFBD00022C3F80C2101229A6093
:10042C00104AD2F80C31002BFBD0082000F0A6FAB1
:10043C000D4B0E4A0E499B1ADB081B04044643F075
:10044C00030003F019F814B1204601F08FFD054BA1
:10045C000022C3F8102101221A61D3F81021002ABE
:10046C00FBD010BD001000402844000008440000E0
:10047C007B4400004FF080430022C3F8002101228E
:10048C001A60D3F80021002AFBD001220021C3F806
:10049C001825C3F804119A604FF08042D2F8043149
:1004AC00002BFBD070470000F8B5FFF7E3FF01F01D
:1004BC0031FE08B101F05AFD4FF48041002002F0EA
:1004CC0047FE08B101F052FD02F08CFD1C490320DF
:1004DC0000F060FA08B101F049FD01F049FB194B3D
:1004EC00194DC3F80455122000F048FA174C184B5C
:1004FC001849E41AE408240444F003040646204690
:10050C0002F0BAFF1449204602F0B6FF16B130468D
:10051C0001F02CFD114E00272B685BB1FFF770FF2B
:10052C002968304603F071FC2A683146204602F0F7
:10053C00A7FF2F6002F05EFE0028FBD120BFEBE787
:10054C00CD03000000100040CC0000202844000027
:10055C00084400008F440000B2440000C344000073
:10056C00054A4FF0A043125CD3F8043523FA02F08D
:10057C00C04300F001007047EA440000044B1A5CD1
:10058C00012393404FF0A042C2F80C35704700BFD6
:10059C00EA440000044B1A5C012393404FF0A04244
:1005AC00C2F80835704700BFEA44000008B50020C7
:1005BC00FFF7F0FF0120FFF7EDFF0220FFF7EAFF46
:1005CC00BDE808400320FFF7E5BF08B50020FFF7A2
:1005DC00D5FF0120FFF7D2FF0220FFF7CFFFBDE8C8
:1005EC0008400320FFF7CABF074A4FF0A041105C38
:1005FC00D1F804350122824022EA03001340C1F8ED
:10060C000805C1F80C357047EA440000054A4FF064
:10061C00A043125CD3F8103523FA02F0C04300F06B
:10062C0001007047E64400000D2809D00E2809D0BF
:10063C000F2809D010280CBF03204FF0FF30704753
:10064C00002070470120704702207047C20708B590
:10065C0001460CD54FF0A0430322C3F84427C3F83E
:10066C004827C3F84C27C3F85027FFF79FFF8B0789
:10067C000AD54FF0A0430C22C3F83427C3F838270F
:10068C00C3F83C27C3F8402708BD0220FFF7ACBFD6
:10069C002DE9F04780460D46FFF7C6FF03280446B8
:1006AC0010D8012D10D0022D30D05DB91A4801F0B0
:1006BC009EFD1A4B04EB440213449D78184B1B5DB2
:1006CC00AB4219D0BDE8F087144E00EB4003F21892
:1006DC00F55C5378470053B1DFF84C900E484A460E
:1006EC004FF4804101F05AFD08B989F80080274485
:1006FC003E440B4BB2781A55002DE3D0094B1B68C6
:10070C00002BDFD02846BDE8F0471847034B00EB21
:10071C00400423445D78EFE720000020D200002045
:10072C00ED000020E8000020D0000020007802211D
:10073C00FFF7AEBF08B5094B1B7853B10020FFF78C
:10074C0029FF0120FFF726FFBDE808400320FFF733
:10075C0021BFBDE80840FFF729BF00BFD100002032
:10076C00F8B57A4C237805461BB100232370FFF7AC
:10077C00E1FF172D00F28780DFE805F00C17174218
:10078C005364757F878C878C949999999999C3C870
:10079C00D0D8E3E3FFF7CEFF6D4801F028FD6D4B99
:1007AC00002204461A702046F8BD0020FFF7D8FE40
:1007BC00F0B10020FFF7EEFE022D0CBF4FF4E16408
:1007CC004FF47A64634B1D7000254FF400464FF4D0
:1007DC007A7029464FF4FA620023E4FB060103F019
:1007EC007FF82A460146BDE8F840594801F0D6BCCE
:1007FC00FFF7C4FE022D0CBFC8244FF4C874E1E708
:10080C000020FFF7ADFE40B10020FFF7C3FE4FF410
:10081C004874504B03221A70D6E7FFF7AFFEC8247A
:10082C00F7E70020FFF79CFE38B10020FFF7B2FE7F
:10083C004FF47A64474B0422EDE7FFF79FFE4FF429
:10084C00C874F7E70020FFF78BFE48B10020FFF7D4
:10085C00A1FE404B05221A7040F6CD410022C2E7A2
:10086C00FFF78CFEF5E70020FFF7BEFE394B0622A2
:10087C001A70002240F26661B5E70020FFF77EFE99
:10088C00344B07221A7000248DE701202070FFF7EB
:10089C00ABFEEEE701202070FFF7A6FE00224FF41E
:1008AC000051A0E7FFF791FE2A4B0C22EAE72A48F9
:1008BC002A4E01F09CFCD5F1110504461CD0D8B988
:1008CC00012D13D0C8235D4321464FF400474FF44C
:1008DC007A704FF4FA620023C5FB070103F000F8AD
:1008EC00224601461C4801F059FC04460220FFF741
:1008FC0045FE0123337056E70220FFF74BFE002321
:10090C00F8E7FFF717FF134B1222BBE7FFF712FFB5
:10091C000020FFF733FE0F4B1322B3E7FFF70AFF5C
:10092C000120FFF72BFE0B4B1422ABE7FFF702FF66
:10093C000020FFF723FE0120FFF720FE054B1522B8
:10094C00A0E7FFF742FE034B1D709CE7E40000207C
:10095C0040000020EC00002000000020D10000200E
:10096C00044B1B68DB0703D5034B1878FFF7F8BE65
:10097C00704700BFE0000020EC000020044B1B6817
:10098C0013F0010301D0FFF7EBBE1846704700BF10
:10099C00E000002038B51C4B18601C4B10F0020412
:1009AC00054619601AD01A4B1A480E221A700F22DB
:1009BC00DA7010229A7111225A72042140F23332E9
:1009CC0001F066FA044648B901F0BAFA044628B9AF
:1009DC000146114A114801F0CFFB0446EB0711D533
:1009EC000120FFF733FE6CB921460D4A0D4801F08A
:1009FC00C3FB044630B9BDE838400B4A0B48012113
:100A0C0001F0BABB204638BDE0000020E800002011
:100A1C00D2000020F044000039070000144500000B
:100A2C006D090000184500009706000010450000F5
:100A3C004FF08053D3F83001421C04BF4FF0704389
:100A4C0093F8E00F831F5842584170474FF07043A2
:100A5C0093F8E02F062A09D1D3F8E83FC3F3031328
:100A6C00033B042B02D8024AD05C7047002070472D
:100A7C002B450000024AD2F80034002BFBD0704703
:100A8C0000E0014010B5FFF7D3FF40B14FF08053A9
:100A9C00944AD3F82433C3F30423C2F84035FFF748
:100AAC00D5FF10B1904B914A5A67FFF7C1FF48B17F
:100ABC004FF080534FF08042D3F84432C3F34233AB
:100ACC00C2F83C35FFF7C2FF30B1894AD2F8FC308E
:100ADC0023F08073C2F8FC30FFF7AAFF40B14FF04F
:100AEC0080430022C3F80C21C3F81021C3F8382529
:100AFC00FFF7ACFF20B14FF080430322C3F8A025D1
:100B0C00FFF7A4FF60B17B4B0522C3F8102601222E
:100B1C00C3F888260022C3F818263F22C3F81426EF
:100B2C004FF08053D3F83021511C09BF4FF0704364
:100B3C00D3F8343193F8E02FD3F8E83F08BFC3F370
:100B4C000313062A4DD1033B042B03D86A4AD35C0A
:100B5C00002B46D04FF08052684BD2F80414C3F8E7
:100B6C002015D2F80814C3F82415D2F80C14C3F8C5
:100B7C002815D2F81014C3F82C15D2F81414C3F895
:100B8C003015D2F81814C3F83415D2F81C14C3F865
:100B9C004015D2F82014C3F84415D2F82414C3F825
:100BAC004815D2F82814C3F84C15D2F82C14C3F8F5
:100BBC005015D2F83014C3F85415D2F83414C3F8C5
:100BCC006015D2F83814C3F86415D2F83C14C3F885
:100BDC006815D2F84014C3F86C15D2F84424C3F845
:100BEC007025FFF725FF48B14FF080534FF080423E
:100BFC00D3F8583203F04F03C2F8E43EFFF718FF66
:100C0C0048B14FF08043D3F80024D20744BF6FF0B3
:100C1C000102C3F800244FF08053D3F83021062A88
:100C2C000ED1D3F83431033B042B02D8344AD35CB5
:100C3C0033B1344AD2F83C3743F48063C2F83C37C2
:100C4C002B4AD2F8883043F47003C2F88830BFF3D3
:100C5C004F8FBFF36F8F4FF08053D3F83021062A9C
:100C6C000FD1D3F83431033B042B02D8264AD35C82
:100C7C003BB14FF01023D3F808224FF08043C3F858
:100C8C0058254FF01023D3F80022002A03DBD3F8A9
:100C9C000432002B22DA1D4901234FF01020C1F839
:100CAC0004351524FFF7E6FEC0F80042FFF7E2FE1C
:100CBC00C0F80442FFF7DEFE0023C1F80435FFF74D
:100CCC00D9FEBFF34F8F0A49114BCA6802F4E06298
:100CDC001343CB60BFF34F8F00BFFDE70D4B0E4AA4
:100CEC001A6010BD0030014000C007400DF0ADBAD5
:100CFC0000ED00E0005000401C45000000C000402A
:100D0C0021450000001000402645000000E0014095
:100D1C000400FA05600000200090D0031FB5037892
:100D2C008DF800304368019383688DF80830C368F0
:100D3C00054A0393054B684653F8213052F82110AD
:100D4C00984705B05DF804FBF4000020F800002083
:100D5C001FB503788DF800304368019383688DF8D4
:100D6C000830C368054A0393054B684653F8213095
:100D7C0052F82110984705B05DF804FBF4000020F0
:100D8C00F8000020F0B5194B90F800C091F81DE068
:100D9C0043F82C20164B16460A6943F82C20154BA9
:100DAC0003F80CE00C4607460FCC89B06D460FC516
:100DBC0094E80F0085E80F00CDF810C0BEF1000FCD
:100DCC0009D0002E0C4A694608BF3246381D00F087
:100DDC0015FD09B0F0BD002E084A694608BF324621
:100DEC0007F10C0000F0F0FAF3E700BFF800002068
:100DFC00F4000020FC000020290D00005D0D000017
:100E0C0000F1804000F5C040002382B0036003680D
:100E1C000193019B02B07047800000F1A040D0F814
:100E2C00003723F44033C0F80037D0F8003743EADA
:100E3C000141C0F800177047054B4FF0FF320728EF
:100E4C0043F8202084BF1B1883F84820704700BF4C
:100E5C000001002010B5184991F8583053BB4FF0E1
:100E6C00FF3222FA03F0C00748BFC81803F1010390
:100E7C0048BF80F83020202BF3D10024E0B201349D
:100E8C00FFF7DAFF0C2CF9D10C4B0022C0204A657D
:100E9C0083F80603402018604FF4BE70FFF7B0FFD4
:100EAC00074B4FF00040C3F80403012381F858307E
:100EBC00104610BD0820FCE70001002000E100E016
:100ECC0000600040034B93F85800003818BF012015
:100EDC00704700BF00010020F0B5394E331893F96C
:100EEC003030002B69DA8D78C5F34005002D0BBF2F
:100EFC00082300230C240824A34201D10420F0BDB4
:100F0C0056F82370013743D137185CB246F82320CA
:100F1C0087F8304015B9F21882F848008A785507DE
:100F2C0016D4D70736D5820002F1A042D2F800576A
:100F3C0025F00205C2F80057224FC50800F0070C37
:100F4C00012202FA0CF217F805C042EA0C027A559B
:100F5C008A780D7812F0020225D09B0003F18043B1
:100F6C0003F5C0430002D3F8102522F4473222F4D3
:100F7C004072C3F810252D04D3F8102500F4F85056
:100F8C0005F4403528431043C3F810050020B6E79C
:100F9C000133B1E74D7800F5E0724FF0A047AD009A
:100FAC0047F82250C8E7083C46FA84F494F85030CD
:100FBC0043EA851384F85030E8E708209FE700BF28
:100FCC00000100205401002010B51F4C231893F988
:100FDC003020072A18DD083A44FA82F292F8503091
:100FEC009B09032B0BD14FF0A043D3F81015C14034
:100FFC0001F001010231BDE81040FFF70DBF012BDC
:10100C000CBF02210321F6E7D3B2072B1AD89300A9
:10101C0003F1804303F5C043D3F8100540F0010001
:10102C00C3F8100502F1400040B2800080B2FFF717
:10103C00E7FE39B154F8223023B101239340034A1F
:10104C00C2F8043310BD00BF000100200060004056
:10105C004FF0A043D3F8103523FA00F000F0010054
:10106C00704700002DE9F34700244E4D01944FF4D6
:10107C008072012102F1804303F5C04390B21B68DA
:10108C00012B06D1D5F804330B4202D0FFF7B8FE82
:10109C000C430432B2F5907F4FEA4101EAD1414B47
:1010AC00D3F87C31012B0CD14FF4BE70FFF7A8FEA6
:1010BC004FF0A04344F00044D3F820250192C3F82C
:1010CC002025E3B2D3B1384F00250126344210D08D
:1010DC00AB0003F1804303F5C043D3F81005D3F8FC
:1010EC00101557F8253023B1C1F30141C0F304208A
:1010FC0098470135082D4FEA4606E7D1002C48DA0F
:10110C00294C4FF0A047294D4FF00008012615F946
:10111C00013F5A1C31D0C3F3C20108316944DAB221
:10112C0011F8041C03F03F0903F0070306FA03F35C
:10113C00194222D009F5E073484657F82330C3F31F
:10114C00014ABAF1020F0CBF03210221FFF764FE22
:10115C0006FA09F3C7F8203504EB090393F930308C
:10116C0054F823304BB19109032904D0BAF1020F82
:10117C0012D1012901D14846984708F10108B8F16C
:10118C00040FC4D1D7F820350193C7F82035002BB4
:10119C00B9D102B0BDE8F087BAF1030FEDD1022945
:1011AC00E8E700BF00600040000100204F01002074
:1011BC00014B1B68184700BF5C01002038B50B4B76
:1011CC0098420C4601D0002038BD002001F026F9D1
:1011DC00074B1D7915B901221C601A71002001F012
:1011EC001FF9002DEFD01120EEE700BF00200040CA
:1011FC005C010020034B984201BF034B00221A6094
:10120C001A717047002000405C01002000234350FD
:10121C0082B043580193019B02B070470A4610B547
:10122C004FF48E71FFF7F2FF136A9168C95C136A71
:10123C0001331362C0F81C1510BD8B690A4610B53A
:10124C004FF4847123B9FFF7E1FFD0F8183510BDC6
:10125C00FFF7DCFF536AD168D0F81805C854536AFD
:10126C0001335362F3E700001FB501238DF8003002
:10127C00044BCDE90110D3E900126846904705B044
:10128C005DF804FB6401002030B54D4DD5F80433F6
:10129C009A0585B051D5D5F82431002B4DD04FF49B
:1012AC0092712846FFF7B2FF4FF40173C5F808336B
:1012BC00444B93F829200AB901226A604049022262
:1012CC008DF80020D1F88024C1F8802403929A690B
:1012DC000292DA6801920022C3E906226846D3E939
:1012EC00001290473648D0F81C315BB1354A516931
:1012FC00136A99424DD992F82830002B49D11146E6
:10130C00FFF78CFF2E48D0F84431002B56D04FF409
:10131C00A271FFF77BFF2B4B93F829200AB1012216
:10132C0002609A69002A49D0586AD96800229A61E9
:10133C0005B0BDE83040FFF797BFD5F804335B0725
:10134C00D0D5D5F80831002BCCD01E4C1C482146EA
:10135C00FFF773FF636AA2699A42C3D1E369E1683C
:10136C004BB1A3612369E3600023606AE3616362AC
:10137C00FFF77AFFB6E794F829300BB901236B60BD
:10138C000F4B4FF40172C3F808230023606AA3616A
:10139C00EEE70B484FF48E71FFF738FF5369002BC3
:1013AC00B0D051690291002391688DF80030019101
:1013BC0053616846D2E900139847A3E705B030BDE6
:1013CC0000200040640100202DE9F843534D90F8B3
:1013DC0004802C2303FB0853064693F82A300C4652
:1013EC009146002B40F095804D490068FFF7E6FED2
:1013FC000746002840F08F8021683368481C0BD0CA
:10140C004FF0A04001228A40C0F8082501F5E07297
:10141C004FF0030C40F822C06068421C1FBF00F55F
:10142C00E0724FF0A04C4FF0000E4CF822E0A26995
:10143C00C3F8242594F814C0627DBCF1010F4CEA6A
:10144C000202C3F86C25C3F81405C3F80C151DD1A2
:10145C00A1684A1C1FBF01F5E0724FF0A0404FF08D
:10146C00000C40F822C0E268501C0BD04FF0A04C8E
:10147C0001209040CCF8080502F5E0704FF0030E07
:10148C004CF820E0C3F80825C3F810152C2303FBF7
:10149C0008F3EA18C2F804902269EA50B9F1000F77
:1014AC001FD03068227F4FF48E71FFF7AFFE4FF4E0
:1014BC00A271FFF7ABFE1B4BC0F8043340F30731AE
:1014CC0053010029C0F30730DBB21DDB164A541858
:1014DC0084F800330123490900F01F00834042F8CF
:1014EC00213033680422C3F800252C2303FB085356
:1014FC000022C3E9062283F829205A61012283F8CD
:10150C002A203846BDE8F883084A00F00F0013542F
:10151C00E7E70827F5E71127F3E700BF6401002090
:10152C00951200008000020000E100E014ED00E0E4
:10153C00F8B503680579304C0022C3F800252C223D
:10154C0002FB05425268A2B12C4AC3F80823190BBE
:10155C0043F30733002B0CDB01F01F015B09012265
:10156C008A402033264941F82320BFF34F8FBFF325
:10157C006F8F0068D0F80C65D0F81415D0F80835CA
:10158C00D0F810254FF0FF37BE42C0F8147518BFC5
:10159C0006F5E076C0F80C75C0F80875C0F8107543
:1015AC001EBF4FF0A0474FF0020C47F826C04E1C50
:1015BC001FBF4FF0A04601F5E071022746F82170DD
:1015CC00511C1FBF4FF0A04102F5E072022641F8FA
:1015DC0022605A1C1FBF03F5E0734FF0A04202219A
:1015EC0042F82310FFF706FE2C2303FB05440023CF
:1015FC0084F82A306360F8BD640100208402020084
:10160C0000E100E00279044B2C2101FB0233586904
:10161C00003818BF01207047640100202DE9F84FF5
:10162C00074690F8048089469346FFF7EBFF044683
:10163C00002839D11E4E2C2508FB056A4FF48E71FB
:10164C00CAF814B0CAF80890CAF820008AF8280022
:10165C003868FFF7DBFD012383605146FFF7DEFDA1
:10166C00DAF8043055460BBBDAF814402B6A9C426E
:10167C0010D8D0F81C31002BFBD00123C360002004
:10168C002C2303FB086600237361BDE8F88F95F8E3
:10169C0028303BB9D0F81C31002BF8D05146FFF75D
:1016AC00BDFDE3E70F20EBE71120EEE72046ECE76A
:1016BC00640100200023435082B043580193019BE6
:1016CC0002B070471FB501238DF80030044BCDE9F3
:1016DC000110D3E900126846904705B05DF804FB91
:1016EC00900100207FB5434AD2F82461002E60D0CF
:1016FC0010464FF49271FFF7DDFF02238DF8003096
:10170C00D2F88034C2F880340393D2F83C3502937B
:10171C00394BDA6801920022C3E906226846D3E904
:10172C00001290473348D0F8443173B14FF4A27192
:10173C00FFF7C0FF304B9A693AB10022C3E9062289
:10174C00D968D0F83C05FFF7BDFF2A48D0F8203106
:10175C00ABB14FF49071FFF7ADFF0123C360264B83
:10176C005A6962B1D0F84C150291002299688DF833
:10177C00002001915A616846D3E9001290471D4838
:10178C00D0F858319BB14FF4AC71FFF793FF1A4B63
:10179C005A6962B1D0F84C150291002299688DF803
:1017AC00002001915A616846D3E90012904704B0B9
:1017BC0070BDD2F81031002BB4D04FF488711046A4
:1017CC00FFF778FF0C4BD2F83C0599698842A9D1F8
:1017DC00DC69D96864B1D2F8005225F02005C2F852
:1017EC0000521A699C61DA60DE61FFF76BFF99E7C2
:1017FC009C61FAE700200040900100202DE9F8439D
:10180C00584D90F80480242303FB0853064693F8A4
:10181C0020300C469146002B40F09F8052490068C6
:10182C00FFF7CCFC0746002840F09980216833680C
:10183C00481C0BD04FF0A04001228A40C0F808256C
:10184C0001F5E0724FF0030C40F822C06068421CB6
:10185C001FBF00F5E0724FF0A04C4FF0000E4CF89B
:10186C0022E0A269C3F8242594F814C0627DBCF16F
:10187C00010F4CEA0202C3F86C25C3F80C15C3F82F
:10188C0014051DD1A1684A1C1FBF01F5E0724FF071
:10189C00A0404FF0000C40F822C0E268501C0BD066
:1018AC004FF0A04C01209040CCF8080502F5E070F8
:1018BC004FF0030E4CF820E0C3F80825C3F81015C0
:1018CC00242303FB08F3EA18C2F804902269EA50B7
:1018DC00B9F1000F2BD03068227F4FF48871FFF7DD
:1018EC00E9FE4FF49071FFF7E5FE4FF49271FFF7AC
:1018FC00E1FE4FF4A271FFF7DDFE4FF4AC71FFF780
:10190C00D9FE1A4BC0F8043340F3073153010029B8
:10191C00C0F30730DBB21BDB154A541884F80033D4
:10192C000123490900F01F00834042F8213033683D
:10193C000822C3F80025242303FB08550023C5E91E
:10194C0006336B61012385F820303846BDE8F883F7
:10195C00084A00F00F001354E9E70827F5E71127B0
:10196C00F3E700BF90010020F116000010034200C5
:10197C0000E100E014ED00E0F8B5444C05792423B7
:10198C0003FB054302465B680068ABB1404BC0F8F3
:10199C00083340F30733002B4FEA10360CDB06F00C
:1019AC001F065B090121B14020333A4E46F8231043
:1019BC00BFF34F8FBFF36F8FD0F8003223F02003AB
:1019CC00C0F80032242303FB05439B692BB14FF471
:1019DC00A271FFF76FFE012343604FF4AC71FFF768
:1019EC0069FE0123C360242303FB0543D0F858117F
:1019FC000029FBD0996919B1D0F844110029F5D010
:101A0C000023C0F800351368D3F80C75D3F81465AF
:101A1C00D3F80825D3F810154FF0FF3C6745C3F8F1
:101A2C000CC518BF07F5E077C3F814C5C3F808C593
:101A3C00C3F810C51EBF4FF0A0434FF0020C43F883
:101A4C0027C0771C1FBF4FF0A04306F5E076022796
:101A5C0043F826704E1C1FBF01F5E0714FF0A043F8
:101A6C00022643F82160531C1FBF4FF0A04302F520
:101A7C00E072022143F82210FFF7BCFB242303FB86
:101A8C000544002384F820306360F8BD90010020E9
:101A9C001003420000E100E00279044B242101FB19
:101AAC0002335869003818BF01207047900100209C
:101ABC0001F06043B3F1005F2DE9F047074688461B
:101ACC0092463AD190F80490FFF7E6FF04460028BE
:101ADC0035D11D4E3A68242505FB09654FF49071EC
:101AEC001046C5F814A0C5F80880FFF7E3FD4FF4C5
:101AFC00AC71FFF7DFFD6B69A968C2F84415C2F839
:101B0C004835012393606B68DBB9D2F82031D2F8E9
:101B1C0058011BB90028F8D00F2007E00028FBD192
:101B2C000123D360D2F85831002BFBD0242303FBC4
:101B3C00096600237361BDE8F0871020FBE71120D4
:101B4C00F9E72046F7E700BF9001002010B5C1B2BD
:101B5C000020034621FA03F2C3F1070402F001024C
:101B6C000133A240082B40EA0200F3D110BD000063
:101B7C00F8B5424C07230026C4F80C65C320C4F802
:101B8C000835C4F81065FFF7E1FF0746C220FFF7E0
:101B9C00DDFF0504C120FFF7D9FF45EA07650746BD
:101BAC00C020FFF7D3FF054345EA0725C4F82455A9
:101BBC00C720FFF7CBFF0746C620FFF7C7FF05047A
:101BCC00C420FFF7C3FF45EA07652843C4F828057E
:101BDC000120FFF7BBFF074640F22310FFF7B6FFCB
:101BEC0005042748FFF7B2FF45EA07650746254875
:101BFC00FFF7ACFF054345EA0725C4F81C558920BF
:101C0C00FFF7A4FF074648F6AB10FFF79FFF05044C
:101C1C001D48FFF79BFF45EA076507461B48FFF782
:101C2C0095FF0543012345EA0725C4F82055C4F860
:101C3C002C65C4F83035164BC4F81465C4F8183547
:101C4C000223C4F83435D4F8343503F00303022BE3
:101C5C0007D14FF6FF73C4F83C350E4BC4F838353A
:101C6C00F8BDD4F8343503F00303012BF8D1FF236E
:101C7C00C4F83C3540F20713F0E700BF00100040F9
:101C8C004523010067452301CDAB8900EFCDAB891E
:101C9C000101040121100100C30710B507D4F02382
:101CAC00054A4008145C23401943115410BD090126
:101CBC00C9B20F23F4E700BFC801002030B5094BAF
:101CCC001C78094B196800239C4202DC0022104648
:101CDC0030BD11F83350854201EBC302F7D001330C
:101CEC00F2E700BFB4010020D801002013B5044670
:101CFC000191FFF7E3FF38B143682BB101992046FE
:101D0C0002B0BDE81040184702B010BD034B0448A8
:101D1C0019680022490800F041BA00BFB801002040
:101D2C006800002010B5C0B2FFF7C8FF0446007869
:101D3C00FFF78EF963785A1E53425341834208D100
:101D4C00044AD2E90032134303D1BDE81040FFF737
:101D5C00DDBF10BDC001002038B5344A430804462D
:101D6C00D35CC2074CBF1B0903F00F030D46042BB9
:101D7C005AD8DFE803F003222B373A00002953D05E
:101D8C000121FFF789FF002000F048FB0122A4F19C
:101D9C002003C4F12000264922FA00F002FA03F3D2
:101DAC000343A240D1E9004014431843C1E9004069
:101DBC00BDE83840002000F033BB003918BF0121CA
:101DCC0049002046BDE83840FFF766BF41B103210A
:101DDC00FFF762FF20460121BDE83840FFF786BFC0
:101DEC000121EEE701BB0421EBE709B10321E8E790
:101DFC00FFF752FF29462046FFF778FF284600F0F0
:101E0C000DFB0122A4F12003C4F12000084922FAA1
:101E1C0000F002FA03F30343A240D1E9004024EAA4
:101E2C00020420EA0300C1E738BD00BFC80100204E
:101E3C00C00100202DE9F041124E134F00243378DD
:101E4C00A34208DC114AD2E90032134318D0BDE892
:101E5C00F041FFF75BBF3D6805EBC40815F8340093
:101E6C00FFF7F6F898F801305A1E53425341181AEE
:101E7C004142414115F83400FFF76EFF0134DEE7B3
:101E8C00BDE8F081B4010020D8010020C001002081
:101E9C00092AF7B505460C4616463ED9FFF712F847
:101EAC00E8B11F4B1F481D601F4B204F1C70204B6F
:101EBC00002110221E6001F0A1FE1E4B002000210B
:101ECC00C3E90001013CE4B20326FF2C0DD11A4AF0
:101EDC001A48002103B0BDE8F04000F04DB9FEF700
:101EEC00B9FF0028DDD003B0F0BD9DF8063015F821
:101EFC0034008DF8046005EBC40223F007038DF861
:101F0C00063001A993788DF805303A46FEF7E4FFC8
:101F1C00013CE4B20028D8D0E5E70720E3E700BF96
:101F2C00D8010020C8010020B4010020311D0000A0
:101F3C00B8010020C0010020411E000054450000E3
:101F4C0070B5084D084E00242B789C4201D300201C
:101F5C0070BD3368012113F83400FFF735F80134F4
:101F6C00F2E700BFB4010020D80100201FB500210A
:101F7C00039001AA44F20100CDE9011100F004F82C
:101F8C0005B05DF804FB000038B572B601F0A4FA98
:101F9C0001F030F90028FBD1104B114C114D1249B6
:101FAC00E41AE408240444F0010001F065FAD5F8C1
:101FBC00F030DB0700D500BE0C4944F0020001F004
:101FCC005BFABFF34F8FEA68094B02F4E0621343EC
:101FDC00EB60BFF34F8F00BFFDE700BF084400006C
:101FEC002844000000ED00E0584500006445000066
:101FFC000400FA0510B5D0E90242D1E90203A0426F
:10200C0093412CBF0120002010BD000008B50A48E8
:10201C0000F023FB094AD2E90031C018084BD3E980
:10202C00002341F10001904271EB030303D210F144
:10203C00807041F1000108BD88000020E001002003
:10204C005802002037B505460C460A4801A900F095
:10205C0038FB60B10570446001A9064800F05BFBD9
:10206C0018B1054800F0FEFA002003B030BD042082
:10207C00FBE700BF4402002088000020234B70B512
:10208C001E78044616B90026304670BD0028FAD0DA
:10209C00FFF7BCFFD4E90223904299412FD30020D3
:1020AC0000F0BCF923692BB94FF0FF324FF0FF332E
:1020BC00C4E90223002000F0B3F9D4E905309847B5
:1020CC00002000F0ABF925696DB1D4E90212B2F130
:1020DC00FF3F08BFB1F1FF3F0FD0691842F100027A
:1020EC00C4E902123546002000F09AF9002DCAD03E
:1020FC000748214600F075FEC6E70025F3E7B3F16B
:10210C00FF3F08BFB2F1FF3FBDD0F1E7E80100206F
:10211C008045000013B5114B114918680190082334
:10212C001048582200F0BAFA044698B90E4A0F48E3
:10213C0001A900F085F9044660B90C48012100F0B2
:10214C006FFA01230A4A0948194600F0D1F9094BE4
:10215C0001221A70204602B010BD00BF7C45000061
:10216C00EC010020440200204D22000088000020D9
:10217C00FFFF7F00E801002030B56AB103684FF023
:10218C00FF344FF0FF355A614A1E5142C3E90245F4
:10219C0051411961002030BD0720FCE7F8B5044619
:1021AC00002017460D4600F039F9D4E90223B3F1AB
:1021BC00FF3F08BFB2F1FF3F15D1FFF727FF2818EB
:1021CC0041F10001C4E902010126002000F028F9C8
:1021DC005EB12369A76103B1256121460020BDE8EA
:1021EC00F840FFF72FBF0026EFE73046F8BD38B5B3
:1021FC000446002000F012F9D4E90223B3F1FF3FAA
:10220C0008BFB2F1FF3F1FBF4FF0FF324FF0FF335B
:10221C00C4E90223012508BF0025002000F000F9C5
:10222C002DB121460120BDE83840FFF70BBF2846F1
:10223C0038BD0000014800F010BA00BF8800002033
:10224C002DE9F743064600F0F3F940B1624AD2E9B2
:10225C00003113F1807341F10001C2E9003100211A
:10226C00304600F0F4F938B15C4C236823B1206897
:10227C00FFF704FF002323600121304600F0E7F94B
:10228C0020B1FFF7C3FE564BC3E900015548534C30
:10229C0001A900F050FA4FF0FF384FF0FF39A0B908
:1022AC00DFF844814D4D404600F0B1FD002800F0B0
:1022BC008580D0E90223B3F1FF3F08BFB2F1FF3FA5
:1022CC0032D1404600F09DFDEDE70378012B20D084
:1022DC00022B08D1444D284600F093FD002877D0FE
:1022EC00C0E90289F7E75BB94168D1E90223B3F190
:1022FC00FF3F08BFB2F1FF3F02D03B4800F071FD39
:10230C0001A9384800F042FA01A9364800F013FA46
:10231C00C5E741682368994202D100232360EFE7A7
:10232C00314800F077FDEBE7296891B12968D1E9D4
:10233C00020182428B412FD22B68D3E90223B3F1E5
:10234C00FF3F08BFB2F1FF3F03D02968404600F0C1
:10235C0048FD404600F055FDD0E902490746FFF71D
:10236C0055FE201A69EB0101012871F1000918DBF7
:10237C00B0F5350F13D3FFF75DFF1C4A02441C4820
:10238C004FF49603002100F0D3F890B92B6813B9E1
:10239C00304600F0A5F82F6003B0BDE8F08322466C
:1023AC00EDE71348002100F048F93846FFF766FEC8
:1023BC0001E00D28F9D000232B6074E7074B1B6854
:1023CC00002BE9D1304603B0BDE8F04300F08CB8E7
:1023DC00084B01221A7093E7E001002060020020F4
:1023EC00580200204402002080450000FFFFB4008A
:1023FC0088000020E801002072B6024A13680133FD
:10240C001360704764020020034A1368013B136099
:10241C0003B962B6704700BF64020020FFF7ECBF3F
:10242C00FFF7F2BF435882B03BB1002343504358EF
:10243C000193019B012002B070471846FBE7000096
:10244C00F8B51F4B44791F4E43F824201E4A1F4BEE
:10245C0006EBC4049B1A2279DB081B0432B143F04F
:10246C0002001B4901F008F80820F8BD02680C882E
:10247C00C2F8084590F904508A7804795201002D6D
:10248C00D2B218DB13494F1987F8002301226D09CA
:10249C0004F01F04A24041F82520427906EBC2014A
:1024AC00012446F832000C7143F003000A4900F095
:1024BC00E3FF0020D9E7094904F00F040A55ECE7C3
:1024CC00700200206802002008440000384400001C
:1024DC008C45000000E100E0AE45000014ED00E08A
:1024EC00036801221A607047036801225A60704722
:1024FC0073B501F15005AD000068ADB24FF48034F6
:10250C008C400026C0F80843C0F84843465101F5FA
:10251C00A8714559019522F07F42019D40F8212078
:10252C00C0F844430BB1C0F8044302B070BD0000C6
:10253C002DE9F74F0D4622F07F4402684FF48037A7
:10254C0005F150068F408046B60002EB8500C2F8BC
:10255C004873B6B2C2F80873D2F8041599464FF016
:10256C00000BD0F84035C0F8401542F806B05B1AA5
:10257C009259009223F07F43012B009A4FEA850A6F
:10258C000CD1264B4FF4806043F001039847D8F8E8
:10259C00003043F806B09B590193019BD8F80020FA
:1025AC00D2F80465C2F84473A31B23F07F43012BBC
:1025BC001CD11A4B05F5A875013443F0010342F800
:1025CC0025404FF480609847D8F80030D3F8043594
:1025DC009E4209D1D8F800300020C3F84473C3F8E8
:1025EC00047303B0BDE8F08F0D20FAE79244C9F1F3
:1025FC00FF13CAF84045D2F80405211A013921F01D
:10260C007F4103F57F438B42EED30029E2D10134A5
:10261C00CAF84045D2F804359842DAE7C0450000C4
:10262C0003680222C3F8442309B1C3F8042370479A
:10263C0000684FF48271FFF7F5BE4FF4803303FA54
:10264C0001F10368C3F84813C3F8081370475031FD
:10265C008900006889B2FFF7E5BE0368D3F804056A
:10266C007047000090F90430002B09DB5A09012156
:10267C0003F01F03994002F14003024A42F8231071
:10268C00704700BF00E100E0024B034A1B68106872
:10269C00184700BF700200206802002010B561B11D
:1026AC00B2FBF3F403FB1424A4B244B9C0E9001444
:1026BC0084608281C381204610BD0E20FCE7092076
:1026CC00FAE737B550E8013F9DB2C48925448489A7
:1026DC00A54228BF2D1B0489A54202BFBFF32F8F33
:1026EC00002207E0C5EA030540E80154002CE9D1BB
:1026FC004FF001028DF803200193019A0A609DF8B6
:10270C00031001F0FF0321B1006810FA82F003B04E
:10271C0030BD1846FBE70A884B889A4209D150E82D
:10272C00012FC2EA024240E80123002BF7D101201D
:10273C0070470020704737B550E8023F1FFAA3F5E9
:10274C00C488A54202BFBFF32F8F00220DE0C489BD
:10275C0025448489A54228BF2D1BC3EA054540E8C2
:10276C000254002CE8D14FF001028DF803200193A4
:10277C00019A0A609DF8031001F0FF0321B1006873
:10278C0000EB124003B030BD1846FBE70A884B88BB
:10279C009A4209D150E8022FC2EA224240E80223B1
:1027AC00002BF7D1012070470020704710B503466D
:1027BC0053E8000F0A4643E8002494F0000FF7D1C9
:1027CC0010BD10B5034653E8002F42EA010043E860
:1027DC00000494F0000FF6D110BD10B5034653E879
:1027EC00000F00EA010243E8002494F0000FF6D138
:1027FC0010BD10B5034653E8002F02EB010043E86F
:10280C00000494F0000FF6D110BD10B5034653E848
:10281C00002FA2EB010043E8000494F0000FF6D166
:10282C0010BD0121FFF7CDBF0021FFF7D6BF10B5BA
:10283C0090B1D0E9012301689B1ADBB20A60013B1D
:10284C00DBB2FF2B026802D10020107110BD1168A1
:10285C004C1C14600B70F2E70E20F7E738B50446F9
:10286C000020FFF7DBFD2268616813688B4213D9E7
:10287C00591E116013F8013C208AE56800FB0355D2
:10288C00A3685B1A1179DBB2994200D21371002054
:10289C00FFF7C6FD284638BD0025F8E738B50546D4
:1028AC0000200C46FFF7BAFD2A681368591C11600A
:1028BC00EA68A41A2A8AB4FBF2F41C70BDE838400A
:1028CC000020FFF7ADBD826810B504462AB14369FC
:1028DC000168006998470023A36010BD0EB403B5CE
:1028EC00039921B104AB01AA019300F077F802B06F
:1028FC005DF804EB03B070470A2938B504460D4661
:10290C0002D10D21FFF7F8FFA3682268591CA160C2
:10291C00D554D4E901329A4204D32046BDE838405C
:10292C00FFF7D1BF38BD00002DE9F84F9846DDE91F
:10293C000A43154682460F460A464FF00109AA4241
:10294C000FD2C14538BFC14613F0010B01D16CB990
:10295C0000240126B8F1010F1BD908F1FF386E4392
:10296C00F8E709F10109B2FBF5F2E8E79B070ED590
:10297C00B8F1000F0CBF30262026A145E9D2013C4E
:10298C0031465046FFF7B8FF002CF6D1E0E7202681
:10299C00F3E7B7FBF6F39D42E1D9DFF83C80B7FBD8
:1029AC00F6F3504618F8031006FB1377FFF7A4FF55
:1029BC003346AB42B6FBF5F6F1D2BBF1000F02D0B9
:1029CC000CB1A14501D3BDE8F88F20215046013C44
:1029DC00FFF792FFF4E700BFC64500002DE9F74F63
:1029EC00054617468846002900F03E8118F8011B61
:1029FC0049B92B7B002B00F03781284603B0BDE88A
:102A0C00F04FFFF760BF252940F0B780002698F8FB
:102A1C0000302D2B424608F1010823D0302B24D056
:102A2C002B2B25D000242A2B02F1010123D13B684A
:102A3C001A1D1B683A601C440A4613782E2B26D1AB
:102A4C0001324FF0000A104610F8011BA1F1300CB6
:102A5C00BCF1090F1DD80A2303FB0A11A1F1300A9E
:102A6C000246F0E746F00106D1E746F00206CEE753
:102A7C0046F00406CBE711F8013CA3F1300009281D
:102A8C00DBD80A2202FB0434303C0A46CBE74FF079
:102A9C00000A12F8011B01F0FB0068289046F8D0E0
:102AAC00782909D86F290CD8632962D022D8252916
:102ABC0063D0582900F0888098F80030002B95D10D
:102ACC0097E770390829F7D801A252F821F000BF16
:102ADC004F2C0000C52A0000C52A0000E52B000081
:102AEC00C52A0000C32B0000C52A0000C52A00001F
:102AFC00D52B0000642901D06929DDD13A68D2F8C0
:102B0C000090111D89EAE9723960A2EBE9724FF06D
:102B1C00010B092A35DCD34538BFD3462CB1B9F1AA
:102B2C00000F01DB720700D5013CB30702D5BAF1E7
:102B3C00000F03D0F00701D44CBB0024B9F1000FF7
:102B4C002DDAC9F100092D212846FFF7D5FE06F034
:102B5C000302022A04D1BAF1000F01D11CBB0024DC
:102B6C00CDE9004653460A2249462846FFF7DCFECB
:102B7C00A2E73B681A1D19783A602846FFF7BCFE9D
:102B8C009AE70A230BF1010BB2FBF3F2C1E7A34561
:102B9C00D4D220212846013CFFF7AEFECCE77107CA
:102BAC00D5D52B21D0E7A345DAD230212846013CDC
:102BBC00FFF7A2FED2E73968CDE900460A1D3A605C
:102BCC0053460A220968D0E739680A1D3A60CDE9F4
:102BDC00004653461022F5E73B681A1D3A6016F082
:102BEC000106D3F8009024D1B9F1000F03D0484668
:102BFC0000F09EFF0646B4421DD809F1FF3919F8C2
:102C0C00011F00293FF458AF2846FFF775FEF6E781
:102C1C0028460136FFF770FE19F806100029F7D187
:102C2C00A642BFF449AF20212846013CFFF764FEC1
:102C3C00F6E70026F0E720212846013CFFF75CFE72
:102C4C00D9E73B681A1D3A60302128461C68FFF70B
:102C5C0053FE78212846FFF74FFE00220823CDE9CA
:102C6C0000322146102280E703B0BDE8F08F00BF90
:102C7C002DE9F84FB0F806A04579D2F800B09DF8D0
:102C8C0028900AFB05F5043D88460BEB0301A9428D
:102C9C0003F1040488BFA5EB030BB4FBFAF607465B
:102CAC000AFB1644C2F800B04EB9AAEB04055D4508
:102CBC0028BF5D46BBF1000F04D1BDE8F88F3F681B
:102CCC00013EF1E7043408EB06003C442A46B9F116
:102CDC00000F0DD02146ABEB050B00F059FFDA4588
:102CEC002E443F6855464FF0000428BF5D46E1E78F
:102CFC0001462046EFE7FFF79ABDF8B54679014645
:102D0C00721E0546002393422D6803D30024A6426D
:102D1C0002D8F8BD0133F6E70F682846FFF7BEFD71
:102D2C0001343946F3E72DE9F843068ACD1C0746F2
:102D3C00FFF794FD043E35440446B5FBF6F5F0B1BF
:102D4C004FF48073EDB28380C680013D07608146ED
:102D5C004FF00008A84512D23846FFF77FFD064613
:102D6C0048B163790133637108F10108C9F80000B7
:102D7C0007608146EEE72046FFF7BFFF344620464A
:102D8C00BDE8F88301210430FFF733BD10B50121F4
:102D9C0004460430FFF739FDC0B220B92046BDE827
:102DAC001040FFF7AABF10BD1FB50392002200927E
:102DBC0003AAFFF75DFF05B05DF804FB1FB5039296
:102DCC000122009203AAFFF753FF05B05DF804FB44
:102DDC00836800225A60C3E904229A60DA601A60A0
:102DEC00704770B5446806460D46206818B1B36844
:102DFC002946984718B923682B60256070BD246854
:102E0C00F3E74368186808B102681A6070474368B2
:102E1C00186870474368186800B97047884203D136
:102E2C0002681A600120704703460068F4E7F0B5A9
:102E3C0095B01D46164608460C46FFF7A3FF1A9B95
:102E4C000D93CDE9086500252B46082205A92046DF
:102E5C000A958DF82C500C95FFF7B0FF079B029349
:102E6C00069B03939DF814308DF8115003F0030268
:102E7C00012A1DD1BDF81420059DC3F3C203C2F372
:102E8C0083168DF81030B20008230EA92046FFF7E8
:102E9C0095FFC5F3952508AB0093324602AB0EA9FE
:102EAC00284600F08DFB2046FFF770FF15B0F0BDF3
:102EBC00022AF8D1BDF81650C3F3C203C5F3891525
:102ECC008DF810300827082D2E4628BF08263B46C3
:102EDC0032460EA92046FFF771FFAD1B08AB02AAC4
:102EEC0031460EA8374400F0CFFB002DEBD1DAE7CA
:102EFC00014B01221A707047B50200207047000088
:102F0C0070B50E4D06460FCD88B06C460FC495E8D3
:102F1C000F00002E84E80F00094A0A484FF01D03E9
:102F2C0008BF002269460093FDF72CFF08B1FFF79C
:102F3C001DF8054B1E7008B070BD00BFE0450000C9
:102F4C00FD2E0000900000207402002007B5044BF9
:102F5C000093044A4023FFF76AFF03B05DF804FBBB
:102F6C00752F00007502002038B50D480D4C0E4D24
:102F7C00002323700378EB5CD2B263B10430FEF70C
:102F8C0097FD08B1FEF7F2FF084B1A7812B12378BF
:102F9C00002BFBD038BD0C30FEF740FBF1E700BF37
:102FAC0090000020B5020020FC00002074020020DC
:102FBC0008B50848084A0378D35C3BB10430FEF7E7
:102FCC00DBFCBDE808400020FFF79ABF0C30FEF791
:102FDC00AFFAF6E790000020FC0000200120FFF77C
:102FEC008FBF000008B5FFF7F9FF0448042100F07B
:102FFC0051FA034B01225A7108BD00BF484400002E
:10300C00A4000020027812F0040316D002F003038F
:10301C00012B03D0022B09D0012070470A680088CD
:10302C000232C0F3831002440A60F5E70B68428851
:10303C00023303EB92130B60EEE718467047000067
:10304C002DE9F04F414C884685B00546871C002081
:10305C001646FFF7E3F96268C8F80020A36803F589
:10306C0080739B1A04F21C4804F5836A04F2144919
:10307C00BB4217D30021002E63D005F00F05AD0124
:10308C0045F0050565F30F016368DAB203323B4482
:10309C00002044F822106360FFF7C2F9012005B04C
:1030AC00BDE8F08F01214046FFF7A3FB5046FFF728
:1030BC00B8FB4846FFF7B5FBA0680090C0B20330E0
:1030CC0004EB80006946FFF79DFF20BB009BDAB242
:1030DC0004EB8202D16801919A1C0133DBB204EB40
:1030EC0083030092D3F80CB001F00303012B20D022
:1030FC00022B13D083464846FFF796FB08B1009B82
:10310C00A36059464046FFF774FBA368626803F559
:10311C0080739B1AACE79DF80000D0E7BDF8063031
:10312C00C3F3891303334FEA1B4B02EB9303009356
:10313C00E1E7BDF80430C3F383134FEA1B4B134490
:10314C00F5E7AD0545F006019EE700BF88030020BA
:10315C00064B074810B500221A70FFF7CCFD044649
:10316C0010B90448FFF734FE204610BD8803002038
:10317C00584400003446000030B50A4C71B10A4A7C
:10318C000A49121BD20800239A4201D1002030BDFB
:10319C0031F82350854202D00133F5E7034654F849
:1031AC003300F4E70844000048440000000000200D
:1031BC00094B013903EBC000032909D8DFE801F002
:1031CC000A02040604207047007970474079704762
:1031DC000020704702207047084400007047000030
:1031EC00034BD3E90130C31A58425841704700BF12
:1031FC00880300202DE9F04385B0FFF7F1FF054669
:10320C00002840F0E280724CC4F81804BFF34F8FD2
:10321C00A3680093DBB2033304EB83006946FFF72A
:10322C00F1FE009B18B1D4F81824002A5CD0DAB255
:10323C009F1C013304EB8202DBB204EB8303D268E4
:10324C00DB68029302F00303022B0192009756D124
:10325C00BDF806305F48C3F389184646502E28BF88
:10326C00502666F38F1306F10801ADF80630FFF710
:10327C005AFD0546002800F09380FFF783FD0023DC
:10328C0001A908222846FFF78FFDFB43DBB201336F
:10329C00F9B20331B6EB830F4FEA830904EB8101DA
:1032AC002AD908234A46A6EB09062846FFF77CFDD7
:1032BC00F6B2494909F10803324608F103082846D9
:1032CC0007EB9807FFF770FD0097D4F81834D4F883
:1032DC001064002B53D02846FFF758FDFFF780FFF2
:1032EC0080F00100C5B203E062689A4292D8A260F5
:1032FC00284605B0BDE8F08308233246DDE7012BF4
:10330C004ED1BDF804303348C3F38311062928BFCE
:10331C00062161F38913023101F00F018900ADF828
:10332C000430FFF700FD0546002839D0FFF72AFDD1
:10333C000023082201A92846FFF736FD0026BDF818
:10334C000420C2F38312B300964203F10803BCD2EB
:10335C0000994A1CC9B20331009204EB810104228A
:10336C002846FFF721FD0136E9E7F3685B7923B1C5
:10337C00336829461B6830469847F3681E68002E50
:10338C00F3D12846FFF702FD3046FFF747F8D4F893
:10339C0018340BB9009BA3600020FFF741F89DE7A0
:1033AC00D4F8104454B90D4B0D480E49C01AC0083E
:1033BC00000440F0020000F05FF88FE7236820461D
:1033CC009B689847E3681C68ECE7002590E700BF12
:1033DC008803002058440000940300200844000097
:1033EC00284400001D4600002DE9F34704460E4614
:1033FC00924601A9012218469946FFF721FE1C4F5F
:10340C0010B3019D4FF00008AA1CC84508EB02013F
:10341C0025D118480021FFF7C9F980F310000004EA
:10342C0040EA1440E4006B1C04F03804DBB2EDB24B
:10343C0044F0010407EB8303033544EA881444EA9F
:10344C008624D86047F825403B781BB1FFF7D2FEA5
:10345C000028FBD1FFF7C2FE02B0BDE8F087C9B26D
:10346C0007EB81015AF82830CB6008F10108CCE752
:10347C0088030020A407002000231A46FFF7B4BFDE
:10348C0007B50123019201AAFFF7AEFF03B05DF867
:10349C0004FB000030B50F4CD4F810240023114667
:1034AC0039B9C1680B7152B9C4F810040A601846D6
:1034BC0030BDC9680D799D4206D00968F0E7D26825
:1034CC0014680C601060F2E701330A2BE7D14FF05F
:1034DC00FF33ECE78803002038B5084B0125D3F8FF
:1034EC0010441D7004B938BDE3685D712368204633
:1034FC005B689847E3681C68F4E700BF880300200A
:10350C0007B503460846197A052911D05B7A2BB109
:10351C00094A0A490190FFF7E1F90198084901901D
:10352C00FFF7DCF9019803B05DF804EBFFF7CBB9BA
:10353C00002AF8D0F2E700BF4046000045460000E4
:10354C006546000030B5C38885B004460D4633B1DE
:10355C00144A00921449154A2846FFF7BFF9217AFC
:10356C0005291DD0637A4BB1A088FFF721FE104BC3
:10357C00104953F820202846FFF7B0F9227A0E4B59
:10358C00A08853F8222003920021FFF7F5FD039A3F
:10359C000A490346284605B0BDE83040FFF79EB9FE
:1035AC0005B030BD404600005046000048460000C3
:1035BC00CC46000045460000F0460000684600007E
:1035CC002DE9F04385B01F460C9D002395F80C9017
:1035DC002B7306460C46904629463846FFF7B2FF39
:1035EC00B8F1060F09D8DFE808F00412181F2833C9
:1035FC00400031462846FFF771F90022294638462B
:10360C00FFF77EFF85F80C9005B0BDE8F0832268CB
:10361C0031462846FFF762F9EFE7D4E9002331463B
:10362C002846FFF75BF9E8E7A36800933146D4E935
:10363C0000232846FFF752F9DFE7E3680193A368FC
:10364C0000933146D4E900232846FFF747F9D4E725
:10365C0023690293E3680193A36800933146D4E98C
:10366C0000232846FFF73AF9C7E7636903932369F8
:10367C000293E3680193A36800933146D4E90023D5
:10368C002846FFF72BF9B8E708292DE9F74F8046B4
:10369C000E4617461C463DD800251B7B257321463C
:1036AC0010460193FFF74EFFDFF88CA0DFF88CB0CB
:1036BC00AE4232D918F8052059462046FFF70EF9CC
:1036CC000135082DF4D11B49DFF874A0DFF874B074
:1036DC002046FFF703F94FF000094E4524D918F89E
:1036EC0009507E2D1ED8284600F0CEF9002814BFB4
:1036FC002A462E2259462046FFF7F0F809F1010917
:10370C00B9F1080FE9D1012221463846FFF7F8FE3E
:10371C00019B237303B0BDE8F08F51462046FFF7A1
:10372C00DDF8CDE72E22E5E751462046FFF7D6F827
:10373C00E4E700BF7C4600007846000072460000BB
:10374C007A4600007E4600000369C26893429CBF23
:10375C0081685B18013B981A70472DE9F041D0E95C
:10376C0002840546A8EB04064068964220440F46A6
:10377C00144404D900F00CFAEC60BDE8F081324638
:10378C00A4EB080400F004FA68682246B919F1E7C2
:10379C002DE9F843C5680646894617464FF00008E0
:1037AC003369B46870689D4228BF1B19641BBC4206
:1037BC0003F1FF3328BF3C465B1B9C4228BF1C46D1
:1037CC0049462844224600F0E3F9B3682544AB424D
:1037DC0008BF00253F1BA044A144F560E0D1404642
:1037EC00BDE8F88310B5114C114AA2610223C4E95B
:1037FC000433104BE361A2644FF400730E4A0F497B
:10380C002362E26400231022E01DA3626362E36280
:10381C00A3656365E365226500F072F908492046EB
:10382C0000F06EF92023A37110BD00BF40080020EA
:10383C0004470000C8080020B80800200D4700000D
:10384C0011470000F8B5184B182400FB044504FB85
:10385C0000300F46C46A012C16461D440FD0022CB2
:10386C001AD0F4B92846FFF76FFF864205D83246C6
:10387C0039462846FFF771FF34462046F8BD2846E6
:10388C00FFF762FF8642344628BF0446224639467B
:10389C002846FFF762FFF0E72846BDE8F840FFF73F
:1038AC0077BF0024E9E700BF4008002070B50B4B40
:1038BC001B7804460D4616460BB9FFF793FF002004
:1038CC00FEF7ACFD324629462046FFF7BBFF044607
:1038DC000020FEF7A5FD204670BD00BF400800206B
:1038EC00002B35D129B9B0FBF2FC0CFB120260465F
:1038FC007047914215D22DE9F041B2FA82F39A4009
:10390C009940D3F1200C30FA0CFC51EA0C01984090
:10391C0000F04EF8280036FA03F200210023BDE82F
:10392C00F081F0B5B1FBF2FC0CFB1211B2FA82F390
:10393C009A409940D3F1200630FA06F6314398406C
:10394C0000F036F8614628003200DA400023F0BD62
:10395C00F3B5B3FA83FC49085FEA300013FA0CF3B1
:10396C00DCF1200432FA04F423430CB41A0000F006
:10397C001FF80CBC33FA0CF3DCF11F0C35FA0CF508
:10398C0018BF013D03BCA5FB026705FB0377801B39
:10399C00B941904271EB030C05D3821A71EB03030E
:1039AC00681C0021F0BD02000B0028000021F0BDB6
:1039BC00940D4FF6C2752D02B5FBF4F4D60A013600
:1039CC0004FB04F5A5FB0656F64306EB0416550856
:1039DC0032BF00277708013505FB1677A6FB074792
:1039EC007F0807EBC63714001500E7FB02457F1B69
:1039FC004D1C0400E7FB014505FB1206A64284BFE3
:103A0C00013DB618964224BF0135B61A704700BF67
:103A1C0040F6C821C2F200010868002802BF40F23B
:103A2C00AC00C2F2000008607047002A04BF0020FE
:103A3C0070478446097848B2002844BF6FF00100F3
:103A4C007047BCF1000F18BFCCF800100021C3E97F
:103A5C000011002818BF012070477F298EBF6FF01E
:103A6C00010001700120704740F6C822C2F200022A
:103A7C001368002B02BF40F2AC03C2F200031360C8
:103A8C005A689268126810470921FFF7EDBF7F282A
:103A9C0084BF0020704744F62C12C0F20002515C27
:103AAC0044F6AC02C0F20002105C08407047A0F172
:103ABC0061011A2938BF20387047A0F141011A2939
:103ACC0038BF203070477F2884BF0020704744F6F1
:103ADC002C12C0F20002515C44F6AC02C0F200029F
:103AEC00105C08407047A0F161011A2938BF2038DA
:103AFC007047A0F141011A2938BF203070470000EF
:103B0C000246F0B44FF00137FB0151F8044BE51BB2
:103B1C00A5431D4002D142F8044BF6E70439F0BC32
:103B2C0011F8013B02F8013B002BF9D1704700BFA3
:103B3C00411C82070CD010F8012B3AB3820707D036
:103B4C0010F8012B12B3820702D010F8012BEAB146
:103B5C004FF0013C50F8042BCCFA52F37BB950F8DF
:103B6C00042BCCFA52F353B950F8042BCCFA52F381
:103B7C002BB950F8042BCCFA52F3002BEAD00438B2
:103B8C001BBAB3FA83F300EBD3000130401A704731
:103B9C0072B3844690EA01039B0721D1830709D0B5
:103BAC0011F8013B00F8013B013A20D08307F7D113
:103BBC0000E08446202A0AD32DE9F007B1E8F80783
:103BCC00A0E8F807203A202AF8D2BDE8F007042A2A
:103BDC0006D351F8043B40F8043B043A042AF8D2CB
:103BEC002AB111F8013B00F8013B013AF9D16046CA
:103BFC00704700BF00220B0011001A0084465AB314
:103C0C00830704D000F8011B013AF9D124E0C9B2B2
:103C1C0041EA012141EA0141202A11D3203A2DE940
:103C2C00F0030B460C460D460E460F468846894659
:103C3C00A0E8FA03203AFBD2BDE8F00320320BD007
:103C4C00042A05D340F8041B043A05D0042AF9D2FF
:103C5C0000F8011B013AFBD16046704700B5002902
:103C6C001CBF0278002A01D1002000BDD0F800E072
:103C7C000429034609D34FF0013CCCFA5EF222B979
:103C8C0053F804EF04390329F7D8181A4FF001320E
:103C9C00C2FA5EF292FAA2F2B2FA82F2B1EBD20F4F
:103CAC0088BFD108084400BD10B582B00446006935
:103CBC008DF8071078B1D4E900239A4231D26269A9
:103CCC00531C63618154D4E90501884229D12046F3
:103CDC0000F02CF825E0E06850B1D4E9002C6245E6
:103CEC001FD2531CB3EB0C0318BF0B46835418E0C4
:103CFC00A06858B1D4E9002C624512D2531CB3EB26
:103D0C000C0318BFCBB240F822300AE0236A43B14F
:103D1C00D4E90001884204D20DF1070120460122AA
:103D2C00984720680130206002B010BD10B5426980
:103D3C00002A08BF10BD0446036A002B1CBF216972
:103D4C0098470020606110BD70B5012AB8BF70BDE6
:103D5C000C460546561C28462146FFF7A5FF013E9A
:103D6C00012EF8D870BDCB0648BF704789054CBFF3
:103D7C0030212021FFF7E8BF70B514460D460646EA
:103D8C00FFF746FE014630462A462346BDE8704002
:103D9C0000F000B82DE9F04F03AF8DB047F83C3C74
:103DAC0091460E46044600F019FB0546EB460730DB
:103DBC0020F00700ADEB0008C546A7F1380A5046C5
:103DCC0000212422FFF71AFF43F60D60C0F2000019
:103DDC0047E907606FF0004047F8340C47F8144C83
:103DEC0047F8205C47F8288C5046494657F83C2C3D
:103DFC0000F022F8DD46A7F10C04A546BDE8F08FD3
:103E0C00436A0846012100F0B9BA83B000B582B00C
:103E1C000DF10C0C8CE80E0040F2C802C2F200024C
:103E2C000146106803AA0192FFF7A6FF02B0BDE895
:103E3C00004003B0704700002DE9F04F8DB00692A2
:103E4C008B460646002030600DF11E08A8F10104D7
:103E5C00049401961BF8011B252906D0002900F0BB
:103E6C0078823046FFF720FFF4E7002759461BF80D
:103E7C00012BA2F12003102B0DD88020DFE803F0DA
:103E8C00091B1B191B1B1B101B1B32131B151B1B8C
:103E9C00170040200DE05E2A0DD14FF4805008E051
:103EAC004FF4004005E0202003E0102001E04FF427
:103EBC0000700743DAE701F1010BA2F13000C0B248
:103ECC0009284FF0000019D81BF8011B00EB8000EB
:103EDC0002EB40003038A1F13002D2B20A2A0A4675
:103EEC00F2D30BE0069A52F8040B0692002844BF5A
:103EFC0047F0100740424A7801F1020B2E2A0DD1EF
:103F0C00594611F8012B2A2A0BD106999BF801204E
:103F1C0051F804CB06910BF1020B18E04FF0000C9A
:103F2C001EE0A2F13003DBB2092B4FF0000C14D8C9
:103F3C0011F8013B0CEB8C0B02EB4B02A2F1300C99
:103F4C00A3F13002D2B20A2A1A46F1D38B46BCF145
:103F5C00000F58BF47F4807702E047F480778B4618
:103F6C00A2F16801CBB2C90141EA5301C9B20929D6
:103F7C002AD8DFE801F00814172929290529290571
:103F8C001BF8012B20E0594611F8012B682A15D19A
:103F9C009BF801200BF1020B47F0080714E01BF80B
:103FAC00012B08E0594611F8012B6C2A09D19BF81A
:103FBC0001200BF1020B47F0020705E047F0040764
:103FCC0001E047F001078B4620EAE07A622A15DD12
:103FDC00A2F1630015283FF63DAFDFE800F0240C9A
:103FEC000B0B0B0B0C0B0B0B0B36434D0B0B5C0B1E
:103FFC006B0B0B172EE747F480475FE0252A00F088
:10400C00AA80582A40F0748147F40057F8054FEA0B
:10401C00076048BF27F40077782A43F2580108BF9D
:10402C0043F2780125E0DDF81890AAF1010599F822
:10403C000040304639462A46FFF795FE3046214669
:10404C00049CFFF731FE484678E1380700F15481B3
:10405C00B80706993068096852BF0860002205C18C
:10406C0006984EE1F8054FEA076048BF27F4007741
:10407C00302101EAE07322E03806232101EAE070E6
:10408C00059047F48077069A002152F8040B0692AB
:10409C004FF0080CC8E006980468002C04BF44F6E6
:1040AC005914C0F20004F805204600F12D81FFF7E9
:1040BC003FFD2CE1F80548BF27F40077002307F0FB
:1040CC0002007904059305D40028069809D1031D34
:1040DC0000210CE0A8B9069951F8040B0691C11700
:1040EC0017E0073020F0070000F108034168006872
:1040FC005FEA477915D417F008091CBFC0B200213C
:10410C0011E00698073020F00703596853F8080BA4
:10411C0006937B0709D43B0744BF40F3C01140B260
:10412C0006E080B2002106931CE040F3C03100B2DF
:10413C0000290ADBBB0613D47B06DDF8149048BFBC
:10414C004FF02009CDF814900CE00023404263EBB3
:10415C0001012D2305E030462521FFF7A5FD79E669
:10416C002B230593FB0548BF27F40077FB0558BFAD
:10417C004FF0010C00256E2A23DD6F3A092A00F25C
:10418C007580DFE802F005517373737324737351F8
:10419C0050EA01026AD0C20842EA41724FF00609A5
:1041AC00134669F3DF0008F80500013552EAD10027
:1041BC004FEAD1014FEAD20040EA41721846EFD1E2
:1041CC0054E0582A30D0642A18BF692A4ED150EADC
:1041DC0001024BD0CDE902ACC24607F400460C46B6
:1041EC0081463EB105F00300032802BF2C200AF8DB
:1041FC000500013548460A220023FFF771FB00EB4E
:10420C008002A9EB420242F0300208F80520013589
:10421C00D9F109024FF00002A241E0D3049C0DF148
:10422C00040C9CE8401421E0002550EA01021DD04A
:10423C00BA0444F63912C0F200025CBF44F64912CB
:10424C00C0F20002030943EA017300F00F0918469B
:10425C0012F8093008F80530013550EA11134FEA0D
:10426C0011114FEA101343EA0173EED1AAEB0500CA
:10427C000599FF2988BF013800290A4618BF012279
:10428C00801AACEB050222EAE279A0EB090AB80528
:10429C0007D4304639465246FFF765FD05994FF075
:1042AC00000AFF2904D9090A3046FFF7FDFC0599DD
:1042BC0000291CBF3046FFF7F7FC30463946524602
:1042CC00FFF751FD304630214A46FFF73DFD012DE9
:1042DC0005DB615D3046FFF7E7FC013DF9D8F806D8
:1042EC007FF5B8AD304620215246FFF72DFDB1E5E4
:1042FC00002A7FF4AFAD3BE0069A1068316801707C
:10430C00104604300690A5E56146FFF7A7FC8146F0
:10431C0027F40077AAEB0005304639462A46FFF70A
:10432C0022FDB9F1000F07D014F8011B3046FFF73E
:10433C00BBFCB9F10109F7D1049C06980430069036
:10434C00F8067FF587AD304620212A46FFF7FCFCA6
:10435C0080E5F06828B1D6E9001291423CBF0022FA
:10436C0042543046FFF7E2FC30680DB0BDE8F08FE8
:10437C003046FFF7DBFC4FF0FF30F6E7F8B51D4693
:10438C0017460C460646184600F010F8002803D4D1
:10439C0007FB04F2A24201D20020F8BD28463146A8
:1043AC0000F01EF8B0FBF4F0F8BD0000084B1B68E1
:1043BC0083420AD0074B1B68834206D0064B1B680E
:1043CC00181A18BF4FF0FF3070470020704700BF1D
:1043DC00C4000020C8000020C0000020402070470E
:1043EC000068FFF763BA00BF072904D90023024A0B
:0C43FC00C0E9003110607047D80A0020B2
:1044080030450000000000003745000000000000B3
:104418003B4500000000000040450000000000008F
:104428002E4600000000030346450000000000007F
:104438007145000000000000D645000000000000A3
:1044480000460000000000000C460000A400002008
:10445800B80200208003002088030020C00200204A
:044468001800000038
:10446C00427574746F6E2048616E646C6572005492
:10447C006865207061636B65742077617320736568
:10448C006E7400526164696F207472616E736D6931
:10449C0074746572206578616D706C6520737461DD
:1044AC00727465642E00507265737320416E7920AE
:1044BC00427574746F6E0054686520636F6E74651A
:1044CC006E7473206F6620746865207061636B6115
:1044DC00676520776173202575000D0E0F10111282
:1044EC00131400000D0003009D0600000E000300D5
:1044FC009D0600000F0003009D0600001000030045
:10450C009D0600000000002020000020400000203C
:10451C000000010101000000010100000000010188
:10452C00000000004750494F54450050525300556D
:10453C00415254005541525445006170705F627590
:10454C0074746F6E00000000680000204661746196
:10455C006C206572726F720053797374656D207282
:10456C0065736574006170705F74696D65720000CD
:10457C000100060000000000DC010020012000000A
:10458C0052544320696E7374616E636520616C7262
:10459C006561647920696E697469616C697A6564B6
:1045AC002E005254433A20696E697469616C697AC1
:1045BC0065642E000338FDD8704730313233343502
:1045CC0036373839414243444546736F72746C69CF
:1045DC0073740000FFFFFFFFFFFFFFFFFFFFFFFFF4
:1045EC00FFFFFFFF00000000000000000000D601EC
:1045FC0006010000592F0000BD2F0000092F0000FC
:10460C00756172745F6C6F675F6261636B656E641A
:10461C00004261636B656E647320666C75736865CC
:10462C006400617070000000A80700207F0000008B
:10463C00280800201B5B306D002573001B5B313B91
:10464C0033316D0025734C6F67732064726F70701B
:10465C006564202825642925730D0A003C25733ECA
:10466C002025733A200020253032780020202000AD
:10467C007C002563001B5B313B33306D001B5B31D1
:10468C003B33326D001B5B313B33336D001B5B31B5
:10469C003B33346D001B5B313B33356D001B5B31A1
:1046AC003B33366D001B5B313B33376D00776172EA
:1046BC006E696E6700696E666F006465627567008F
:1046CC004046000081460000484600008946000034
:1046DC009146000099460000A1460000A946000042
:1046EC00B1460000000000005E450000B946000025
:1046FC00C1460000C64600005465726D696E616C5F
:10470C00005254540053454747455200244700007B
:10471C005448000028470000430000009B3A00006A
:10472C00BB3A0000C73A0000D33A0000F33A00004D
:10473C00FF3A0000673A0000373A000053756E00EC
:10474C004D6F6E00547565005765640054687500B4
:10475C004672690053617400004A616E00466562DE
:10476C00004D617200417072004D6179004A756EA6
:10477C00004A756C0041756700536570004F637497
:10478C00004E6F760044656300002E000053756E7A
:10479C00646179004D6F6E64617900547565736462
:1047AC006179005765646E6573646179005468754E
:1047BC007273646179004672696461790053617443
:1047CC00757264617900004A616E75617279004698
:1047DC0065627275617279004D6172636800417037
:1047EC0072696C004D6179004A756E65004A756C92
:1047FC0079004175677573740053657074656D62EB
:10480C006572004F63746F626572004E6F76656DF2
:10481C0062657200446563656D6265720000414DAE
:10482C0000504D0000256D2F25642F25790025485B
:10483C003A254D3A25530025612025622025652017
:10484C002554202559000000964700009847000089
:10485C0098470000984700009847000098470000D0
:10486C0098470000984700009847000098470000C0
:10487C00FFFFFFFFFFFFFFFFFFFFFFFFFFFF00003A
:10488C009947000048470000D347000065470000E7
:10489C002A480000314800003A4800004348000014
:1048AC002020202020202020206828282828202094
:1048BC0020202020202020202020202020202020EC
:1048CC0048101010101010101010101010101010A4
:1048DC008484848484848484848410101010101044
:1048EC00108181818181810101010101010101019D
:1048FC000101010101010101010101101010101051
:10490C00108282828282820202020202020202026D
:10491C000202020202020202020202101010102015
:10492C000007032004170201085710408030313271
:10493C0033343536373839414243444546303132C9
:10494C0033343536373839616263646566286E7581
:04495C006C6C290056
:104960000000000000000000FFFFFFFFFFFFFFFF4F
:104970000000000000000000000000000000000037
:104980000000000000000000FFFFFFFFFFFFFFFF2F
:104990000000000000000000000000000000000017
:1049A0000000000000000000FFFFFFFFFFFFFFFF0F
:1049B00000000000000000000000000000000000F7
:1049C0000090D00300000000000000000000000084
:1049D000FFFFFFFFFFFFFFFF0000000000000000DF
:1049E0000000000000000000001001401100040061
:1049F00000000000002000400000000000200040F7
:104A00000000000000000000FF0000001847000048
:104A1000184700001847000018470000184700001A
:0C4A2000CC0A0020D00A0020D40A00209C
:0400000300000219DE
:00000001FF
